:1010000000000420E11200000913000099500000C4
:101010000D1300000F13000011130000000000006A
:10102000000000000000000000000000131300009A
:101030001513000000000000171300001913000032
:10104000358B00001B130000458B00001B130000B4
:101050001B1300001B130000F1830000C58B000070
:101060001B1300001B1300001B1300001B130000C8
:101070001B1300001B1300001B1300001B130000B8
:101080001B130000F52100001B1300001B130000C0
:10109000B92200001B1300001B1300001B130000EB
:1010A0001B1300001B1300001B1300001B13000088
:1010B0001B1300001B1300000000000000000000D4
:1010C0001B1300001B1300001B1300001B13000068
:1010D0001B1300001B1300001B1300001175000000
:1010E0001B130000A58B00001B1300000000000074
:1010F000000000001B130000000000001B13000094
:1011000000000000000000000000000000000000DF
:1011100000000000000000000000000000000000CF
:1011200000000000000000000000000000000000BF
:1011300000000000000000000000000000000000AF
:10114000000000000000000000000000000000009F
:10115000000000000000000000000000000000008F
:10116000000000000000000000000000000000007F
:10117000000000000000000000000000000000006F
:10118000000000000000000000000000000000005F
:10119000000000000000000000000000000000004F
:1011A000000000000000000000000000000000003F
:1011B000000000000000000000000000000000002F
:1011C000000000000000000000000000000000001F
:1011D000000000000000000000000000000000000F
:1011E00000000000000000000000000000000000FF
:1011F00000000000000000000000000000000000EF
:1012000010B5054C237833B9044B13B10448AFF340
:1012100000800123237010BD100200200000000098
:1012200098C000000C4B43B10C480D4910B5AFF30A
:1012300000800C48036823B910BD0A48036833B91D
:101240007047094B002BF7D0BDE810401847064BFC
:10125000002BF5D0184700BF0000000098C0000028
:10126000140200200C02002000000000154B002B8F
:1012700008BF134B9D46A3F5803A00218B460F46CD
:101280001348144A121A08F00CFF0F4B002B00D021
:1012900098470E4B002B00D09847002000210400F7
:1012A0000D000D48002802D00C48AFF3008008F074
:1012B000A9FE2000290008F039FD08F08FFE00BFCC
:1012C00000000800000004200000000000000000F2
:1012D00010020020CC1200200000000000000000DE
:1012E0000649074A074B9B1A03DD043BC858D050F8
:1012F000FBDC08F091FDFFF7B9FF00004CC10000D6
:101300000800002010020020FEE7FEE7FEE7FEE7EF
:10131000FEE7FEE7FEE7FEE7FEE7FEE7F0B595B085
:10132000002415460F4608461E4604F06FFB38465B
:1013300023460822089505A91A9D09960D950A9439
:101340008DF82C400C9404F0BDFB9DF814300798E8
:1013500006998DF8114003F00302012A02900391CF
:1013600028D0022A04D0384604F054FB15B0F0BD52
:10137000BDF81650C3F3C2038DF81030C5F38915BC
:101380000826082D2C4628BF0824334622460EA9DD
:10139000384604F097FB2D1B214608AB02AA0EA885
:1013A000264400F023FD002DEBD1384604F032FB3B
:1013B00015B0F0BDBDF81460059DC6F38316C3F3E8
:1013C000C204B2000EA9384608238DF81040C5F3B8
:1013D000952504F077FB08AB0093324628460EA90A
:1013E00002AB00F05DFCBEE7704700BF00B583B004
:1013F000044B0093044A4023FFF790FF03B05DF8CD
:1014000004FB00BF0D1400003002002038B50E4868
:101410000E4D03780E4CEB5C00252570D2B253B90B
:101420000C3008F077F858B90A4B1B7813B12378C1
:10143000002BFCD038BD043008F0FCFA0028F3D0B3
:1014400000F0BEFDF0E700BF08000020E81100201A
:10145000700200202C02002070B51348134A037854
:10146000D35C88B0DBB90C3007F0D6FF104D0FCD40
:101470006C460FC495E80F0008AD1A2645F8206D9C
:1014800084E80F0029460022074804F035FD08B122
:1014900000F096FD074B00221A7008B070BD0430B2
:1014A00008F048FAE2E700BF08000020E811002039
:1014B00084B300002C020020F0B5334D85B005F553
:1014C000836003F0D5FE05F2144003F0D1FE6B6893
:1014D000AE6803EA0600C11C05EB810215F8214045
:1014E00014F004040ED0117801F0030101293BD05F
:1014F000022903F1020700F1030126D005EB810266
:10150000002CF0D105EB80005A1CC16801913240DB
:1015100005EB820201F00301D2680292012903F176
:10152000020429D0022925D1BDF80630BDF80A6091
:10153000C3F38913033304EB9304144803F0A6FEAA
:1015400000B16C60304605B0F0BD538807EB9313D3
:1015500006EA0300C11C05EB810215F8214004F0E6
:101560000404002CBFD1CDE711880233C1F38311ED
:101570000B44EDE70026E0E7BDF80430BDF80A6053
:10158000C3F383131C44D8E744030020580700200A
:1015900021B9114B03EBC0000068704730B40F4A0B
:1015A0000D4C121BD2080CD00D4D2B88834210D04D
:1015B000002303E035F82310814205D001339A421D
:1015C000F8D1002030BC704704EBC300006830BC89
:1015D00070472046FAE700BF9CC000000CC1000025
:1015E00010020020094B013903EBC00003290BD87E
:1015F000DFE801F0020806040220704740797047D6
:101600000079704704207047002070479CC000009C
:101610002DE9F047914C94E80C009A4284B000F018
:10162000B6800023C4F81834BFF34F8F6368A568F1
:1016300003EA0501CA1C04EB820614F822205007B5
:101640001AD52768327802F00302012A43D0022A11
:1016500003F1020202D1738802EB931305EA03013E
:10166000D4F81804CA1C04EB820628B99F4238D962
:1016700014F822205207E5D404EB81015A1CC968F2
:1016800001912A4004EB820201F00301D268029228
:10169000022903F1020828D001297CD0D4F8105483
:1016A0003DB12B6828469B689847EB681D68002D64
:1016B000F7D16B486B4B6C49C01AC008000440F06E
:1016C000020000F0D7F860682368C01A18BF012034
:1016D00004B0BDE8F08732880233C2F383121344AA
:1016E000BCE7676004B0BDE8F087BDF806305F482E
:1016F000C3F389194F46502FA8BF502767F38F13A4
:1017000007F10801ADF8063004F038F90646002864
:10171000C4D025EA080A0AF1010A04F077F94FEA71
:101720008A0A0023082201A9304604F095F957459A
:101730006ED9BAF1000F7AD13A4608234C493046A7
:1017400004F08AF909F1030708EB9707D4F8183475
:10175000002B68D1D4F810545DB1EB685A7931464A
:1017600028461AB12B681B689847EB681D68002D46
:10177000F3D1304604F04EF9002003F07BFCD4F89E
:10178000183403B96760002003F07CFC9BE700205D
:1017900004B0BDE8F087BDF804303448C3F38312C9
:1017A000062A28BF0622911C62F389138900ADF82E
:1017B000043004F0E3F8064600283FF46FAF04F06D
:1017C00025F90023082201A9304604F045F9BDF8A7
:1017D000043013F4707F3FD04FF0000A4FF0080937
:1017E00005EA080103314B4604EB8101042230462F
:1017F00004F032F9BDF804300AF1010AC3F383138F
:1018000008F10107534509F10409B846E8D89DE7F6
:1018100005EA0801033104EB81013A46082330460A
:1018200004F01AF98EE7304604F0F4F84BE705EAC5
:1018300008010331A7EB0A0504EB8101524630464B
:10184000EDB2082304F008F92A460AF10803084912
:10185000304604F001F975E7474677E74403002076
:10186000D4C000009CC00000C4B300001CC1000034
:10187000500300202DE9F843DFF8D89007460020F8
:101880008846D9F8085003F0F5FBD9F80820D9F8B4
:101890000430D9F80060134401339B1B012B55D849
:1018A00009F21C440121204603F0C6FCFFF704FEA8
:1018B0000146204603F0C0FC99E80A00D9F8082048
:1018C000134401335B1A012BECD901240A40033283
:1018D00044F004036FF3891349F8223002310020E9
:1018E000C9F8001003F0CEFB0021194803F08AFC70
:1018F00080F3100033192B4009EB830300043540BB
:10190000033540EA1740D86019F8253067F3C5035E
:1019100009F8253039F825306FF3891329F8253077
:1019200059F8252068F39F22134664F301036FF3EF
:10193000820349F8252009F8253099F820341BB195
:10194000FFF766FE0028FBD1BDE8F8833146BCE70F
:1019500060070020440300202DE9F047354C804605
:10196000002092468946A56803F084FBA26863685C
:10197000276813440133DB1B022B59D804F21C46A1
:101980000121304603F058FCFFF796FD0146304632
:1019900003F052FC94E80A00A268134401335B1A76
:1019A000022BEDD901260A40033246F0040366F308
:1019B000891344F8223003310020216003F062FBD8
:1019C000BB1C2B4004EB830300211B48C3F80CA075
:1019D00003F018FC80F31000BB192B4004EB8303C9
:1019E00000043D40033540EA1840D86014F8253023
:1019F00068F3C50304F8253034F8253066F38913FD
:101A000024F8253054F8252069F39F22134666F305
:101A100001036FF3820344F8252004F8253094F87D
:101A200020341BB1FFF7F4FD0028FBD1BDE8F0879F
:101A30003946B7E744030020600700202DE9F04F46
:101A40003F4C83B08046002089460193A6689346A8
:101A500003F010FBA168636827680B440133DB1BAC
:101A6000042B6BD804F21C450121284603F0E4FB4B
:101A7000FFF722FD0146284603F0DEFB94E80C0048
:101A8000A1680B4401339B1A042BEDD901251140A9
:101A90004FF0030A033145F0040305326AF389135A
:101AA000002044F82130226003F0ECFAB81C07EB68
:101AB0000A0E30400EEA060E3A1D324004EB80005A
:101AC00004EB8E0E04EB8202019BC0F80CB00021E7
:101AD000CEF80C301B480C9BD36003F093FB80F3D3
:101AE00010007A19324004EB820200043E40564452
:101AF00040EA1840D06014F8262068F3C50204F8C4
:101B0000262034F826206AF3891224F8262054F877
:101B1000262069F39F22134665F301036FF38203C6
:101B200044F8262004F8263094F820341BB1FFF73F
:101B30006FFD0028FBD103B0BDE8F08F3A46A5E762
:101B400044030020600700202DE9F04F87B0474C88
:101B5000109D0393804699460020119B0292924665
:101B60000593A66804958B4603F084FAA26863681F
:101B7000276813440133DB1B052B74D804F21C4582
:101B80000121284603F058FBFFF796FC0146284642
:101B900003F052FB94E80A00A268134401335B1A75
:101BA000052BEDD90A400125D31C45F0040E042273
:101BB00062F3891E0631002044F823E0019221607F
:101BC00003F060FAB91C07F1030C07F1040E314071
:101BD0000CEA060C0EEA060E7B1D334004EB810175
:101BE00004EB8C0C04EB8E0E04EB8303109AC1F80B
:101BF0000CA01F48CCF80C900021CEF80C20119AB4
:101C0000DA6003F0FFFA80F310007B19334004EB35
:101C1000830300043E40033640EA1840D86014F8BD
:101C20002630019A68F3C50304F8263034F82630CC
:101C300062F3891324F8263054F826206BF39F2290
:101C4000134665F301036FF3820344F8262004F87A
:101C5000263094F820341BB1FFF7DAFC0028FBD1C2
:101C600007B0BDE8F08F39469CE700BF4403002071
:101C70006007002038B5094BD3F81044012583F8DC
:101C800020544CB1E3685D71236820465B68984737
:101C9000E3681C68002CF5D138BD00BF4403002068
:101CA0002DE9F04784B01D460C9C002394F80C806D
:101CB0002373EB8881460E461746002B3BD1297AC9
:101CC00005290FD06B7A002B3DD1404BA88853F8E3
:101CD00021A00021FFF75CFC524603463C49204608
:101CE00003F02AFB062F0FD8DFE807F0484D535AC0
:101CF00004633900F168B06896E80C000191009027
:101D00004946204603F018FB2B7A052B05D06B7A49
:101D10005BB93049204603F00FFB204603F000FB7F
:101D200084F80C8004B0BDE8F0872B4A2B4920468C
:101D300003F002FBEDE7284A00922949294A204690
:101D400003F0FAFABBE7A888FFF74CFC264B2349BF
:101D500053F82020204603F0EFFA297AB5E770699E
:101D6000316996E80C000390B068F76802918DE83D
:101D700081004946204603F0DFFAC5E74946204680
:101D800003F0DAFAC0E732684946204603F0D4FA95
:101D9000BAE7494696E80C00204603F0CDFAB3E7CF
:101DA000B16896E80C0020460091494603F0C4FA59
:101DB000AAE7B068F768316996E80C0002918DE8EF
:101DC00081004946204603F0B7FA9DE74CB4000075
:101DD00040B40000ECBE000034B400003CB400008D
:101DE0001CB4000014B40000DCB30000082900D9C2
:101DF00070472DE9F04F1D46904600232A7B2B7338
:101E000085B0B8F80630039207460E46002B6BD11A
:101E100098F80810052911D098F80930002B6BD1DB
:101E20003C4BB8F8040053F821400021FFF7B0FB09
:101E3000224603463849284603F07EFADFF8F8B018
:101E4000DFF8F8900024A642494628463ED93A5D7C
:101E5000013403F071FA082CF5D13049DFF8E09035
:101E6000DFF8E0B0284603F067FA002411E017F825
:101E700004A008F0EBF850445946437813F0970F4C
:101E800014BF52462E222846013403F055FA082C7E
:101E900008D0A64249462846E9D8013403F04CFA56
:101EA000082CF6D198F80830052B02D098F80930A4
:101EB000A3B91B49284603F03FFA284603F030FA3D
:101EC0009DF80C302B7305B0BDE8F08F01345946F6
:101ED000284603F031FA082CB5D1BEE7114A124961
:101EE000284603F029FAE4E70E4A00920F49104A07
:101EF000284603F021FA8BE7B8F80400FFF772FBDD
:101F00000C4B094953F82020284603F015FA98F89D
:101F1000081085E74CB4000040B400000CB4000089
:101F2000ECBE000034B400003CB400001CB400005F
:101F300014B40000DCB3000008B4000000B40000DA
:101F400048B4000010B40000074B1B5C1F2B86BF79
:101F500003F01F0305494FF0A041012202FA03F3E9
:101F6000C1F80C35704700BFB0B40000000300504A
:101F7000C10706D4830742BF104B0C22C3F80027C9
:101F800070470E4B032230B44FF48051C3F82C2716
:101F90004FF40065C3F828274FF48064C3F8302756
:101FA0008207C3F80855C3F80845C3F8081503D5D8
:101FB000024B0C22C3F8002730BC704700030050CE
:101FC00000B585B000230390194601AA44F2010030
:101FD0000193029300F004F805B05DF804FB00BF24
:101FE00010B572B6FFF746FEFFF712FB0028FBD1D3
:101FF000104B114C1149E41AE408240444F0010088
:10200000FFF738FC0E4B1B68DB0700D500BE44F021
:1020100002000C49FFF72EFCBFF34F8F0A490B4B10
:10202000CA6802F4E0621343CB60BFF34F8F00BF76
:10203000FDE700BF9CC00000D4C00000B4B40000A5
:10204000F0ED00E0C0B4000000ED00E00400FA058F
:1020500012F0030301D007207047F0B4094D0A4F76
:102060002B700A4D3A604C1C2B70094F094D0A4EDB
:102070003880E400A4B22244298032601846F0BCC3
:10208000704700BF68070020700700207807002015
:1020900074070020760700206C0700202DE9F04728
:1020A000294D2B888B4202D20920BDE8F0870646D5
:1020B000002017460C4602F0DDFF244B244A254839
:1020C000197813780088DBB2834238BF0133C9B274
:1020D00034BFDBB2002399421FD092F800801378FE
:1020E000DFF87890DBB2984286BF0133DBB2002381
:1020F0005FFA88F80020137002F0C4FFD9F80030AE
:102100000FFA88F24FEAC20A43F83270534406B11C
:102110004CB900209880BDE8F087002002F0B2FFA3
:102120000420BDE8F0870C4B28881B68314608FB6B
:102130000030224607F0AAFFD9F800309A44002068
:10214000AAF80440BDE8F087740700207807002053
:1021500068070020760700206C0700207007002029
:102160002DE9F047174C184D22782B789A4226D04B
:10217000DFF85C90DFF85C80144FDFF85CA0237818
:10218000D9F800203888D8F80060DBB20FFA83FC59
:1021900002EBCC0103FB0060898852F83C30984781
:1021A0002378BAF80020DBB29A4203F101038CBF16
:1021B000DBB20023237022782B789A42DFD1BDE86E
:1021C000F08700BF78070020680700207407002010
:1021D000700700206C07002076070020082910B542
:1021E000044602D00020FFF7EBFE23686068BDE8DC
:1021F000104018472DE9F041274A284B0025C2F826
:102200004051C2F84451C2F84851C2F84C51C2F88A
:102210000051C2F804511B6882B023B32049D2F8A0
:1022200004450A68DFF88C80A41A1A6824F07F44F9
:10223000A2422F4609D8197CDE69A41A1544A9B90F
:102240001EB133461A68A242F5D91649164A0B78D0
:1022500012789A4219D01549154A41F823504FF483
:102260008013C2F8003102B0BDE8F0819A691F7492
:1022700001925B690093424608216846FFF70EFF12
:102280000028DDD0FFF79CFEDAE7531CDBB2022BFF
:1022900008BF00230B70DEE7001001409C080020FF
:1022A0009808002095080020940800208C08002041
:1022B00000E100E0DD2100002DE9F04FB74AB84908
:1022C00013780978994285B033D00133DBB2022B01
:1022D00008BF0023B3481370B34A0768DFF8E082F1
:1022E00052F82320D8F80010BB18002423F07F43B5
:1022F000036025462046A646A9B10B68934200F22A
:102300007D81CC68C1F800E0D21A1844CB6934B1A1
:102310003E1826F07F46CD618C604E600D46194612
:1023200001240029E9D1002C40F0A5814FF0010BD8
:1023300005E0DFF88C820025D8F80010AB469B4BF7
:102340009B4FDFF8809243F0010300930E464FF05D
:10235000000A002D2DD0D5F804E0D5F808C02C4691
:10236000ED69904B93481B68AEEB030222F07F426D
:10237000824255D802EB0C032360002201206260E8
:10238000A260E2612074002E6BD03068834261D974
:10239000B64603E0106898424CD29646DEF81C2000
:1023A0001B1A002AF6D12360E261CEF81C40002DF2
:1023B000D1D197F801C097F800E0F44571D0734689
:1023C00003EB43030EF10100BA7807EBC3035FFA96
:1023D00080FE7245187987F800E004BF4FF0000EC8
:1023E00087F800E002289A684CD003283DD00128E5
:1023F000E3D1107C0028E0D1D3F80CE0C2F804E06F
:10240000D3F810C0C2F808C014465A69E26099F8BF
:1024100000209B69A361002AA3D060608646A0E7E4
:10242000A3EB0E0323F07F4363450AD2ACEB030317
:102430002360A2E7C01A10602360E261CEF81C405E
:10244000B5E70023012223606360A360E361227487
:102450003EB13068C8F80040C31A3360E6612646D2
:1024600077E7C8F80040264673E7002EA5D0002283
:1024700000E01E46F3693274002BFAD1C8F8003030
:102480001E4696E74EB1B242344603D1BDE09A42B1
:1024900060D01C46E369002BF9D100231374F44586
:1024A0008DD1BAF1000F02D18E4200F09D80002E36
:1024B00000F0C5803B4B404A1C68D2F80475DFF839
:1024C0000881D6F800A098F800103B1B23F07F434A
:1024D000DD1CA9B93949354B4FF48030C2F84403AB
:1024E0000126C2F804034FF40030C1F8800143F024
:1024F0000103086016604FF43C60984788F800605C
:10250000AA452CBF04EB0A0363192B4923F07F4330
:10251000C1F84035D1F80425D21BDB1B22F07F42E5
:1025200023F07F4303329A420ED9204BD1F8042581
:10253000C1F8402543F001034FF43C6098471F4B1E
:102540004FF40032C3F80021002389F8003005B0B1
:10255000BDE8F08FA24239D0D2F81CE01368C4F86D
:102560001CE0BEF1000F11D03046DEF800402344DD
:10257000CEF80030864209D0002397F800E097F8A3
:1025800001C0137406464FF0010A88E7002397F84C
:1025900000E097F801C0137481E700BF94080020A1
:1025A00095080020980800208C080020D0B4000076
:1025B0007C070020FEFF7F000010014000E100E0EA
:1025C0009C08002088080020890800201346F06934
:1025D000C8F80000D8B1D3F81CE01B68C4F81CE0B0
:1025E000BEF1000FC1D1C5E7BBF1000F7FF45FAFB3
:1025F000002389F8003005B0BDE8F08F002C3DD1F4
:102600009B1A0B604FF0010B99E63346DFE701930D
:102610001C4BDFF87CC003924FF0010E0291C3F80F
:1026200008E0009BCCF8000089F800E04FF43C6023
:102630009847D8F80000019B0299039ACBE7114D07
:10264000114A124C4FF480334FF400310127C2F885
:1026500080103C43C5F848334FF43C60C5F808335C
:102660006F60A0470A4BAF604FF43C601E60A0470C
:10267000084B1E7068E7C8F8001057E6C8F800104D
:10268000BEE700BF0010014000E100E0D0B4000050
:1026900098080020890800202DE9F8431F4D204E9E
:1026A000204FDFF898804FF480334FF400324FF022
:1026B00001090024C6F8802047EA0907C5F8483315
:1026C0004FF43C60C5F80833C5F80490B847C5F826
:1026D00008904FF43C60C8F80040B847124B1348CC
:1026E0001349144A1C70144B04600C7014704FF49E
:1026F0008011C0220B2098701C705C70C6F880118D
:1027000086F814233160C5F8084586F81123D5F8FA
:102710000435C8F800302046BDE8F88300100140B9
:1027200000E100E0D0B40000890800209C080020EF
:1027300094080020950800207C07002098080020BD
:10274000074B9B780BB9082070473AB130B103684A
:10275000187C0028F7D159745A61704707207047D8
:102760007C0700202DE9F041234CA37813B9082001
:10277000BDE8F0810028FAD0042902D80720BDE87E
:10278000F0814369002BF2D0437C0546012B4FF0CA
:1027900000000CBF8846804617460E4602F06AFCD1
:1027A0006378A07821785A1CD2B2904208BF0022E8
:1027B00091421AD003EB430304EBC30301200F49FA
:1027C0009D601871D1F80415D9601E61C3F814809A
:1027D0009F610020627002F055FC094B4FF480129B
:1027E000C3F800210020BDE8F081002002F04AFC7F
:1027F0000420BDE8F08100BF7C07002000100140EC
:1028000000E100E00378052B02D0094B1B68184754
:10281000084BD3F88424D3F8803413F0FF0FF4D19D
:10282000054BD2B2052A08BF1846014B1B68184752
:10283000A008002000700240F0B40000014B0248E4
:102840001B681847A0080020F4B4000001280BD032
:1028500006D3022803D1064B06481B681847704769
:10286000034B05481B681847014B04481B68184771
:10287000A0080020ECB40000E4B40000E8B40000BC
:102880002DE9F04F037881B08346852B00F2A280BA
:10289000DFE813F08A02D801A3002A025902C80017
:1028A000D000A000EB00FE001101A000A000A000DD
:1028B000A0003301A000A000A000A000A000A00084
:1028C000A000A000A000A000A000A000A000A00008
:1028D000A000A000A000A000A000A000A000A000F8
:1028E000A000A000A000A000A000A000A000A000E8
:1028F000A000A000A000A000A000A000A000A000D8
:10290000A000A000A000A000A000A000A000A000C7
:10291000A000A000A000A000A000A000A000A000B7
:10292000A000A000A000A000A000A000A000A000A7
:10293000A000A000A000A000A000A000A000A00097
:10294000A000A000A000A000A000A000A000A00087
:10295000A000A000A000A000A000A000A000A00077
:10296000A000A000A000A000A000A000A000A00067
:10297000A000A000A000A000A000A000A000A00057
:10298000A000A000A000A000A000A000A000A00047
:10299000A000A00024014701960186000C02C80097
:1029A000A14D2B78032B15D105F01EF990B12B7892
:1029B0009A1ED2B2062A05D89C498A5C12B103F04D
:1029C00035FA2B78022B00F02983082B00F02683A0
:1029D00004232B7001B0BDE8F08F934D2B789A1E25
:1029E000D2B2062A05D891498A5C12B103F01EFAC8
:1029F0002B78022B01D0082B01D104F0FBFA8C4B71
:102A00005B6803222A700BB102209847894B1C682F
:102A100044B1636820461B685946984723681C6880
:102A2000002CF6D1844B93E80500594601B0BDE86F
:102A3000F04F1047827813064CBF804B7E4B02F05C
:102A40000F0203EBC20393E80500594690470028A4
:102A5000C0D09BF8020000F00F03013B062BB9D851
:102A600001B0BDE8F04F04F0F3BB714B5B680BB1F4
:102A7000082098476F4B1C68002CABD06368204639
:102A80001B685946984723681C68002CF6D1A1E7BB
:102A9000674B5B680BB109209847664B1C68002C9C
:102AA00098D0636820461B685946984723681C687D
:102AB000002CF6D18EE75E4B5B680BB10A2098477D
:102AC0005C4B1C68002C85D0636820461B68594607
:102AD000984723681C68002CF6D17BE7524C23787A
:102AE000062B00F06D82072B02D0052B7FF472AF0E
:102AF00004F08AFA022323706CE74D4B5B680BB13C
:102B00000F2098474B4B1C68002C3FF463AF636861
:102B100020461B685946984723681C68002CF6D14C
:102B200058E7454BDFF80C91454993E8050090477D
:102B3000D9F80040002C00F06982414D63682046BE
:102B40001B682946984723681C68002CF6D1DFF8DB
:102B5000E0A0DAF804300BB10D209847D9F80070E6
:102B6000002F00F0CF8197F80890B9F1000F00F026
:102B7000C4814FF00008444607F109057B68DB6813
:102B800013B12146384698473B7AA34240F2288148
:102B90006E78002E00F0A8810024234632460AE019
:102BA000AB782A190134D05C05F004F9E3B29E42F7
:102BB00040F29A816A789342F2D300231B78FFDEB9
:102BC000DFF87090D9F80070002F00F0578197F867
:102BD00008A0BAF1000F00F04C814FF00008444605
:102BE00007F109057B68DB6813B121463846984731
:102BF0003B7AA34240F2F4806E78002E00F03081E0
:102C00000024234632460AE0AB782A190134D05C0E
:102C100005F0D0F8E3B29E4240F222816A789A42EF
:102C2000F2D800231B78FFDE45090020D8B400004D
:102C3000A00800203C090020F4080020AC08002077
:102C4000FCB40000DFF80C93D9F80070002F00F0FE
:102C5000D88097F808A0BAF1000F00F0CD804FF0AF
:102C60000008444607F109057B68DB6813B121467B
:102C7000384698473B7AA34240F2B2806E78002EE5
:102C800000F0B1800024234632460AE0AB782A19CE
:102C90000134D05C05F08EF8E3B29E4240F2A3808E
:102CA0006A789A42F2D800231B78FFDEA44D2B7875
:102CB000032B00F08F8104F067F900283FF48AAEFF
:102CC0002B789A1ED2B2062A00F29B819D498A5C1B
:102CD000002A00F09681022B00F06C81082B00F096
:102CE000698106232B7075E6954D2B78082B00F033
:102CF00049819A1ED2B2062A40F25681924803F0C8
:102D000067F82B78022B00F04C81082B00F04981EA
:102D100005232B708D4B5B680BB1032098478C4BC0
:102D2000594693E8050090478A4B1C68002C3FF4F5
:102D300051AE636820461B685946984723681C6853
:102D4000002CF6D146E6814B5B680BB10320984717
:102D50007F4B814993E8050090477E4B1C684CB13E
:102D60007D4D636820461B682946984723681C6888
:102D7000002CF6D1724D2B78062B00F00081082B29
:102D80000FD09A1ED2B2062A00F21F816D498A5CCA
:102D9000002A00F01A81022B03D0082B01D004F086
:102DA00033F902232B7015E6654B1B78032B00F0DB
:102DB000F480082B00F0F180644B5B680BB10020BD
:102DC0009847664B1C68002C3FF404AE63682046AD
:102DD0001B685946984723685C68002CF6D1F9E5D2
:102DE00000235B78FFDE08F101085FFA88F45445A0
:102DF00005F10305FFF438AF3B681F68002F7FF42F
:102E000028AF4F4D01F0BAFD2B789A1ED2B2062A98
:102E100000F2B0804B498A5C002A00F0AB80022BA4
:102E200003D0082B01D004F0EFF8484B5B68022276
:102E30002A700BB101209847454B594693E805008D
:102E40009047D9F80040002C3FF4C4AD6368204699
:102E50001B685946984723681C68002CF6D1B9E5D1
:102E600008F101085FFA88F4A24505F103053FF671
:102E7000B9AE3B681F68002F7FF4A9AE304D04F057
:102E800067FD2B789A1ED2B2062A6BD9022B00F06E
:102E90008180082B7ED0D9F8004000232B704CB1E4
:102EA0002F4E636820461B683146984723681C688C
:102EB000002CF6D1264B2A4993E805009047234B76
:102EC0005B680BB10E2098472B78023BDBB2062BD8
:102ED0003FF680AD1B4AD35C002B3FF47BAD01B0C5
:102EE000BDE8F04F02F0A2BF08F101085FFA88F4D4
:102EF000A14505F103053FF641AE3B681F68002F71
:102F00007FF431AE01F044FD144B1B68002B54D00C
:102F100001200B4D03F0EEFF2B789A1ED2B2062A49
:102F200006D9022B33D0082B31D001232B7051E569
:102F300004498A5C002AF4D002F078FF2B78F0E78D
:102F400045090020D8B4000024000020A00800207B
:102F5000F40800203C09002008B5000040090020CA
:102F600000B5000030498A5C002A8FD002F05EFF75
:102F70002B788BE72D4802F02BFF2B784FE70723A8
:102F80002B7027E502232B7004F048F8C2E604F00A
:102F900031F8CAE704F02EF87DE72548FFF770FC0A
:102FA0000AE704F027F8B3E61F498A5C002A7FF499
:102FB000A9AEA3E604F01EF893E69AF80800A8E785
:102FC00004F022F80823237004E5184802F000FFFB
:102FD0002B78E0E604F008FE00283FF46CAE2B7876
:102FE0009A1ED2B2062A05D80F498A5C12B102F0A5
:102FF0001DFF2B78022B14D0082B12D004232B702A
:1030000059E60A4802F0E4FE2B7864E6DFF824A0D3
:10301000DAF80430002B7FF49FAD73E703F0EAFF8A
:10302000D6E403F0E7FFE9E7D8B40000240000206D
:1030300004B50000A00800202DE9F04F87B006AECF
:1030400000250446894692469B4646F8105DA846F0
:1030500001E008F101086268012355682146002259
:103060003046A8470028F4D18DF806000490B8F146
:10307000000F28D00546064662680123576821469E
:103080000DF1060204A8B84762680123576821467B
:103090000DF1070204A8B8479DF807304B454FF0E3
:1030A0000002214604A803D1AA4510D00135EDB293
:1030B0009DF806306768023B7F68B8479DF8063088
:1030C0001E44B045D8D8052007B0BDE8F08F109A4F
:1030D0009DF8063013608BF800308BF80190616822
:1030E000023B4D680BF102022146A847002007B0C1
:1030F000BDE8F08F2DE9F041054682B03A4803F073
:10310000ADFD044618B1204602B0BDE8F081374A53
:10311000374B384E147021464822374834601C60C3
:1031200006F0BFFF21464822344806F0BAFF002DC2
:1031300053D095E80700324B83E80700002849D0B8
:10314000002002F087FE18B1852801D0FEF738FF75
:103150002C4C2A4F94F808C06568DFF89CE00323E4
:1031600003FB0C4C0CF1090C04F10906664521D057
:1031700006B37378DBB1B278B21818D003F1FF3818
:10318000114652FA88F8013A01E001310FD012F8E5
:10319000013F13F0800F03F00F0314BF0EEBC303C6
:1031A00007EBC30390451C6028685860EDD10336D7
:1031B0006645DDD102A90B2301F8043D11482B68B7
:1031C0009847044600289ED003F0E0FD204602B058
:1031D000BDE8F0810C4A1A60B2E7094B0A4A5D600B
:1031E0001D721A60ACE700BF0528000045090020E9
:1031F000400900203C090020AC080020F408002011
:10320000A008002034B500008128000010B503F0AC
:10321000A9FE08B9082010BD03F0ACFE0446002842
:10322000F8D1044802F026FE00B910BDFEF7C8FE32
:10323000204610BDE0B4000003F0B8BD04F072BE3B
:103240004FF0804303E0D3F83824D10707D5D3F8F3
:1032500038249207F7D5024B02481B68184770477D
:10326000A0080020F8B4000000B583B002A88223B3
:1032700000F8043D024B1B68984703B05DF804FB5F
:10328000A00800202DE9F041077ADFF8E0E0DFF840
:10329000E0804FF0030C0CFB070C00F109040CF16B
:1032A000090C21468C4582B020D001B34E78002213
:1032B000B24218D08B781344D94214D0CB5C03F0BF
:1032C0000F051B0608D45EF835300132002BEFD015
:1032D000112002B0BDE8F08158F835300132002BE2
:1032E000F6D1B242E6D103318C45DED100211F4D2B
:1032F0001F4ECAB2BA4229D202EB4202A21825D00E
:1033000053780BB39378D31818BF4FF0010E05D143
:103310001AE093787344D31815D0BE461B7813F087
:10332000800F03F00F0314BF06EBC30305EBC303C9
:10333000186047683F685F6092F801C00EF10103B2
:10334000F445DFB2E5D8077A0131D2E7094A1368BC
:103350001BB11A681368002BFBD102A910600B2265
:1033600001F8042D43681B689847B2E7F408002071
:10337000AC0800203C090020024B1878003018BF30
:10338000012070474409002000F00F03072B10B5FF
:10339000044604D803F0EAFF204603F065FF204608
:1033A000BDE8104004F07CBA04F004BD014B18687D
:1033B000704700BF3C09002070B4114B1E68A6B1D5
:1033C000357A75B1737A834206F1090210D0002371
:1033D00003E012F8034F84420BD00133DBB29D426D
:1033E000F7D133681E68002EEAD1304670BC7047B2
:1033F00000230029F9D030460B7070BC704700BF25
:103400003C090020436811461B68184700F00F0371
:10341000082B01D91020704702064CBF044A054A08
:1034200002EBC30318680028F4D043681B681847F0
:10343000AC080020F408002038B5094B1C6805468C
:103440001CB90AE023681C683CB1636829461B6804
:10345000204698470628F5D038BD062038BD00BF65
:103460003C09002038B50D46044603F0EDFD08B9CF
:10347000082038BD044B1B78022BF9D12946204681
:10348000BDE8384003F0F0BD4509002038B50D46D1
:10349000044603F0D9FD08B9082038BD044B1B7859
:1034A000022BF9D129462046BDE8384003F072BE10
:1034B00045090020F8B543689B6804460E4615464A
:1034C0001BB19847062800D0F8BD0DB10720F8BD04
:1034D000237AB34222D9093406EB4606344467788E
:1034E000F7B12B463A4614E0A3786219D65C06F091
:1034F0000F03072B05D8304603F038FF304603F0A2
:10350000B3FE3046013504F0CBF9EBB29F4207D948
:1035100062789A42E8D800231B78FFDE6B78FFDEE2
:103520000020F8BD43681B6903B11847184670476F
:103530002DE9F0472A4BD3F80080B8F1000F4DD0A9
:1035400098F808A0BAF1000F3FD000273C4608F1D8
:1035500009050BE0002221464046984706280AD07C
:103560000137FCB2A24505F103052ED9D8F8043085
:103570009B68002BEED198F80830A34202D80023B4
:103580005B78FFDE95F80190B9F1000FE8D00024D8
:1035900023464A4614E0AB782A19D65C06F00F039E
:1035A000072B05D8304603F0E1FE304603F05CFE01
:1035B0003046013404F074F9E3B29945D0D96A7801
:1035C0009A42E8D800231B78FFDED8F80030D3F801
:1035D0000080B8F1000FB3D1BDE8F087BDE8F087F7
:1035E0003C0900202DE9F8431F4B1F68002F38D0FD
:1035F00097F80890B9F1000F2AD04FF00008444620
:1036000007F109057B68DB6813B121463846984706
:103610003B7AA34222D96E7896B1002423463246E3
:1036200009E0AB782A190134D05C04F0C3FBE3B2A3
:103630009E4205D96A789A42F3D800231B78FFDEB0
:1036400008F101085FFA88F4A14505F10305D9D80E
:103650003B681F68002FCBD1BDE8F88300235B785F
:10366000FFDEBDE8F88300BF3C0900204360CA6963
:10367000934205D901F1280202608B670020704750
:103680008A6902600B67CB6100207047F0B504685F
:10369000C14E0D7A3570B4F5517F00F0768358D95C
:1036A00040F25635AC4200F0C88300F2EE80B4F52B
:1036B000537F00F0B58340F2798140F25135AC423E
:1036C00000F0E08300F2108240F24F35AC4200F08F
:1036D0005484B4F5547F40F0078301240027002A66
:1036E00000F083850579D555A3424FF00205057199
:1036F00040F24B842F4604F1010E02259E451755DA
:10370000057180F01D840EF1010402F80E50A342F1
:103710004FF00505057140F242842F4604F1010E79
:1037200024259E451755057180F022840EF1010471
:1037300002F80E50A3424FF00605057140F22A84AC
:10374000671C15559F420D7D057180F096837C1C8A
:10375000BFE140F2263E744500F0458345D840F273
:10376000163E744500F0198340F26D8140F2193E17
:10377000744500F0D68300F25D8240F21737BC42F8
:1037800000F06383B4F5467F40F0AE82002A00F07B
:10379000C88507794FF0010E4FF0000C00247345E7
:1037A00002F80C70047140F220840EF1010702F857
:1037B0000E40DFF8F0E100248EF80040AC4280F0CB
:1037C00000840924BB42047140F298847D1C002AC5
:1037D00000F054850479D455AB424FF004040471D1
:1037E00040F25C8405F1010E34E240F23335AC4224
:1037F00000F0DF82B4F54D7FC0F08280B4F54F7FDA
:1038000000F08C8340F2678240F24235AC4200F017
:103810005A8200F22A8340F24135AC4240F0648281
:1038200001240027002A00F0A0840579D555A34281
:103830004FF02405057140F25384AE46671C002505
:10384000BB4202F804E0057140F2238407F1010E47
:1038500010247345D555047140F2088425460EF1B5
:1038600001070124BB4202F80E50047140F2EF83BD
:10387000254607EB040E05247345D555047140F227
:10388000D78325460EF10107A7E040F27235AC421E
:1038900000F0CE8240F2088140F28335AC4200F065
:1038A000B682B4F5617FC0F0418240F28935AC4206
:1038B00000F0018240F28E35AC4200F0FC81B4F59C
:1038C000617F40F01182002A00F0458404790127CD
:1038D00000255455314C0D7D24682478A54200F014
:1038E000CA838D7DA54200F00084DFF8BCE02C4D3A
:1038F0009EF800402D780134E4B28EF800403DE09F
:10390000B4F54B7F00F0C68200F2008140F227350B
:10391000AC4200F00E83B4F54A7F40F0E581002A06
:1039200000F02A851D4C90F804E02568002701244A
:1039300002F807E02D780F7DAF4200F0CA838F7D3B
:10394000AF4200F0FC830025A342057140F2E981FB
:10395000671C0AB105791555104C91F814E02468DC
:103960002578AE4500F0FB81DFF834C0DFF838E0A1
:1039700065788CF8005000248EF80040AC42C0F00E
:10398000B781DFF820E035789EF800400134E4B2DA
:103990008EF8004012E700BF480900204C090020C3
:1039A00046090020470900204909002040F2493516
:1039B000AC4200F0F98200F22D8140F24535AC4274
:1039C00000F08882B4F5527F40F08E81002A00F02A
:1039D000BA84057901274FF0000E2424BB4202F877
:1039E0000E50047140F21583254607F1010E0124A3
:1039F0007345D555047140F2078325460EEB040745
:103A00000324BB4202F80E50047140F2F8827D1C80
:103A1000D455AB428F7D077140F2E28205F1010E71
:103A2000042473455755047140F2C68225460EF1B1
:103A300001072424BB4202F80E50047140F2458273
:103A400025467C1C4FE640F21337BC4200F0BE8294
:103A5000B4F5457F6CD2002C00F04D8240F2123755
:103A6000BC4240F04181002A00F01B8404791470AC
:103A7000012B4FF00B04047140F2FB834FF0030E57
:103A80004FF0020C0127D45563450F7D077140F2BA
:103A9000E8820224734502F80C70047140F2D2826D
:103AA00027460EF1010C52E040F25935AC4200F0CD
:103AB0004C826AD840F25735AC4200F0CF81B4F561
:103AC000567F40F0118101240027002A00F0B383C3
:103AD0000579D555A3428D7D057140F23D82671C65
:103AE0001555CC4C24683FE740F25235AC4200F00B
:103AF0000C8240F25535AC4240F0F680002A00F0CE
:103B0000428407794FF0010E002409E640F22D357A
:103B1000AC4200F0268240F22E35AC4240F0E48008
:103B2000002A00F0238400270579D55501240AE7EF
:103B300000F0D88140F21537BC4240F0D580002A11
:103B400000F0078407794FF0010C4FF0000E0224BB
:103B5000634502F80E70047140F2658227460CF14D
:103B6000010E0224734502F80C70047140F2568273
:103B70000EF1010C02F80E4063454C7E047140F2D8
:103B8000398227460CF1010E08E640F26D35AC4251
:103B900000F0988140F26E35AC4240F0A580002ADA
:103BA00000F0EF830479012700255455994D9A4C74
:103BB0002D68247895F801E0A64540F2AA8095F892
:103BC00002E02C44BB4214F80E40047140F2D8804D
:103BD0007C1C1AB190F804E002F807E02D780F7D04
:103BE000AF4200F060828F7DAF4200F093824025AB
:103BF000A342057140F2A980651C002A00F093825F
:103C0000077917559D424FF00004047180F0A2809F
:103C10006F1C5EE640F24A35AC4200F0E88040F2AC
:103C20004B35AC4260D1002A00F08F830479012526
:103C30000027EDE6B4F5487F00F0B8802F4640F24B
:103C40002135AC4250D1002A00F0938304794FF023
:103C5000010E002554550F7A704C2478A7425BD989
:103C600004EB440501F109046A4F14F805C080F81B
:103C700004C02C4473453C6040F206820EF10104FE
:103C8000002A00F0E282057902F80E50A3424FF0BC
:103C90000005057140F2E081671CDFF878E11555F9
:103CA000DEF80050BB4295F801E080F804E040F2F5
:103CB000C4817C1C3CE601270024002A3FF415AE99
:103CC0000579155511E6002A00F0358390F804E0D7
:103CD00001270024B3E5B4F54D7F00F0908040F259
:103CE0003535AC423FF41CAF002303601846F0BDED
:103CF0000724BB42047139D97D1C002A00F02E82B2
:103D00000479D455AB424FF00504047133D96F1CCC
:103D10004BE700231B78FFDE3E4A002313601B782D
:103D2000FFDE4FF44F7303600120F0BD40F27735A2
:103D3000AC4202D0B4F55F7FD6D101240025002A21
:103D40003FF455AF0779575551E740F2833303608D
:103D50000120F0BD4FF4617303600120F0BD052424
:103D6000BB42047140F2F2817C1C5BE540F26D3392
:103D700003600120F0BD40F26E3303600120F0BD0E
:103D800040F2723303600120F0BD002A00F0D182BE
:103D9000057901274FF0000E63E5002A00F0C38289
:103DA00007794FF0010E4FF0000CDAE601250027ED
:103DB0000DE501250024002A00F07D8107791755C3
:103DC0004FF0000EAB4280F804E040F2B3816F1C6C
:103DD0000024BB4202F805E0047140F275812546DB
:103DE000D5557C1CAFE501244FF0000E48E7002AB2
:103DF00000F0B382057901274FF0000E00E6002A9B
:103E000000F0AD8290F804E001270025E0E70125ED
:103E10000024F2E64C09002049090020470900204F
:103E2000002A00F0948207794FF0010E0025F7E593
:103E3000B74C002725680124CBE601244FF0000E83
:103E4000002A00F0EC81057972E4002A00F06D820E
:103E500004794FF0010C4FF0000E8BE6002A00F0C1
:103E60009B820579012700246BE4002A00F065821B
:103E700005794FF0010E0027EAE44FF45673036012
:103E80000120F0BD002A00F0808207794FF0010E7A
:103E9000002432E401250024002A00F02F82077953
:103EA0001755AB424FF00204047140F22C816F1C95
:103EB0005455BB424C7E047191D840F22E330360BE
:103EC0000120F0BD0125002717E74FF4547303606C
:103ED0000120F0BD002A00F03E8205794FF0010E6E
:103EE0000027C8E4002A00F0228207794FF0010E73
:103EF0004FF0000CCDE508240471002B7FF4B3AD26
:103F000040F2123303600120F0BD01244FF0000E97
:103F1000002A00F077810579FFF7F7BB012700241D
:103F200017E5002A00F08E81047901274FF0000E7A
:103F30003DE4002A00F00582057901270024ACE663
:103F400040F2523303600120F0BD002A00F02182CC
:103F5000057901270024C3E540F2593303600120AD
:103F6000F0BD002A00F0EB810479012700259FE7CE
:103F700040F2563303600120F0BD002A00F00782B2
:103F8000057901274FF0000E53E540F251330360ED
:103F90000120F0BD40F2573303600120F0BD40F234
:103FA000553303600120F0BD002A00F0DD81057962
:103FB0004FF0010E00271AE540F24F330360012055
:103FC000F0BD40F2993303600120F0BD002A00F0FB
:103FD000C88104794FF0020E4FF0010C002752E522
:103FE0004FF4537303600120F0BD40F219330360B6
:103FF0000120F0BD4FF4467303600120F0BD40F294
:104000004B3303600120F0BD40F24A3303600120CE
:10401000F0BD40F2493303600120F0BD40F2173398
:1040200003600120F0BD40F2163303600120F0BDB3
:104030004FF4527303600120F0BD4FF44A730360E4
:104040000120F0BD40F2153303600120F0BD40F2C5
:10405000453303600120F0BD40F2273303600120A7
:10406000F0BD4FF4457303600120F0BD4FF4517370
:1040700003600120F0BD0C6ABB422478047140F259
:10408000F3803C46013718E640F2263303600120F6
:10409000F0BD40F2433303600120F0BD40F2213314
:1040A00003600120F0BD03259C42057180F0EF8084
:1040B0002546013443E6AB4202713BD96C1C002516
:1040C000A342057100F2258140F2353303600120DF
:1040D000F0BD0225A342057140F2DE80651CDBE6DF
:1040E00040F2423303600120F0BD0024BB42047162
:1040F000C7D840F28E3303600120F0BD4FF44873FF
:1041000003600120F0BD40F22D3303600120F0BDBB
:104110004C09002002259C420571C9D34FF45F73FE
:1041200003600120F0BD9D420271BFF413AE6F1C0D
:10413000FFF7D0BB4FF44D7303600120F0BD0A259B
:10414000A342057140F2E880651C34E640F2413339
:1041500003600120F0BD0127FFF7BCBB0524AB4283
:1041600004717FF608AE6F1C20E52425A34205717B
:10417000B6D901340025A34205718AD9013410252E
:10418000A34205717FF672AF01340125A342057188
:104190007FF65DAF2C440525A34205717FF648AF3D
:1041A00001342425A34205717FF633AF0134012584
:1041B000A34205717FF628AF2C440325A342057165
:1041C0007FF61DAF01348D7D0571A3427FF608AFE8
:1041D00001340425A34205717FF6EEAE671C242549
:1041E000BB4205717FF671AE02340225A342057110
:1041F0007FF6CBAE04F1010E0225734505717FF603
:104200009FAE2C440525A34205717FF6C8AE04F18C
:10421000010E2425734505717FF6AAAE02340625EA
:10422000A34205717FF6B6AE671C0D7D0571BB42DA
:104230007FF623AE02348D7D0571A3427FF68CAEEE
:10424000671C4EE40127FFF7B4BAA34202717FF660
:1042500003AF0134514D2D68A3426F7807717FF68B
:10426000ECAE0134FFF766BB40F2893303600120F6
:10427000F0BD40F2133303600120F0BD0424AB42D3
:1042800004717FF60BAF05F1010E0F7AE4E440F202
:10429000773303600120F0BD4FF44B7303600120BE
:1042A000F0BD0B24012B0471E3D90324022791F8FC
:1042B00014E080F804E0BB427FF6D3AE0227A342AD
:1042C00007717FF6BFAE01340227A34207717FF664
:1042D000AAAE01340227A34207717FF69FAE0134D4
:1042E0004F7E0771A3427FF685AE01340027A342BB
:1042F00007717FF67AAE671CFFF75BBA0224AB4208
:1043000004717FF600AF6C1C4D7E0571A3427FF6F1
:10431000D4AD0134FFF717BB40F233330360012003
:10432000F0BD0124E2E70124D4E70124D8E7012409
:10433000C4E7012429E701241CE701241FE7012425
:10434000E2E7012486E701242BE701243BE701246F
:104350003FE70124B8E701241DE701242DE70124EC
:10436000ADE602240127A2E7012420E70124FFF79C
:10437000EABA4FF0010E6FE4084D01242D68FFF7F3
:10438000D9BA012712E4144641E7144632E7002463
:1043900024E70127FFF7A5BB002445E74C090020CF
:1043A0004360CA69934205D901F1280202600020E6
:1043B0008B6770478A6910B40260C8698C690A6F9C
:1043C000C01A1C441A44C86100308C6118BF012017
:1043D0000A675DF8044B704708B1032070470B680B
:1043E0001A7B202A01D00620704710B50722044608
:1043F00003F10E0103F1180005F048FE204610BD40
:104400002DE9F0430B7889B00D4606460E2B43D8B4
:10441000DFE803F03D083D3D421A47424208423D75
:104420003D3D3D000368002403F134025A671C84BB
:104430005C62DC629C67DC67C3F88040C3F8844040
:10444000204609B0BDE8F0834B78DA0940F0968049
:104450005B09012B20D18B780768202B6CD0222B95
:104460001AD1B1F80730BBB9B1F8033097F8202062
:104470003B8402F0010203F001039A4299B206D094
:10448000002900F03581C3690BB10221984700244F
:10449000204609B0BDE8F0830624204609B0BDE8F7
:1044A000F083037A89788BB1827A093082B1F27A0B
:1044B000825C8A42EBD00A0674D4EA78012AE6D0FC
:1044C00008D3032AE3D00324BAE700235B78FFDE96
:1044D0001378FFDE3568012B05F10C00F5D9727BEE
:1044E000012A06F10C0365D9B27B97490690059124
:1044F0001344AA6A93F80190002A5ED1EB6AE96F2F
:10450000AA67C5F88010EA67002B00F0D58005F196
:104510002C0393E8030005F1240383E803004846D5
:10452000EA6205A9FEF7B2FF0446F369002B87D0C3
:1045300030460021984783E7B1F80720072AABD11E
:104540003B73B1F807300024DBB27B7320460E3793
:1045500006930794059700F08DFD204605A9FEF708
:1045600081FF044630B9794B049603A9039300F008
:1045700009FD0446002000F085FD61E7C3F3411208
:10458000002A6FD0012A87D18B78212B84D1B1F8F2
:104590000720072A80D10168681C183100F002FA50
:1045A00004464DE7EC78002C7ED0032C0CBF002491
:1045B000032445E700231B78FFDED5F88440686AB2
:1045C00005F1340EA24228BF224671469046774636
:1045D00005F05CFDEA6FE96AA4EB080307EB080E3F
:1045E00042440020AB67C5F874E0C5F88020E86756
:1045F00000297BD005F12C0797E8030005F124047E
:104600004FF0000884E80300C5F82C80002B56D03A
:10461000AA6A9A420ED95BE097E8030084E8030097
:10462000AB6FC5F82C80002B49D0AA6A9A424FD8AC
:10463000D5F874E0686A714605F028FDA96AAA6F8A
:104640006B6FC5F880100B44521AAA676B67F36949
:1046500013B1002130469847EB6A002BDCD16B6226
:10466000002462E703F01F03012B7FF415AF8C7861
:10467000062C7FF411AF05A8039200F097FC0DF112
:104680000C0E0746EA782979CDF800E030463B4623
:10469000FEF7D2FC05283FF4D3AE3946681C039AD6
:1046A00000F080F90446CBE6F369002B3FF4EFAE4F
:1046B000304601219847C3E600246C6235E76B6AF7
:1046C000002BCDD0484605A9FEF7E0FE04462CE7B6
:1046D0001A46696F686A05F0D9FCA96FAA6A6B6A05
:1046E000E967521A0B44AA626B62E9E70023B6E756
:1046F000C3690BB103219847337A012B7FF6E5AEEE
:10470000737B06F10C04002B3FF455AFB37BE05CE8
:1047100003F0E8F9337A012B7FF6D7AE737B012BD8
:104720007FF648AFB37B1C44607803F0DBF90024CC
:1047300007F134037C62FC62BC67FC67C7F8804009
:10474000C7F884407B677BE6A1430000D9430000A3
:1047500003681B8CDB0701D408207047037A012B08
:1047600016D910B5437B84B000F10C040BB91B784B
:10477000FFDE0B46817B605C019391060CBF012438
:10478000002401A902920394FEF76CFE04B010BD50
:1047900000235B78FFDE00BF0368D3F8800070471A
:1047A000F0B50468238CDB0783B003D408242046CB
:1047B00003B0F0BD0546002016460F4600F05AFC37
:1047C000A26F42B9636AC3B11124002000F05AFC01
:1047D000204603B0F0BD964228BF16463246616FB0
:1047E000384605F053FCA36F626FC4F880609B1BD2
:1047F0003244A36762670024E7E76762A6622A7A09
:10480000012A13D9697B012905F10C0210D9AB7B70
:104810000849009113440C34587801946946FEF716
:1048200035FE002814BF04469224CEE75B78FFDEF5
:104830001B78FFDE6D360000002070472DE9F04F39
:104840004B6887B0002B7DD00C4615460392029032
:1048500002F0FAFCE668AE4228BF2E468346002EE0
:1048600000F087804FF0000A5746D1464FF001080C
:10487000CDF804A0A3686168B3429A4628BFB24647
:1048800001B352460BEB070005F000FCA268E36899
:10489000C4F80490A2EB0A02A3EB0A03A6EB0A06F3
:1048A0005744A260E3607AB1002B08BF4FF00008C4
:1048B000002EDFD1029AC2F800B05760404607B020
:1048C000BDE8F08F2BBBE368019A22B95BB998462B
:1048D000002ECFD1EEE72268126812682260012212
:1048E0000192002BF3D02168002939D0CDF8109027
:1048F00003E0A36821680133A3604B6800225D6870
:1049000004A80123A8470028F3D12061002EB1D1CB
:10491000D0E72046534650F8101B4A6855680BEB09
:104920000702A847A268E368A2EB0A02A3EB0A0306
:10493000A6EB0A065744A260E360002ACBD001220E
:104940000192B1E70B681B681B68002B7FF47CAFFA
:104950008B68002B7FF478AF036043609846ADE727
:104960006160002FA6D0039BBB4288BF4FF00008B8
:10497000A0E737464FF001089CE700BF08B50020CC
:10498000FEF702FD8020BDE80840FEF7FDBC00BF39
:1049900008B50020FEF708FD8020BDE80840FEF7BE
:1049A00003BD00BF70B5C38893421D4628BF15469E
:1049B000934284B00E461FD8002200200392019635
:1049C000029500F057FB01A98020FEF74BFD04463D
:1049D00028B1002000F056FB204604B070BD02F064
:1049E00037FD802818BF1024F3D1094A094B92E8FB
:1049F000030083E80300ECE78020144602F014FB78
:104A0000B4FBF0F303FB1042B2FA82F25209D4E78E
:104A10007CB500007C0900202DE9F04F0B78062BB7
:104A200087B07CD010D90D2B69D02AD80B2B06D09B
:104A30000C2B2FD1AA4A1378002B40F08E80002433
:104A4000204607B0BDE8F08F022BF8D045D9032BE4
:104A500025D0052B1ED10DF10D008DF80C3002F084
:104A600095FC9DF80D209F4D002102F01F03296049
:104A7000032B00F2B880DFE813F0BA00D300AE00D9
:104A80009F000E2B19D0852B04D1954B1A78032A41
:104A900000F0F8800624204607B0BDE8F08F924869
:104AA00000F0F4FB0028CAD0904B01221A60BFF33B
:104AB0006F8FBFF34F8F0024C2E7894B1A78012A0A
:104AC000BDD08B498B480A78012422F002021C7069
:104AD0000A700024FDF7D4FEB2E7012BDAD1804B37
:104AE0001A78032AD6D0824982480A78032422F011
:104AF00002021C700A700624FDF7C2FEA0E74FF008
:104B00008043D3F8383413F0010F754B1A7821D055
:104B1000022A94D0764977480A780224D5E7C878E3
:104B200003280D46B6D06F4E3368002B00F09C80F2
:104B300000223260716898470446002854D13368D7
:104B4000002B00F09380AB78002B7FF478AF02F05D
:104B500043FC75E7012AB4D171E7654C65482178BB
:104B6000002321F00201217013701C46FDF788FE1E
:104B700066E79DF80E10062900F0F480082900F081
:104B8000DF80C9B95C4C0222204605F08AFA584AF7
:104B900023781278900743F0010148BF43F00303E4
:104BA00021700DF10D0048BF237002225249FFF71A
:104BB000F9FE0446062C03D103A8FEF73DFC04468B
:104BC00094B92C68002C5AD002F042FC044600280C
:104BD0007FF435AFBBE79DF81100010759D112F002
:104BE000600F00F08F80062402F028FC28E7C2F353
:104BF0004114002CE0D1D209BBD19DF80E30032B1B
:104C000050D0092B5CD0012BD6D1BDF80F30012B31
:104C1000D2D1FEF7B1FB002840F068810F24E3E712
:104C200001A99DF81100FEF7C7FB064678B303AA59
:104C30009DF80410FEF7E6FB06280446C0D19DF857
:104C40000D3013F0600FCFD1254A9DF80410127873
:104C5000DF099DF80E3040F0C2800B2BC4D1052A2D
:104C600000F04A810824BFE70E24BDE7234B1B68F0
:104C7000082B04D1224B1B68002B3FF4E0AE02F05E
:104C8000D3FBDDE61A491B480A7804242FE71024D9
:104C9000AAE703A9FEF7BAFB0628044690D19DF8BF
:104CA0000D209CE7BDF80F30012B85D1FEF764FB8A
:104CB0000028B3D00E4A137843F00203137080E744
:104CC000074C2378043B012BCCD89DF80F30002BE8
:104CD00000F03581012B00F02681072484E700BF16
:104CE0005C0900207C090020840900205C700240DF
:104CF0007809002044B50000880900203001001028
:104D0000340100109DF80E20954B9DF811401B7842
:104D1000012A3DD052D3032A7FF465AF04F00F027D
:104D2000072A3FF660AFBDF80F1000297FF45BAF94
:104D3000052B01D0002A95D1204602F089FA40E7E0
:104D400087490978052900F0CE8004297FF434AF23
:104D5000844A14700DF10D0001228249FFF722FEF2
:104D6000044627E79DF81020022A62D0032A4AD081
:104D7000012A7FF421AFBDF81330002B3FF421AF9F
:104D80000DF10D0012227849FFF70CFE044611E7E1
:104D900004F00F02072A3FF626AFBDF80F100029D6
:104DA0007FF421AF052B02D0002A7FF45BAF2046B1
:104DB00002F0DCFA204602F057FA02E7052B02D097
:104DC00023077FF44FAF204602F0AEFA6549022276
:104DD00008800DF10D00FFF7E5FD0446F0E6002B1D
:104DE00074D00A2B7FF400AF052A7FF43BAF304626
:104DF000FEF798FB5B493A4608700DF10D00FFF78E
:104E0000D1FD0446DCE6BDF81330002B3FF4D9AEEB
:104E1000BDF811109DF80F0000F0F8F801460028C9
:104E20003FF4CAAE0DF10D000A78FFF7BBFD044652
:104E3000C0E6BDF81320002A3FF4C3AE092A28BFFC
:104E400009229146FEF7B2FAA34606464FF0090A38
:104E5000AEB1CDF804B0002700E00137726801233D
:104E6000D2F804803146002201A8C0470028F4D1BE
:104E7000337A326823441668BA44DCB2E8E7394E24
:104E80003A4930464A4605F001F93471A6F802A0C5
:104E9000FEF772FA18B1F37943F02003F371FEF7CD
:104EA00085FA334BBDF81320186000205E60C3F80C
:104EB0000890DA6000F0DEF82E498020FEF7E6FA6E
:104EC000044628B3002000F0DDF873E6052A7FF4DD
:104ED000C9AE244C0DF10D00214623800222FFF7BC
:104EE00061FD04466CE61F4B1A7033E7224A1378C3
:104EF00023F00203137064E6BDF80F30FF2B3FF67A
:104F0000ECAE30469DF80F20FEF7D4FA044657E683
:104F100002F09EFA802805BF184B93E80300102486
:104F200085E80300CEE7FEF703FB2378052B3FF46B
:104F300048AE052312482370FDF7A2FC41E6FEF7B8
:104F400051FB2378042B3FF43CAE0B4A0C481378FA
:104F5000042123F0020313702170FDF791FC30E669
:104F60005C0900208809002068B5000048B50000F1
:104F70006009002094B50000780900207CB500008D
:104F800044B5000038B504460D4602F061FAA0426F
:104F900002D01023184638BD95E80300024A82E883
:104FA00003000023184638BD7C09002008B14023C7
:104FB00003600148704700BF8809002070B54FF0BA
:104FC000805286B0D2F8A830D2F8A42000926FEABE
:104FD00083436FEA93439BB202A80A4A0A4E0D210B
:104FE00005F080F80DF10705002404E015F8013FF5
:104FF00006F8013F013402A805F0A8F88442F5D371
:1050000006B070BD9CB50000D711002010B3052874
:1050100023D8154B185CF8B1144B10B553F8204049
:10502000ECB123780BB9A01C10BD0020FFF7BEFF28
:105030002278B2B100230133DBB220F8132014F838
:10504000012F002AF7D101335B00DBB243F4407338
:10505000038010BD06487047704700207047204607
:1050600010BD40F20233F3E714B60000FCB50000B7
:10507000AAB5000072B6024A136801331360704784
:10508000C8090020034A1368013B136003B962B6E4
:10509000704700BFC80900201EF0040F1CBFEFF3CB
:1050A00009800AE0EFF308800549064A884201D8E2
:1050B000904202D88D464FF00000034B1847000085
:1050C0000000042000E00320F1500000BFF34F8FE8
:1050D0000549064BCA6802F4E0621343CB60BFF394
:1050E0004F8F00BFFDE700BF00ED00E00400FA05B0
:1050F0002DE9F04782B08146FCF7BCFDFCF788FA49
:105100000028FBD1334B344F9D6A344BB9F1000F6B
:1051100056D0FF1AFF083F0447F00107D9F81820BE
:105120002F493846FCF718FCD9F80C00D9F80810BC
:1051300099E80C000190009138462A49FCF704FDDB
:10514000D9F81C10D9F81430D9F81020009138463D
:105150002549FCF773FC1F4BDB6A99072BD4DFF85A
:105160009CA0DFF89C800024012606FA04F32B4261
:1051700007D05AF8243041461A4638460BB1FCF79E
:10518000EBFB01341A2CF0D12A060DD42B0405D5E3
:10519000104B16499A6B3846FCF7DEFB4846FFF782
:1051A00095FF02B0BDE8F0870A4B11495A6B3846AB
:1051B000FCF7D2FBEAE70F493846FCF75BFBCEE78A
:1051C000FF1AFF083F0447F001070B493846FCF778
:1051D00051FBC0E700ED00E0FCC000009CC00000F7
:1051E0001CB6000034B600006CB6000038B70000F2
:1051F00018B70000C8B6000094B6000054B700000D
:105200000CB7000000B550E8002F0B4640E8003E08
:105210009EF0000FF7D110465DF804FB00B550E892
:10522000003F03EA010240E8002E9EF0000FF6D195
:1052300010465DF804FB00BF00B550E8003F03EBEB
:10524000010240E8002E9EF0000FF6D110465DF8F6
:1052500004FB00BF00B550E8003FA3EB010240E8AB
:10526000002E9EF0000FF6D110465DF804FB00BF43
:1052700000B5012350E8002F42EA030E40E800E1A8
:1052800091F0000FF6D170465DF804FB00B50023E5
:1052900050E800EF0EEA030240E8002191F0000F11
:1052A000F6D170465DF804FB70B504460020FFF7A8
:1052B000E1FE236861681A688A4215D9511E196097
:1052C0002168A3680D680879268A12F8012CE46821
:1052D0005B1BDBB2984206FB024400D20B7100203C
:1052E000FFF7D0FE204670BD00240020FFF7CAFE65
:1052F000204670BD38B5054600200C46FFF7BAFEC3
:105300002A681368591C1160E9682A8A641AB4FB78
:10531000F2F41C700020BDE83840FFF7B3BE00BFB8
:10532000826802B9704710B5044643690168006994
:1053300098470023A36010BD0EB400B582B0039956
:1053400029B102AA04AB42F8043D00F095F802B07E
:105350005DF804EB03B070472DE9F84F1746B942EA
:10536000884606461D46DDF828B00B9A7DD30B46CD
:105370004FF00109B3FBF7F39F4209F10109F9D995
:10538000A94538BFA94612F0010A02D1BBF1000FAE
:1053900049D1B268012402E0013D07FB04F4012D6C
:1053A000FAD8B8FBF4F18F42F7D9324D05E0B4FBDF
:1053B000F7F4A4B1B8FBF4F1B268685C531CB360B5
:1053C00033689854B26873689A4204FB1188EED32C
:1053D0003046FFF7A5FFB4FBF7F4002CEAD1BAF191
:1053E000000F16D0BBF1000F33D0CB4588BF20246F
:1053F0003ED9B3683268591CB160D454B26873683E
:105400009A420BF1FF3B06D2BBF1000F09D0D94500
:10541000EFD1BDE8F88F3046FFF782FFBBF1000FF8
:10542000F5D1BDE8F88F93071AD42024CB45B0D925
:10543000B2683368511CB1609C54B26873689A4278
:105440000BF1FF3B07D2BBF1000FA3D0CB45F0D14E
:10545000A0E7BDE8F88F3046FFF762FFB268F2E7D9
:10546000002D0CBF30242024E0E74FF0010987E72E
:10547000BDE8F88F9CBC0000002900F06F822DE988
:10548000F04F064685B093460C460B780DE0B268A7
:105490003168501CB0608B54B26873689A4280F0D7
:1054A000D3802378002B00F0BA800134002B00F069
:1054B000B680252BEBD14FF00008234614F8012BC2
:1054C0002D2A00F0BB80302A00F0BB802B2A00F090
:1054D000AD802A2A00F0BC80A2F13005E9B209298A
:1054E00098BF013302D9A9E1A1F130051C4613F898
:1054F000012BA2F1300005EB8501092802EB4101E7
:10550000F2D92E2A00F0B080002701E014F8012F14
:1055100002F0FB03682BF9D0253A532A7AD8DFE84A
:1055200012F07A0179007900790079007900790028
:1055300079007900790079007900790079007900A3
:105540007900790079007900790079007900790093
:105550007900790079007900790079007900790083
:105560007900790079007900790079007900790073
:105570007900790079007900790079007900790063
:1055800079007900790079006A0179007900790061
:105590007900790079007900790079007900550166
:1055A000FC007900790079007900FC00790079002D
:1055B0007900790079007900540079007900CA00F7
:1055C0007900BA00790079006A01DBF80020131D28
:1055D000CBF80030B368156831685A1CB2604FF0E0
:1055E0003002CA54B3687268934280F0A081326876
:1055F000581C7821B060D154B26873689A4280F028
:1056000092810022082301922946009310223046FD
:10561000FFF7A2FE01342378002B7FF446AF337BE3
:10562000002B40F0058105B0BDE8F08F234614F84B
:10563000012B2D2A48F004087FF445AF48F00108FB
:105640003BE748F0020838E73046FFF769FE28E7F5
:10565000DBF80020111DCBF8001015685A782E2AAF
:1056600003F101047FF450AF6278A2F13003092BFB
:1056700004F101044FF000073FF64AAF07EB87073C
:1056800002EB470714F8012FA2F13003092BA7F111
:105690003007F3D93CE7DBF800301A1DCBF80020C7
:1056A0001968CDF804803B4600950A223046FFF782
:1056B00053FE0134AFE7DBF800301A1DCBF80020B1
:1056C00018F0010FD3F8009040F0BB80B9F1000F43
:1056D00000F04781484604F039FD0746BD4240F2DC
:1056E000F180002D00F0EE804FF0200805E0BD4273
:1056F00000F0E880002D00F0E580B3683268591CA6
:10570000B16002F80380B26873689A4205F1FF3510
:10571000EDD33046FFF704FEE9E7DBF800301A1D51
:10572000CBF80020D3F8009089EAE973A3EBE97382
:10573000092B4FF0010A09DD8F4A82FB0312DB17A8
:10574000C3EBA203092B0AF1010AF5DCBA4538BF05
:10575000BA462DB3B9F1000F02DB18F0040F00D0E8
:10576000013D18F0020F40F0F58018F0010F17D13D
:10577000002D00F0FE80AA4538BF202110D2B2686B
:105780003368501CB0609954B26873689A4205F14E
:10579000FF3580F0E880002D00F0EB80AA45EED1C7
:1057A000B9F1000FC0F2C88018F0040F7BD108F0E7
:1057B0000303022B00F09A808DE820013B46494606
:1057C0000A223046FFF7C8FD013424E7DBF8002049
:1057D000131DCBF80030B36831681278581CB060E4
:1057E000CA54B26873689A42FFF414AF3046FFF7A8
:1057F00097FD01340FE7DBF800301A1DCBF80020CD
:105800001968CDF804803B46009510223046FFF71A
:10581000A3FD0134FFE6B3683268591CB1604FF054
:105820002501D154B26873689A42DFD20134F2E69E
:10583000304605B0BDE8F04FFFF772BD1C460025AD
:105840005FE64F46A7EB090817F8013B8BB1B2683A
:105850003168501CB0608B54B26873689A42F1D3BF
:105860003046FFF75DFDA7EB090817F8013B002B59
:10587000EDD145457FF6CEAE202705E045453FF406
:10588000C9AE002D3FF4C6AEB3683268591CB16092
:10589000D754B26873689A4205F1FF35EED33046AB
:1058A000FFF73EFDEAE7B2683368501C2B21B06079
:1058B0009954B26873689A42FFF479AF3046FFF7A3
:1058C0002FFD74E709F1FF3919F8013F002B3FF470
:1058D000A1AEB2683168501CB0608B54B268736876
:1058E0009A42F1D33046FFF71BFDEDE7002F7FF41E
:1058F00063AF002D33D0AA45BFF45EAFB268336802
:10590000511CB1604FF030019954B26873689A42EB
:1059100005F1FF3503D215B3AA45EFD14CE7304668
:10592000FFF7FEFCF7E73046FFF7FAFC69E6304682
:10593000FFF7F6FCB3685AE6B2683368501C2D21B5
:10594000B0609954B26873689A42C9F10009FFF4D3
:105950002EAFB3E7002F3FF423AF06E770470025D3
:105960002AE74F46BAE630460391FFF7D9FC039980
:1059700011E7002514E700BF676666662DE9F04170
:10598000B0F81080CF1CA8F1040847440646B7FBC6
:10599000F8F7FFF789FC80B3FFB200250123013F30
:1059A0000446A0F8068006600571437128D0804641
:1059B00009E06379AF4203F101036371C8F80000A5
:1059C000066080461CD03046FFF76EFC013500288B
:1059D000EFD16679721E16D02346013082421B68D1
:1059E000FBD81F684EB1214600250C6801353846AA
:1059F000FFF780FCAE422146F7D10020BDE8F081E0
:105A00002046BDE8F0812768EDE700BF04300121A2
:105A1000FFF712BCF8B5012104460430FFF71AFC69
:105A2000C0B200B1F8BD6679721E12D023460130B3
:105A300082421B68FBD81F68002EF3D02146002449
:105A40000D6801343846FFF755FCA6422946F7D1C8
:105A5000F8BD2768F2E700BF2DE9F843C78890F842
:105A600005E0154607FB0EFEEC18AEF1040E1A1DFC
:105A7000A6458846B2FBF7F638BFAEEB030507FB39
:105A80001621044616B1013E2468FCD17E1AAE42AE
:105A900028BF2E469DB14FF00009081DAD1B08EB35
:105AA00009012044324604F0F1FAAF42B1442468BF
:105AB0003E464FF0000128BF2E46002DEDD1BDE837
:105AC000F88300BF2DE9F843C78890F805E0154634
:105AD00007FB0EFEEC18AEF1040E1A1DA645884613
:105AE000B2FBF7F638BFAEEB030507FB1621044601
:105AF00016B1013E2468FCD17E1AAE4228BF2E4664
:105B00009DB14FF0000904312144AD1B324608EB32
:105B1000090004F0BBFAAF42B14424683E464FF09E
:105B2000000128BF2E46002DEDD1BDE8F88300BF4F
:105B30002DE9F047154612B92846BDE8F08704461E
:105B400000208846FFF796FA237C002B61D1D4F819
:105B500008904D4528BF4D460020FFF78BFA23687B
:105B60001F685A68974252D9A36801331344DF1B58
:105B70000020FFF787FA2368A6685968E2685B6827
:105B800060680136761AB54202FB03002FD902FB8A
:105B900006FA5246414604F079FAE2686068AE1BA4
:105BA00008EB0A0102FB06F204F070FAA9EB070702
:105BB0002368BD425E6007D92268A16853688B42A2
:105BC00034BF0133002313602268136851688B428D
:105BD00002D9A06801300144CB1A9168994238BFBC
:105BE00093600020FFF74EFA2846BDE8F08702FBDD
:105BF00005F2414604F04AFA2268A16853682B4432
:105C00008B4296BF536800235B195360DCE7D71BB8
:105C1000AEE70020A768FFF72DFA226813685168E5
:105C20008B420DD9A268561C0E44F61A0020FFF7CD
:105C300029FABB1B9D42D4F8089028BF1D468BE76C
:105C4000CE1AF3E72DE9F041144612B92046BDE81B
:105C5000F081054600208846FFF70CFA2A68136891
:105C600051688B4235D817685668EA68CB1A9C424F
:105C700028BF1C46B74288BFAE68696888BF013636
:105C8000F61BB44202FB071116D906FB02F73A468F
:105C9000404604F0FBF9EA686968A61B08EB0700B8
:105CA00002FB06F204F0F2F92B681E600020FFF7F9
:105CB000E9F92046BDE8F08102FB04F2404604F019
:105CC000E5F9A9682A68E3198B4288BF00231360AD
:105CD000ECE7A86801300144C5E700BF0368186815
:105CE0005B68C01AB0FA80F04009704710B568B11F
:105CF00001280AD10C4C2369A07033B10CCB0120D0
:105D0000226198472369002BF8D110BD064CA36887
:105D100001226270002BF8D00CCB0020A2609847C3
:105D2000A368002BF8D110BDCC09002010B50B4C96
:105D3000237882B013B1852002B010BD084863609B
:105D4000A3602361E36002F0BFFA019002F0CAFA97
:105D500001980123237002B010BD00BFCC090020C0
:105D6000ED5C000038B5154DAB78044673B110B149
:105D70004368012098470020FFF77CF9EB68013366
:105D8000EB600020BDE83840FFF77CB903F0FF006E
:105D9000FFF770F964B12A6942B1944208D0134602
:105DA00001E09C4204D01B68002BFAD122602C61D8
:105DB000EB68002BE2D102F0ADFADFE7CC0900205E
:105DC0004FF08043D3F81804C0F30040704700BF81
:105DD00038B5154D6B78044673B110B14368002097
:105DE00098470020FFF746F96B6801336B6000208D
:105DF000BDE83840FFF746B903F0FF00FFF73AF976
:105E000064B1AA6842B1944208D0134601E09C42B2
:105E100004D01B68002BFAD12260AC606B68002BA9
:105E2000E2D102F08FFADFE7CC09002038B5084C48
:105E30000020FFF71FF96368013B6360656815B9CF
:105E400002F092FA65700020BDE83840FFF71AB9F9
:105E5000CC09002008B5054B002808BF184602F001
:105E6000C1FD10B9024B01221A7008BDC0BC000070
:105E7000E009002010B5044602F0EEFD02F0F4FD4A
:105E8000204602F0D7FD02F0DFFD002010BD00BF6C
:105E900070B50A4A0A4B06784568047AC06853F818
:105EA000213052F8211084B003908DF800600195E4
:105EB0008DF808406846984704B070BDE40900209A
:105EC000EC09002070B50A4A0A4B067845688468D8
:105ED000C06853F8213052F8211084B003908DF837
:105EE000006001958DF808406846984704B070BD81
:105EF000E4090020EC0900202DE9F043DFF874806C
:105F000006784B7F08F806300D46074694460FCDBD
:105F100089B06C460FC495E80F003D78DFF85890C3
:105F2000DFF858E018F8055049F826C084E80F005B
:105F30004EF82600049665B1BCF1000F0B4A694685
:105F400007F1040008BF002203F0E2FB09B0BDE83E
:105F5000F083BCF1000F064A694607F10C0008BF48
:105F6000002203F065F909B0BDE8F083915E0000FE
:105F7000C55E0000E8110020EC090020E4090020C3
:105F800030B44C689C4208D2002545600968016025
:105F900093420CD0002030BC704743600D68056010
:105FA0000868E41A1844934281E81100F2D1201CD9
:105FB00018BF012030BC70474B689A4228BF1A4670
:105FC00010B40C680460426048680B685DF8044BCC
:105FD000801A13444860003018BF01200B607047DE
:105FE0004B689A4228BF1A4662B10B680360426050
:105FF00048680B68801A13444860101C0B6018BF77
:10600000012070471346F1E710B582B002A80023C3
:106010000121064A0193064C00F8041D0549126847
:1060200023700B70904702B010BD00BF200B002002
:10603000F4090020240B0020704700BF00B583B096
:106040000D4B0E4900228DF80420D3F82025ADF821
:106050000620D3F8C0040A4A0968136800280CBF58
:106060004FF480704FF00120034301A8136088476C
:1060700003B05DF804FB00BF00700240200B00205D
:10608000FC090020F8B50C4622C90A4F954228BFEA
:10609000154606462A46384603F0F8FF7560376015
:1060A000236860682B44401B60602360003018BF89
:1060B0000120F8BD2C0B0020F8B54C68944228BF95
:1060C00014460D4606465CB9046074606A682B6825
:1060D000121B2344201C6A602B6018BF0120F8BDEE
:1060E000034F09683846224603F0D0FF3760ECE7DB
:1060F0002C0B002010B40B4A0B4C92F89E100B484E
:10610000002303292360037005D0D2F8903013B127
:106110005DF8044B70476FF0010105485DF8044BD2
:10612000FFF77CB8000A00201C7C0240F509002023
:10613000F809002030B51D4B1A78130683B01CD423
:106140001B4B1C481D68016802F00F03103301242B
:1061500004FA03F319432B42016001D003B030BDB0
:10616000154B8DF8062006221B688DF807408DF828
:10617000042001A8984703B030BD0E4C0C4B216899
:10618000186802F00F050123AB401943034021605A
:10619000E4D109498DF8062006228DF8073001A8C0
:1061A0000B688DF804209847D8E700BF240B002027
:1061B000F8090020FC090020200B002010B5244B1A
:1061C000D3F80044C3F8004482B0BFF36F8FBFF32D
:1061D0004F8FBFF36F8FBFF34F8FE1052AD4A20516
:1061E0001CD4630502D51B4B1A780AB902B010BD46
:1061F000174C1948012100221A70C4F808150160D3
:10620000BFF36F8FBFF34F8F144B019202A804218D
:1062100000F8041D1B68984702B010BD02A80023B7
:1062200003210E4A019300F8041D0A4912680B70FD
:106230009047D6E702A8002301930222074B00F8FB
:10624000042D044A1B68012111709847C7E700BF5D
:1062500000700240F409002058700240200B00201A
:1062600010B5114A114C92F88E10114800230329E1
:10627000236082B0037002D0D2F880400CB102B02B
:1062800010BD6FF080710B48FEF7C8FF0A4B8DF808
:106290000740062108221B688DF804108DF806209F
:1062A00001A8984702B010BD000A00201C7C0240E3
:1062B000F5090020F8090020200B002010B5154A30
:1062C000154C92F81E11154800230329236082B053
:1062D000037004D0D2F8104144B102B010BD6FF485
:1062E00080710F48FEF79AFF02B010BD6FF4807105
:1062F0000B48FEF793FF0B4B8DF8074006218822D1
:106300001B688DF804108DF8062001A8984702B08C
:1063100010BD00BF000A00201C7C0240F5090020CF
:10632000F8090020200B002010B40B4A0B4C92F807
:10633000AE100B48002303292360037005D0D2F868
:10634000A03013B15DF8044B70476FF002010548AF
:106350005DF8044BFEF762BF000A00201C7C02407F
:10636000F5090020F809002010B40B4A0B4C92F8F4
:10637000BE100B48002303292360037005D0D2F818
:10638000B03013B15DF8044B70476FF0040105485D
:106390005DF8044BFEF742BF000A00201C7C02405F
:1063A000F5090020F809002010B40B4A0B4C92F8B4
:1063B000CE100B48002303292360037005D0D2F8C8
:1063C000C03013B15DF8044B70476FF00801054809
:1063D0005DF8044BFEF722BF000A00201C7C02403F
:1063E000F5090020F809002010B40B4A0B4C92F874
:1063F000DE100B48002303292360037005D0D2F878
:10640000D03013B15DF8044B70476FF010010548B0
:106410005DF8044BFEF702BF000A00201C7C02401E
:10642000F5090020F809002010B40B4A0B4C92F833
:10643000EE100B48002303292360037005D0D2F827
:10644000E03013B15DF8044B70476FF02001054850
:106450005DF8044BFEF7E2BE000A00201C7C0240FF
:10646000F5090020F809002010B40B4A0B4C92F8F3
:10647000FE100B48002303292360037005D0D2F8D7
:10648000F03013B15DF8044B70476FF040010548E0
:106490005DF8044BFEF7C2BE000A00201C7C0240DF
:1064A000F5090020F809002010B40B4A0B4C92F8B3
:1064B0000E110B48002303292360037005D0D2F886
:1064C000003113B15DF8044B70476FF0800105484F
:1064D0005DF8044BFEF7A2BE000A00201C7C0240BF
:1064E000F5090020F80900202DE9F04FDFF89CA203
:1064F000DFF8AC82DAF80030D8F80020134087B01B
:1065000076D013F0012276D092FAA2F2B2FA82F497
:106510000F2C86BFA4F11007FBB244F08003019357
:106520009DF904B0BBF1000FC0F2EF80019B904ACF
:1065300003F00F052B01072D02EB030600F2D480B8
:1065400005F594728B4951F82290894A7168D358A5
:10655000B2891F4604A84B46B847049B13B1059B5C
:1065600099454FD800284BD0834B844882221A602B
:10657000D8F800300599012202FA04F423EA040451
:10658000B36802700B44BBF1000FC8F80040B36061
:106590000498C0F2CE80072D51D8AA0053199B0051
:1065A00003F1804303F51C33C3F80007C3F8041755
:1065B000734B1B68082B4DD028231344DBB203F127
:1065C000804303F51C3301221A60BFF36F8FBFF3C2
:1065D0004F8F6C4A6C4B13EA2B0338BF134633F8CA
:1065E000152002F1804202F51C321368002BFCD00A
:1065F00007B0BDE8F08F93FAA3F3B3FA83F487E70B
:106600003060B1E70121A1400224C9435F48B4735F
:10661000FEF704FE5E4B9DF804101B688DF80F40DA
:1066200006228DF80C208DF80E1003A89847DAF892
:106630000030D8F8002013407FF463AFD8E74D4B0B
:10664000C3F8A007C3F8A4174D4B1B68082B4FEAEB
:106650008502B1D14F4B1B68002BADD1BBF1000FB0
:10666000B4BF04272827484B46494B4C4B4EDFF814
:1066700034811744FFB2B4BF9946894607F1804779
:1066800009EB450907F51C3744F0010400254FF0DC
:10669000010A3560BFF36F8FBFF34F8FC7F800A0BB
:1066A000BFF36F8FBFF34F8F8020A0473368002B5D
:1066B000EFD04FF4F060A047D8F800309A0605D428
:1066C0008020A047D8F800309B06F9D54020A0478D
:1066D000B9F8003003F1804303F51C331B68002B2D
:1066E000D5D007B0BDE8F08F224AD2F8C09419F493
:1066F000803F3FF42AAF04A83768B289716800234D
:10670000B84700287FF430AF7AE7019FDFF8989010
:1067100007F00F052F0109EB070604A8B28971687D
:1067200059F80730984700287FF41EAF49F8070052
:106730001AE7072D0FD90F4BAA00C3F8A006C3F81C
:10674000A4160F4B1B68082B03D1124B1B68002BA0
:1067500084D0042331E7AA0053199B0003F180433E
:1067600003F51C33C3F80006C3F80416E9E700BFBD
:10677000000A0020007002401C7C0240F509002045
:106780003001001004BD0000E4BC0000F809002046
:10679000200B002034010010D0BC00000471024026
:1067A000FC09002074740240900A002030B5174A9A
:1067B000174892F84E10174C00230329036083B04A
:1067C000237005D0156C6DB1FFF78EFE03B030BDA0
:1067D0006FF480111048FEF721FD2378002BF3D0D1
:1067E00003B030BD6FF480110B48FEF717FD0B4B63
:1067F0008DF80750042206211B688DF804108DF8CF
:1068000006200DEB02009847E7E700BF000A0020D2
:106810001C7C0240F5090020F8090020200B002014
:106820002DE9F043314BD3F86C44C3F86C4483B08A
:10683000BFF36F8FBFF34F8F2D4B1B68082B48D0D2
:106840001CB32C4DDFF8BC80DFF8BC900127062676
:1068500094FAA4F3B3FA83F3DAB20F2BA2F1100087
:10686000D8BF42F080002A68D8F8001007FA03F376
:1068700042EA0302C8BFC0B22A60020624EA030447
:1068800018D40B4209D0002CE2D11B4B1B780BB95A
:10689000FFF72AFE03B0BDE8F0838DF806008DF8FF
:1068A00004608DF80770D9F8003001A89847002CD3
:1068B000CED1EAE70B40E6D18DF806008DF807301F
:1068C0008DF80460D9F8003001A89847002CBFD19A
:1068D000DBE70A4B1B68002BB2D1094A136803F0AF
:1068E000011123F0011311601C43A9E7007002405D
:1068F00030010010FC090020F509002034010010CF
:10690000280B0020F8090020200B002010B5234A96
:10691000234C917B234800230329236082B003701A
:1069200025D014684CB3204B1B68082B08D01F4B94
:1069300001221A60BFF36F8FBFF34F8F02B010BDFB
:106940001B4B1B68002BF2D1EFF3108372B6174A72
:1069500001211160BFF36F8FBFF34F8F1160BFF341
:106960006F8FBFF34F8F83F3108802B010BD6FF4A9
:1069700080311048FEF752FCE0E76FF480310D489B
:10698000FEF74CFC0C4B8DF8064006228DF80740B4
:106990001B688DF8042001A89847CFE7000A002063
:1069A0001C7C0240F5090020300100104C700240B0
:1069B00034010010F8090020200B002030B5164AE1
:1069C000164892F85E10164C00230329036083B02A
:1069D000237005D0156D6DB1FFF786FD03B030BD96
:1069E0006FF400110F48FEF719FC2378002BF3D049
:1069F00003B030BD6FF400110A48FEF70FFC0A4BDC
:106A00008DF80750062105221B688DF804108DF8BB
:106A1000062001A89847E8E7000A00201C7C0240F5
:106A2000F5090020F8090020200B002030B5164A97
:106A3000164892F86E10164C00230329036083B0A9
:106A4000237005D0156E6DB1FFF74EFD03B030BD5C
:106A50006FF480010F48FEF7E1FB2378002BF3D0A1
:106A600003B030BD6FF480010A48FEF7D7FB0A4A35
:106A70008DF80750062312688DF804308DF8063023
:106A800001A89047E9E700BF000A00201C7C0240F3
:106A9000F5090020F8090020200B002030B5164A27
:106AA000164892F87E10164C00230329036083B029
:106AB000237005D0156F6DB1FFF716FD03B030BD23
:106AC0006FF400010F48FEF7A9FB2378002BF3D0E9
:106AD00003B030BD6FF400010A48FEF79FFB0A4B7C
