:020000040000FA
:1000000000040020990900002D0600007909000075
:1000100037060000410600004B060000000000000B
:10002000000000000000000000000000BD0900000A
:1000300055060000000000005F0600006906000091
:10004000730600007D060000870600009106000090
:100050009B060000A5060000AF060000B9060000E0
:10006000C3060000CD060000D7060000E106000030
:10007000EB060000F5060000FF060000090700007F
:10008000130700001D0700002707000031070000CC
:100090003B070000450700004F070000590700001C
:1000A000630700006D07000077070000810700006C
:1000B0008B070000950700009F070000A9070000BC
:1000C000B3070000BD070000C7070000D10700000C
:1000D000DB070000E5070000EF070000F90700005C
:1000E000030800000D0800001708000021080000A8
:1000F0002B080000350800003F08000049080000F8
:10010000530800001FB500F003F88DE80F001FBD75
:1001100000F038BC70B50B46010B184400F6FF70B8
:10012000040B4FF080500022090303692403406947
:1001300043431D1B104600F0E9F929462046BDE85F
:10014000704000F0E3B9F0B54FF6FF734FF4B475AB
:100150001A466E1E12E0A94201D3344600E00C4656
:10016000B1EB040130F8027B641E3B441A44F9D120
:100170009CB204EB134394B204EB12420029EAD17F
:1001800098B200EB134002EB124140EA0140F0BD8F
:10019000C34992B00446D1E90001CDE91001FF2224
:1001A0004021684600F094FB94E80F008DE80F00B2
:1001B000684610A902E004C841F8042D8842FAD12B
:1001C00010216846FFF7BFFF1090AA208DF8440069
:1001D00000F0FAF800F0DDF84FF01024A0691022CA
:1001E0006946803000F0DEF8A069082210A900F00E
:1001F000D9F800F0C2F870B504460068A94D072888
:1002000069D2DFE800F033041929561E2500D4E92D
:10021000026564682946304600F0FDF82A4621460A
:10022000304600F0BFF8AA002146304600F024FB1B
:10023000002800D0032070BD00F0D6FB4FF48050A2
:1002400007E0201D00F0C6F80028F4D100F0CCFB38
:1002500060682860002070BD241D94E807009200AB
:1002600000F00AFB0028F6D00E2070BD00F0BEF8AA
:100270000028FAD1D4E9010100EB81034FF080504E
:10028000026945696A43934209D84FF010225369C5
:1002900003EB81030169406941438B4201D9092085
:1002A00070BD5069401C01D10F2070BD2046FFF782
:1002B0006FFF00F09BF80028F7D1201D00F08AF8AE
:1002C0000028F2D160680028F0D100F07DF800F03D
:1002D00060F800F052F8072070BD10B50C461828E1
:1002E00002D00120086010BD2068FFF784FF206065
:1002F00010BD4FF01024A069401C05D0A569A66967
:1003000080353079AA2808D06069401C2DD06069FA
:100310000068401C29D060692CE010212846FFF7B6
:1003200012FF316881421CD1A16901F18002C03104
:1003300005E030B108CA51F8040D984201D10120FE
:1003400000E000208A42F4D158B1286810B1042896
:1003500003D0FEE7284600F070F85249686808604C
:1003600008E000F016F800F008F84FF4805001683B
:10037000491C01D000F012FBFEE7BFF34F8F4A4843
:1003800001684A4A01F4E06111430160BFF34F8FF5
:10039000FEE74FF010208169491C02D0806900F00F
:1003A0008CB870472DE9F04117460D4606460024EB
:1003B00006E03046296800F093F8641C2D1D361DB8
:1003C000BC42F6D3BDE8F0814FF0102080694FF4B5
:1003D00080519FE64FF080510A69496900684A439D
:1003E000824201D810207047002070474FF08050A3
:1003F0000169406941434FF01020826902F5805243
:10040000914201D2092070478069401C01D0002030
:1004100070470420704770B50C4605464FF480665F
:1004200008E0284600F049F8B44205D3A4F58064FA
:1004300005F58055002CF4D170BD4168044609B122
:10044000012600E000264FF010256869A26892009E
:1004500000F012FAF8B1A06881006869FFF75AFE4F
:10046000BEB16E694FF08050A56864680169426949
:100470005143A1420DD9016940694143A94208D9BC
:1004800029463046FFF7C7FF2A4621463046FFF788
:1004900089FFFFF772FFFFF797FFFFF77AFFF8E793
:1004A0000C0A0000000000200CED00E00400FA053A
:1004B000144801680029FCD07047134A02211160DA
:1004C00010490B68002BFCD00F4B1B1D18600868EF
:1004D0000028FCD00020106008680028FCD070477D
:1004E000094B10B501221A60064A1468002CFCD092
:1004F000016010680028FCD00020186010680028F7
:10050000FCD010BD00E4014004E5014070B50C468C
:10051000054600F073F810B900F07EF828B12146C6
:100520002846BDE8704000F007B821462846BDE8DF
:10053000704000F037B800007FB5002200920192B1
:10054000029203920A0B000B6946012302440AE05F
:10055000440900F01F0651F8245003FA06F635430B
:1005600041F82450401C8242F2D80D490868009A94
:1005700010430860081D0168019A1143016000F0F2
:100580003DF800280AD0064910310868029A104345
:100590000860091D0868039A104308607FBD0000C9
:1005A0000006004030B50F4C002200BF04EB0213E0
:1005B000D3F800582DB9D3F8045815B9D3F8085812
:1005C0001DB1521C082AF1D330BD082AFCD204EB1D
:1005D0000212C2F80008C3F804180220C3F8080881
:1005E00030BD000000E001404FF08050D0F83001F5
:1005F000082801D000207047012070474FF080503C
:10060000D0F83011062905D0D0F83001401C01D0B7
:1006100000207047012070474FF08050D0F8300123
:100620000A2801D0002070470120704708208F4918
:1006300009680958084710208C4909680958084773
:1006400014208A4909680958084718208749096809
:100650000958084730208549096809580847382053
:1006600082490968095808473C20804909680958A7
:10067000084740207D4909680958084744207B49BC
:1006800009680958084748207849096809580847FF
:100690004C20764909680958084750207349096871
:1006A00009580847542071490968095808475820D3
:1006B0006E490968095808475C206C49096809585F
:1006C0000847602069490968095808476420674954
:1006D00009680958084768206449096809580847A3
:1006E0006C20624909680958084770205F49096809
:1006F0000958084774205D49096809580847782057
:100700005A490968095808477C2058490968095816
:1007100008478020554909680958084784205349EB
:100720000968095808478820504909680958084746
:100730008C204E4909680958084790204B490968A0
:1007400009580847942049490968095808479820DA
:1007500046490968095808479C20444909680958CE
:100760000847A0204149096809580847A4203F4983
:10077000096809580847A8203C49096809580847EA
:10078000AC203A49096809580847B0203749096838
:1007900009580847B4203549096809580847B8205E
:1007A0003249096809580847BC2030490968095886
:1007B0000847C0202D49096809580847C4202B491B
:1007C000096809580847C82028490968095808478E
:1007D000CC202649096809580847D02023490968D0
:1007E00009580847D4202149096809580847D820E2
:1007F0001E49096809580847DC201C49096809583E
:100800000847E0201949096809580847E4201749B2
:10081000096809580847E820144909680958084731
:10082000EC201249096809580847F0200F49096867
:1008300009580847F4200D49096809580847F82065
:100840000A49096809580847FC20084909680958F5
:1008500008475FF480700549096809580847000097
:1008600003480449024A034B70470000000000207F
:10087000180A0000180A000040EA010310B59B079F
:100880000FD1042A0DD310C808C9121F9C42F8D0FA
:1008900020BA19BA884201D9012010BD4FF0FF30AB
:1008A00010BD1AB1D30703D0521C07E0002010BDC1
:1008B00010F8013B11F8014B1B1B07D110F8013B4D
:1008C00011F8014B1B1B01D1921EF1D1184610BD2E
:1008D00002F0FF0343EA032242EA024200F005B8B5
:1008E0007047704770474FF000020429C0F0128033
:1008F00010F0030C00F01B80CCF1040CBCF1020FD3
:1009000018BF00F8012BA8BF20F8022BA1EB0C01A7
:1009100000F00DB85FEAC17C24BF00F8012B00F89D
:10092000012B48BF00F8012B70474FF0000200B5C3
:10093000134694469646203922BFA0E80C50A0E802
:100940000C50B1F12001BFF4F7AF090728BFA0E8B0
:100950000C5048BF0CC05DF804EB890028BF40F87C
:10096000042B08BF704748BF20F8022B11F0804FBE
:1009700018BF00F8012B7047014B1B68DB68184754
:100980000000002009480A497047FFF7FBFFFFF706
:10099000B9FB00BD20BFFDE7064B1847064A1060B3
:1009A000016881F30888406800470000180A0000C9
:1009B000180A0000F3020000000000201EF0040FDF
:1009C0000CBFEFF30881EFF30981886902380078E2
:1009D000182803D100E00000074A1047074A1268B0
:1009E0002C3212681047000000B5054B1B68054A01
:1009F0009B58984700BD0000DB020000000000206B
:100A0000080A0000040000000010000000000000C0
:080A100000FFFFFF0090D0037E
:1010000000000420E1120000091300000B1300008F
:101010000D1300000F13000011130000000000006A
:10102000000000000000000000000000131300009A
:101030001513000000000000171300001913000032
:10104000D51700001B130000D91300001B1300006C
:101050001B1300001B1300001B1300001B130000D8
:101060001B1300001B1300001B1300001B130000C8
:101070001B1300001B1300001B1300001B130000B8
:101080001B1300001B1300001B1300001B130000A8
:101090001B1300001B1300001B1300001B13000098
:1010A0001B1300001B1300001B1300001B13000088
:1010B0001B1300001B1300000000000000000000D4
:1010C0001B1300001B1300001B1300001B13000068
:1010D0001B1300001B1300001B1300001B13000058
:1010E0001B1300006D1600001B1300000000000021
:1010F000000000001B130000000000001B13000094
:1011000000000000000000000000000000000000DF
:1011100000000000000000000000000000000000CF
:1011200000000000000000000000000000000000BF
:1011300000000000000000000000000000000000AF
:10114000000000000000000000000000000000009F
:10115000000000000000000000000000000000008F
:10116000000000000000000000000000000000007F
:10117000000000000000000000000000000000006F
:10118000000000000000000000000000000000005F
:10119000000000000000000000000000000000004F
:1011A000000000000000000000000000000000003F
:1011B000000000000000000000000000000000002F
:1011C000000000000000000000000000000000001F
:1011D000000000000000000000000000000000000F
:1011E00000000000000000000000000000000000FF
:1011F00000000000000000000000000000000000EF
:1012000010B5054C237833B9044B13B10448AFF340
:1012100000800123237010BD780000200000000032
:10122000741C00000C4B43B10C480D4910B5AFF3D2
:1012300000800C48036823B910BD0A48036833B91D
:101240007047094B002BF7D0BDE810401847064BFC
:10125000002BF5D0184700BF00000000741C0000F0
:101260007C0000207400002000000000154B002BC3
:1012700008BF134B9D46A3F5803A00218B460F46CD
:101280001348144A121A00F0BFFC0F4B002B00D079
:1012900098470E4B002B00D09847002000210400F7
:1012A0000D000D48002802D00C48AFF3008000F07C
:1012B00087FC2000290000F041FB00F06DFC00BF1E
:1012C00000000800000004200000000000000000F2
:1012D00078000020D800002000000000000000007E
:1012E0000649074A074B9B1A03DD043BC858D050F8
:1012F000FBDC00F06FFBFFF7B9FF0000801C000073
:101300000800002078000020FEE7FEE7FEE7FEE789
:10131000FEE7FEE7FEE7FEE7FEE7FEE700B585B085
:1013200000230390194601AA44F20100019302939D
:1013300000F004F805B05DF804FB00BF72B6094B7D
:101340001B68DB0700D500BEBFF34F8F0649074B74
:10135000CA6802F4E0621343CB60BFF34F8F00BF53
:10136000FDE700BFF0ED00E000ED00E00400FA054D
:1013700072B6024A1368013313607047940000206C
:10138000034A1368013B136003B962B6704700BF9C
:101390009400002000B550E8002F0B4640E8003EC6
:1013A0009EF0000FF7D110465DF804FB01600B685A
:1013B00043604A68934204BF00234360704700BF04
:1013C000436843B1026891680B444360526893429A
:1013D00004BF002343607047014B1B68184700BFE0
:1013E000980000204A4B2DE9F04100240746904622
:1013F0001C60E1B14378023B072B18D8DFE803F00B
:101400007D7F710A0473788400230A79414813436D
:10141000C0F83C36CB781B068A7843EA02434A7808
:1014200043EA02230A783B491343C1F83836394A64
:10143000394D374E0123C2F80833BB7879783878B4
:101440001B0343EA0123F9780343387943EA413324
:10145000797943EA803343EAC133C2F8343645F040
:101460000105642402E0A847013C4AD033684FF4E8
:101470002070002BF7D0274B002101223160C3F8E8
:101480000423B8F1000F29D07A78D3F83C16931FC3
:10149000032B0ED8DFE803F00B0805020B0E88F8CB
:1014A00007300B0C88F806300B0A88F8053088F8EE
:1014B00004101849931ED1F83826032B0ED8DFE804
:1014C00003F00B080502130E88F80330130C88F89C
:1014D0000230130A88F8013088F800200020BDE8A7
:1014E000F081002398E700234A7943EA02238CE73E
:1014F00000238A7943EA0243F6E7002392E70023B8
:101500008DE70D20BDE8F081CB791B06F1E700BF28
:101510000091024000900240401C0000F8B5494B89
:101520001C790CB10820F8BD0579FF2D00F08580ED
:101530004679FF2E00F081808679FF2E7DD0C67916
:10154000FF2E7AD0404E9A60C6F824554279FF2A81
:1015500008BF4FF0FF32C6F828258279FF2A08BF5E
:101560004FF0FF32C6F83025C279FF2A08BF4FF08E
:10157000FF32C6F83425027AFF2A08BF4FF0FF3247
:10158000C6F83825427AFF2A08BF4FF0FF32C6F866
:101590003C250268C6F84025027B90F80BE0477BAB
:1015A000857A9201002F42EACE0242EA050214BF78
:1015B000802500252A43C6F84425D6F80026877BD7
:1015C00090F810E0457C22F07F4222F0FF023A437F
:1015D000C77B42EA4E62002F42EA057214BF4FF009
:1015E000807500252A430125C6F800265C71196024
:1015F000C6F8085351B1827C144952014FF400706F
:10160000D2B281F82923C1F8840148600E49104DF7
:10161000104E01220020C1F8002516431A716424DF
:1016200028600A6002E0B047013C08D02B684FF404
:101630002070002BF7D00020F8BD0720F8BD0D204A
:10164000F8BD00BFA00000200090024000E100E0D3
:1016500000910240401C0000034B5B790BB111204C
:101660007047FFF7BFBE00BFA0000020054B1A68FF
:1016700002B97047044A00205071186013689168DD
:10168000184700BF00910240A000002010B568B1CB
:1016900001280AD10C4C2369A07033B10CCB012076
:1016A000226198472369002BF8D110BD064CA3682E
:1016B00001226270002BF8D00CCB0020A26098476A
:1016C000A368002BF8D110BDAC00002010B50B4C66
:1016D000237882B013B1852002B010BD0848636042
:1016E000A3602361E36000F03BF8019000F046F84E
:1016F00001980123237002B010BD00BFAC00002090
:101700008D16000038B5154DAB78044673B110B195
:101710004368012098470020FFF72AFEEB68013359
:10172000EB600020BDE83840FFF72ABE03F0FF0061
:10173000FFF71EFE64B12A6942B1944208D01346F5
:1017400001E09C4204D01B68002BFAD122602C617E
:10175000EB68002BE2D100F025F8DFE7AC000020B9
:10176000054A13790BB18520704701211060537130
:1017700018461171704700BFC0000020084B1A685E
:10178000D20706D40122C02183F80013C3F88021B8
:101790001A604FF080430122C3F81825704700BF3C
:1017A00000E100E010B4094B094A0021196083B040
:1017B0001B680193019C4FF0804102200123C1F876
:1017C0000403136003B05DF8044B7047040100404C
:1017D0000800004010B5144B1A6882B062B10021B5
:1017E000124A19601B68507900934FF08041012321
:1017F000009CC1F8083390B10D4B1A686AB1002201
:101800001A601B6801934FF080420221074B019838
:10181000C2F808131B680120984702B010BD116878
:1018200053718847E8E700BF00010040C000002076
:1018300004010040064A074B10B5002414701C60D8
:10184000BFF35F8F04490548FFF7B0FD204610BD88
:10185000D1000020D4000020481C0000C800002057
:1018600008B50020FFF784FDF1EE103A23F09F0346
:10187000E1EE103ABFF35F8F054B4022C3F884219D
:101880000020FFF77DFD20BF40BF20BF08BD00BF87
:1018900000E100E0F8B5224E044601213046FFF792
:1018A00079FDBFF35F8FD8B9042C1AD01D4B1A787D
:1018B0009AB91D4D20462C701C4C01221A70636889
:1018C000ABB1274605E03846FFF77AFD6368287814
:1018D0006BB11B6898470028F5D1BFF35F8F30606C
:1018E000F8BD124C104D63682878002BE9D10238FE
:1018F000012808D94FF080430122C3F80025BFF327
:101900004F8F20BFFDE7BFF34F8F0949094BCA68CE
:1019100002F4E0621343CB60BFF34F8F00BFFDE7DB
:10192000D4000020D1000020D0000020C8000020FA
:1019300000ED00E00400FA05704700BF30B589B043
:10194000FFF7C4FE58BB0020FFF7DCFEFFF772FF75
:1019500070BB1C4D0FCD03AC0FC42B681A4923601C
:10196000002203A8FFF7DAFD40BB184B93E8030001
:1019700000220190ADF8081001A81146FFF76CFE97
:10198000C8B9134B03214FF40072C3F82417012088
:10199000C3F80C25FFF77EFFFFF762FFFCE7FFF7B8
:1019A000BDFC0020FFF7AEFEFFF744FF0028D0D0BB
:1019B000FFF7B4FCCDE7FFF7B1FCE2E7FFF7AEFCC1
:1019C000D3E700BF541C000039190000681C000058
:1019D0000003005010B44FF080414FF080520020BF
:1019E000C1F80C015E4BC1F81001C1F83805D2F8FE
:1019F0000414C3F82015D2F80814C3F82415D2F83B
:101A00000C14C3F82815D2F81014C3F82C15D2F80A
:101A10001414C3F83015D2F81814C3F83415D2F8DA
:101A20001C14C3F84015D2F82014C3F84415D2F89A
:101A30002414C3F84815D2F82814C3F84C15D2F86A
:101A40002C14C3F85015D2F83014C3F85415D2F83A
:101A50003414C3F86015D2F83814C3F86415D2F8FA
:101A60003C04C3F86805D2F840043E49C3F86C054D
:101A70000968D2F84424C3F87025082924D04FF00F
:101A80008043D3F80024D20744BF6FF00102C3F8AB
:101A90000024354AD2F8883043F47003C2F8883005
:101AA000BFF34F8FBFF36F8F4FF01023D3F8002297
:101AB000002A23DBD3F80432002B1FDB2B4B2C4AEC
:101AC0001A605DF8044B70472A4B1B68002BD6D177
:101AD00029482A4A2A4C04602A492B4BFB20C2F889
:101AE00018050A681B68294822F00F0203F00F034B
:101AF00013434FF400720B600260C0E7244B0122D5
:101B0000C3F80425D3F80024002AFBD04FF010239B
:101B100012221F49C3F80022D1F80034002BFBD059
:101B20004FF0102212211A4BC2F80412D3F80024ED
:101B3000002AFBD000221649C3F80425D1F800344E
:101B4000002BFBD0BFF34F8F0749124BCA6802F43A
:101B5000E0621343CB60BFF34F8F00BFFDE700BFD0
:101B600000C000403001001000ED00E0080000203F
:101B70000090D003340100108C56004000F000406B
:101B800048810300E40E00405802001040960240D5
:101B900000E001400400FA0508B5074B044613B104
:101BA0000021AFF30080054B1868836A03B19847A2
:101BB000204600F031F800BF00000000701C00005B
:101BC00070B50D4E0D4CA41BA4100025A54209D1E3
:101BD0000B4E0C4C00F022F8A41BA4100025A542CB
:101BE00005D170BD56F8253098470135EEE756F817
:101BF000253098470135F2E76C0000206C0000208A
:101C00006C0000207000002002440346934200D183
:101C1000704703F8011BF9E7FEE700BFF8B500BF06
:101C2000F8BC08BC9E467047F8B500BFF8BC08BCBD
:101C30009E46704700000000000000000000000009
:101C40000338FDD870470000781C0000781C0000A5
:101C500004000000000000002423262125220403A4
:101C60000000010000010600B901010101010000AE
:101C70000C00002000000000F4F5FF7F01000000D0
:101C80000090D003000000000000000000000000F1
:101C90000000000000000000000000000000000044
:101CA0000000000000000000000000000000000034
:101CB0000000000000000000000000000000000024
:101CC0000000000000000000000000000000000014
:101CD0000000000000000000000000000000000004
:101CE00000000000251200000112000000000000AA
:00000001FF
