:1010000000000420E1120000091300000B1300008F
:101010000D1300000F13000011130000000000006A
:10102000000000000000000000000000131300009A
:101030001513000000000000171300001913000032
:101040007D4A00001B1300008D4A00001B130000A6
:101050001B1300001B1300009D4700001B13000022
:101060001B1300001B1300001B1300001B130000C8
:101070001B1300001B1300001B1300001B130000B8
:101080001B1300001B1300001B1300001B130000A8
:101090001B1300001B1300001B1300001B13000098
:1010A0001B1300001B1300001B1300001B13000088
:1010B0001B1300001B1300000000000000000000D4
:1010C0001B1300001B1300001B1300001B13000068
:1010D0001B1300001B1300001B130000354300000E
:1010E0001B1300001B1300001B1300000000000076
:1010F000000000001B130000000000000D4B00006A
:1011000000000000000000000000000000000000DF
:1011100000000000000000000000000000000000CF
:1011200000000000000000000000000000000000BF
:1011300000000000000000000000000000000000AF
:10114000000000000000000000000000000000009F
:10115000000000000000000000000000000000008F
:10116000000000000000000000000000000000007F
:10117000000000000000000000000000000000006F
:10118000000000000000000000000000000000005F
:10119000000000000000000000000000000000004F
:1011A000000000000000000000000000000000003F
:1011B000000000000000000000000000000000002F
:1011C000000000000000000000000000000000001F
:1011D000000000000000000000000000000000000F
:1011E00000000000000000000000000000000000FF
:1011F00000000000000000000000000000000000EF
:1012000010B5054C237833B9044B13B10448AFF340
:1012100000800123237010BD0801002000000000A1
:10122000187500000C4B43B10C480D4910B5AFF3D5
:1012300000800C48036823B910BD0A48036833B91D
:101240007047094B002BF7D0BDE810401847064BFC
:10125000002BF5D0184700BF0000000018750000F3
:101260000C0100200401002000000000154B002BA1
:1012700008BF134B9D46A3F5803A00218B460F46CD
:101280001348144A121A04F0F1FE0F4B002B00D041
:1012900098470E4B002B00D09847002000210400F7
:1012A0000D000D48002802D00C48AFF3008004F078
:1012B00085FE2000290003F0ADFF04F06BFE00BFA7
:1012C00000000800000004200000000000000000F2
:1012D00008010020040F00200000000000000000B2
:1012E0000649074A074B9B1A03DD043BC858D050F8
:1012F000FBDC03F0CBFDFFF7B9FF00003875000001
:101300000800002008010020FEE7FEE7FEE7FEE7F8
:10131000FEE7FEE7FEE7FEE7FEE7FEE7074B1B5CA6
:101320001F2B86BF03F01F0305494FF0A041012288
:1013300002FA03F3C1F80C35704700BF20710000BA
:1013400000030050074B1B5C1F2B86BF03F01F03DD
:1013500005494FF0A041012202FA03F3C1F8083514
:10136000704700BF207100000003005008B5002046
:10137000FFF7E8FF0120FFF7E5FF0220BDE8084086
:10138000FFF7E0BF0A4B185C1F288ABF094B4FF0DC
:10139000A04300F01F00D3F804250121814021EA79
:1013A00002000A40C3F80805C3F80C25704700BFC7
:1013B0002071000000030050C20710B5044609D593
:1013C000084B0322C3F82C27C3F82827C3F830277B
:1013D000FFF7CCFFA30742BF024B0C22C3F8002744
:1013E00010BD00BF000300501FB50021039001AAEB
:1013F00044F201000191029100F004F805B05DF89B
:1014000004FB000072B6094B1B68DB0700D500BE69
:10141000BFF34F8F0649074BCA6802F4E0621343DB
:10142000CB60BFF34F8F00BFFDE700BFF0ED00E0E2
:1014300000ED00E00400FA0543681B68184700004F
:10144000024B5B6803B11847704700BF24010020BE
:1014500010F0800F14BF034B034B00F00F0003EBA1
:10146000C0007047300100207801002008B5FFF768
:10147000EFFF016009B9416008BD4B681B6843601C
:1014800008BD0000024B01465A681868104700BFAB
:10149000780100200378052B0CD1084AD2F8843457
:1014A000D2F8802412F0FF0F04D1054ADBB2052BDD
:1014B00008BF1046034B1B68184700BF007002406E
:1014C0003C71000024010020012806D002D302282C
:1014D00005D070470348FFF7DDBF0348FBE703482B
:1014E000F9E700BF3071000034710000387100006E
:1014F000FFF7D0BF0148FFF7CDBF00BF407100002C
:1015000038B5831EDBB2062B98BF194A194C98BF19
:10151000D25C2378A3F10203DBB288BF0022062B42
:101520009ABF1349CB5C00239342054603D0A2B176
:10153000114801F099FE022D12D0082D10D0002381
:101540002278022A01D0082A0CD101229A4202D024
:1015500053B102F041FC257038BD01F0AFFEEAE75F
:101560000123EDE70022F1E702F02CFCF3E700BFD6
:1015700023710000C9010020080000202DE9F04F70
:1015800087B006AC002644F8106D054689469246A1
:1015900098466B6800225F68294601232046B847B9
:1015A00040B98DF80600049004460746BE4203D8B1
:1015B00005202AE00136ECE76B680DF10602D3F84E
:1015C00004B02946012304A8D8476B680DF107022F
:1015D000D3F804B02946012304A8D8479DF8073062
:1015E0004B459DF8063015D1544511D1109A136022
:1015F00088F8003088F801906A68023B54682946F0
:1016000008F1020204A8A047002007B0BDE8F08F4F
:101610000134E4B26A68023BD2F804B029460022E1
:1016200004A8D8479DF806301F44BFE72DE9F341D1
:1016300005462F4802F0E6FB0446002853D12D4B07
:1016400018702D4B18602D4B0146186048222C480D
:1016500004F00CFD482221462A4804F007FD2A4BDD
:1016600005BB2A4A1D7283E824001A680AB9274A72
:101670001A60002001F036FE18B1852801D0FFF76E
:10168000B3FE234D2F7A002205F10906541C974220
:10169000E4B21DD912B202EB4202921918D04FF0F7
:1016A000000808E095E8070083E80700DDE7294621
:1016B000D05CFFF7DBFE53785FFA88F18B4205D9E7
:1016C00093780B44DA4208F10108F0D12246DDE7B5
:1016D00002A90B2301F8043D0D48FFF7ADFE0446B7
:1016E00008B102F06BFA204602B0BDE8F08100BFFD
:1016F000F1140000C9010020C0010020C401002035
:10170000300100207801002024010020391A000057
:101710005C71000010B502F017FB08B9082010BD7D
:1017200002F01AFB04460028F8D1044801F0F1FD4C
:1017300018B1FFF759FE204610BD10BD2C710000F6
:1017400002F04CBA02F0F4BE4FF08043D3F83824D4
:10175000920702D50348FFF79DBED3F83824D1077E
:10176000F4D470474171000007B502A8822300F845
:10177000043DFFF78FFE03B05DF804FBF7B5017A77
:10178000032300F1090203FB010104460931154658
:1017900091421FD09AB9237A571C9342FFB22BD99A
:1017A00012B202EB4202AA1826D0002618E0D05C42
:1017B000FFF74EFE036801361BB1112027E0577872
:1017C0000026F3B29F4203D993783344DA42EED134
:1017D0000332DDE70022DEE72146D05CFFF746FE5C
:1017E0005178F3B2994205D991780B44DA4206F167
:1017F0000106F1D13A46CEE7074B1A684AB902A969
:101800001C600B2301F8043D2046FFF715FE03B0D2
:10181000F0BD1368F1E700BFC0010020024B18784B
:10182000003018BF01207047C801002000F00F03EE
:10183000072B10B5044604D802F002FC204602F043
:101840005FFF2046BDE8104002F00EBF02F0DABE96
:10185000014B1868704700BFC001002070B50A4BEB
:101860001B687BB11E7A0022D5B2B54201D31B683A
:10187000F6E7013202EB42041C44A4798442F3D11E
:1018800001B10D70184670BDC00100201146FFF770
:10189000D3BD08B500F00F03082B07D8FFF7D8FD1C
:1018A000006818B1BDE80840FFF7C6BD102008BDAC
:1018B00038B5054B05461C6804B938BD2946204695
:1018C000FFF7BAFD2368F6E7C001002038B5074BE3
:1018D00005461C680CB9062038BD29462046FFF78E
:1018E000ABFD0628F8D12368F3E700BFC001002054
:1018F00038B504460D4602F0C8FA48B1054B1B78CE
:10190000022B05D129462046BDE8384002F0C0BA76
:10191000082038BDC901002038B504460D4602F044
:10192000B4FA48B1054B1B78022B05D12946204655
:10193000BDE8384002F01ABB082038BDC9010020BC
:10194000F8B543689B6805460C4616466BB9D6B990
:101950002B7AA34219D9093504EB44042C44677847
:10196000F3B29F4205D80020F8BD98470628EED074
:10197000F8BD62789A420AD9A219A378D05CFFF721
:1019800055FF0136ECE70720F8BD7378FFDE002332
:101990001B78FBE770B54368DB6805460C4603B16E
:1019A00098472B7AA34213D9093504EB44042C44FD
:1019B00000256678EBB29E4200D870BD62789A42EC
:1019C00009D96219A378D05C02F01CFE0135F1E759
:1019D00000235B78FFDE00231B78FBE743681B696D
:1019E00003B118471846704770B5084B1C6804B916
:1019F00070BD267A0025E9B2B14201D32368F5E72C
:101A000000222046FFF79CFF0135F4E7C0010020CB
:101A100070B5084B1C6804B970BD267A0025E9B280
:101A2000B14201D32368F5E72046FFF7B3FF013544
:101A3000F5E700BFC001002038B50478092C054641
:101A40002BD020D8032C00F0BE8012D8012C00F03F
:101A5000A88040F28F800320FFF752FD0220FFF79D
:101A6000EFFC2846FFF724FF2846BDE83840FFF783
:101A700009BD052CF9D0C0F0B580062C00F0C1805E
:101A8000082C0AD038BD812C13D00AD80F2C04D0D2
:101A9000802C49D00A2C40F0C6802046FFF7D0FCAD
:101AA0008CE0832C4CD01FD3842C53D0852CDCD0DD
:101AB00038BD5D48FFF7E6FC5B48FFF7F9FE0D20F7
:101AC000FFF7BEFCFFF7A4FF00F053FF574B1B6866
:101AD00043B9574B187A02F00BF90120BDE83840A2
:101AE000FFF70EBD0120F6E7FFF792FF02F004FDBD
:101AF0000020FFF705FD4F48FFF7DAFE4D48FFF7DE
:101B0000C1FC0E20FFF79CFC4B4B1B78023BDBB269
:101B1000062B00F28880494AD35C002B00F08380BA
:101B2000BDE8384001F0CABB434B1B78062B05D0FB
:101B3000072B01D0052B76D10220CFE70820CDE777
:101B40003D4B1B78032B6ED102F026FD00286AD096
:101B50000420C3E7384B1B78032B05D102F01CFD92
:101B600010B10420FFF7CCFC02F000F900285AD095
:101B70000620B3E7304B1B78032B01D0082B02D192
:101B80002F48FFF759FF0020FFF75AFC274B1C682E
:101B900004B938BD20462946FFF74EFC23685C682F
:101BA000F6E7FFF735FF00F0DBFE0220FFF7A8FCA9
:101BB0002046FFF745FC2846FFF764FC2846BDE8B1
:101BC0003840FFF775BE1C4B1B78082B06D102204E
:101BD000FFF796FC02F00AF90320EAE70520FFF779
:101BE0008FFCF9E70320FFF72BFC1648FFF74AFCB0
:101BF0001448FFF75DFE104B1B78062B9CD1072085
:101C00006CE78078FFF724FC294643680068984712
:101C100048B1A87800F00F03013B062B03D8BDE8BC
:101C2000384002F0E7B938BD42710000C40100201D
:101C30002401002043710000C9010020237100002D
:101C40004471000045710000C36903B11847704733
:101C5000036800221A845A62DA629A67DA67C3F864
:101C60008020C3F8842003F134025A677047436030
:101C7000CA69934299BF8A69026001F12802026031
:101C80009ABF0B67CB618B6700207047F0B5BB4DE7
:101C90000C7A2C700468B4F5517F00F0CA8200F20F
:101CA000DA8040F22636B44200F03E826DD840F22F
:101CB0001636B44200F0FB8126D840F21336B44207
:101CC00000F0DA81B4F5457F0BD2002C00F0C28120
:101CD00040F21236B44200F0C5810023036018467A
:101CE000F0BD00F0D78140F21536B442F5D10024A2
:101CF0000AB10679165501340226A342067100F294
:101D0000D78140F21633AAE140F21936B44200F00E
:101D1000E78114D840F21736B44200F0D481B4F50C
:101D2000467FDAD100240AB106791655013400261F
:101D3000A342067100F2D58140F219338FE1B4F568
:101D4000487F00F0E48140F22136B442C5D100243E
:101D50000AB1067916558A4E0F7A3678DFF824E2F2
:101D6000B74204F1010440F2548301F1090706EB84
:101D7000460607EB060CA342BE5DCEF800C0067116
:101D800000F2D38140F2263369E140F23336B442A7
:101D900000F00982B4F54D7F38D2B4F54B7F00F0E6
:101DA000DE811CD840F22736B44200F0C981B4F578
:101DB0004A7F92D100240AB106791655714E0F7DE3
:101DC00036683678B74204F1010440F0E18102261A
:101DD000A342067100F2C4814FF44B733FE140F21D
:101DE0002D36B44200F0C78140F22E36B4427FF463
:101DF00074AF00240AB10679165501340026A342B7
:101E0000067100F2EA814FF44F7328E1B4F54F7F79
:101E100000F0E28106D8B4F54D7F00F0D08140F2A9
:101E20003536E3E740F24236B44200F0EA8100F290
:101E3000F48140F24136B4427FF44FAF00240AB13E
:101E40000679165501342426A342067100F2DA8180
:101E500040F2423303E140F25636B44200F053827E
:101E60006AD8B4F5537F00F01C8232D840F249366C
:101E7000B44200F0FD8115D840F24536B44200F07E
:101E8000E481B4F5527F7FF428AF00240AB10679CB
:101E9000165501342426A342067100F2EA8140F26D
:101EA0004933DCE040F24A36B44200F0ED8140F2C2
:101EB0004B36B4427FF411AF00240AB106791655AF
:101EC00001348E7D0671A34200F2EC814FF453730E
:101ED000C5E040F25136B44200F0FC8115D840F222
:101EE0004F36B44200F0E981B4F5547F7FF4F5AE8B
:101EF00000240AB10679165501340226A342067160
:101F000000F2E98140F25133A9E040F25236B44286
:101F100000F0EC8140F25536B4427FF4DEAE00248E
:101F20000AB10679165501342426A342067100F23F
:101F3000EB8140F2563392E040F27236B44200F048
:101F4000278246D840F25936B44200F0F5811BD8BA
:101F500040F25736B44200F0E281B4F5567F7FF488
:101F6000BCAE00240AB10679165501348E7D067187
:101F7000A34200F2E28140F2593370E0CC0100202C
:101F8000CB010020D001002040F26D36B44200F0B9
:101F9000F28140F26E36B4427FF49FAE00240AB163
:101FA00006791655AF4EB04F36683F7896F801E087
:101FB000BE4504F1010440F2318296F802E03E444D
:101FC000A34216F80E60067100F2E38140F272330C
:101FD00045E040F28336B44200F0FA81B4F5617F07
:101FE00014D240F27736B44203D0B4F55F7F7FF469
:101FF00074AE00240AB10679165501344026A34276
:10200000067100F2E68140F2833328E040F289361F
:10201000B44200F0F48140F28E36B44200F0EF8119
:10202000B4F5617F7FF459AE00240AB106791655E4
:102030008C4E0F7D36683678B74204F1010440F0CB
:10204000D4810E6AA3423678067100F2D98140F23B
:10205000893304E00824047123B940F21233036089
:102060000120F0BD0AB1047914700B24012B047116
:102070000ED840F21333F2E700240AB10679165560
:1020800001340E7D0671A34205D84FF44573E6E78F
:102090000124F2E700240AB106791655013402261C
:1020A000A34206713FF624AE40F21533D7E7002471
:1020B0000AB10679165501340226A342067103D8E7
:1020C00040F21733CBE700240AB1067916550134E4
:1020D0004E7E0671A3423FF626AE4FF44673BEE72E
:1020E00000240AB106791655604E00270134377076
:1020F0005E4E37782E78B74202D340F29933AEE77E
:102100000926A342067103D84FF44873A7E70024B9
:102110000AB10679165501340426A34206713FF62A
:1021200017AE40F221339AE700240AB1067916551A
:1021300001340026A342067103D840F227338EE70C
:1021400000240AB106791655464E36680134767871
:102150000671A3423FF62FAE4FF44A737FE7002487
:102160000AB10679165501340226A342067103D836
:1021700040F22D3373E700240AB106791655013475
:102180004E7E0671A3423FF635AE40F22E3366E72F
:102190008F7DB7427FF432AE0A26A342067103D880
:1021A00040F233335BE700240AB106791655013457
:1021B0000026A342067103D84FF44D734FE7002465
:1021C0000AB10679165501340026A34206713FF67E
:1021D00011AE40F2353342E700240AB106791655B4
:1021E000204E0F7D36683678B74204F1010440F086
:1021F000A8800526A34206713FF621AE40F2413386
:102200002DE700240AB10679165501340026A342B1
:10221000067103D840F2433321E700240AB106795E
:10222000165501341026A342067103D84FF451739A
:1022300015E700240AB10679165501340126A34298
:10224000067103D840F2453309E700240AB1067944
:10225000165501340526A34206713FF617AE4FF41A
:102260005273FCE6D0010020CD010020CB010020FC
:1022700000240AB10679165501340126A3420671DD
:1022800003D840F24A33EAE600240AB1067916552B
:1022900001340326A34206713FF60FAE40F24B33E2
:1022A000DDE600240AB10679165501340426A3425E
:1022B000067103D840F24F33D1E600240AB1067903
:1022C000165501342426A34206713FF612AE4FF490
:1022D0005473C4E600240AB1067916550134022667
:1022E000A342067103D840F25233B8E600240AB183
:1022F0000679165501340526A34206713FF610AE45
:1023000040F25533ABE600240AB106791655013484
:102310000626A342067103D840F257339FE60024F5
:102320000AB10679165501340E7D0671A3423FF6B7
:1023300019AE4FF4567392E600240AB10679165589
:102340000134374E36687778364E3770364E002770
:102350003770354E3778334E3678B74204D3334F23
:102360003E7801363E70C3E60726A342067103D8C5
:1023700040F26D3373E600240AB106791655013434
:102380000526A34206713FF60AAE40F26E3366E6BA
:1023900000240AB106791655214E0F7D366836782D
:1023A000B74204F1010407D10326A34206713FF6A8
:1023B00021AE40F2773352E68F7DB7427FF41EAEF6
:1023C0000226A34206713FF615AE4FF45F7346E650
:1023D00000240AB10679165501340026A34206717D
:1023E0003FF623AE4FF4617339E68F7DB7420BD1D0
:1023F0000026A342067103D840F28E332FE6002454
:102400000AB1067916550134074F3E7801363E7001
:102410009FE70023CEF800301B78FFDE0023FBE7A8
:10242000D0010020CA010020CD010020CB010020F6
:102430004360CA6993420ED88A6902608A69C86992
:102440001A448A610A6FC01A1A44C86100300A67C8
:1024500018BF0120704701F1280202608B6700203D
:10246000704710B5044658B90868037B202B09D182
:1024700000F10E010722183003F0D3FD204610BDF5
:10248000032010BD062010BD037A012B08D9427B22
:10249000012A00F10C0306D9827B13445878704757
:1024A00000235B78FFDE00231B78FBE72DE9F04378
:1024B0000B7889B006460D460E2B1AD8DFE813F0CC
:1024C0005D0044015D005D0019000F00A8001900C7
:1024D0001900440119005D005D005D005D004A784F
:1024E000D3094FEA521330D013F0030303D0012B6A
:1024F00021D006241BE002F01F02012AF9D18C78BA
:10250000062CF6D105A8039300F0B6FC03ABEA78DD
:1025100029790093074603463046FFF72FF8052830
:1025200005D0039A3946681C00F03EFA044620465E
:1025300009B0BDE8F0838B78212BDAD1B1F8072000
:10254000072AD6D101681831EDE7012BD1D18B785C
:102550000768202B13D0222BCBD1B1F80730002BEA
:10256000C7D197F82020B1F803303B8402F0010274
:1025700003F001039A429CB223D10024D7E7B1F8BB
:102580000720072AB5D13B73B1F807300024DBB22E
:102590007B7320460E3706930794059700F0E0FC06
:1025A000204605A9FFF7A4F9044630B96B4B039305
:1025B00003A9049600F0E6F90446002000F0D2FCDE
:1025C000B5E7002C14BF02210321FFF73DFB002CCF
:1025D000D3D1337A012B40F2BA80737B06F10C021F
:1025E000002B00F0B680B37BD05C01F067FE304674
:1025F000FFF74AFF01F062FE07F134037C62FC62E0
:10260000BC67FC67C7F88040C7F884407B678EE7EB
:10261000037A002B00F09F80837A00F10901002BE0
:1026200000F09780C27AAB788A5C9A42A5D013F00A
:10263000800FEC780AD024B1032C0CBF00240324B3
:1026400075E701213046FFF7FFFA70E7012C94D0BF
:1026500003D3032C91D0032469E70568FFF714FF27
:102660003F4B059305F10C030693AF6A8046BFB953
:10267000EC6AEB6FC5F88030EF67AF676CB105F1BE
:102680002C0103C905F1240383E80300EF6205A9C7
:102690004046FFF741F9044600E06C620021D1E7B3
:1026A000D5F88490686A4F4528BF4F4605F1340439
:1026B0003A46214603F0B5FCEB6F3B44C5F8803049
:1026C000A9EB0703AB67EB6A00223C44EA676C673F
:1026D000002B37D005F12C0999E8030005F12407F8
:1026E00087E803001446EA62AB6F1BB96C6A002CE2
:1026F000CDD1D3E7AA6A9A4218D8696F686A03F005
:1027000090FCAB6AAA6FC5F88030D21AAA676A6FCC
:102710001A446A6700213046FFF796FAEB6A8BB1DC
:1027200099E8030087E80300EC62DDE71A46696F69
:10273000686A03F076FCAA6FAB6AEA679B1AAB6221
:102740006B6A13446B62D1E7FFF782FA15E763788F
:10275000FFDE1B78FCE75B78FAE700BF632400002C
:10276000312400001FB503681B8CDC0714D5037AE5
:10277000012B13D9437B00F10C0493B1837BE05C04
:10278000019193060CBF0123002301A90292039338
:10279000FFF7AEF804B010BD0820FBE700235B781C
:1027A000FFDE1B78FCE70368D3F880007047000069
:1027B0002DE9F3410468238CDB070646884617465B
:1027C00032D5002000F0CCFBA56FBDB1BD4228BFC3
:1027D0003D46616F2A46404603F023FCA36FC4F8D0
:1027E00080505B1BA367636F2B446367002400204A
:1027F00000F0B8FB204602B0BDE8F081636A8BB9F7
:10280000C4F82480A7623046FFF73EFE0C34074B25
:10281000019469460093FFF77FF8002814BF04462F
:102820009224E4E71124E2E70824E3E76F1C0000A8
:10283000002070472DE9F04F87B04B680292814627
:102840000C465BB90B681B681B683BB98D682DB9DA
:1028500005604560284607B0BDE8F08F01F0C6FB73
:10286000E768029B9F4228BF1F464FF0000804F113
:10287000100383460197464601250393019B63B3EA
:10288000A368DDF804A061689A4528BF9A4649B359
:1028900052460BEB060003F0C4FB00236360A26802
:1028A000E3680199A2EB0A02A3EB0A03A1EB0A0178
:1028B000A260E3600191564412BBB8F1000F03D04F
:1028C0002268126812682260E3B12368E3B963608A
:1028D0001EB1029BB34288BF0025C9F800B0C9F8F9
:1028E0000460B7E7002BDAD0216803984B680BEB44
:1028F0000602D3F804805346C0474FF00108CEE7E4
:10290000002BBBD10025B9E70DF1180A00234AF8C6
:10291000083D21684B685B6800221F465046012332
:10292000B84708B92061A9E7A3680133A360F0E7BD
:10293000084B1A7882420CD0052818BF064A187036
:1029400018BF137805481CBF23F002031370FFF76C
:1029500073B87047E0010020FC0100206C7100009A
:1029600008B50020FEF762FF8020BDE80840FEF7B2
:102970005DBF08B50020FEF769FF8020BDE8084074
:10298000FEF764BF38B505460C4601F0D5FBA842FA
:1029900001BF94E80300034B83E80300002018BF45
:1029A000102038BD000200207FB5C38893421D4629
:1029B00028BF154693420E46144620D9802001F0C8
:1029C0005FFAB4FBF0F303FB1040B0FA80F040096B
:1029D000039000200196029500F0C2FA01A9802020
:1029E000FEF786FF044620B906498020FFF7CAFF9C
:1029F0000446002000F0B6FA204604B070BD002066
:102A0000E6E700BFA07100002DE9F04F0C78062C1E
:102A100087B00E4600F0FD8120D8022C3DD003D8AF
:102A2000012C32D0062439E0032C32D0052CF9D108
:102A30000DF10D00B34D8DF80C4001F011FB00239A
:102A40002B609DF80D3003F01F02032A00F29681DF
:102A5000DFE812F0300020018001A3000D2C00F00F
:102A6000C98107D80B2C18D00C2CDBD10020FFF724
:102A70005FFF12E00E2C00F0CA81852CD2D1A24B50
:102A80001B78032BCED1042000E00320FFF750FF7A
:102A9000C8E79E4800F082FA20B90024204607B01B
:102AA000BDE8F08F9A4B01221A60BFF36F8FBFF31E
:102AB0004F8FF2E7C3F34116002E6ED1DB099DF86C
:102AC0000E1000F0A280062917D0082900F090808F
:102AD000002962D18F4C0222204603F0C7FA2378E6
:102AE00043F0010222708C4A1278910744BF43F0F0
:102AF00003032370022287490EE09DF81030022B59
:102B000010D0032B64D0012B47D1BDF81330002B1C
:102B100000F06B81814912220DF10D00FFF744FF97
:102B2000044637E0BDF81370002F00F05E81092FD6
:102B300028BF0927FEF78CFE4FF009080446B1466E
:102B40007CBB744C76493A46204603F06AFA2671FB
:102B5000A4F80280FEF762FE18B1E37943F0200387
:102B6000E371FEF775FE6F4B83E891000020BDF81E
:102B70001320DA6000F0F4F96B498020FEF7CCFEF8
:102B8000044620B969498020FFF7FCFE0446002076
:102B900000F0E8F9062C40F0F98003A8FEF796FE55
:102BA000D4E0CDF804904FF0000A63680022D3F817
:102BB00004B02146012301A8D84730B9237A1E4426
:102BC0002368D044F6B21C68BAE70AF1010AECE7C0
:102BD000BDF81330002B00F00881BDF811109DF8EE
:102BE0000F0000F097F901460028D6D0027893E74D
:102BF000454A1278052A03D1464A137001227AE722
:102C0000042ACAD1434B1E70F8E7032911D00929C1
:102C10002AD00129C1D1BDF80F30012BBDD1FEF75B
:102C2000FDFD002800F019813B4A137823F00203D0
:102C30000CE0BDF80F30012BAFD1FEF7EFFD0028FF
:102C400000F00B81344A137843F0020313702B68B1
:102C5000002B00F0CA8001F06FFA044600287FF4D0
:102C60001CAF01F023FA19E7274B1B78043B012B1B
:102C700000F2BE809DF80F302BB9FEF7C9FE04208C
:102C8000FFF756FEE3E7012B40F0E980FEF7ACFECC
:102C90000520F5E701A99DF81100FEF7DFFD0746C5
:102CA000002855D003AA9DF80410FEF7EFFD062872
:102CB00004466BD19DF80D2012F0600F0AD1124B23
:102CC0009DF8041018789DF80E30D60930D023B145
:102CD0000A2B09D001F02DFAE0E6052840F08880A3
:102CE0000C490B80022208E0052840F0818038461C
:102CF000FEF774FE0749324608700DF10D00FFF72C
:102D000053FE23E000020020E00100200802002022
:102D10005C7002400C020020FC0100208C7100005D
:102D20006D710000E4010020A8710000A071000096
:102D30000B2BCFD105285BD1BDF80F30FF2B00F254
:102D40008E809DF80F203846FEF7FAFD04461DE000
:102D50001024BFE79DF81100020711D19DF80D3036
:102D600013F0600F0AD19DF80E203E4B9DF81140E4
:102D70001B78012A27D00DD3032A15D00624A9E7F2
:102D800003A9FEF786FD06280446E7D0002C3FF491
:102D90005EAF9FE7052B01D0230729D1204601F024
:102DA00035F9314908809DE704F00F02072AE5D87C
:102DB000BDF80F100029E1D1052B00D0C2B9204683
:102DC00001F018F943E704F00F02072AD6D8BDF83E
:102DD0000F100029D2D1052B00D04AB9204601F0AE
:102DE0002FF9204601F08CFC31E701F09FF954E601
:102DF00008246FE74FF08043D3F8384414F00104FF
:102E000001D0022033E60120FFF792FD46E60120C3
:102E10002DE6C87803283FF441AE144D2B68D3B19A
:102E200000222A6069689847044600287FF452AF60
:102E30002B6823B1B378002B7FF42FAE11E70C4B36
:102E40001B68082B04D10B4B1B68002B3FF425AEED
:102E500001F06CF922E60E243CE70F243AE7072440
:102E600038E700BFE00100200C0200200002002033
:102E7000300100103401001008B140230360014804
:102E8000704700BF0C02002070B54FF0805286B032
:102E9000D2F8A830D2F8A42000926FEA83436FEAF8
:102EA000934302AD9BB2094A094E0D21284603F017
:102EB00049F90024284603F079F9844201D306B089
:102EC00070BD2B5DA3550134F4E700BFB071000065
:102ED000140E002010B50E4B53F8204023780BB988
:102EE000A01C10BD0020FFF7C7FF2246E4B2131B51
:102EF00012F8011BDBB231B901335B00DBB243F4E2
:102F00004073038010BD131BDBB220F81310EEE7F3
:102F10000472000008B9FFF7DDBF052807D8054A8D
:102F2000105C20B1044B53F82030002BF3D100206B
:102F3000704700BF1C7200000472000072B6024AA3
:102F400013680133136070474C020020034A136872
:102F5000013B136003B962B6704700BF4C0200200A
:102F6000FFF7ECBFFFF7F2BF00B550E8002F02EA11
:102F7000010340E8003E9EF0000FF6D110465DF8D8
:102F800004FB00B550E8003F03EA010240E8002ED0
:102F90009EF0000FF6D110465DF804FB0021FFF70C
:102FA000E3BF0000044A136843F0FF031360034BC0
:102FB00001221A70002070475002002054020020A5
:102FC000026813685268934291BFD01A806801303A
:102FD000801888BFC01A70472DE9F84303681D6840
:102FE0005C68A54284BF836801331746884694BF56
:102FF000641B5C1BC2684168BC42064602FB0511AB
:103000000CD37A43404603F00CF8B46833683D446F
:10301000A54288BF00251D60BDE8F88302FB04F9C6
:103020004A46404602F0FDFFF26871683C1B62436D
:1030300008EB090002F0F5FF33681C60BDE8F88377
:1030400070B505460E46144682B10020FFF788FF92
:103050002846FFF7B5FF844228BF0446224628468B
:103060003146FFF7B9FF0020FFF77CFF204670BD17
:1030700010B504460020FFF773FF20680C220021E2
:1030800002F0F4FF0020BDE81040FFF76BBF10B561
:1030900004460020FFF764FF2046FFF791FF044637
:1030A0000020FFF75FFF204610BD036818685B68CB
:1030B000C31A58425841704710B58468FFF7E7FFBC
:1030C000201A10BD2DE9F843044616468846FFF73E
:1030D000F3FF2368A5685A680135AD1A8146E26896
:1030E00058686368B54202FB003017D3724341460B
:1030F00002F097FF2268A168536833448B4296BF61
:1031000053680026F61856602046FFF759FF2368DB
:103110009A68904288BF9860BDE8F88302FB05F783
:103120003A46414602F07DFFE2686068751B6A43DB
:1031300008EB070102F075FF2368B1455D60E3D23B
:103140002268A16853688B4234BF013300231360A7
:10315000DAE770B505460E46144682B10020FFF747
:10316000FFFE2B7C6BB9AB689C4228BF1C462846EF
:1031700022463146FFF7A6FF0020FFF7F3FE204668
:1031800070BD2846FFF798FF844228BF0446EEE74B
:1031900038B5084C04F108030546002818BF1C4642
:1031A00023682BB11A6822605B6828469847F7E7C6
:1031B00038BD00BF6002002020B9054B01225A70C3
:1031C000FFF7E6BF012802D1014A9070F8E7704787
:1031D0005802002038B5094C23786BB90848636061
:1031E000A3602361E36000F0A9F8054600F0B4F89D
:1031F00001232370284638BD8525FBE758020020AF
:10320000B931000038B5134CA378054603F0FF0030
:1032100073B115B16B68012098470020FFF7A0FE3D
:10322000E3680133E3600020BDE83840FFF79ABE51
:10323000FFF796FE25B1226913463BB92A60256146
:10324000E368002BECD100F09FF8E9E79D42F7D04E
:103250001B68F2E7580200204FF08043D3F81804AF
:10326000C0F300407047000038B5134C6378054642
:1032700003F0FF0073B115B16B6800209847002080
:10328000FFF76EFE6368013363600020BDE83840DD
:10329000FFF768BEFFF764FE25B1A26813463BB98D
:1032A0002A60A5606368002BECD100F07AF8E9E7AA
:1032B0009D42F7D01B68F2E75802002038B5084C51
:1032C0000020FFF74DFE6368013B6360656815B938
:1032D00000F074F865700020BDE83840FFF742BE8A
:1032E0005802002008B5054B002808BF184601F019
:1032F00033FB10B9024B01221A7008BD2272000084
:103300006C02002008B501F05CFBBDE8084001F04C
:103310005FBB10B50446FFF7F5FF204601F040FB08
:1033200001F048FB002010BD00F180400023036045
:1033300082B003680193019B02B07047054A13797C
:103340002BB9012110601171537118467047852007
:10335000704700BF70020020094B1A68D20706D4DC
:10336000C02283F800230122C3F880211A604FF0A5
:1033700080420123C2F81835024A1370704700BF1B
:1033800000E100E0210E002008B54FF48270FFF745
:10339000CBFF4FF080430222C3F8042301229A603E
:1033A00008BD08B54FF48070FFF7BEFF4FF08043B3
:1033B0000122C3F804231A6008BD0000074B012254
:1033C0001A604FF08042D2F80C3403F00113B3F1CD
:1033D000011FF8D0024B00225A71704704000040D0
:1033E0007002002010B5124B1B6873B14FF480704F
:1033F000FFF79AFF4FF080430122C3F808230D4BDB
:10340000587910B95A711B6898470B4B1B6873B1F8
:103410004FF48270FFF788FF4FF080430222C3F819
:103420000823044B01201B68BDE81040184710BD5D
:1034300000010040700200200401004000F18040C3
:1034400000F51C3001230360BFF36F8FBFF34F8F74
:1034500070470000064A10F0800F00F00F0314BF01
:10346000D2F81005D2F81405D84000F001007047DA
:1034700000700240054B1B68082B01BF044B186805
:10348000B0FA80F0400918BF0020704730010010EA
:1034900034010010084B1B68082B09D1074B186832
:1034A000012808D0022805D0C31E58425841704751
:1034B00000207047012070473001001034010010D7
:1034C00030B54C689C4209D200254560096801600E
:1034D00093420CD1201C18BF012030BD43600D6801
:1034E00005600868E41A18444C600860F0E70020A2
:1034F00030BD4B689A4228BF1A460B680360426091
:1035000048680B68801A48601A4400300A6018BF87
:10351000012070474B689A4228BF1A4662B10B6877
:10352000036042604B689B1A4B600B68101C13448D
:103530000B6018BF012070471346F1E7054B10F0F0
:10354000800FA3F1900208BF134600F00F0003EBB9
:10355000001070471403002010F0800F14BF0023E8
:10356000102300F00F00184470470000024A0023A7
:103570001360024A137070471C7C024079020020DD
:1035800007B5084A00231370074A019302A8137075
:10359000012300F8043D054B1B68984703B05DF814
:1035A00004FB00BF78020020A8030020A403002031
:1035B00070470000F8B54D680B4F954228BF15467F
:1035C00006460C462A460968384602F02AFD756010
:1035D000376060682368401B1D44606025600030D0
:1035E00018BF0120F8BD00BFB0030020F8B54C683B
:1035F000944228BF144606460D468CB1094F09680F
:103600002246384602F00DFD376074606B681B1B64
:103610006B602B682344201C2B6018BF0120F8BD71
:103620000460F2E7B003002007B500238DF80430F2
:103630000B4BD3F82025ADF80620D3F8C034094A47
:10364000002B13680CBF4FF480714FF001210B4326
:103650001360054B01A81B68984703B05DF804FB95
:103660000070024080020020A403002013B5124C19
:103670000122236802FA01F10B4323600F4B10F083
:10368000800F1B680ED019400AD106238DF8043034
:103690008DF806008DF80710094B01A81B689847A4
:1036A00002B010BD1942FBD106238DF804308DF80D
:1036B00006008DF80720EFE7800200207C02002042
:1036C000A403002008B5054B1A781046FFF744FF05
:1036D000BDE8084001461046FFF7C8BFA803002018
:1036E00008B50146FFF742FFFFF728FF837B032B56
:1036F0000AD10846FFF730FF01218140C943044841
:10370000BDE80840FFF73DBC0368002BF1D008BDC1
:103710007C0200208720FFF7E3BF8620FFF7E0BF91
:103720008520FFF7DDBF8420FFF7DABF8320FFF796
:10373000D7BF8220FFF7D4BF8120FFF7D1BF0000A1
:1037400008B5FFF713FF084B93F89E20032A06D114
:103750006FF001010548BDE80840FFF712BCD3F83F
:103760009030002BF4D008BD840200207C020020A1
:1037700013B5FFF7FBFE114B93F81E21032A06D168
:103780006FF480710E48FFF7FCFB02B010BDD3F858
:103790001041002CF9D16FF480710948FFF7F1FB5B
:1037A00006238DF8043088238DF80630054B8DF8FC
:1037B00007401B6801A89847E7E700BF8402002084
:1037C0007C020020A403002013B5FFF7CFFE0D4BB1
:1037D00093F88E20032A13D0D3F8804084B96FF079
:1037E00080710948FFF7CDFB06238DF804300823CC
:1037F0008DF80630054B8DF807401B6801A89847E7
:1038000002B010BD840200207C020020A40300202E
:1038100013B5204BD3F80044C3F80044BFF36F8FB7
:10382000BFF34F8FBFF36F8FBFF34F8FE1050BD502
:10383000194B01221A7002A800230193022300F8F9
:10384000043D164B1B689847A2050AD5124A00236F
:1038500002A801931370032300F8043D0F4B1B686B
:103860009847630513D50C4B1A7882B100221A7061
:10387000084B0121C3F808155820FFF7DFFD02A807
:103880000423019200F8043D044B1B68984702B0E2
:1038900010BD00BF0070024078020020A403002089
:1038A0002DE9F04F7C4B87B01A780193002A40F045
:1038B0008D80DFF8ECB1794B1968794B1D68294090
:1038C00000F0848011F0012500F0838095FAA5F5C1
:1038D000B5FA85F50F2D86BFA5F11004E4B245F0C9
:1038E00080042046FFF72AFE4FFA84FABAF1000F4F
:1038F0000646828904F00F0870DA0368416804A85C
:10390000984700B93060674B82221A60019B059A84
:1039100001211970A940B368DBF80050134425EA6F
:10392000010104F00F04BAF1000FCBF80010B360EE
:1039300004995D4BE4B280F28580072C9BBF142074
:1039400000FB0434C3F8A016C4F800168CBFC3F8FB
:10395000A426C4F80426FFF78DFD544C544E0028CD
:1039600000F08180BAF1000FB8BF2246514C524F8F
:103970005FFA88F8AABF3246042528254F4E05EB8A
:10398000880544F0010402EB48084FF00009C6F82E
:103990000090BFF36F8FBFF34F8F2846FFF74EFDA8
:1039A0008020A0473368002BF1D04FF4F060A0478F
:1039B0003B689B0655D54020A047B8F8003003F17E
:1039C000804303F51C331B68002BDED007B0BDE835
:1039D000F08F91FAA1F1B1FA81F57BE75FFA88F3F4
:1039E000072B314929D9D1F8C09419F4803F18BF69
:1039F0004FF000094B467168376804A8B847049B2C
:103A0000002B3FF47EAF059B4B45BFF47AAF0121FD
:103A10004FF00208A94086F80E80C9431F48FFF7FF
:103A2000B0FA06238DF80C30254B8DF80E408DF83A
:103A30000F801B6803A898473DE703F5947351F87E
:103A40002390D7E7072C9BBF142000FB0434C3F856
:103A5000A017C4F800178CBFC3F8A427C4F8042724
:103A600079E78020A3E7BAF1000FB4BF0420282033
:103A70005FFA88F814EA2A0A38BFB24600EB8800D9
:103A8000FFF7DCFC3AF8183003F1804303F51C33F0
:103A90001A68002AFCD099E7790200207C020020F5
:103AA000800200201C7C0240007002404072000036
:103AB0005C720000307200007474024004710240B5
:103AC000A403002038B5174BD3F86C44C3F86C44FA
:103AD000BFF36F8FBFF34F8FFFF7CCFC38B1124AA3
:103AE000136823F0011103F001130C431360012547
:103AF0001CB9BDE83840FFF7D3BE94FAA4F3B3FA7B
:103B000083F30F2BD9B2C8BFA1F1100005FA03F35C
:103B1000CCBFC0B241F0800024EA0304FFF7A6FD49
:103B2000E6E700BF00700240AC03002037B5044652
:103B3000FFF71CFDFFF702FD837B032B0CD1204612
:103B4000FFF70AFD01218140C9430F48FFF719FA29
:103B5000FFF7A6FE03B030BD0568002DF8D1204662
:103B6000FFF7FAFC01218140C9430748FFF709FA32
:103B700006238DF80430054B8DF806408DF807506C
:103B80001B6801A89847E3E77C020020A4030020FB
:103B90000720FFF7CBBF0620FFF7C8BF0520FFF7C0
:103BA000C5BF0420FFF7C2BF0320FFF7BFBF02203D
:103BB000FFF7BCBF0120FFF7B9BF0000054B1A7823
:103BC000012A01BF044A00201060187018BF0820A5
:103BD000704700BF7A020020A403002038B53B4B99
:103BE0004FF40062C3F80024BFF36F8FBFF34F8F11
:103BF000FFF750FC364C78B10020FFF7B1F921688F
:103C0000344B0322002959D149F2753121601A60E1
:103C100021600020FFF7A6F90020FFF7A1F9226834
:103C20002D4DC023002A4BD149F2753222602B6002
:103C300022600020FFF796F9244B0122C3F80025EB
:103C4000BFF36F8FBFF34F8FD3F800241205FBD55E
:103C50004FF40062C3F80024BFF36F8FBFF34F8FA0
:103C60000020FFF77DF9226862BB49F275332360BB
:103C70002A6023600020FFF775F9184B40F2E372C9
:103C80001A60043340221A60BFF36F8FBFF34F8F67
:103C9000A3F6040300218022C3F81C25C3F83015C5
:103CA0000F4B40F2FF121A600E4B1960FFF75EFCDB
:103CB0000D4B19700D4B02221A7038BD1A60A8E71F
:103CC0002B60B6E700232B60D4E700BF00700240F2
:103CD00000EC064014ED064014EC0640007802406B
:103CE000800200207C020020A80300207A0200202D
:103CF00008B5104B00221A70D0B9FFF7BBFB0E4A73
:103D00000E4B002814BF184610460D4B0D4AC0211B
:103D1000C2F8040383F827138021C3F88411596083
:103D20000123C2F80435BFF36F8FBFF34F8F08BD77
:103D30000248EAE7780200200714C0010714E001F6
:103D400000E100E000700240024B1878003018BF1C
:103D5000012070477A020020034B1878012894BF95
:103D600000200120704700BF7A02002010B500201B
:103D7000FFF7F6F8104B1B7803F0FF049BB10F4AD6
:103D8000D2F82C35B3B10023C2F82C350C4B18688F
:103D900002F58F2202F21442C02148B949F275306F
:103DA0001860116018600020FFF7DCF8204610BD95
:103DB0001160F8E71C46F6E7780200200070024028
:103DC00000EC0640024B034AC3F80823704700BFCB
:103DD0000070024004148001024B034AC3F804231C
:103DE000704700BF0070024004148001014B0022A4
:103DF0001A7070477802002008B5FFF79FFB818199
:103E000008BD000070B5002831D01B4B1C7884BB66
:103E10001A4A106001221A70264664F07F05082CA9
:103E2000EDB20CBF4FF4007140212846FFF7E4FFCC
:103E30002846FFF783FB0134092C867306608660F1
:103E4000EBD100242546082CE6B214BF40214FF4E4
:103E500000713046FFF7D0FF3046FFF76FFB0134AB
:103E6000092C857305608560EDD1002070BD0720A9
:103E700070BD082070BD00BF7A020020A40300209E
:103E800008B5FFF75BFB808908BDFFF7E3BA0000C8
:103E90002DE9F0410F468046FFF75EFB0446002007
:103EA000FFF75EF818F00F0103D1254B1B7843454F
:103EB00041D1244B244D1B682A68DB4301269BB269
:103EC000A6401343334238D14046FFF737FB18F082
:103ED000800F03464FF00C0428D01C4A04FB012439
:103EE0003A6802F06042B2F1005FBA6819D1D107B6
:103EF00054BF174A174A1A6097E8070084E807007A
:103F00005C6000249C609C732B681E43124B2E60E7
:103F10008022C3F804210020FFF724F82046BDE8E2
:103F2000F081D20754BF0D4A0D4AE4E70D4A04FB65
:103F300001240D4ADFE71024EDE71124EBE700BF71
:103F4000A8030020800200207C020020240E002014
:103F5000F33400001535000000E100E0B535000045
:103F6000ED350000900E0020C13400002DE9F04135
:103F700007468846FFF7F0FA04460020FEF7F0FFF8
:103F80003B0703D1154B1B78BB4223D1144B154E75
:103F90001B683268DB4301259BB2A540134313EA3B
:103FA000050419D13846FFF7C9FA8460D8F8003003
:103FB0000360D8F804304360336884731D430A4BB0
:103FC00035608022C3F804210020FEF7CBFF204695
:103FD000BDE8F0811024F7E71124F5E7A8030020DD
:103FE000800200207C02002000E100E000487047D1
:103FF000B0030020044B40F48070C3F81805BFF3F1
:104000006F8FBFF34F8F70470070024000F00F03B7
:10401000072B11D810F0800F084A0BBF03F58873E7
:1040200003F5847302EB830352F8230008BF58683A
:10403000431E5842584170470020704700700240AC
:10404000064BC3F80C05BFF34F8F40F48070C3F8E4
:104050000C05BFF36F8FBFF34F8F704700700240A6
:1040600010B508220021044602F000F80E4BD3F8E8
:1040700080242270D3F884246270D3F88824D3F883
:104080008C1442EA01226280D3F89024D3F894146D
:1040900042EA0122A280D3F89824D3F89C3442EA61
:1040A0000323E38010BD00BF0070024008B5FFF796
:1040B000E1F958B1EFF3108272B64C20FFF7BEF968
:1040C0004C20FFF7BBF982F3108808BD4C20BDE8F7
:1040D0000840FFF7B3B9000013B5FFF747FA104BDC
:1040E0009A7B032A06D16FF480310E48FEF749FF10
:1040F00002B010BD1C6884B96FF480310948FEF726
:1041000040FF06238DF80430074B8DF806408DF8EC
:1041100007401B6801A89847EAE7FFF7C7FFE7E7F2
:10412000840200207C020020A40300205020FFF71E
:1041300085B95420FFF782B9014B1878704700BF4A
:10414000A8030020F8B50646FFF794F91C4D074672
:1041500006F00F04C8B10020FEF702FF3046FFF75B
:10416000FBF9012303FA00F02B6823EA00032B601C
:104170006400144B04F2C57400201C6058600433C2
:104180001B68BDE8F840FEF7EDBEFEF7E9FE3046DD
:10419000FFF7E2F9012303FA00F02B68E4B223EA07
:1041A0000003072C2B6008D804F59474064B43F8E1
:1041B0002470BFF36F8FBFF34F8F0020E1E700BF84
:1041C0008002002000780240007002402DE9F34197
:1041D00004460020FEF7C4FE2046FFF7AFF914F0B6
:1041E000800F054630491ED12046FFF7B5F901235F
:1041F00003FA00F00B6830EA03030AD02046FFF709
:10420000A1FF0323AB730020FEF7ACFE02B0BDE8B4
:10421000F0812B600B68254AC04303400B60136894
:1042200018401060EDE704F00F02072A0FD8802C29
:104230001F48204B2ED002F2DA32520002601A6878
:104240001868D2B242F0020202431A601B68174F8C
:104250000E683A68204666EA0208FFF77DF90123F6
:1042600003FA00F018EA000FCDD026EA000600237A
:104270000E602B600323AB738DF807300E4B8DF867
:1042800006401043062238608DF804201B6801A800
:104290009847B8E740F2B47202601A681868D2B260
:1042A00042F00402D0E700BF7C0200208002002020
:1042B0000078024004780240A4030020FFF786BF84
:1042C000F7B5174B174CD3F880542368164EDA43D2
:1042D000164B37781B6892B238461A43FFF73CF901
:1042E000012303FA00F0104202D03846FFF76EFFB8
:1042F0006FF0011105F080050C483570FEF741FEA6
:10430000236843F00103236002A8002301930523DF
:1043100000F8043D064B1B68984703B0F0BD00BF92
:104320000070024080020020A80300207C020020D0
:10433000A40300202DE9F041544BD3F8045300228C
:1043400029461646012400297CD1FFF793F800285E
:1043500069D04F4B1B78002B65D1960263D54D4930
:104360004C4E40F2A9730B604B4B1C6814F0FF04D9
:104370001CBF1868044040F2AA700860186810F06A
:10438000FF001CBF1968084040F2AB71316019682A
:1043900011F0FF01B6461CBF1E68314040F2AC76FA
:1043A000CEF800601E6834403C4E08D03768274382
:1043B000376040F2A977CEF800701C601C68354F5A
:1043C00040F2AD743C601C68204008D0346844EA78
:1043D0000044346040F2AA743C60186018682D48AC
:1043E00040F2AE740460186801400DD0CC0748BF9D
:1043F00042F40002C806274840F2AB74046019601A
:104400001B6848BF42F00102336833F001111CBF42
:1044100005F08070024313F0011F04D06B0544BF08
:10442000316042F480621E4F02F4000622F4000460
:104430004FF00108E4B9FFF733FA2EB3BDE8F041BD
:10444000FFF73EBF91FAA1F31648B3FA83F39F003A
:10445000384407683FB10660BFF36F8FBFF34F8FDB
:1044600004FA03F0024304FA03F321EA03016AE7C2
:1044700094FAA4F5B5FA85F557F8253008FA05F54C
:10448000984724EA0504D5E7BDE8F08100700240B2
:10449000790200200078024004780240AC0300203A
:1044A0007072000000710240F8B5114E114A346874
:1044B0001268240C2404144301271CB940F2FF1392
:1044C0003360F8BD94FAA4F5B5FA85F5E8B20F2D7E
:1044D000C6BF1038C0B240F0800000F00F03072BB9
:1044E00001D8FFF773FE07FA05F524EA0504E4E7AF
:1044F000800200207C02002010B50B4C63681B0674
:1045000010D5FFF7D1FF094B0022C3F80425BFF3F4
:104510006F8FBFF34F8F8022C4F884204FF0FF329B
:10452000C3F8082310BD00BF00E100E000700240A6
:1045300010B5FFF7E1FF144B0024D3F80423C3F8B0
:104540000823C3F80045BFF36F8FBFF34F8FFFF70A
:104550000DF80E4B01221A70FEF79CFF90B1204619
:10456000FEF7FEFC0A4B0B4A186848B949F2753150
:104570001960106019600020BDE81040FEF7F2BC21
:104580001460F8E710BD00BF007002407A020020FE
:1045900000EC064014ED064010B50020FEF7E0FCEC
:1045A000144B1B7803F0FF042BB900240020FEF706
:1045B000D9FC204610BDFFF777FF0F49D1F8003432
:1045C00013F40073F1D10122C1F82C25D1F8002495
:1045D00012F4007202D0C1F82C35E6E7074B084907
:1045E000186828B949F275321A6008601A60DDE768
:1045F0000A60DBE7780200200070024000EC064011
:1046000014EC064010B50446FFF7E0FD134A04F031
:104610000F0164B2002C4FF00103B5BFD2F81005B2
:10462000D2F814058B408B40B5BF20EA030320EA83
:104630000303C2F81035C2F81435BFF36F8FBFF310
:104640004F8F074A074B13EA240438BF144601234F
:10465000625C9340014AC2F8083310BD007002400A
:104660005272000036720000F8B5214A214B224DEB
:1046700047B213EA270338BF134600F00F040121A5
:104680001B5D01FA03F3C5F804330646FEF7E2FEAC
:1046900068BB002FB4BFD5F81035D5F8143501FA32
:1046A00004F1B5BF19431943C5F81015C5F8141521
:1046B000BFF36F8FBFF34F8F013C062C17D8002F2D
:1046C00015DB0020FEF74CFC3046FFF73BFD304683
:1046D000FEF742FF094A012303FA00F0136823EAB8
:1046E000000313600020BDE8F840FEF73BBCF8BDB6
:1046F0005272000036720000007002407C020020FE
:10470000030610B504460AD400F00F03072B06D8A1
:104710009B00074AD358012B01D1FFF713FD054B2E
:10472000C3F81845BFF36F8FBFF34F8F10BD00BFA5
:10473000447402400070024000F1804000F5C04027
:10474000002382B0036003680193019B02B07047AD
:1047500003681F2B83BF03F01F03036001484FF062
:10476000A04070470003005007B502AB43F8040DAA
:104770001846FFF7EDFF019B00EB8300D0F80037F0
:1047800023F44033C0F80037D0F8003743EA014142
:10479000C0F8001703B05DF804FB00002DE9F04FEE
:1047A00089B00024614A624E624D02940394012153
:1047B000A2F5C04052F8043B012B80B206D1D6F8D6
:1047C00004330B4202D0FFF7B7FF0C43AA424FEA73
:1047D0004101EDD1584B1B68012B0ED14FF4BE7037
:1047E000FFF7AAFF4FF0A04344F00044D3F8103580
:1047F0000293524BD3F81035039314F0FF0F34D1CA
:10480000002C80F28F8004AE0023049373604C4F21
:104810004FF0FF33069307934FF00108002425461D
:104820007B1993F96020531C63D0D2B222F0C009E7
:1048300008AB4FEAD90003EB000B02F007011BF8AD
:10484000083C08FA01F10B4253D007EB0903920927
:1048500093F9303057F823A0BAF1000F21D1032A81
:1048600047D1335C0B4333541DE0354F01260025FF
:10487000344210D0AB0003F1804303F5C043D3F8BA
:104880001005D3F8101557F8253023B1C1F30141B5
:10489000C0F3052098470135082D4FEA4606E7D1B9
:1048A000AEE7032ADDD001A8CDF80490FFF750FF52
:1048B000019B03F5E07350F823301BF8180C0842F5
:1048C000C3F3014305D0022B13D1032A0BD11146A8
:1048D00004E0032B0DD1032A05D102214846FFF73E
:1048E00043FF0134E4B2BAF1000F02D0114648464A
:1048F000D0470135042D93D1A4B14FF0A0430299C4
:10490000D3F8102503F540739142D3F8103502D146
:104910000399994206D002920393049A059B06924A
:1049200007937BE709B0BDE8F08F00BF006100404E
:1049300000600040206100407C61004000030050A6
:10494000F003002000F180431A68002A1BBF0022F8
:10495000012000201A6070470F4B1A78D2B90278F4
:104960004FF08041C2F34002C1F88025027802F086
:104970000102C1F87825094A1168C90706D4C02187
:1049800082F800130121C2F88011116001221A700F
:104990000020704785207047FC0E002000E100E0F9
:1049A000034B00221A60026802B11A60704700BF10
:1049B000640400204FF080434FF46072C3F8042376
:1049C00070474FF080434FF46072C3F8082370477C
:1049D000014B00221A6070476404002010B54FF0AC
:1049E0008043D3F80443620707D54FF48470FFF780
:1049F000A9FF10B11E4B1B689847A30608D54FF4BA
:104A00008A70FFF79FFF18B11A4B00201B68984768
:104A1000600608D54FF48C70FFF794FF18B1154B62
:104A200001201B689847210608D54FF48E70FFF7C8
:104A300089FF18B1104B00201B689847E20508D584
:104A40004FF49070FFF77EFF18B10B4B01201B68ED
:104A50009847A3050AD54FF49270FFF773FF28B16A
:104A6000054B02201B68BDE81040184710BD00BF71
:104A70005C040020600400206404002008B5FFF7F7
:104A8000ADFFBDE80840FEF7ADBC0000014B1B6860
:104A9000184700BF6804002038B50A4B98420D46FD
:104AA0000CD10020FEF75CFA074B1C7914B90122E7
:104AB0001D601A710020FEF755FA0CB9002038BDB0
:104AC000112038BD00200040680400201F2886BF48
:104AD00000F01F00044A4FF0A042012303FA00F047
:104AE000C2F80805704700BF000300501F2886BFAA
:104AF00000F01F00044A4FF0A042012303FA00F027
:104B0000C2F80C05704700BF0003005007B50F4BFB
:104B1000D3F81831A3B10E4B0E4900221A60C87F9A
:104B20001B680193FF28019B03D08B7F5BB1FFF7CC
:104B3000DDFF00234B770B7207480B6849689847E5
:104B400003B05DF804FBFFF7C1FFF2E700F002409D
:104B500018F1024070040020780400202DE9F74F7E
:104B60000579784E4FF0240909FB05F906EB090A8F
:104B700093469AF81C2080460C46002A40F0DE80BE
:104B80000768714901933846FFF786FF019B01468C
:104B9000002840F0D58046F809B0CAF80430237BDD
:104BA0002078012B00F2B880FFF7A0FF23781F2B9D
:104BB00086BF03F01F03654A4FF0A04203F5E07380
:104BC000012042F8230094F80190B9F1FF0F00F0A2
:104BD000A6804846FFF78AFFB9F11F0F8BBF09F087
:104BE0001F034B46594A4FF0A04203F5E0730320E0
:104BF00042F8230094F802A0BAF1FF0F00F092806F
:104C0000BAF11F0F8BBF0AF01F0353464F4A4FF0F4
:104C1000A04203F5E073042042F82300242303FBA1
:104C20000563A27883F82020E278DA77E078FF281D
:104C300016D02379002B78D0FFF758FFE3781F2B8D
:104C400086BF03F01F03414A4FF0A04203F5E07313
:104C5000032042F82300242303FB056322799A777B
:104C60002378C7F80835C7F80C95C7F810A5A368CE
:104C7000C7F82435637B227B003318BF0123022A47
:104C800056D0032A57D0012A01D143F00203C7F8B6
:104C90005435A379C7F8C03524236B43F35813B1B7
:104CA0004022C7F804230722C7F800254BB3D8F8E1
:104CB00000006379000B42B2002A4FEA4313AFBFF2
:104CC00002F1604200F00F00214ADBB2A9BF02F5F9
:104CD00061421354DBB282F80033D8F800301B0B6A
:104CE00003F01F0043F3C40323F0604323F00303E6
:104CF00003F1604303F5614301228240C3F8802140
:104D00001A60242303FB056500236B7701232B77AF
:104D1000084603B0BDE8F08FFFF7D8FE46E74FF036
:104D2000FF3967E74FF0FF3A78E7FFF7CFFE85E7F7
:104D300043F00403ABE743F00603A8E70821E7E7E5
:104D40001121E5E7700400200D4B00000003005026
:104D500014ED00E02DE9F3410679434F242373431A
:104D60001446FA180D46517F8046002979D1FB5828
:104D700023B114F0140F04BF0123537795E80F00FB
:104D80004FF0240E0EFB067E0EF10C0C8CE80F008B
:104D90009EF81F00FF2804D09EF81E30C3B1FFF715
:104DA00095FE2A6822B102F06043B3F1005F06D19C
:104DB000AB6883B103F06043B3F1005F0BD02423F1
:104DC00003FB067600237377102002B0BDE8F08164
:104DD000FFF78CFEE5E7D8F800306968C3F8442592
:104DE000C3F84815EA68A968C3F83415C3F838252C
:104DF0000022C3F81821D3F818210192019A14F067
:104E0000010218BF0122C3F8502514F0020218BF96
:104E10000122C3F8402522075CBF01221A61242227
:104E20007243BA5892B9D3F81821002AFBD0242330
:104E300003FB0676F07FFF2803D0B47F1CB1FFF799
:104E400055FE0020C1E7FFF741FEFAE714F0040029
:104E50004FF0400202D0C3F80823F2E7C3F804235E
:104E6000B3E71120B1E700BF70040020054B1B68B9
:104E7000082B01BF044B1868B0FA80F0400918BF36
:104E800000207047300100103401001008B54FF0C9
:104E900080430022C3F80C21C3F81021C3F8382541
:104EA0004FF0805203F54043D2F80414C3F82015A4
:104EB000D2F80814C3F82415D2F80C14C3F8281536
:104EC000D2F81014C3F82C15D2F81414C3F8301506
:104ED000D2F81814C3F83415D2F81C14C3F84015CE
:104EE000D2F82014C3F84415D2F82414C3F8481596
:104EF000D2F82814C3F84C15D2F82C14C3F8501566
:104F0000D2F83014C3F85415D2F83414C3F860152D
:104F1000D2F83814C3F86415D2F83C14C3F86815F5
:104F2000D2F84014C3F86C15D2F84424C3F87025A5
:104F3000FFF79CFF10B1384B384A1A60FFF796FF15
:104F400018B1374BFB22C3F81825FFF78FFF48B184
:104F50003449354B0A681B6822F00F0203F00F0337
:104F600013430B60FFF782FF18B1304B4FF4007210
:104F70001A604FF08043D3F80024D20744BF6FF08B
:104F80000102C3F800242A4AD2F8883043F470039F
:104F9000C2F88830BFF34F8FBFF36F8F4FF01023ED
:104FA000D3F80022002A03DBD3F80432002B2FDAD7
:104FB000204B0122C3F80425D3F80024002AFBD09B
:104FC0004FF010221221C2F80012D3F80024002A58
:104FD000FBD04FF010231222C3F80422154B1A46BF
:104FE000D3F800140029FBD00021C3F80415D2F82F
:104FF0000034002BFBD0BFF34F8F0D490E4BCA6816
:1050000002F4E0621343CB60BFF34F8F00BFFDE7B4
:105010000A4B0B4A1A6008BD8C56004048810300B9
:1050200000F00040E40E004058020010409602409C
:1050300000ED00E000E001400400FA05100000204F
:105040000090D00308B5012000F066FA5B2000F064
:105050000FFA002008BD421E00F10B03002012F8D9
:10506000011F9A4280EA0100F9D1704730B5441C13
:1050700087B02046FFF7EFFF48B10D2000F04CFA53
:105080005A2000F0F5F90224204607B030BD0C226A
:1050900021460DEB020000F0C4FF0D20BDF80E50BC
:1050A00000F03AFAAC2000F0E3F901A902A800F000
:1050B0000BFA04460028F8D1019B9D42F5D82A46F8
:1050C0000299049800F040FC284600F025FAAC2034
:1050D00000F0CEF9D8E730B5451C85B02846FFF77B
:1050E000BAFF044640B10D2000F016FA5A2000F035
:1050F000BFF9022005B030BD0C22294601A800F0FE
:1051000090FF0D2000F008FAAC2000F0B1F90398F0
:1051100000F074F92046EDE730B5451C85B028460F
:10512000FFF799FF044640B10D2000F0F5F95A2031
:1051300000F09EF9022005B030BD0C22294601A8DE
:1051400000F06FFF0399029800F0DBFB0D2000F0E8
:10515000E3F9AC2000F08CF92046ECE730B5451CB3
:10516000ADF6140D2846FFF776FF044648B10D2032
:1051700000F0D2F95A2000F07BF902200DF6140D50
:1051800030BD29460C2201A800F04BFFAC2000F0F6
:105190006FF9BDF8065002982A4604A900F0B4FB46
:1051A0000D2000F0B9F904A8294600F077F920464F
:1051B000E4E730B5451C85B02846FFF74CFF0446B0
:1051C00040B10D2000F0A8F95A2000F051F902205A
:1051D00005B030BD29460C2201A800F022FF0D20A9
:1051E00000F09AF9AC2000F043F9029800F085FB3A
:1051F0000546000E00F03CF9C5F3074000F038F911
:10520000C5F3072000F034F9E8B200F031F9204688
:10521000DEE70000F7B5FDF7DDFF08B1FCF7E4F8C5
:105220000020FDF7EFFFFEF717F80028FBD0012064
:10523000FCF7C2F84FF4E13000F0E0F800F0B4F908
:1052400000F04EFA88B12048204C00F073FFFCF7C4
:105250008DF844F001040120FCF794F864254FF424
:105260007A40A047013DFAD1F5E700F0B7F801A96F
:10527000684600F029F90028F9D19DF80460002E55
:10528000F5D0134C009D04F18007A368B34217D8F2
:1052900062682946204600F0B5FE88B9E3687BB114
:1052A0003146284698470028E1D02B78FF2BDCD0E8
:1052B000122BDCD0A52BDAD0EA2000F0D9F8D4E705
:1052C0001034A742E1D1F0E7E6720000E07200007E
:1052D00014000020F8B50E4C0E4D0F4F06460C483A
:1052E000FDF7E3FE40220B493846FDF761FA40B96D
:1052F0003046FDF758FA294602462046FDF729FFB9
:10530000EDE7922803D0BDE8F840FCF76DB8F8BD92
:105310001C7500001C0500202873000010B5044611
:10532000032926D8DFE801F01912020A0020FCF751
:1053300009F82046BDE81040FFF7CCBF0020FBF77E
:10534000EDFF0120BDE81040FBF7FCBF094B012039
:105350001870BDE81040FCF715B8FDF724FA0649AF
:1053600002460648FDF7F5FE2046FFF7B3FF012091
:10537000EFE710BDEC0500201C0500201C750000A7
:10538000023808B50C2827D8DFE800F0070C2626DD
:105390002626171E2226262611000020BDE80840DA
:1053A000FBF7D0BF0020BDE80840FBF7B7BFFBF715
:1053B000DDFFBDE80840FCF7C5B9FEF7CDFC58B9E4
:1053C000BDE80840FCF7BCB9BDE80840FCF7CCB923
:1053D000BDE80840FCF7B8B908BD000010B5044BA3
:1053E000044800241C70FDF743FE034B1C6010BDF5
:1053F000EC0500201C750000F00D0020F8B5174DDD
:105400002A780446F2B9FDF73FFD1548FCF70EF97E
:1054100008B1FBF7E9FF1348FCF7B0F908B1FBF757
:10542000E3FFFCF777F908B1FBF7DEFF0E4F4FF40F
:105430007A7647F001074FF47A40B847013EFAD137
:1054400001232B70094B220A1C765A76220C240E5B
:105450009A76DC76BDE8F840FFF7C0BFF40D002077
:105460004C73000028730000207300009404002097
:1054700013B502A9074C01F8010D002301220648CB
:105480002370FDF76FF9082802D02378002BFCD099
:1054900002B010BDEC0500202873000010B50A46CC
:1054A00060B159B1064C0023014606482370FDF750
:1054B00059F9082802D02378002BFCD010BD00BF7A
:1054C000EC050020287300002DE9F0410F4C104D31
:1054D00006460F46A0462368B3F5006F03D20D4879
:1054E000FDF7E3FD30B1D8F8003035603B600020B7
:1054F000BDE8F08121680748C1F500622944FDF745
:105500009FFD236818442060E5E700BFF00D0020F0
:10551000ED0500201C750000054B1A68121A1A6070
:1055200022B1044B1918184600F086BD704700BF21
:10553000F00D0020ED05002010B508461446114678
:10554000FFF7ACFF204610BD002070471F2886BF24
:1055500000F01F00044A4FF0A042012303FA00F0BC
:10556000C2F80C05704700BF0003005038B5044670
:1055700038B1044D45F001054FF47A40A847013C8D
:10558000FAD138BD607300001F2886BF00F01F00ED
:10559000044B4FF0A04300F5E070032243F82020B5
:1055A000704700BF0003005010B50F4B0F4C002296
:1055B0001A60227832B9FDF7F5FC08B1FBF714FF49
:1055C000012323700C20FFF7DFFF2920FFF7DCFF0A
:1055D0002E20FFF7D9FF2920FFF7B8FF0C20FFF797
:1055E000B5FF002010BD00BFF80D0020FC0D00200D
:1055F00008B52920FFF7AAFF0C20FFF7A7FF01201D
:10560000FFF7B4FF074B4FF40072C3F808250A20D8
:10561000FFF7ACFF4FF0A0434FF48052C3F80825CA
:1056200008BD00BF00030050FFF7A0BF014B0122DF
:105630001A707047FD0D00201FB5124B0FCB8DE87F
:105640000F004FF0A05302930B238DF80330072374
:105650008DF8023028238DF8013008238DF80030B2
:10566000094A0A4800236946FFF778FA08B1FBF7B0
:10567000BBFEFFF7BDFF0120FFF7D6FF002004B0FF
:1056800010BD00BF687300002D5600007873000045
:1056900003281FB51DD191E805000B8902B9A8B1F7
:1056A000A3B10D4C00900292694600220B48019371
:1056B00003932270FFF74EFB08B1FBF795FE2378AA
:1056C00013B1002004B010BD20BFF8E76FF00E004A
:1056D000F8E74FF0FF30F5E7FD0D0020787300008C
:1056E00010B500F051F9044620B900F007F8024B5C
:1056F00001221A70204610BDFE0D002013B502AC29
:10570000002344F8043D41F20840214600F0F7F838
:10571000B0B9019941F2084041F48071019100F063
:10572000F0F868B921464FF4D05000F0E8F838B9E5
:1057300001994FF4D05041F48031019100F0E1F82B
:1057400002B010BD37B51E4C256805BB21464FF48D
:10575000805000F0D4F820B100232360284603B025
:1057600030BD01A941F2F43000F0C9F80028F3D1AE
:105770002368144A93420CD1019B012B01D0124B98
:105780002360236823F4702343F4A0232360256857
:10579000E4E70E4A934208D1019B032BF1D0042B7E
:1057A00001D10B4BECE70B4BEAE70B4A9342E8D1F4
:1057B00021464FF46C1000F0A2F80028CCD1E0E7AD
:1057C000000E0020A0021000A1021000B002100084
:1057D000B1021000B2021000F000100037B5002333
:1057E00069460B200093019300F089F8044640B904
:1057F0000099C80708D56946012000F080F80446E2
:1058000058B1204603B030BD41F001010B2000F03B
:1058100078F804460028EED0F3E700998A0712D5FD
:10582000052501A90F2000F06AF804460028E8D1F8
:10583000019B5B0710D40220FFF7F6FE013DF0D17B
:105840006FF00304DDE741F00201012000F059F898
:1058500004460028E4D0D4E700F04DF8D1E773B552
:1058600002AD002345F8043D41F21810294600F02E
:1058700046F80199044641F0010141F218100191E6
:1058800000F03FF8294604444FF4A05000F037F8E8
:105890000199E4B204444B05E4B202D460B202B010
:1058A00070BD21F480614FF4A050019100F029F8FF
:1058B000294606464FF4A05000F021F83044044435
:1058C000ECE710B500214FF4A05000F01AF80446A0
:1058D0003220FFF7A9FE204610BD08B5FFF77EFF76
:1058E00030B9FFF7EEFF18B9BDE80840FFF7B7BFC2
:1058F00008BDFFF7A1BE00F014BA00F021BA00F015
:1059000027BA00F02EBA00002DE9F0410D4B1C889B
:10591000083C074688461646A4B20025A64205EB79
:10592000070008EB050104D8B2B2BDE8F04100F071
:1059300063BA224600F060FA10B9361B2544EDE741
:10594000BDE8F081960000202DE9F0410D4B1C8848
:10595000083C074688461646A4B20025A64205EB39
:10596000070008EB050104D8B2B2BDE8F04100F031
:105970008DBA224600F08AFA10B9361B2544EDE7AD
:10598000BDE8F0819600002010B50020FFF7B1FFC0
:10599000044670B9FFF7D6FE000D0005B0F5401FB4
:1059A00001D0FFF79AFF00F0E5F900210248FFF768
:1059B000A8FF204610BD00BF000302001FB5002352
:1059C0000190ADF80C10032001A90293FFF760FECF
:1059D00005B05DF804FB1FB500230290ADF80C1074
:1059E000032001A90193FFF753FE05B05DF804FB06
:1059F000CF2837B5054623D000F13B03DBB2012B9E
:105A00001ED90B2401210DF10700FFF7E4FFF0B9C7
:105A10009DF80730AB4203D0013C14F0FF04F1D1F4
:105A20000B2401210DF10700FFF7D5FF78B99DF890
:105A300007301BB1013C14F0FF04F2D1012007E054
:105A400001210DF10700FFF7C6FF0028D9D0002083
:105A500003B030BD2DE9F347DFF87CA080460F4648
:105A600091460025B7F5005F3E464FF00A0428BF77
:105A70004FF4005601210DF10300FFF7ACFF18B100
:105A8000002002B0BDE8F0879DF803301B090F2B02
:105A90000DD0013C24B2631CECD1F1E79AF8003040
:105AA0008BB9022101A8FFF796FF60B1E8E7002C4F
:105AB000E6D0314608EB0500FFF78DFF0028DFD167
:105AC000B9F1000FEAD0BF1B3544BFB22DB2002F91
:105AD000C8D10120D5E700BF040E00207FB58DF8A6
:105AE0000400C1389DF820400E2800F29880DFE8BD
:105AF00000F02E2E4F1826263D3D65089696969668
:105B00002C000B0C8DF805300B0A8DF806308DF843
:105B100007100521434B1B784A1E002B63D0D1B2DE
:105B200070E0C1F307233CB98DF805308DF80610FD
:105B300000238DF80730ECE763F07F03F4E70023E0
:105B40008DF805308DF80630F3E7FF23F8E70A0CEF
:105B50008DF805200A0A8DF806201A0A8DF807101C
:105B60008DF808208DF809300721D3E70A0C8DF84D
:105B700005200A0A8DF806201A0C8DF808201A0A4A
:105B80008DF807108DF809208DF80A300821C1E73B
:105B9000C1F307237CB98DF80530130E8DF807305B
:105BA000130C8DF80830130A8DF806108DF80930A3
:105BB0008DF80A20EAE763F07F03ECE70B0C8DF821
:105BC00005300B0A8DF80630130E8DF80830130CD3
:105BD0008DF80930130A8DF807108DF80A308DF80A
:105BE0000B20092196E701AB8C1E0F4D1C440DF1D3
:105BF00003007F2384424FEA43030BD104A80244ED
:105C000002F80C3C01A8FFF7D9FEB0FA80F0400979
:105C100004B070BD10F8016F7340EB5CEAE7002040
:105C2000F6E700BF040E00208073000030282DE945
:105C3000F34707468A4695BFC326C9264FF0010998
:105C40004FF000090A244FF00008CDF8009004231B
:105C5000524639463046FFF741FF0128054605D137
:105C60003046FFF7C5FE0128054614D00120FFF796
:105C7000DBFC00231A461946CDF80080CF20FFF741
:105C80002DFFCF20FFF7B4FE013C0120FFF7CCFC35
:105C900014F0FF04D9D1284602B0BDE8F087FF28F0
:105CA0002DE9FF4780468A4695BFC426CA260127AC
:105CB00000270A254FF000090097042300224146DF
:105CC0003046FFF70BFF0128044614D13046FFF79A
:105CD0008FFE012804460ED13A46042103A8FFF79F
:105CE000B9FE0128044606D1039BCAF800302046BD
:105CF00004B0BDE8F0870120FFF796FC00231A46A8
:105D00001946CDF80090CF20FFF7E8FECF20FFF72F
:105D10006FFE013D0120FFF787FC15F0FF05CBD199
:105D2000E5E713B500242346224621460094CF2000
:105D3000FFF7D4FECF20FFF75BFE204602B010BD78
:105D400007B501A9FFF7ABFF019803B05DF804FBAD
:105D500008B5FFF7A4FF012814BF6FF0050000206D
:105D600008BD08B5FFF762FF012814BF6FF00500FA
:105D7000002008BD37B502AD002345F8043D1D4C99
:105D800029464EF624002370FFF789FFA0B123783F
:105D9000F3B169464FF48050FFF781FF38B34EF6F8
:105DA0002400FFF7CDFF20F0700141F050014EF6C6
:105DB0002400FFF7D6FF08E0012329464EF6240011
:105DC0002370FFF76CFF0028E1D1002003B030BD45
:105DD000019921F07C0141F050014EF6240001911F
:105DE000FFF724FF0028F0D001232370D1E76FF0E4
:105DF0000500EBE7040E00202DE9F043002685B0F6
:105E000081460F4614460A25B046012C04BF26469B
:105E10000224CDF80080234600224946C820FFF71F
:105E20005DFE012817D00120FFF7FEFB00231A4674
:105E30001946CDF80080CF20FFF750FECF20FFF7A6
:105E4000D7FD013D0120FFF7EFFB15F0FF05DCD189
:105E50006FF0050010E0C820FFF7CAFD0128E2D16D
:105E60006EB10022214603A8FFF7F4FD9DF80C3027
:105E70003B700128D7D1002005B0BDE8F083324641
:105E800021463846FFF7E6FDF3E700002DE9F04F25
:105E9000DFF8FC8085B081468A4617460A26012F26
:105EA00008BF0227002500953B462A464946C720E1
:105EB000FFF714FE012852D1C720FFF799FD0128F2
:105EC0004DD1ADF80C503C46B4F5005FA34628BF59
:105ED0004FF4005B1FFA8BFB002D35D1B4F5005F4A
:105EE00088BF012398BF032363F00F0301210DF145
:105EF0000B008DF80B30FFF761FD80BB59460AEBB4
:105F00000500FFF75BFD50BB98F800300BB3A4EB26
:105F10000B045D44A4B22DB2002CD5D198F800300A
:105F2000002B0CBF02250325294603A8FFF753FDCC
:105F3000A8B904AB1D4415F8053C83B915F8063C17
:105F4000C32B0CD1204620E0B4F5005F88BF0223AC
:105F5000C8E7022103A8FFF731FD0028D7D00120B0
:105F6000FFF762FB002300931A461946CF20FFF784
:105F7000B5FDCF20FFF73CFD013E0120FFF754FBAC
:105F800016F0FF068BD16FF0050005B0BDE8F08F6D
:105F9000040E002008B5074B044613B10021AFF3EF
:105FA0000080054B1868836A03B19847204601F0CA
:105FB000A9F800BF000000008074000070B50D4E0D
:105FC0000D4CA41BA4100025A54209D10B4E0C4C6E
:105FD00001F09AF8A41BA4100025A54205D170BDBC
:105FE00056F8253098470135EEE756F825309847A2
:105FF0000135F2E7FC000020FC000020FC0000203E
:106000000001002010B501390244904201D1002066
:1060100010BD10F8013B11F8014FA342F5D0181B39
:1060200010BD10B5431E0A44914200D110BD11F8B5
:10603000014B03F8014FF7E7884210B501EB02036B
:1060400003D8421E99420CD110BD9842F9D2811852
:10605000D21AD34200D110BD13F8014D01F8014D01
:10606000F7E711F8014B02F8014FEBE70244034652
:10607000934200D1704703F8011BF9E770B50E4653
:10608000054618B183690BB900F04AFAAB69AC68F0
:1060900013B9284600F044FA234B9C4217D16C6890
:1060A000A3891B071DD52369DBB1013EA36816F840
:1060B000011F013BA360E9B9002B2EDA22460A2119
:1060C000284600F07BF8013011D00A2070BD174B34
:1060D0009C4201D1AC68E3E7154B9C4208BFEC68D9
:1060E000DEE72146284600F0BBF80028DDD04FF05F
:1060F000FF3070BD002B04DAA269934206DB0A2947
:1061000004D023685A1C22601970CFE72246284623
:1061100000F054F80130C9D1E9E723680A205A1C7D
:106120002260187070BD00BFA4740000C474000029
:1061300084740000024B01461868FFF79FBF00BF40
:10614000980000200CB430B5174B0C1E9DB01D6894
:1061500008DA8B232B604FF0FF301DB0BDE83040D4
:1061600002B070474FF40273ADF8143014BF04F15D
:10617000FF332346049307934FF6FF730290069074
:10618000ADF81630209A21AB02A92846019300F001
:10619000BDFB431CBCBF8B232B60002CDDD0029BBE
:1061A00000221A70D9E700BF98000020034613F8B8
:1061B000012B002AFBD1181A01387047F8B50E469A
:1061C0001446054618B183690BB900F0A9F9214BB3
:1061D0009C422AD16C68A369A360A3891A072ED5B3
:1061E000236963B323692068C01A6369F6B29842D1
:1061F000374604DB2146284600F028F928BBA3686F
:10620000013BA36023685A1C22601E706369013041
:10621000984204D0A389DB0719D50A2E17D121464D
:10622000284600F013F990B10FE00B4B9C4201D1CE
:10623000AC68D0E7094B9C4208BFEC68CBE721462D
:10624000284600F00DF80028CCD04FF0FF37384634
:10625000F8BD00BFA4740000C47400008474000082
:10626000324B70B51D6806460C4625B1AB6913B9B3
:10627000284600F055F92E4B9C420FD16C68B4F9BA
:106280000C309AB215072CD4D00611D409223260F2
:1062900043F04003A3814FF0FF3070BD254B9C427B
:1062A00001D1AC68EBE7244B9C4208BFEC68E6E701
:1062B000510712D5616B41B104F14403994202D0F8
:1062C000304600F01BFA00236363A38923F0240304
:1062D000A3810023636023692360A38943F008033B
:1062E000A38123694BB9A38903F42073B3F5007F1D
:1062F00003D02146304600F0C1F9A28912F0010313
:106300000CD00023A36063695B42A361236953B986
:10631000B4F90C3013F08000BAD170BD920758BFA9
:106320006369A360F2E70020F7E700BF9800002050
:10633000A4740000C4740000847400008A892DE9EC
:10634000F041054610070C465AD44B68002B05DC7B
:106350000B6C002B02DC0020BDE8F081E66A002E09
:10636000F9D0002312F480522F682B6033D0606D77
:10637000A3895A0705D56368C01A636B0BB1236CF8
:10638000C01A00230246E66A216A2846B047431C29
:10639000A38906D129681D294BD82B4ACA40D607A4
:1063A00047D500226260D9042269226004D5421CCC
:1063B00001D12B6803B96065616B2F600029CAD0D9
:1063C00004F14403994202D0284600F097F90020D6
:1063D0006063BDE8F081216A01232846B047411C73
:1063E000C6D12B68002BC3D01D2B01D0162B01D199
:1063F0002F60B0E7A38943F04003A381BDE8F0819B
:106400000F69002FA7D093070E6808BF4B690F6074
:1064100018BF0023A6EB07088B60B8F1000F9ADDC8
:1064200043463A46216AA66A2846B047002807DC58
:10643000A38943F04003A3814FF0FF30BDE8F08112
:106440000744A8EB0008E8E70100402038B50B69D5
:1064500005460C46DBB118B183690BB900F060F852
:106460000C4B9C4209D16C68B4F90C307BB12146CD
:106470002846BDE83840FFF761BF074B9C4201D179
:10648000AC68F1E7054B9C4208BFEC68ECE70020E4
:1064900038BD00BFA4740000C47400008474000000
:1064A000014900F0A9B800BF4D640000002310B5F9
:1064B000044603604360836081814366C281036157
:1064C00043618361194608225C30FFF7CFFD054B1D
:1064D0006362054BA362054BE362054B24622363B1
:1064E00010BD00BF416E0000636E00009B6E000097
:1064F000BF6E000070B54A1E682555430E4605F173
:10650000740100F049F9044640B1002180E84200DE
:106510000C30A06005F16802FFF7A8FD204670BDB1
:10652000836910B5044633BB8364C3640365124BAF
:10653000124A1B688262984204BF0123836100F003
:106540001FF86060204600F01BF8A060204600F0B5
:1065500017F80022E06004216068FFF7A7FF01221E
:106560000921A068FFF7A2FF02221221E068FFF7CD
:106570009DFF0123A36110BD80740000A164000091
:10658000F8B51C4B1E68B369074613B93046FFF7D0
:10659000C7FF4836B4687368013B03D5336833B12D
:1065A0003668F7E7B4F90C506DB16834F4E70421AC
:1065B0003846FFF79FFF30600028F1D10C233B6085
:1065C00004462046F8BD4FF6FF73E3810123A38103
:1065D00065662560A560656025616561A561082225
:1065E000294604F15C00FFF741FD6563A563A564DE
:1065F000E564E6E7807400002DE9F84380468946AB
:1066000000F14804002614B93046BDE8F883A568B7
:106610006768013F01D52468F5E7AB89012B07D9ED
:10662000B5F90E30013303D029464046C84706432A
:106630006835EEE770B50E46B1F90E10002990B03E
:1066400014461D4607DA00232B60B3891A0610D4BE
:106650004FF480630EE001AA00F058FC0028F2DB42
:10666000029A02F47042A2F500535A425A412A603B
:10667000EEE740230020236010B070BD8B8973B516
:106680009D0706460C4607D504F1470323602361A6
:106690000123636102B070BD01AB6A46FFF7CAFF18
:1066A00000990546304600F077F848B9B4F90C3047
:1066B0009A05EFD423F0030343F00203A381E3E739
:1066C0000D4BB362A389206043F08003A381009B3C
:1066D0006361019B20615BB1B4F90E10304600F09C
:1066E00027FC28B1A38923F0030343F00103A3810E
:1066F000A3891D43A581CDE7A164000038B50546F7
:10670000002945D051F8043C0C1F002BB8BFE418F9
:1067100000F086FC1F4A1368104633B963601460AA
:106720002846BDE8384000F07CBCA3420CD9216863
:106730006218934204BF1A685B68636004BF521812
:1067400022600460ECE713465A680AB1A242FAD903
:1067500019685818A0420BD1206801445818824289
:106760001960DDD1106852685A6001441960D7E79A
:1067700002D90C232B60D3E7206821188A4204BF7A
:1067800011685268626004BF091821605C60C7E745
:1067900038BD00BF080E002070B5CD1C25F00305E4
:1067A00008350C2D38BF0C25002D064601DBA9420B
:1067B00003D90C233360002070BD00F031FC234A64
:1067C0001468214691B9224C23681BB9304600F069
:1067D00027FB20602946304600F022FB431C26D1CF
:1067E0000C233360304600F01CFCE4E70B685B1BB5
:1067F0001AD40B2B0FD90B60CD50CC18304600F0BB
:1068000010FC04F10B00231D20F00700C31A1BD05D
:106810005A42E25070BD8C420DBF63684B686360A2
:10682000136018BF0C46E9E70C464968CAE7C41C68
:1068300024F00304A04205D0211A304600F0F0FAFB
:106840000130CDD02560D9E770BD00BF080E002013
:106850000C0E00202DE9F0478E689E4282460C46C1
:106860009146984635D88A8912F4906F31D02568C0
:1068700009696F1A6569022305EB450595FBF3F578
:1068800008F101033B449D4238BF1D46530531D5F5
:106890002946FFF781FF064650B90C23CAF800309D
:1068A000A38943F04003A3814FF0FF30BDE8F08798
:1068B0003A462169FFF7B5FBA38923F4906343F0BF
:1068C0008003A381266165613E44ED1B2660A560BF
:1068D0004646464528BF4646324649462068FFF7A9
:1068E000ABFBA3689B1BA36023681E4426600020AB
:1068F000BDE8F0872A4600F095FB06460028E1D166
:1069000021695046FFF7FAFEC7E700002DE9F04F76
:106910009DB0804603938B891C060D4616460FD505
:106920000B696BB94021FFF737FF2860286128B950
:106930000C23C8F800304FF0FF30C5E040236B61F6
:106940000023099320238DF8293030238DF82A3035
:106950004FF0010B37463C4614F8013B002B3CD16D
:10696000B7EB060A0BD05346324629464046FFF79E
:1069700071FF013000F0A380099B534409933B78D9
:10698000002B00F09C8000234FF0FF32049307930C
:10699000059206938DF853301A93052221785048BA
:1069A00000F0EEFA671C049BD8B9D90644BF202238
:1069B0008DF853201A0744BF2B228DF853202278DC
:1069C0002A2A16D0079A00210A20274601343B784C
:1069D000303B092B51D9C9B111E0252BC0D0274636
:1069E000B9E73F4A801A0BFA00F0184304903C467E
:1069F000D3E7039A111D12680391002A01DB079265
:106A000004E0524243F00203079204933B782E2B9A
:106A10000ED17B782A2B07F1010132D1039B1A1D7D
:106A20001B680392002BB8BF4FF0FF33023705936A
:106A30002C4C39780322204600F0A2FA38B14023CA
:106A4000001B03FA00F0049B0343049301373978D9
:106A500025488DF8281006227E1C00F091FA0028A7
:106A600035D0224BFBB9039B073323F007030833D0
:106A70000393099B4B4409936CE700FB023201210D
:106A8000A3E70023059318460A240F4601313A78FC
:106A9000303A092A03D9002BCAD00590C8E704FB75
:106AA00000200123F1E703AB00932A46104B04A911
:106AB0004046AFF30080B0F1FF3F8146D9D1AB89AA
:106AC0005B063FF538AF09981DB0BDE8F08F03AB0A
:106AD00000932A46064B04A9404600F081F8EAE7F5
