:020000040000FA
:1000000000040020990900002D0600007909000075
:1000100037060000410600004B060000000000000B
:10002000000000000000000000000000BD0900000A
:1000300055060000000000005F0600006906000091
:10004000730600007D060000870600009106000090
:100050009B060000A5060000AF060000B9060000E0
:10006000C3060000CD060000D7060000E106000030
:10007000EB060000F5060000FF060000090700007F
:10008000130700001D0700002707000031070000CC
:100090003B070000450700004F070000590700001C
:1000A000630700006D07000077070000810700006C
:1000B0008B070000950700009F070000A9070000BC
:1000C000B3070000BD070000C7070000D10700000C
:1000D000DB070000E5070000EF070000F90700005C
:1000E000030800000D0800001708000021080000A8
:1000F0002B080000350800003F08000049080000F8
:10010000530800001FB500F003F88DE80F001FBD75
:1001100000F038BC70B50B46010B184400F6FF70B8
:10012000040B4FF080500022090303692403406947
:1001300043431D1B104600F0E9F929462046BDE85F
:10014000704000F0E3B9F0B54FF6FF734FF4B475AB
:100150001A466E1E12E0A94201D3344600E00C4656
:10016000B1EB040130F8027B641E3B441A44F9D120
:100170009CB204EB134394B204EB12420029EAD17F
:1001800098B200EB134002EB124140EA0140F0BD8F
:10019000C34992B00446D1E90001CDE91001FF2224
:1001A0004021684600F094FB94E80F008DE80F00B2
:1001B000684610A902E004C841F8042D8842FAD12B
:1001C00010216846FFF7BFFF1090AA208DF8440069
:1001D00000F0FAF800F0DDF84FF01024A0691022CA
:1001E0006946803000F0DEF8A069082210A900F00E
:1001F000D9F800F0C2F870B504460068A94D072888
:1002000069D2DFE800F033041929561E2500D4E92D
:10021000026564682946304600F0FDF82A4621460A
:10022000304600F0BFF8AA002146304600F024FB1B
:10023000002800D0032070BD00F0D6FB4FF48050A2
:1002400007E0201D00F0C6F80028F4D100F0CCFB38
:1002500060682860002070BD241D94E807009200AB
:1002600000F00AFB0028F6D00E2070BD00F0BEF8AA
:100270000028FAD1D4E9010100EB81034FF080504E
:10028000026945696A43934209D84FF010225369C5
:1002900003EB81030169406941438B4201D9092085
:1002A00070BD5069401C01D10F2070BD2046FFF782
:1002B0006FFF00F09BF80028F7D1201D00F08AF8AE
:1002C0000028F2D160680028F0D100F07DF800F03D
:1002D00060F800F052F8072070BD10B50C461828E1
:1002E00002D00120086010BD2068FFF784FF206065
:1002F00010BD4FF01024A069401C05D0A569A66967
:1003000080353079AA2808D06069401C2DD06069FA
:100310000068401C29D060692CE010212846FFF7B6
:1003200012FF316881421CD1A16901F18002C03104
:1003300005E030B108CA51F8040D984201D10120FE
:1003400000E000208A42F4D158B1286810B1042896
:1003500003D0FEE7284600F070F85249686808604C
:1003600008E000F016F800F008F84FF4805001683B
:10037000491C01D000F012FBFEE7BFF34F8F4A4843
:1003800001684A4A01F4E06111430160BFF34F8FF5
:10039000FEE74FF010208169491C02D0806900F00F
:1003A0008CB870472DE9F04117460D4606460024EB
:1003B00006E03046296800F093F8641C2D1D361DB8
:1003C000BC42F6D3BDE8F0814FF0102080694FF4B5
:1003D00080519FE64FF080510A69496900684A439D
:1003E000824201D810207047002070474FF08050A3
:1003F0000169406941434FF01020826902F5805243
:10040000914201D2092070478069401C01D0002030
:1004100070470420704770B50C4605464FF480665F
:1004200008E0284600F049F8B44205D3A4F58064FA
:1004300005F58055002CF4D170BD4168044609B122
:10044000012600E000264FF010256869A26892009E
:1004500000F012FAF8B1A06881006869FFF75AFE4F
:10046000BEB16E694FF08050A56864680169426949
:100470005143A1420DD9016940694143A94208D9BC
:1004800029463046FFF7C7FF2A4621463046FFF788
:1004900089FFFFF772FFFFF797FFFFF77AFFF8E793
:1004A0000C0A0000000000200CED00E00400FA053A
:1004B000144801680029FCD07047134A02211160DA
:1004C00010490B68002BFCD00F4B1B1D18600868EF
:1004D0000028FCD00020106008680028FCD070477D
:1004E000094B10B501221A60064A1468002CFCD092
:1004F000016010680028FCD00020186010680028F7
:10050000FCD010BD00E4014004E5014070B50C468C
:10051000054600F073F810B900F07EF828B12146C6
:100520002846BDE8704000F007B821462846BDE8DF
:10053000704000F037B800007FB5002200920192B1
:10054000029203920A0B000B6946012302440AE05F
:10055000440900F01F0651F8245003FA06F635430B
:1005600041F82450401C8242F2D80D490868009A94
:1005700010430860081D0168019A1143016000F0F2
:100580003DF800280AD0064910310868029A104345
:100590000860091D0868039A104308607FBD0000C9
:1005A0000006004030B50F4C002200BF04EB0213E0
:1005B000D3F800582DB9D3F8045815B9D3F8085812
:1005C0001DB1521C082AF1D330BD082AFCD204EB1D
:1005D0000212C2F80008C3F804180220C3F8080881
:1005E00030BD000000E001404FF08050D0F83001F5
:1005F000082801D000207047012070474FF080503C
:10060000D0F83011062905D0D0F83001401C01D0B7
:1006100000207047012070474FF08050D0F8300123
:100620000A2801D0002070470120704708208F4918
:1006300009680958084710208C4909680958084773
:1006400014208A4909680958084718208749096809
:100650000958084730208549096809580847382053
:1006600082490968095808473C20804909680958A7
:10067000084740207D4909680958084744207B49BC
:1006800009680958084748207849096809580847FF
:100690004C20764909680958084750207349096871
:1006A00009580847542071490968095808475820D3
:1006B0006E490968095808475C206C49096809585F
:1006C0000847602069490968095808476420674954
:1006D00009680958084768206449096809580847A3
:1006E0006C20624909680958084770205F49096809
:1006F0000958084774205D49096809580847782057
:100700005A490968095808477C2058490968095816
:1007100008478020554909680958084784205349EB
:100720000968095808478820504909680958084746
:100730008C204E4909680958084790204B490968A0
:1007400009580847942049490968095808479820DA
:1007500046490968095808479C20444909680958CE
:100760000847A0204149096809580847A4203F4983
:10077000096809580847A8203C49096809580847EA
:10078000AC203A49096809580847B0203749096838
:1007900009580847B4203549096809580847B8205E
:1007A0003249096809580847BC2030490968095886
:1007B0000847C0202D49096809580847C4202B491B
:1007C000096809580847C82028490968095808478E
:1007D000CC202649096809580847D02023490968D0
:1007E00009580847D4202149096809580847D820E2
:1007F0001E49096809580847DC201C49096809583E
:100800000847E0201949096809580847E4201749B2
:10081000096809580847E820144909680958084731
:10082000EC201249096809580847F0200F49096867
:1008300009580847F4200D49096809580847F82065
:100840000A49096809580847FC20084909680958F5
:1008500008475FF480700549096809580847000097
:1008600003480449024A034B70470000000000207F
:10087000180A0000180A000040EA010310B59B079F
:100880000FD1042A0DD310C808C9121F9C42F8D0FA
:1008900020BA19BA884201D9012010BD4FF0FF30AB
:1008A00010BD1AB1D30703D0521C07E0002010BDC1
:1008B00010F8013B11F8014B1B1B07D110F8013B4D
:1008C00011F8014B1B1B01D1921EF1D1184610BD2E
:1008D00002F0FF0343EA032242EA024200F005B8B5
:1008E0007047704770474FF000020429C0F0128033
:1008F00010F0030C00F01B80CCF1040CBCF1020FD3
:1009000018BF00F8012BA8BF20F8022BA1EB0C01A7
:1009100000F00DB85FEAC17C24BF00F8012B00F89D
:10092000012B48BF00F8012B70474FF0000200B5C3
:10093000134694469646203922BFA0E80C50A0E802
:100940000C50B1F12001BFF4F7AF090728BFA0E8B0
:100950000C5048BF0CC05DF804EB890028BF40F87C
:10096000042B08BF704748BF20F8022B11F0804FBE
:1009700018BF00F8012B7047014B1B68DB68184754
:100980000000002009480A497047FFF7FBFFFFF706
:10099000B9FB00BD20BFFDE7064B1847064A1060B3
:1009A000016881F30888406800470000180A0000C9
:1009B000180A0000F3020000000000201EF0040FDF
:1009C0000CBFEFF30881EFF30981886902380078E2
:1009D000182803D100E00000074A1047074A1268B0
:1009E0002C3212681047000000B5054B1B68054A01
:1009F0009B58984700BD0000DB020000000000206B
:100A0000080A0000040000000010000000000000C0
:080A100000FFFFFF0090D0037E
:1010000000000420E1120000091300000B1300008F
:101010000D1300000F13000011130000000000006A
:10102000000000000000000000000000131300009A
:101030001513000000000000171300001913000032
:10104000F91C00001B1300001B1300001B13000001
:101050001B1300001B1300001B1300001B130000D8
:101060001B1300001B1300001B1300001B130000C8
:101070001B1300001B1300001B1300001B130000B8
:101080001B130000711300001B1300001B13000052
:10109000111400001B1300001B1300001B130000A1
:1010A0001B1300001B1300001B1300001B13000088
:1010B0001B1300001B1300000000000000000000D4
:1010C0001B1300001B1300001B1300001B13000068
:1010D0001B1300001B1300001B1300001B13000058
:1010E0001B1300001B1300001B1300000000000076
:1010F000000000001B130000000000001B13000094
:1011000000000000000000000000000000000000DF
:1011100000000000000000000000000000000000CF
:1011200000000000000000000000000000000000BF
:1011300000000000000000000000000000000000AF
:10114000000000000000000000000000000000009F
:10115000000000000000000000000000000000008F
:10116000000000000000000000000000000000007F
:10117000000000000000000000000000000000006F
:10118000000000000000000000000000000000005F
:10119000000000000000000000000000000000004F
:1011A000000000000000000000000000000000003F
:1011B000000000000000000000000000000000002F
:1011C000000000000000000000000000000000001F
:1011D000000000000000000000000000000000000F
:1011E00000000000000000000000000000000000FF
:1011F00000000000000000000000000000000000EF
:1012000010B5054C237833B9044B13B10448AFF340
:1012100000800123237010BD780000200000000032
:10122000C82100000C4B43B10C480D4910B5AFF379
:1012300000800C48036823B910BD0A48036833B91D
:101240007047094B002BF7D0BDE810401847064BFC
:10125000002BF5D0184700BF00000000C821000097
:101260007C0000207400002000000000154B002BC3
:1012700008BF134B9D46A3F5803A00218B460F46CD
:101280001348144A121A00F071FF0F4B002B00D0C4
:1012900098470E4B002B00D09847002000210400F7
:1012A0000D000D48002802D00C48AFF3008000F07C
:1012B00039FF2000290000F07DFD00F01FFF00BF76
:1012C00000000800000004200000000000000000F2
:1012D00078000020A80200200000000000000000AC
:1012E0000649074A074B9B1A03DD043BC858D050F8
:1012F000FBDC00F021FEFFF7B9FF0000D421000065
:101300000800002078000020FEE7FEE7FEE7FEE789
:10131000FEE7FEE7FEE7FEE7FEE7FEE700B585B085
:1013200000230390194601AA44F20100019302939D
:1013300000F004F805B05DF804FB00BF72B6094B7D
:101340001B68DB0700D500BEBFF34F8F0649074B74
:10135000CA6802F4E0621343CB60BFF34F8F00BF53
:10136000FDE700BFF0ED00E000ED00E00400FA054D
:10137000F8B5204A204B0025C2F84051C2F844512C
:10138000C2F84851C2F84C51C2F80051C2F8045199
:101390001B6813B31949D2F804450A68A41A1A68DD
:1013A00024F07F44A2422F4609D8197CDE69A41A92
:1013B000154499B91EB133461A68A242F5D91049AD
:1013C000104A0B7812789A420DD00F490F4A41F813
:1013D00023504FF48013C2F80031F8BD1F745A69CE
:1013E00098699047E6E7531CDBB2022B08BF002345
:1013F0000B70EAE700100140B4010020B0010020AA
:10140000AD010020AC010020A401002000E100E0BB
:101410002DE9F04FB74AB84913780978994285B059
:1014200033D00133DBB2022B08BF0023B348137063
:10143000B34A0768DFF8E08252F82320D8F800109A
:10144000BB18002423F07F43036025462046A646B0
:10145000A9B10B68934200F27D81CC68C1F800E02D
:10146000D21A1844CB6934B13E1826F07F46CD61BC
:101470008C604E600D46194601240029E9D1002CEC
:1014800040F0A5814FF0010B05E0DFF88C820025CC
:10149000D8F80010AB469B4B9B4FDFF8809243F08F
:1014A000010300930E464FF0000A002D2DD0D5F811
:1014B00004E0D5F808C02C46ED69904B93481B68B2
:1014C000AEEB030222F07F42824255D802EB0C03BE
:1014D0002360002201206260A260E2612074002E7D
:1014E0006BD03068834261D9B64603E010689842F9
:1014F0004CD29646DEF81C201B1A002AF6D1236037
:10150000E261CEF81C40002DD1D197F801C097F8C8
:1015100000E0F44571D0734603EB43030EF1010084
:10152000BA7807EBC3035FFA80FE7245187987F833
:1015300000E004BF4FF0000E87F800E002289A6830
:101540004CD003283DD00128E3D1107C0028E0D105
:10155000D3F80CE0C2F804E0D3F810C0C2F808C019
:1015600014465A69E26099F800209B69A361002A39
:10157000A3D060608646A0E7A3EB0E0323F07F4371
:1015800063450AD2ACEB03032360A2E7C01A1060E4
:101590002360E261CEF81C40B5E7002301222360FE
:1015A0006360A360E36122743EB13068C8F8004014
:1015B000C31A3360E661264677E7C8F8004026463E
:1015C00073E7002EA5D0002200E01E46F3693274B6
:1015D000002BFAD1C8F800301E4696E74EB1B24251
:1015E000344603D1BDE09A4260D01C46E369002B2B
:1015F000F9D100231374F4458DD1BAF1000F02D153
:101600008E4200F09D80002E00F0C5803B4B404A8A
:101610001C68D2F80475DFF80881D6F800A098F8A5
:1016200000103B1B23F07F43DD1CA9B93949354B22
:101630004FF48030C2F844030126C2F804034FF48B
:101640000030C1F8800143F00103086016604FF4D8
:101650003C60984788F80060AA452CBF04EB0A0359
:1016600063192B4923F07F43C1F84035D1F8042595
:10167000D21BDB1B22F07F4223F07F4303329A42CE
:101680000ED9204BD1F80425C1F8402543F00103C1
:101690004FF43C6098471F4B4FF40032C3F80021D1
:1016A000002389F8003005B0BDE8F08FA24239D0A0
:1016B000D2F81CE01368C4F81CE0BEF1000F11D092
:1016C0003046DEF800402344CEF80030864209D090
:1016D000002397F800E097F801C0137406464FF016
:1016E000010A88E7002397F800E097F801C0137417
:1016F00081E700BFAC010020AD010020B001002057
:10170000A4010020A021000094000020FEFF7F0023
:101710000010014000E100E0B4010020A001002021
:10172000A10100201346F069C8F80000D8B1D3F831
:101730001CE01B68C4F81CE0BEF1000FC1D1C5E776
:10174000BBF1000F7FF45FAF002389F8003005B0D4
:10175000BDE8F08F002C3DD19B1A0B604FF0010BC0
:1017600099E63346DFE701931C4BDFF87CC0039218
:101770004FF0010E0291C3F808E0009BCCF8000086
:1017800089F800E04FF43C609847D8F80000019BCE
:101790000299039ACBE7114D114A124C4FF4803352
:1017A0004FF400310127C2F880103C43C5F848339C
:1017B0004FF43C60C5F808336F60A0470A4BAF6038
:1017C0004FF43C601E60A047084B1E7068E7C8F8E5
:1017D000001057E6C8F80010BEE700BF0010014037
:1017E00000E100E0A0210000B0010020A1010020E4
:1017F0002DE9F8431F4D204E204FDFF898804FF41D
:1018000080334FF400324FF001090024C6F88020E5
:1018100047EA0907C5F848334FF43C60C5F8083378
:10182000C5F80490B847C5F808904FF43C60C8F874
:101830000040B847124B13481349144A1C70144B0C
:1018400004600C7014704FF48011C0220B2098704B
:101850001C705C70C6F8801186F814233160C5F8DE
:10186000084586F81123D5F80435C8F8003020461D
:10187000BDE8F8830010014000E100E0A021000075
:10188000A1010020B4010020AC010020AD01002026
:1018900094000020B0010020074B9B780BB9082072
:1018A00070473AB130B10368187C0028F7D15974F9
:1018B0005A61704707207047940000202DE9F041DD
:1018C000234CA37813B90820BDE8F0810028FAD092
:1018D000042902D80720BDE8F0814369002BF2D02B
:1018E000437C0546012B4FF000000CBF8846804624
:1018F00017460E4600F032F86378A07821785A1C1B
:10190000D2B2904208BF002291421AD003EB4303A7
:1019100004EBC30301200F499D601871D1F8041531
:10192000D9601E61C3F814809F610020627000F0CE
:101930001DF8094B4FF48012C3F800210020BDE8C8
:10194000F081002000F012F80420BDE8F08100BF13
:10195000940000200010014000E100E072B6024A4D
:101960001368013313607047B8010020034A1368FD
:10197000013B136003B962B6704700BFB801002095
:1019800010B5037D044633B9836943B3984723797F
:10199000022B24D010BD0378E3B9036AC268C3F8F0
:1019A0000825A178E378CB1A01FB03F10912002383
:1019B00005312161637023752379022BEAD1E36934
:1019C00022461868FFF77AFF0028E3D0BDE81040F0
:1019D000FFF7A4BC036AC268C3F80C25E1E7E3780B
:1019E000A2789A421CD05BB9237853B3236AE26889
:1019F000C3F80C25A1780023053121616370DBE772
:101A00002278CAB1226AE168C2F80815A17811FBF0
:101A100003F1091201230531216163702375CBE7BE
:101A200023789BB9236AE268C3F80C25A1780123C7
:101A3000053121616370BFE7226AE168C2F80C15C5
:101A4000E4E7236AE268C3F80825D3E7236AE2687B
:101A5000C3F80825EAE700BFF8B582610B788C6807
:101A600003708B6883608B68C3604B6803624B783C
:101A700083700546C868E861154A0021FFF70CFF2E
:101A8000F8B9A4B1134F03460326E2070BD51F2B69
:101A90008BBF03F01F021A4639464FF0A04102F5F2
:101AA000E07241F82260640803F10103EDD12B7864
:101AB00043B92B6AEA68C3F80825002201236A703B
:101AC0002B71F8BD2B6AEA68C3F80C25F5E700BF57
:101AD000811900000003005038B50378C16002226C
:101AE0000446027133BB036AC3F80815A368E278A1
:101AF000A078A569194390424FF0000363702375E5
:101B0000A361A160237830D0C2B1002B38D0236A02
:101B1000E168C3F80815A17811FB02F1091201234D
:101B200005312161637023752379022B13D0A561E0
:101B3000002038BD036AC3F80C15D7E72BB3236A1E
:101B4000E268C3F80C250023A1786370237905317E
:101B5000022B2161EBD1E36922461868FFF7AEFE44
:101B60000028E4D0FFF7DAFBE1E79BB9236AE268DB
:101B7000C3F80C25A1780123053121616370D3E7F7
:101B8000236AE168C3F80C15C5E7236AE268C3F865
:101B90000825D8E7236AE268C3F80825EAE700BF0A
:101BA00083788B4226BFC17000200720704700BF9A
:101BB00010B568B101280AD10C4C2369A07033B16B
:101BC0000CCB0120226198472369002BF8D110BD6E
:101BD000064CA36801226270002BF8D00CCB0020C9
:101BE000A2609847A368002BF8D110BDBC0100206B
:101BF00010B50B4C237882B013B1852002B010BD14
:101C000008486360A3602361E36000F03BF8019043
:101C100000F046F801980123237002B010BD00BF08
:101C2000BC010020B11B000038B5154DAB7804464F
:101C300073B110B14368012098470020FFF78EFE72
:101C4000EB680133EB600020BDE83840FFF78EBE43
:101C500003F0FF00FFF782FE64B12A6942B19442AB
:101C600008D0134601E09C4204D01B68002BFAD137
:101C700022602C61EB68002BE2D100F025F8DFE751
:101C8000BC010020054A13790BB185207047012162
:101C90001060537118461171704700BFD0010020C9
:101CA000084B1A68D20706D40122C02183F800131A
:101CB000C3F880211A604FF080430122C3F8182531
:101CC000704700BF00E100E010B4094B094A002151
:101CD000196083B01B680193019C4FF08041022082
:101CE0000123C1F80403136003B05DF8044B70478F
:101CF000040100400800004010B5144B1A6882B07F
:101D000062B10021124A19601B68507900934FF0AC
:101D100080410123009CC1F8083390B10D4B1A6833
:101D20006AB100221A601B6801934FF080420221C1
:101D3000074B0198C2F808131B680120984702B0AE
:101D400010BD116853718847E8E700BF00010040EB
:101D5000D00100200401004010B58368B3F5006F86
:101D6000024619D0B3F5806F00D010BD0F4C238808
:101D700001339BB2B3F5C87F2380F6D9D37891782D
:101D8000C91AC9B2FFF70CFF002323800028ECD04A
:101D9000BDE81040FFF7C2BA054C238801339BB25F
:101DA000B3F5FA7F2380E9D810BD00BFDA01002027
:101DB000D8010020F0B585B0FFF71AFF08B1FFF792
:101DC000ADFA0020FFF730FFFFF712FD08B1FFF773
:101DD000A5FA0020DC264FF400654E4C4E4B8DF8E2
:101DE000000069464D4A4E488DF801600295039403
:101DF0000193FFF731FE08B1FFF790FA484D019BC0
:101E0000AA68C3F8182528461421FFF7C9FE08B1AF
:101E1000FFF784FA0021C8204FF48066414C3E4B06
:101E20008DF800108DF801003C4A3F480296694643
:101E300003940193FFF710FE08B1FFF76FFA3A4CD5
:101E4000019BA268C3F8182520469621FFF7A8FE3B
:101E500008B1FFF763FA002264204FF48057334E35
:101E60002D4B8DF800208DF8010069462B4A304833
:101E7000029703960193FFF7EFFD08B1FFF74EFAC3
:101E80002B4E019BB268C3F8182530461421FFF78A
:101E900087FE08B1FFF742FAA9682148FFF71CFE48
:101EA00008B1FFF73BFAA1681F48FFF715FE08B11C
:101EB000FFF734FAB1681E48FFF70EFE08B1FFF7CE
:101EC0002DFA1C4D1A4F45F00105B178F378C91A67
:101ED000C9B23846FFF764FEB0B94FF4FA744FF454
:101EE0007A40A847013CFAD1B178F378C91AC9B24F
:101EF0003846FFF755FE50B94FF4FA744FF47A4064
:101F0000A847013CFAD1E0E7FFF708FAE5E7FFF759
:101F100005FAF1E7B821000000030050591D000048
:101F2000DC010020BC21000000020020C0210000D4
:101F300024020020B021000010B44FF080414FF087
:101F400080520020C1F80C015E4BC1F81001C1F8AD
:101F50003805D2F80414C3F82015D2F80814C3F8D1
:101F60002415D2F80C14C3F82815D2F81014C3F8AD
:101F70002C15D2F81414C3F83015D2F81814C3F87D
:101F80003415D2F81C14C3F84015D2F82014C3F845
:101F90004415D2F82414C3F84815D2F82814C3F80D
:101FA0004C15D2F82C14C3F85015D2F83014C3F8DD
:101FB0005415D2F83414C3F86015D2F83814C3F8A5
:101FC0006415D2F83C04C3F86805D2F840043E49D1
:101FD000C3F86C050968D2F84424C3F870250829B1
:101FE00024D04FF08043D3F80024D20744BF6FF0D1
:101FF0000102C3F80024354AD2F8883043F4700354
:10200000C2F88830BFF34F8FBFF36F8F4FF01023AC
:10201000D3F80022002A23DBD3F80432002B1FDB85
:102020002B4B2C4A1A605DF8044B70472A4B1B68F7
:10203000002BD6D129482A4A2A4C04602A492B4B26
:10204000FB20C2F818050A681B68294822F00F0215
:1020500003F00F0313434FF400720B600260C0E7FC
:10206000244B0122C3F80425D3F80024002AFBD016
:102070004FF0102312221F49C3F80022D1F8003478
:10208000002BFBD04FF0102212211A4BC2F8041281
:10209000D3F80024002AFBD000221649C3F80425F7
:1020A000D1F80034002BFBD0BFF34F8F0749124B00
:1020B000CA6802F4E0621343CB60BFF34F8F00BFE6
:1020C000FDE700BF00C000403001001000ED00E05F
:1020D000080000200090D003340100108C5600400E
:1020E00000F0004048810300E40E00405802001058
:1020F0004096024000E001400400FA0508B5074B95
:10210000044613B10021AFF30080054B1868836AC1
:1021100003B19847204600F031F800BF00000000EE
:10212000C421000070B50D4E0D4CA41BA410002559
:10213000A54209D10B4E0C4C00F022F8A41BA410B0
:102140000025A54205D170BD56F8253098470135C8
:10215000EEE756F8253098470135F2E76C0000208D
:102160006C0000206C000020700000200244034638
:10217000934200D1704703F8011BF9E7FEE700BF67
:10218000F8B500BFF8BC08BC9E467047F8B500BF64
:10219000F8BC08BC9E46704700000000000000002C
:1021A0000338FDD870470000000000000000000068
:1021B0000338FDD870470000480200206802002064
:1021C000880200200C00002000000000A0F0FF7F2B
:1021D000010000000090D00300000000000000009B
:1021E00000000000000000000000000000000000EF
:1021F00000000000000000000000000000000000DF
:1022000000000000000000000000000000000000CE
:1022100000000000000000000000000000000000BE
:1022200000000000000000000000000000000000AE
:102230000000000000000000251200000112000054
:04224000000000009A
:00000001FF
