:020000022000DC
:1060000000000420E1620200096302000B63020049
:106010000D6302000F630200116302000000000024
:1060200000000000000000000000000013630200F8
:1060300015630200000000001763020019630200EC
:106040001DAC02001B63020005B602001B630200C8
:106050001B6302001B63020011B0020075B6020050
:106060001B6302001B6302001B6302001B63020030
:106070001B6302001B6302001B6302001B63020020
:106080001B630200797602001B6302001B6302009F
:106090003D7702001B630200415803001B630200AE
:1060A0001B6302001B6302001B6302001B630200F0
:1060B0001B6302001B6302000000000000000000E0
:1060C0001B6302001B6302001B6302001B630200D0
:1060D0001B6302001B6302001B6302001B630200C0
:1060E0001B6302001B6302001B6302000000000030
:1060F000000000001B630200000000001B630200A0
:10610000000000000000000000000000000000008F
:10611000000000000000000000000000000000007F
:10612000000000000000000000000000000000006F
:10613000000000000000000000000000000000005F
:10614000000000000000000000000000000000004F
:10615000000000000000000000000000000000003F
:10616000000000000000000000000000000000002F
:10617000000000000000000000000000000000001F
:10618000000000000000000000000000000000000F
:1061900000000000000000000000000000000000FF
:1061A00000000000000000000000000000000000EF
:1061B00000000000000000000000000000000000DF
:1061C00000000000000000000000000000000000CF
:1061D00000000000000000000000000000000000BF
:1061E00000000000000000000000000000000000AF
:1061F000000000000000000000000000000000009F
:1062000010B5054C237833B9044B13B10448AFF3F0
:1062100000800123237010BD7826002000000000BC
:10622000648403000C4B43B10C480D4910B5AFF327
:1062300000800C48036823B910BD0A48036833B9CD
:106240007047094B002BF7D0BDE810401847064BAC
:10625000002BF5D0184700BF000000006484030045
:106260007C2600206026002000000000154B002B3B
:1062700008BF134B9D46A3F5803A00218B460F467D
:106280001348144A121A0FF0BFFC0F4B002B00D01A
:1062900098470E4B002B00D09847002000210400A7
:1062A0000D000D48002802D00C48AFF300800FF01D
:1062B0004DFC2000290007F009F90FF033FC00BF66
:1062C00000000800000004200000000000000000A2
:1062D0007826002084390020000000000000000023
:1062E0000649074A074B9B1A03DD043BC858D050A8
:1062F000FBDC04F0D9F9FFF7B9FF0000E4850300E7
:106300001022002078260020FEE7FEE7FEE7FEE7E9
:10631000FEE7FEE7FEE7FEE7FEE7FEE7F0B595B035
:10632000002415460F4608461E4604F091F83846EC
:1063300023460822089505A91A9D09960D950A94E9
:106340008DF82C400C9404F0DFF89DF81430079879
:1063500006998DF8114003F00302012A029003917F
:1063600028D0022A04D0384604F076F815B0F0BDE3
:10637000BDF81650C3F3C2038DF81030C5F389156C
:106380000826082D2C4628BF0824334622460EA98D
:10639000384604F0B9F82D1B214608AB02AA0EA816
:1063A000264400F051FE002DEBD1384604F054F89D
:1063B00015B0F0BDBDF81460059DC6F38316C3F398
:1063C000C204B2000EA9384608238DF81040C5F368
:1063D000952504F099F808AB0093324628460EA99B
:1063E00002AB00F08BFDBEE7014B01221A70704733
:1063F000D8260020704700BF00B583B0044B00933F
:10640000044A4023FFF78AFF03B05DF804FB00BF96
:10641000196402009826002038B50E480E4D037806
:106420000E4CEB5C00252570D2B253B90C3005F050
:10643000C9FD58B90A4B1B7813B12378002BFCD047
:1064400038BD043006F04EF80028F3D000F0F4FF19
:10645000F0E700BF1022002080390020D82600205D
:106460009426002070B51348134A0378D35C88B093
:10647000DBB90C3005F028FD104D0FCD6C460FC474
:1064800095E80F0008AD1A2645F8206D84E80F0046
:1064900029460022074804F04FFB08B100F0CCFF6A
:1064A000074B00221A7008B070BD043005F09AFF47
:1064B000E2E700BF1022002080390020705F030057
:1064C0009426002070B50D4D0FCD88B06C460FC4DA
:1064D00095E80F0008AD1A2645F8206D84E80F00F6
:1064E0002946074A074804F027FB08B100F0A4FF3B
:1064F000054B01221A7008B070BD00BF705F030029
:10650000E9630200102200209426002008B5FFF75E
:10651000D9FF0421034800F0A9FC034B01225A7162
:1065200008BD00BFCC85030024220020F0B5334D08
:1065300085B005F5836002F077FF05F2144002F0A4
:1065400073FF6B68AE6803EA0600C11C05EB8102AD
:1065500015F8214014F004040ED0117801F0030165
:1065600001293BD0022903F1020700F1030126D0E3
:1065700005EB8102002CF0D105EB80005A1CC168AC
:106580000191324005EB820201F00301D2680292D0
:10659000012903F1020429D0022925D1BDF80630D2
:1065A000BDF80A60C3F38913033304EB9304144862
:1065B00002F048FF00B16C60304605B0F0BD538872
:1065C00007EB931306EA0300C11C05EB810215F8E3
:1065D000214004F00404002CBFD1CDE71188023320
:1065E000C1F383110B44EDE70026E0E7BDF804306A
:1065F000BDF80A60C3F383131C44D8E7AC2700201E
:10660000C02B00200B4B0C4810B50022FF21C3F813
:10661000182499601A605A60C3F8142483F820245F
:1066200003F0CCFE044610B9044803F0E3FF204613
:1066300010BD00BFAC270020F8840300B05F03004A
:1066400021B9114B03EBC0000068704730B40F4A0A
:106650000D4C121BD2080CD00D4D2B88834210D04C
:10666000002303E035F82310814205D001339A421C
:10667000F8D1002030BC704704EBC300006830BC88
:1066800070472046FAE700BF0C850300CC85030065
:1066900078260020094B013903EBC00003290BD8F1
:1066A000DFE801F0020806040220704740797047D5
:1066B0000079704704207047002070470C85030064
:1066C0002DE9F047944C94E80C009A4284B000F015
:1066D000BB800023C4F81834BFF34F8F6368A568EC
:1066E00003EA0501CA1C04EB820614F822205007B5
:1066F0001AD52768327802F00302012A44D0022A10
:1067000003F1020202D1738802EB931305EA03013D
:10671000D4F81804CA1C04EB820628B99F4239D960
:1067200014F822205207E5D404EB81015A1CC968F1
:1067300001912A4004EB820201F00301D268029227
:10674000022903F1020829D0012900F08180D4F840
:1067500010543DB12B6828469B689847EB681D682C
:10676000002DF7D16D486E4B6E49C01AC008000469
:1067700040F0020000F0DCF860682368C01A18BF1F
:10678000012004B0BDE8F08732880233C2F38312DF
:106790001344BBE7676004B0BDE8F087BDF806307E
:1067A0006148C3F389194F46502FA8BF502767F39C
:1067B0008F1307F10801ADF8063003F001FE06461D
:1067C0000028C4D025EA080A0AF1010A03F040FEB5
:1067D0004FEA8A0A0023082201A9304603F05EFE30
:1067E000574572D9BAF1000F7ED13A4608234F4976
:1067F000304603F053FE09F1030708EB9707D4F87E
:106800001834002B6CD1D4F810545DB1EB685A7970
:10681000314628461AB12B681B689847EB681D68FB
:10682000002DF3D1304603F017FE04A8002300F832
:106830000D3D01F06BFAD4F8183403B967609DF888
:10684000030001F089FA97E7002004B0BDE8F08763
:10685000BDF804303448C3F38312062A28BF062249
:10686000911C62F389138900ADF8043003F0A8FD90
:10687000064600283FF46BAF03F0EAFD0023082230
:1068800001A9304603F00AFEBDF8043013F4707F0E
:106890003FD04FF0000A4FF0080905EA0801033124
:1068A0004B4604EB81010422304603F0F7FDBDF8AE
:1068B00004300AF1010AC3F3831308F101075345B9
:1068C00009F10409B846E8D899E705EA0801033157
:1068D00004EB81013A460823304603F0DFFD8AE7E6
:1068E000304603F0B9FD47E705EA08010331A7EB9D
:1068F0000A0504EB810152463046EDB2082303F04D
:10690000CDFD2A460AF108030849304603F0C6FDCA
:1069100071E7474673E700BFAC2700203C850300C2
:106920000C850300BC5F0300F8840300B827002037
:106930002DE9F04383B002AB002203F8012DDFF80C
:10694000E090074618468846D9F8085001F0DEF96D
:10695000D9F80820D9F80430D9F80060134401337D
:106960009B1B012B57D809F21C440121204602F041
:1069700031FDFFF7DBFD0146204602F02BFD99E8D3
:106980000A00D9F80820134401335B1A012BECD913
:1069900001240A40033244F004036FF389130231E7
:1069A0009DF8070049F82230C9F8001001F0D4F929
:1069B00000211A4802F0CAFC80F3100033192B4062
:1069C00009EB830300043540033540EA1740D860E3
:1069D00019F8253067F3C50309F8253039F8253053
:1069E0006FF3891329F8253059F8252068F39F2281
:1069F000134664F301036FF3820349F8252009F875
:106A0000253099F820341BB1FFF75AFE0028FBD13E
:106A100003B0BDE8F0833146BAE700BFC82B0020C1
:106A2000AC2700202DE9F04782B002AB002403F828
:106A3000014D374C8046184692468946A56801F0BC
:106A400065F9A2686368276813440133DB1B022BD6
:106A50005BD804F21C460121304602F0BBFCFFF774
:106A600065FD0146304602F0B5FC94E80A00A268D4
:106A7000134401335B1A022BEDD901260A4003327D
:106A800046F0040366F3891344F8223003319DF87D
:106A90000700216001F060F9BB1C2B4004EB83036D
:106AA00000211C48C3F80CA002F050FC80F3100039
:106AB000BB192B4004EB830300043D40033540EA3F
:106AC0001840D86014F8253068F3C50304F8253061
:106AD00034F8253066F3891324F8253054F825203E
:106AE00069F39F22134666F301036FF3820344F8B0
:106AF000252004F8253094F820341BB1FFF7E0FD81
:106B00000028FBD102B0BDE8F0873946B5E700BFE9
:106B1000AC270020C82B00202DE9F04F85B004AD34
:106B2000002405F8014D3C4C0193804628469346CD
:106B30008946A66801F0EAF8A268636827681344EA
:106B40000133DB1B032B65D804F21C4501212846C9
:106B500002F040FCFFF7EAFC0146284602F03AFC4E
:106B600094E80A00A268134401335B1A032BEDD9A1
:106B700001250A4003324FF0020A45F004036AF38C
:106B8000891344F8223004319DF80F00216001F090
:106B9000E3F807EB0A0EFA1C0EEA060E324004EB8D
:106BA000820204EB8E0E019B1C48CEF80CB0002133
:106BB000D36002F0CBFB80F310007A19324004EB73
:106BC000820200043E40033640EA1840D06014F8C8
:106BD000262068F3C50204F8262034F826206AF33C
:106BE000891224F8262054F8262069F39F221346A0
:106BF00065F301036FF3820344F8262004F826307E
:106C000094F820341BB1FFF75BFD0028FBD105B0E1
:106C1000BDE8F08F3946ABE7AC270020C82B002039
:106C20002DE9F04F85B004AD002405F8014D404C2E
:106C30000193804628468946A668934601F066F887
:106C4000A168636827680B440133DB1B042B6CD8F5
:106C500004F21C450121284602F0BCFBFFF766FC4C
:106C60000146284602F0B6FB94E80C00A1680B44EC
:106C700001339B1A042BEDD9012511404FF0030A73
:106C8000033145F004036AF3891344F821300532D7
:106C90009DF80F00226001F05FF8B81C07EB0A0EA8
:106CA00030400EEA060E3A1D324004EB800004EB41
:106CB0008E0E04EB8202019BC0F80CB00021CEF8CE
:106CC0000C301C480E9BD36002F040FB80F3100098
:106CD0007A19324004EB820200043E40564440EAF6
:106CE0001840D06014F8262068F3C50204F8262066
:106CF00034F826206AF3891224F8262054F8262036
:106D000069F39F22134665F301036FF3820344F88E
:106D1000262004F8263094F820341BB1FFF7D0FC6D
:106D20000028FBD105B0BDE8F08F3A46A4E700BFCC
:106D3000AC270020C82B00202DE9F04F89B008AD0A
:106D4000002405F8114D474C129F05938046994643
:106D50002846139B0697924604920793A6688B4693
:106D600000F0D4FFA2686368276813440133DB1B7B
:106D7000052B75D804F21C450121284602F02AFB98
:106D8000FFF7D4FB0146284602F024FB94E80A00F2
:106D9000A268134401335B1A052BEDD90A40012583
:106DA000D31C45F0040E042262F3891E44F823E04C
:106DB00006319DF80F000192216000F0CDFFB91C53
:106DC00007F1030C07F1040E31400CEA060C0EEA41
:106DD000060E7B1D334004EB810104EB8C0C04EBAD
:106DE0008E0E04EB8303129AC1F80CA01E48CCF857
:106DF0000C900021CEF80C20139ADA6002F0A6FA6B
:106E000080F310007B19334004EB830300043E4001
:106E1000033640EA1840D86014F82630019A68F327
:106E2000C50304F8263034F8263062F3891324F8B9
:106E3000263054F826206BF39F22134665F3010396
:106E40006FF3820344F8262004F8263094F82034A7
:106E50001BB1FFF735FC0028FBD109B0BDE8F08F6E
:106E600039469BE7AC270020C82B002030B4174DD3
:106E7000D5F8104400215CB1E3681A798A4204D144
:106E800016E0DB681A798A4212D01B68002BF8D111
:106E9000C3681971D5F8103493B1DA68C368126801
:106EA0001A60D5F81034DB681860084630BC7047AB
:106EB00001310A29DFD14FF0FF31084630BC70475D
:106EC000C5F81004C2681360EFE700BFAC270020CC
:106ED00038B5094BD3F81044012583F820544CB140
:106EE000E3685D71236820465B689847E3681C6827
:106EF000002CF5D138BD00BFAC2700202DE9F047AC
:106F000084B01D460C9C002394F80C802373EB88FE
:106F100081460E461746002B3BD1297A05290FD012
:106F20006B7A002B3DD1404BA88853F821A000215B
:106F3000FFF786FB524603463C49204602F0FCFA26
:106F4000062F0FD8DFE807F0484D535A0463390085
:106F5000F168B06896E80C0001910090494620461F
:106F600002F0EAFA2B7A052B05D06B7A5BB930492F
:106F7000204602F0E1FA204602F0D2FA84F80C80B2
:106F800004B0BDE8F0872B4A2B49204602F0D4FA22
:106F9000EDE7284A00922949294A204602F0CCFA16
:106FA000BBE7A888FFF776FB264B234953F8202040
:106FB000204602F0C1FA297AB5E77069316996E88E
:106FC0000C000390B068F76802918DE88100494693
:106FD000204602F0B1FAC5E74946204602F0ACFA75
:106FE000C0E732684946204602F0A6FABAE74946A9
:106FF00096E80C00204602F09FFAB3E7B16896E8E5
:107000000C0020460091494602F096FAAAE7B068C3
:10701000F768316996E80C0002918DE881004946D5
:10702000204602F089FA9DE74460030034600300C3
:10703000406003002C6003006C78030014600300C0
:107040000C600300D45F0300082900D970472DE9C4
:10705000F04F1D46904600232A7B2B7385B0B8F86D
:107060000630039207460E46002B6BD198F80810A5
:10707000052911D098F80930002B6BD13C4BB8F89A
:10708000040053F821400021FFF7DAFA22460346B4
:107090003849284602F050FADFF8F8B0DFF8F890E7
:1070A0000024A642494628463ED93A5D013402F002
:1070B00043FA082CF5D13049DFF8E090DFF8E0B072
:1070C000284602F039FA002411E017F804A00EF067
:1070D00061FD50445946437813F0970F14BF524650
:1070E0002E222846013402F027FA082C08D0A642A6
:1070F00049462846E9D8013402F01EFA082CF6D198
:1071000098F80830052B02D098F80930A3B91B492C
:10711000284602F011FA284602F002FA9DF80C30D7
:107120002B7305B0BDE8F08F01345946284602F0B4
:1071300003FA082CB5D1BEE7114A1249284602F0DD
:10714000FBF9E4E70E4A00920F49104A284602F084
:10715000F3F98BE7B8F80400FFF79CFA0C4B0949E8
:1071600053F82020284602F0E7F998F8081085E740
:1071700044600300346003000460030040600300C7
:107180002C6003006C780300146003000C600300A3
:10719000D45F030000600300F85F03003C6003005D
:1071A00008600300434B1978002900F081802DE925
:1071B000F04F8C4687B00024012503E00134E4B28F
:1071C000644560D23C4B27B21E6816F837E0AEF13A
:1071D000200305FA03F9394BCEF12001D3E900234E
:1071E00025FA01F149EA010905FA0EF808EA020058
:1071F00009EA0301014306EBC70BDFD02F4922EA5E
:10720000080223EA09037046C1E9002303F0F0FEF7
:1072100016F837E0AEF1200205FA02F20192019968
:10722000CEF12003C6B225FA03F3AEF120021943D2
:1072300006FA02F30393224B0191D3E90023CDE92F
:10724000042305FA0EF30093CEF12001039B26FAE6
:1072500001F10B43039306FA0EF30293DDE9046791
:10726000DDE9002316401F4032463B46DDE9026758
:10727000BB4208BFB24209D00E4B013493F800C0A4
:10728000E4B264459ED307B0BDE8F08FDBF804306C
:10729000002BF1D09BF80110A1F10101B1FA81F1AD
:1072A0004909091AB1FA81F1490970469847E3E79B
:1072B000704700BF682C0020A02C0020982C0020D4
:1072C000902C00202DE9F8430646204800F0E2FC0F
:1072D000D0B91F4F0123A6F1200103FA01F5C6F131
:1072E0002002D7E9000123FA02F2154303FA06F45B
:1072F00004EA000205EA0103134307D020EA04046C
:1073000021EA0505C7E90045BDE8F883304603F0EA
:107310006FFE104ED6E9008998B148EA040849EAA0
:107320000509D7E9002314431D43C6E90089C7E9CD
:107330000045094B054819680022BDE8F84300F0F4
:1073400053BC28EA040829EA0509EAE7702C002062
:10735000982C0020902C00206C2C0020042A01D8AE
:10736000072070472DE9F04182B00F4605461646CA
:1073700003F0D6FC002834D01C4C1D4A1D4B1E487F
:107380001E49256017707C1E00221E600023C0E984
:107390000023C1E90023E4B2EFB1DFF86C800027DD
:1073A000032601E0FF2C16D023B205EBC30215F82B
:1073B000330093788DF80670424601A98DF8046079
:1073C0008DF8053003F0B6FC013CE4B20028E9D0AA
:1073D00002B0BDE8F0810A4A0A48002100F0F2FB41
:1073E000F6E703F04BFC0028C6D0F1E7A02C002004
:1073F000682C00206C2C0020902C0020982C002061
:10740000A5710200B0600300C572020070B5084D9E
:107410002B785BB1074E00243368012113F8340048
:1074200003F06AFD2B780134A342F5D8002070BD2B
:10743000682C0020A02C002000B585B0002303900C
:10744000194601AA44F201000193029300F004F8E6
:1074500005B05DF804FB00BF10B572B6FFF738FD4C
:10746000FFF72EF90028FBD1104B114C1149E41AFB
:10747000E408240444F00100FFF75AFA0E4B1B689D
:10748000DB0700D500BE44F002000C49FFF750FABC
:10749000BFF34F8F0A490B4BCA6802F4E0621343F3
:1074A000CB60BFF34F8F00BFFDE700BF0C8503002B
:1074B0003C850300B4600300F0ED00E0C060030011
:1074C00000ED00E00400FA0512F0030301D00720EC
:1074D0007047F0B4094D0A4F2B700A4D3A604C1CAE
:1074E0002B70094F094D0A4E3880E400A4B22244A3
:1074F000298032601846F0BC704700BFA42C0020E1
:10750000AC2C0020B42C0020B02C0020B22C002089
:10751000A82C00202DE9F0472C4D2B888B4282B0FF
:1075200003D2092002B0BDE8F087064602A84FF05A
:10753000000800F8018D17460C4600F0E7FB244BCD
:10754000244A2548197813780088DBB2834238BF73
:107550000133C9B238BF5FFA83F841451FD092F8B2
:1075600000801378DFF87890DBB2984286BF013351
:10757000DBB200235FFA88F89DF80700137000F073
:10758000EBFBD9F800300FFA88F24FEAC20A43F851
:107590003270534406B144B900209880C2E79DF888
:1075A000070000F0D9FB0420BCE70C4B28881B68BF
:1075B000314608FB003022460EF01BFBD9F80030A4
:1075C0009A440020AAF80440ACE700BFB02C002089
:1075D000B42C0020A42C0020B22C0020A82C0020C9
:1075E000AC2C00202DE9F047174C184D22782B7851
:1075F0009A4226D0DFF85C90DFF85C80144FDFF809
:107600005CA02378D9F800203888D8F80060DBB275
:107610000FFA83FC02EBCC0103FB0060898852F86F
:107620003C3098472378BAF80020DBB29A4203F145
:1076300001038CBFDBB20023237022782B789A429F
:10764000DFD1BDE8F08700BFB42C0020A42C0020BF
:10765000B02C0020AC2C0020A82C0020B22C002044
:10766000082910B5044602D00020FFF7E5FE236884
:107670006068BDE8104018472DE9F041274A284BC3
:107680000025C2F84051C2F84451C2F84851C2F82E
:107690004C51C2F80051C2F804511B6882B023B3A8
:1076A0002049D2F804450A68DFF88C80A41A1A68C9
:1076B00024F07F44A2422F4609D8197CDE69A41A1F
:1076C0001544A9B91EB133461A68A242F5D9164924
:1076D000164A0B7812789A4219D01549154A41F882
:1076E00023504FF48013C2F8003102B0BDE8F0819E
:1076F0009A691F7401925B690093424608216846AB
:10770000FFF708FF0028DDD0FFF796FEDAE7531CED
:10771000DBB2022B08BF00230B70DEE70010014034
:10772000D82D0020D42D0020D12D0020D02D0020D8
:10773000C82D002000E100E0617602002DE9F04F45
:10774000B74AB84913780978994285B033D00133E4
:10775000DBB2022B08BF0023B3481370B34A07689B
:10776000DFF8E08252F82320D8F80010BB1800247C
:1077700023F07F43036025462046A646A9B10B6847
:10778000934200F27D81CC68C1F800E0D21A18441F
:10779000CB6934B13E1826F07F46CD618C604E60D7
:1077A0000D46194601240029E9D1002C40F0A5819D
:1077B0004FF0010B05E0DFF88C820025D8F80010AF
:1077C000AB469B4B9B4FDFF8809243F00103009345
:1077D0000E464FF0000A002D2DD0D5F804E0D5F864
:1077E00008C02C46ED69904B93481B68AEEB030232
:1077F00022F07F42824255D802EB0C032360002224
:1078000001206260A260E2612074002E6BD03068BB
:10781000834261D9B64603E0106898424CD296463E
:10782000DEF81C201B1A002AF6D12360E261CEF894
:107830001C40002DD1D197F801C097F800E0F44525
:1078400071D0734603EB43030EF10100BA7807EBE6
:10785000C3035FFA80FE7245187987F800E004BF21
:107860004FF0000E87F800E002289A684CD00328F9
:107870003DD00128E3D1107C0028E0D1D3F80CE002
:10788000C2F804E0D3F810C0C2F808C014465A6920
:10789000E26099F800209B69A361002AA3D0606090
:1078A0008646A0E7A3EB0E0323F07F4363450AD28D
:1078B000ACEB03032360A2E7C01A10602360E2610F
:1078C000CEF81C40B5E70023012223606360A3606B
:1078D000E36122743EB13068C8F80040C31A3360D7
:1078E000E661264677E7C8F80040264673E7002E93
:1078F000A5D0002200E01E46F3693274002BFAD1B5
:10790000C8F800301E4696E74EB1B242344603D165
:10791000BDE09A4260D01C46E369002BF9D10023F8
:107920001374F4458DD1BAF1000F02D18E4200F0EC
:107930009D80002E00F0C5803B4B404A1C68D2F869
:107940000475DFF80881D6F800A098F800103B1BFA
:1079500023F07F43DD1CA9B93949354B4FF4803002
:10796000C2F844030126C2F804034FF40030C1F802
:10797000800143F00103086016604FF43C609847B3
:1079800088F80060AA452CBF04EB0A0363192B4951
:1079900023F07F43C1F84035D1F80425D21BDB1B0F
:1079A00022F07F4223F07F4303329A420ED9204BCC
:1079B000D1F80425C1F8402543F001034FF43C60A1
:1079C00098471F4B4FF40032C3F80021002389F879
:1079D000003005B0BDE8F08FA24239D0D2F81CE0EB
:1079E0001368C4F81CE0BEF1000F11D03046DEF879
:1079F00000402344CEF80030864209D0002397F897
:107A000000E097F801C0137406464FF0010A88E7BA
:107A1000002397F800E097F801C0137481E700BFD6
:107A2000D02D0020D12D0020D42D0020C82D0020E5
:107A3000D0600300B82C0020FEFF7F000010014042
:107A400000E100E0D82D0020C42D0020C52D00202D
:107A50001346F069C8F80000D8B1D3F81CE01B68E1
:107A6000C4F81CE0BEF1000FC1D1C5E7BBF1000FA7
:107A70007FF45FAF002389F8003005B0BDE8F08FD8
:107A8000002C3DD19B1A0B604FF0010B99E6334659
:107A9000DFE701931C4BDFF87CC003924FF0010E2F
:107AA0000291C3F808E0009BCCF8000089F800E0E0
:107AB0004FF43C609847D8F80000019B0299039A64
:107AC000CBE7114D114A124C4FF480334FF4003183
:107AD0000127C2F880103C43C5F848334FF43C609E
:107AE000C5F808336F60A0470A4BAF604FF43C60A5
:107AF0001E60A047084B1E7068E7C8F8001057E6E4
:107B0000C8F80010BEE700BF0010014000E100E02F
:107B1000D0600300D42D0020C52D00202DE9F843AE
:107B20001F4D204E204FDFF898804FF480334FF4E4
:107B300000324FF001090024C6F8802047EA090707
:107B4000C5F848334FF43C60C5F80833C5F80490D5
:107B5000B847C5F808904FF43C60C8F80040B847F3
:107B6000124B13481349144A1C70144B04600C70D8
:107B700014704FF48011C0220B2098701C705C7040
:107B8000C6F8801186F814233160C5F8084586F8D8
:107B90001123D5F80435C8F800302046BDE8F88335
:107BA0000010014000E100E0D0600300C52D00207E
:107BB000D82D0020D02D0020D12D0020B82C002061
:107BC000D42D0020074B9B780BB9082070473AB1A1
:107BD00030B10368187C0028F7D159745A61704796
:107BE00007207047B82C00202DE9F043264CA378DD
:107BF00083B01BB9082003B0BDE8F0830028F9D09A
:107C0000042903D8072003B0BDE8F0834369002BA3
:107C1000F0D0064602A8737C0025012B00F8015D18
:107C20000CBF8946A94690460F4600F06FF863786E
:107C3000A07821785A1CD2B2904208BF2A469142BD
:107C40001BD003EB430304EBC30301200F4918715E
:107C50009E60D1F804159DF80700D9601F61C3F834
:107C60001490C3F81880627000F076F8084B4FF457
:107C700080122846C3F80021BDE79DF8070000F0F8
:107C80006BF80420B7E700BFB82C002000100140BB
:107C900000E100E070B51B4CA37882B013B9082056
:107CA00002B070BD0028FAD04369002BF7D0064619
:107CB00002A8002500F8015D357400F027F862780D
:107CC000A0782178531CDBB2984208BF2B4699421A
:107CD00012D002EB420204EBC20202219DF807001F
:107CE00096601171637000F037F8074B4FF4801203
:107CF0002846C3F80021D3E79DF8070000F02CF8D0
:107D00000420CDE7B82C002000E100E070B4EFF3D0
:107D1000108472B60D4B9A68AAB90D490D4E012513
:107D20009D60D1F8805035401D60C1F88060D1F869
:107D300084505D604FF0FF33C1F88430027004B9A5
:107D400062B670BC704701230370F8E774390020F5
:107D500000E100E0FC06FFBD094B9A6872B168B90A
:107D600010B4EFF3108272B606491C680C605C68B0
:107D70004C60986002B962B65DF8044B704700BF72
:107D80007439002000E100E0F0B5344C344D6788D0
:107D90006268BE00F31905EB830383B0596801F5EF
:107DA0008050002A56D05388033302EB830290425E
:107DB00034D91368013331D05388033302EB830382
:107DC00098422BD34FF6FF7CB2F804E0E64517D07B
:107DD000B2F800E0BEF1000F12D062605388214D6E
:107DE0002148AE882968033300259BB200959B008B
:107DF00001EB86010325257001F0EEFE03B0F0BD16
:107E000098420BD91A6801321A4607D0B3F802E03B
:107E10000EF1030E03EB8E039842D5D2F31905EB56
:107E20008303DB686BB10F4D0F48296802270526D5
:107E300000230122AF80267003B0BDE8F04001F0BE
:107E40006DBF094804250122257003B0BDE8F0404C
:107E500001F064BF01F10802A9E700BF002E002075
:107E60001C2E0020E42E0020642600202DE9F04185
:107E7000436888464BB13B4AD468A34205D3126994
:107E8000934202D813F003054DD00023DFF8DCC085
:107E9000A8F800304FF0010E4FF6FF76DCF80470C2
:107EA000002207F580540837002A3AD0538803335C
:107EB00002EB83039C420DD80EF10103A8F800E009
:107EC0001FFA83FEBEF1030F0CF1140CE6D1002063
:107ED000BDE8F0811A680132EED05A88033203EB14
:107EE00082029442E8D39D88B5420DD01D885DB1D1
:107EF0009D6801688D421A46D6D11B4A436013899A
:107F000003810120BDE8F081A242D5D2136801337C
:107F10001346D1D05588033502EB8502A242CBD857
:107F2000E1E73B46C6E7104A048912899442ACD186
:107F300004689A689442A8D10C484268934203D9D5
:107F400002F58052934207D382699342BFD902F56A
:107F500080529342BBD20125A8F800500120BDE811
:107F6000F08100BF64260020002E00201C2E00207F
:107F70002DE9F04FA04F89B004464FF6FF783E68D8
:107F8000002E00F007813278531E052B00F2B283D9
:107F9000DFE803F0313E3E1E1E03002C40F0B880A7
:107FA000DFF87CE29EF80C30002B00F0A1819EF8F7
:107FB00000308EF80C40013B062B00F29B83DFE87B
:107FC00013F0970281015F01470199037002840158
:107FD000002C40F09D803379012B00F0B78103AD78
:107FE000C0F09E81022B0394AC60EC602C6140F0E9
:107FF0008783002032E0002C40F0AB803379032BE4
:1080000000F2BE80DFE813F0EC001001AF00CD00FD
:10801000B6F81490002C00F08380B37D022B40F260
:1080200063814FEA8904754DF38804EB090205EB7F
:108030008202033311890B4413814C4405EB840401
:10804000F3886289C3F57F4303ADFD3313440022F7
:108050006381AA600392EA602A6101200490337868
:10806000023B042B0AD8DFE803F0432F23034F0021
:1080700004238DF80C30F388ADF81830604C04F10F
:10808000100654F8043B284603B19847A642F8D19D
:108090005C495D4800243C6001F0D8F801215B4850
:1080A00001F0A6F900287FF46AAF09B0BDE8F08FAF
:1080B00003238DF80C30F388ADF818303389ADF810
:1080C0001A30F3680593D9E702238DF80C30338911
:1080D000ADF81830B388ADF81A30F3680593B37D66
:1080E000A3F10603B3FA83F35B098DF81C30C5E7EF
:1080F00001238DF80C303389ADF81830B388ADF812
:108100001A30F3680593B9E705238DF80C30B5E70D
:1081100003AD0023AB600393EB602B6101209DE76F
:108120004FEA8904354DB17D04EB090305EB830368
:10813000B3F808A05B6803EB8A0A062900F21283F1
:10814000DFE811F0170189019B01640177014B0100
:10815000480103AD2E4A002353600393AB60EB60EC
:108160002B6101207AE72B4C2B48216800233371C7
:1081700002250122A58001F0D1FD002895D03E689E
:10818000234A03AD002353600393AB60EB602B6184
:108190000E2063E71B491C4801F028F806463860AA
:1081A000F1E61C4C1D4A21681B48144D4FF0000994
:1081B00086F804900823CDF8009001F00DFD184BCF
:1081C00026685B88A18803EB830305EB830205F82F
:1081D000239053682360022356601181A380CCE76B
:1081E0000C4B104A19680C480123002433710823F2
:1081F000009401F0F1FCC0E7182E00201C2E002096
:10820000E82D0020102E0020D02E0020E02E00208F
:10821000F82D0020E42E002064260020DC600300FE
:10822000002E0020E4600300A74D2B78022B00F005
:1082300079822B7D022B00F0888203ADA34B0020B6
:1082400001221A7003905860A860E860286105E771
:10825000BEF802309C4D03EB830305EB8305EB680E
:10826000002B00F06E819A4B9A481968022205246F
:108270009A80002301228EF8004001F04FFD12E0A9
:108280009348DEF8042084880168538891480333BA
:1082900001EB8401002400949BB203249B008EF820
:1082A000004001F099FC002840F08780FDE6884AF4
:1082B000DEF804109388498803330B44022193802D
:1082C0008EF80010FFF760FDEDE7814B824A1968D8
:1082D0008048002307240093CEF804308EF8004035
:1082E000082301F079FCDEE7774D4FEA8904A4E624
:1082F0009EF80030072B00F2618101A252F823F0B2
:108300007B850200BD850200BD850200AF820200B0
:1083100055850200CB820200CB820200B1850200AB
:108320000223337103946C60AC60F36803932846B6
:108330000DF10A01FFF79AFD002840F0C581039472
:108340006C60AC60EC602C610A2087E65F4B1B78A8
:10835000002B40F049812146082260480DF054FC72
:10836000022003AD0023AB600393EB602B613E68FA
:1083700074E602230022B375042300925146F218DA
:10838000544801F029FC00283FF48FAEB17D0E2047
:10839000022908D904EB090205EB8202F38811894E
:1083A00003330B4413814C4405EB8405F3886A893D
:1083B000C3F57F43FD3313446B8103AD41F61D527A
:1083C00000239042AB600393EB602B6100F0C88107
:1083D0003E6843E641F61D50DCE7414B414AB3F8A5
:1083E00000A051683B48404A00234FF0060E86F833
:1083F00016E00093042301F0EFFB0028C6D10AEB3E
:108400008A0A05EB8A0501232B744EE6F38832694C
:1084100030484FF0010E86F816E04FF0000E0AF1DA
:108420000C019B00CDF800E001F0D6FB0028ADD197
:108430003BE62C4BB2691A601846002228495A6064
:10844000FFF714FD002894D103AD0390A860E86005
:1084500028610A2002E6032A14BF0623052300220E
:10846000B3750AF104010092042306F108021948C9
:1084700001F0B2FB002889D117E633691548002BBB
:108480000CBF012303230022B3750AF108010092F7
:10849000042306F10C0201F09FFB00287FF476AF65
:1084A00003E6BEF80220084D9300134405EB830554
:1084B0000624002369680D4A009306488EF80040A0
:1084C000082301F089FBEEE61C2E0020F82D002089
:1084D000E42E002064260020E4600300F42E002037
:1084E000F02E0020DC2D0020D8600300DC600300AB
:1084F0009EF80A304BB19C4DEB6800228EF80A20A2
:108500001BB92A7C002A40F008819EF80B3053B139
:10851000954D2B6A00228EF80B2023B995F8243054
:10852000002B40F0F98003AD0020A8608EF8000019
:10853000AEF80200CEF804000390E86028613E68BF
:108540008CE50424696889488EF80040012201F016
:10855000E5FBA8E6BEF80220834D854C93009918F0
:1085600005EB810120684E68B4F804C04860022021
:108570002660A1F808C0A08097E77B4DBEF80810E0
:108580002B782A7DB3FA83F3B2FA82F200205B09DA
:108590005209013101248EF80A308EF80B20AEF812
:1085A0000810AEF802008EF80C008EF80040A1E72B
:1085B00001238EF800309EF80A309BE7013B062B22
:1085C00000F2988001A252F823F000BFF18402006B
:1085D000C58202008182020051820200F5860200FB
:1085E000A3840200CB8202006248B0F80490B9F183
:1085F000010F00F2AC805C4D09EB890E05EB8E0E8D
:108600009EF80030BBB109F101091FFA89F9B9F1EF
:10861000020FA0F804900EF1140EF1D103AD082260
:10862000002154480DF0F0FA0020A8600390E860A3
:1086300028613E6812E5DEF80410036801F58052F7
:1086400001F1080C002B65D05988033103EB81013F
:10865000914201D30460D6E70B680133FAD04B880E
:10866000033301EB83039342F4D8B1F804A0C2456D
:1086700014D0B1F800B0BBF1000F0FD0B6F806B0BF
:108680000160D3450B46DDD1002300933A4A3748B9
:10869000042301F0A1FA80B10E2062E69A42D9D9F2
:1086A000196801311946D5D0B3F802A00AF1030ABE
:1086B00003EB8A039342CDD8D7E709EB890905EB91
:1086C000890501232B74F0E404992B4A8B88F380ED
:1086D0000B883381254800940423BDF80A6001F01B
:1086E0007BFA78B12C606C60AC60EC602C613E6809
:1086F0000E20B3E403AD0023AB600393EB602B616A
:108700000F20ABE4184B06EB860603EB860601232D
:108710003374CAE461469BE70123AEF80230FFF7E9
:1087200033FBC0E500239800184405EB80030024C8
:108730005968124A0094082305F820400B4801F0BC
:108740004BFA00287FF41BADAFE40123EBE703AD48
:10875000082221460DF058FA0394AC60EC602C61BD
:108760003E6846E40F2013E61C2E002064260020FD
:10877000E42E0020F42E0020D8600300DC6003000B
:108780004068FFF7F5BB00BF2DE9F04782B0002A33
:1087900060D0B2F8008057880E46054601A94548CA
:1087A000994600F0E5FC1C22044600210DF02CFA4D
:1087B000002C2FD04FF0000A84F80090A4F8148009
:1087C00084F816A07368236101213B4800F002FE83
:1087D000E060338823817388A380B9F1030FE780B9
:1087E0002DD0A4F80AA001A9324800F0EFFC3DB159
:1087F00000236B60E168314A29601289AB722A81DB
:1088000001212F4800F0D8FD044690B1002002B0AD
:10881000BDE8F0872B4A08EB880802EB8802C7F511
:108820007F435189FD330B440820538102B0BDE8DA
:10883000F087FFF79DFB204602B0BDE8F0870423D8
:10884000A3752B68A36101A9A4F80AA0194800F038
:10885000BDFCCDE70F89FA1C92B240F2FD34A24272
:1088600001D90920D3E7174C94F80080B8F1000F24
:1088700007D16689258935441544ADB2B5F5806FB9
:108880000BD3257D3DB9E68BA58B35441544ADB2A0
:10889000B5F5806F0AD30720B9E7C6464FEA8E05C3
:1088A000754404EB85043244628175E74FF001089A
:1088B000C646F3E7D02E0020142E0020002E002004
:1088C000E02E00201C2E002038B5084B1A68042A20
:1088D00001D10C2038BD1D68054C02460121184607
:1088E00044F8252000F076FD002038BDEC2E002055
:1088F000E82D00202DE9F04FB14C8BB022780023F9
:108900000693059307930893099372B1AD4C04F154
:10891000100554F8043B05A803B19847A542F8D1C7
:10892000002528460BB0BDE8F08F201D02F0FF06A1
:1089300000F06CFD07460028F2D14FF010234FF0F5
:1089400080525B6911695269DFF89882581C08BF30
:1089500002FB01F3C8F810309B49A3F54053404691
:108960000022C8F80C3001F009F905460028D8D1DA
:108970001C238C2295499648DFF86CB200F0BEFBB0
:10898000D8F80C30DFF86482039603F54052009269
:108990000322BC46A3F1040A01922F46029523B19B
:1089A000DAF804208B498A4264D003F6FC70524600
:1089B00002E0904200F01C8152F8041F0131F8D00F
:1089C000854A07EB870102EB8100019A4360013A77
:1089D00092B20192804A0325013702F82150BFB2BA
:1089E00003F58050009A82420AF5805A0346D6D198
:1089F000019B029D012B40F212815FFA8CF7022F3E
:108A000000F00D81062F00F00C81002F00F007818F
:108A100004A96F4800F0ACFB1C22044600210DF0B5
:108A2000F3F8002C00F00E810123013F23700A2F80
:108A300009D8DFE807F01C081C08190819081606F1
:108A400016000223237104A9614800F0BFFB012135
:108A5000624800F0B1FC00287FF462AFFFF788FAAB
:108A60005FE703232371EEE701232371EBE7002384
:108A70002371E8E75A685A498A4251D001318A4243
:108A800093D1039A72B1544A534E07EB870502EB18
:108A9000850102200137D8F8002006F82500BFB272
:108AA0004A6008810221C8F80030A8F804109A68CA
:108AB000013203F5805000F0C38003F108025388AF
:108AC000033302EB8305A84207D24FF48063A8F872
:108AD000043008234CEA030C84E795884FF6FF76B0
:108AE000B5420AD0158845B19568DBF80060B542FB
:108AF00003D9CBF80050538803330B4499B2A8F83C
:108B000004105588033502EB8502904204D80229EF
:108B100000F096800823DDE713680133CFD1F6E734
:108B20002D48BD00EA1900EB8206002100F8221052
:108B30000222736032819968013103F5805010D0B0
:108B40000833598801F1030E03EB8E0E70450DD2E8
:108B5000214B3D4403EB850501224FF480632A74C9
:108B60002B810137BFB24CF0020C3BE7B3F804E0B5
:108B70004FF6FF79CE451CD0B3F800E0BEF1000FF0
:108B800017D0D3F808E0DBF80090CE4503D9CBF836
:108B900000E0598832890A44033292B232815988FE
:108BA000033103EB81039842DBD919680131C8D145
:108BB000D7E74FF00102327459883289EBE700BFE2
:108BC000F82D0020E82D0020F8620300442E00203C
:108BD000D02E0020DEC0ADDE1C2E0020E02E0020B6
:108BE000FE011EF164260020142E0020E42E002039
:108BF000D8F8002042B31849184E07EB870201EB62
:108C00008200022143600181134877807D1C00F8B7
:108C10002210AFB24CF0010C03F58050E2E60B25B8
:108C20007FE60F4D01220023227005F110066360DC
:108C300055F8043B05A803B19847AE42F8D16FE65A
:108C4000042347E708256CE60222A8F80420012245
:108C5000C8F800300392DDE71C2E0020002E002013
:108C6000E82D002060B159B170B582B00C460DF10D
:108C700006010546FFF7FAF820B90A2002B070BDD8
:108C800005207047BDF80600084B6E6800EB8000B9
:108C900003EB80000C30012100F09CFB26606B6828
:108CA00001220C3363600020AA72E7E71C2E00202B
:108CB00050B110B582B00DF106010446FFF7D6F8A9
:108CC00020B90A2002B010BD05207047BDF806305B
:108CD000094A03EB830302EB8303DA6812B9062027
:108CE00002B010BDA27A002AF9D0DA680021013A58
:108CF000DA600846A172E5E71C2E00200F4B1B78B6
:108D00000BB90220704759B110B40C884FF6FF73AD
:108D10009C4201D04B882BB904205DF8044B70476E
:108D2000052070474A6812F0030201D00320F4E7DF
:108D300002235DF8044BFFF727BD00BFF82D00208C
:108D400020B1104A12781AB90220704705207047E6
:108D50000029FBD010B40C884FF6FF72944201D06A
:108D60004A881AB904205DF8044B70474A6812F02B
:108D7000030201D00320F6E703235DF8044BFFF75D
:108D800003BD00BFF82D0020174B1B780BB9022044
:108D900070474FF6FF73984201D10420704770B5B9
:108DA00082B001A90446114800F0E2F91C220546F0
:108DB00000210CF029FF85B105230126EC8001A9D3
:108DC0002B702E71094800F001FA3146084800F076
:108DD000F3FA044620B1002000E0082002B070BD84
:108DE000FFF7C6F82046F9E7F82D0020D02E002026
:108DF000E02E0020154B1B780BB90220704710B5F0
:108E000082B001A9124800F0B3F91C2204460021E7
:108E10000CF0FAFE8CB10623237001A90C4800F077
:108E2000D5F90C4B1A7852B901210B4800F0C4FA5D
:108E3000044638B1002002B010BD0820FBE7012233
:108E40001A73F1E7FFF794F82046F4E7F82D0020B5
:108E5000D02E0020002E0020E02E00202DE9F0432F
:108E6000354C247814B90220BDE8F08362B35BB3BB
:108E7000B3F804C0BCF1010F23D8304F0CEB8C04C5
:108E800007EB84074FF6FF7E4FF000083C786CB983
:108E90001C687D6805F58056002C4AD0658803352E
:108EA00004EB8504A64212D8C3F800800CF1010C33
:108EB0001FFA8CFCBCF1020FA3F804C007F11407E1
:108EC000E4D10A20BDE8F0830520BDE8F0832568E1
:108ED0000135E9D06588033504EB8505AE42E3D35F
:108EE000B4F80490F14515D0B4F80090B9F1000F32
:108EF00010D01C60A5888542CBD125888D42C8D171
:108F0000A168116019680E4B51601B891381002004
:108F1000BDE8F083B542C7D22C6801342C46C3D0DB
:108F2000B5F8029009F1030905EB8905AE42BBD300
:108F3000D6E705F10804B5E7F82D00201C2E002027
:108F4000002E0020314B1B780BB90220704741B333
:108F50003AB32DE9F0419788012F1FD82C4E07EB2B
:108F6000870306EB83064FF6FF7E4FF0000C337845
:108F70006BB91468736803F58055002C43D063887F
:108F8000033304EB83039D420DD8C2F800C00137C0
:108F9000BFB2022F978006F11406E8D10A20BDE87F
:108FA000F081052070471C680134EED05C880334E2
:108FB00003EB8404AC42E8D8B3F80480F04513D046
:108FC000B3F80080B8F1000F0ED013601D88854201
:108FD0001C46CFD19B680B6012680E4B4A601B8900
:108FE0000B810020BDE8F081AC42CED22368013372
:108FF0002346CAD0B4F8028008F1030804EB8804C1
:10900000A542C2D3D8E70833BDE700BFF82D002042
:109010001C2E0020002E0020314B1B780BB90220A3
:109020007047D1B1CAB12DE9F0419688012E11D80F
:109030002C4F06EB860307EB83074FF6FF7E4FF0BE
:10904000000C3B785BB10136B6B2022E968007F178
:109050001407F6D10A20BDE8F08105207047146896
:109060007B6803F58055002C38D06388033304EB0C
:1090700083039D4202D8C2F800C0E4E71C680134B3
:10908000F9D05C88033403EB8404AC42F3D8B3F822
:109090000480F04513D0B3F80080B8F1000F0ED073
:1090A00013609D8885421C46DAD19B680B6012686C
:1090B0000D4B4A601B890B810020BDE8F081AC425A
:1090C000D9D2236801332346D5D0B4F8028008F101
:1090D000030804EB8804A542CDD3D8E70833C8E7DA
:1090E000F82D00201C2E0020002E002020B119B1E8
:1090F00003680B60002070470520704799B110B4D9
:10910000B2FBF3F403FB1424A4B21CB109205DF8F4
:10911000044B704780E8120084608281C38120463E
:109120005DF8044B70470E20704700BF82B050E8D6
:10913000022FC188B2EB324F4FF0000317BF92B23B
:1091400041EA014142EA014104E04268B2EB324F98
:1091500008BF012340E80212002AE8D18DF8073049
:109160009DF80730002B0CBF1120002002B0704783
:1091700030B482B050E8013F9DB2C489254484894F
:10918000A54228BF2D1B0489A54202BFBFF32F8F24
:10919000002207E0C5EA030540E80154002CE9D1AC
:1091A0004FF001028DF803200193019B9DF80320ED
:1091B0000B602AB10B880068184402B030BC7047BD
:1091C00002F0FF03184602B030BC70470A884B8893
:1091D0009A4201D00020704750E8012FC2EA0242B3
:1091E00040E80123002BF7D10120704730B482B052
:1091F00050E8023F1FFAA3F5C488A54202BFBFF39F
:109200002F8F00220DE0C48925448489A54228BF00
:109210002D1BC3EA054540E80254002CE8D14FF06D
:1092200001028DF803200193019B9DF803200B6040
:109230002AB14B880068184402B030BC704702F075
:10924000FF03184602B030BC704700BF0A884B8845
:109250009A4201D00020704750E8022FC2EA224211
:1092600040E80223002BF7D10120704701F01F02D4
:109270004B09012100EB8300914000F081B800BF51
:1092800010B5012301F01F04490900EB810003FA26
:1092900004F100F067F8E04000F0010010BD00BFED
:1092A00001F01F0201234909934000EB8100D943DB
:1092B00000F074B84B0901F01F0150F82300C840BA
:1092C00000F00100704700BF2DE9F84F01F1FF39B0
:1092D0004FEA591909F101090F46064600EB8909C1
:1092E000044600254FF0010823686FEA030B9BFA40
:1092F000ABFBBBFA8BFBBBF1200F20D0AB445F452F
:109300000CD81CE02368DB4393FAA3F3B3FA83F38E
:10931000202B05EB030B12D05F4510D90BF01F0A71
:109320004FEA5B1008FA0AF106EB800000F01AF829
:1093300020FA0AF0C307E5D45846BDE8F88F043494
:109340004C4505F12005CFD1BB46F5E700B550E807
:10935000002F0B4640E8003E9EF0000FF7D110466C
:109360005DF804FB00B550E8002F42EA010340E835
:10937000003E9EF0000FF6D110465DF804FB00BFE2
:1093800000B550E8003F43EA010240E8002E9EF09D
:10939000000FF6D110465DF804FB00BF00B550E8A1
:1093A000003F03EA010240E8002E9EF0000FF6D1D4
:1093B00010465DF804FB00BF00B550E8002F02EB3B
:1093C000010340E8003E9EF0000FF6D110465DF824
:1093D00004FB00BF00B550E8003F03EB010240E88A
:1093E000002E9EF0000FF6D110465DF804FB00BF82
:1093F00000B550E8003FA3EB010240E8002E9EF0CC
:10940000000FF6D110465DF804FB00BF00B5012344
:1094100050E800EF4EEA030240E8002191F0000F0F
:10942000F6D170465DF804FB00B5012350E8002F2B
:1094300042EA030E40E800E191F0000FF6D17046D9
:109440005DF804FB00B5002350E800EF0EEA0302CC
:1094500040E8002191F0000FF6D170465DF804FB62
:10946000B8B130B4416882680468521AD2B2531E4F
:109470002160DBB242B101680A685C1E551C0D60B8
:109480001370E3B2FF2BF6D103680020187130BCD3
:1094900070470E20704700BFF0B583B002AB0025C7
:1094A00003F8015D04461846FEF730FC2368616846
:1094B0001A688A4210D9511E19602168A3680E6883
:1094C00012F8015C0A79278AE0689B1BDBB29A429A
:1094D00007FB050538BF0B719DF80700FEF73CFC44
:1094E000284603B0F0BD00BF30B583B002AB002208
:1094F00003F8012D054618460C46FEF707FC2A68BE
:109500001368591C1160E9682A8A641AB4FBF2F4E2
:109510001C709DF80700FEF71FFC03B030BD00BFB4
:10952000826802B9704710B5044643690168006952
:1095300098470023A36010BD0EB400B582B0039914
:1095400029B102AA04AB42F8043D00F095F802B03C
:109550005DF804EB03B070472DE9F84F1746B942A8
:10956000884606461D46DDF828B00B9A7DD30B468B
:109570004FF00109B3FBF7F39F4209F10109F9D953
:10958000A94538BFA94612F0010A02D1BBF1000F6C
:1095900049D1B268012402E0013D07FB04F4012D2A
:1095A000FAD8B8FBF4F18F42F7D9324D05E0B4FB9D
:1095B000F7F4A4B1B8FBF4F1B268685C531CB36073
:1095C00033689854B26873689A4204FB1188EED3EA
:1095D0003046FFF7A5FFB4FBF7F4002CEAD1BAF14F
:1095E000000F16D0BBF1000F33D0CB4588BF20242D
:1095F0003ED9B3683268591CB160D454B2687368FC
:109600009A420BF1FF3B06D2BBF1000F09D0D945BE
:10961000EFD1BDE8F88F3046FFF782FFBBF1000FB6
:10962000F5D1BDE8F88F93071AD42024CB45B0D9E3
:10963000B2683368511CB1609C54B26873689A4236
:109640000BF1FF3B07D2BBF1000FA3D0CB45F0D10C
:10965000A0E7BDE8F88F3046FFF762FFB268F2E797
:10966000002D0CBF30242024E0E74FF0010987E7EC
:10967000BDE8F88FEC600300002900F06F822DE94F
:10968000F04F064685B093460C460B780DE0B26865
:109690003168501CB0608B54B26873689A4280F095
:1096A000D3802378002B00F0BA800134002B00F027
:1096B000B680252BEBD14FF00008234614F8012B80
:1096C0002D2A00F0BB80302A00F0BB802B2A00F04E
:1096D000AD802A2A00F0BC80A2F13005E9B2092948
:1096E00098BF013302D9A9E1A1F130051C4613F856
:1096F000012BA2F1300005EB8501092802EB4101A5
:10970000F2D92E2A00F0B080002701E014F8012FD2
:1097100002F0FB03682BF9D0253A532A7AD8DFE808
:1097200012F07A01790079007900790079007900E6
:109730007900790079007900790079007900790061
:109740007900790079007900790079007900790051
:109750007900790079007900790079007900790041
:109760007900790079007900790079007900790031
:109770007900790079007900790079007900790021
:1097800079007900790079006A017900790079001F
:109790007900790079007900790079007900550124
:1097A000FC007900790079007900FC0079007900EB
:1097B0007900790079007900540079007900CA00B5
:1097C0007900BA00790079006A01DBF80020131DE6
:1097D000CBF80030B368156831685A1CB2604FF09E
:1097E0003002CA54B3687268934280F0A081326834
:1097F000581C7821B060D154B26873689A4280F0E6
:1098000092810022082301922946009310223046BB
:10981000FFF7A2FE01342378002B7FF446AF337BA1
:10982000002B40F0058105B0BDE8F08F234614F809
:10983000012B2D2A48F004087FF445AF48F00108B9
:109840003BE748F0020838E73046FFF769FE28E7B3
:10985000DBF80020111DCBF8001015685A782E2A6D
:1098600003F101047FF450AF6278A2F13003092BB9
:1098700004F101044FF000073FF64AAF07EB8707FA
:1098800002EB470714F8012FA2F13003092BA7F1CF
:109890003007F3D93CE7DBF800301A1DCBF8002085
:1098A0001968CDF804803B4600950A223046FFF740
:1098B00053FE0134AFE7DBF800301A1DCBF800206F
:1098C00018F0010FD3F8009040F0BB80B9F1000F01
:1098D00000F0478148460CF09FF90746BD4240F230
:1098E000F180002D00F0EE804FF0200805E0BD4231
:1098F00000F0E880002D00F0E580B3683268591C64
:10990000B16002F80380B26873689A4205F1FF35CE
:10991000EDD33046FFF704FEE9E7DBF800301A1D0F
:10992000CBF80020D3F8009089EAE973A3EBE97340
:10993000092B4FF0010A09DD8F4A82FB0312DB1766
:10994000C3EBA203092B0AF1010AF5DCBA4538BFC3
:10995000BA462DB3B9F1000F02DB18F0040F00D0A6
:10996000013D18F0020F40F0F58018F0010F17D1FB
:10997000002D00F0FE80AA4538BF202110D2B26829
:109980003368501CB0609954B26873689A4205F10C
:10999000FF3580F0E880002D00F0EB80AA45EED185
:1099A000B9F1000FC0F2C88018F0040F7BD108F0A5
:1099B0000303022B00F09A808DE820013B464946C4
:1099C0000A223046FFF7C8FD013424E7DBF8002007
:1099D000131DCBF80030B36831681278581CB060A2
:1099E000CA54B26873689A42FFF414AF3046FFF766
:1099F00097FD01340FE7DBF800301A1DCBF800208B
:109A00001968CDF804803B46009510223046FFF7D8
:109A1000A3FD0134FFE6B3683268591CB1604FF012
:109A20002501D154B26873689A42DFD20134F2E65C
:109A3000304605B0BDE8F04FFFF772BD1C4600256B
:109A40005FE64F46A7EB090817F8013B8BB1B268F8
:109A50003168501CB0608B54B26873689A42F1D37D
:109A60003046FFF75DFDA7EB090817F8013B002B17
:109A7000EDD145457FF6CEAE202705E045453FF4C4
:109A8000C9AE002D3FF4C6AEB3683268591CB16050
:109A9000D754B26873689A4205F1FF35EED3304669
:109AA000FFF73EFDEAE7B2683368501C2B21B06037
:109AB0009954B26873689A42FFF479AF3046FFF761
:109AC0002FFD74E709F1FF3919F8013F002B3FF42E
:109AD000A1AEB2683168501CB0608B54B268736834
:109AE0009A42F1D33046FFF71BFDEDE7002F7FF4DC
:109AF00063AF002D33D0AA45BFF45EAFB2683368C0
:109B0000511CB1604FF030019954B26873689A42A9
:109B100005F1FF3503D215B3AA45EFD14CE7304626
:109B2000FFF7FEFCF7E73046FFF7FAFC69E6304640
:109B3000FFF7F6FCB3685AE6B2683368501C2D2173
:109B4000B0609954B26873689A42C9F10009FFF491
:109B50002EAFB3E7002F3FF423AF06E77047002591
:109B60002AE74F46BAE630460391FFF7D9FC03993E
:109B700011E7002514E700BF6766666610B582B07E
:109B8000C0B131B101600B68114602B0BDE81040B0
:109B900018470B480B4C0C4B0C4A0D49001BC008D6
:109BA0000E24000440F001000094FDF739F80E2067
:109BB00002B010BD0248034C034B064AEDE700BF5C
:109BC0005C8503000C850300FC600300E461030076
:109BD000B8610300B06103002DE9F04383B0DDF804
:109BE000288000283FD01646002A4ED0D0F800E04A
:109BF000BEF1000F4ED01C46F3B14768D7F8049071
:109C0000B3FBF9F709FB173747BB11F0030F51D12D
:109C1000B60766D1C668B1425ED301F1FF3C056963
:109C20006444AC4258D8CDF82880DEF80C40A446F5
:109C300003B0BDE8F04360472C482D4C2D4B2E4A15
:109C40002E49001BC0080924000440F001000094C4
:109C5000FCF7E6FF204603B0BDE8F0832348244C20
:109C6000244B274AECE72148214C224B254A234923
:109C7000001BC0080E24000440F001000094FCF713
:109C8000CFFF204603B0BDE8F0831848184C194BAD
:109C90001D4AECE7164C1548164B1C4A1749001B89
:109CA000C0080824000440F001000094FCF7B8FF4D
:109CB0002046D0E70D480E4C0E4B154A0F49001BAD
:109CC000C0081024000440F001000094FCF7A8FF35
:109CD000204603B0BDE8F0830448054C054B0D4A0F
:109CE000ECE70248024C034B0B4AE7E75C850300B4
:109CF0000C85030010610300F4610300B8610300E8
:109D00004C620300B0610300446203003862030048
:109D100078620300B462030090620300F0B583B080
:109D2000002843D0D0F800E0BEF1000F4FD0B2B110
:109D30004768D7F800C00CF1FF370F4231D1C76830
:109D4000B9421DD34E1E04690CFB0265A54217D80B
:109D5000DEF81040A44603B0BDE8F0406047244C54
:109D60002448254B254A2649001BC0080924000425
:109D700040F001000094FCF753FF204603B0F0BD13
:109D80001C481B4C1C4B1F4A1D49001BC0081024BB
:109D9000000440F001000094FCF742FF204603B0AD
:109DA000F0BD1448124C144B174AEDE7104C114803
:109DB000114B164A1249001BC0080E24000440F043
:109DC00001000094FCF72CFF204603B0F0BD084CC6
:109DD0000848094B0E4A0A49001BC0080824000421
:109DE00040F001000094FCF71BFF204603B0F0BDDB
:109DF0000C8503005C85030024610300F46103000B
:109E0000B86103006061030038610300B0610300C2
:109E10003862030029DF704728DF70470846704723
:109E200000207047024B187A003018BF012070479D
:109E3000982F0020034B187A0122B0FA80F05A7450
:109E400040097047982F002008B510461A460BF0BD
:109E5000D0FE002008BD00BF08B514220021044830
:109E60000BF0D2FE0348FFF761F9002008BD00BFE8
:109E7000982F0020882F002010B5094C094B436013
:109E80002046FFF7C3FA40B90BF0D4FC1C23207422
:109E90008C2205490548FFF731F9002010BD00BFAD
:109EA000982F0020EC620300FC2E0020882F002059
:109EB00030B55D4C237A87B0002B66D05B4B1B68B6
:109EC000022222721A79002A33D0012A25D0196879
:109ED0008A68CAB100220325059202920092039279
:109EE000049201959A6805921A796846002A57D01B
:109EF000012A07D102228DF80020DA6812030292AB
:109F00005B6904938B689847002349494948237249
:109F10006360FFF79BF907B030BDD8681A69104439
:109F2000FFF77AFFC8B11128D1D10123237207B0FE
:109F300030BD9D695A69D9681869521BB2F5805FB6
:109F400028BF4FF480529208012A38BF01222944C9
:109F50002844FFF75FFF0028E5D1227C002AE6D1E4
:109F6000227A002AE3D0022A0AD1E0601A7922B3C9
:109F7000012A05D11A69596901328A421A6128D029
:109F8000637CBBB10BF046FCD1E729492948FFF7B8
:109F90002DF9264B18600346002891D16060C6E772
:109FA00001228DF800201A690292DA6803925B6937
:109FB0000493A7E7FFF77CFFB9E79A695969881A04
:109FC000B0F5805F94BF121802F5805291429A61F9
:109FD000D6D10022227219688868B0B10592009229
:109FE00001920292039204929A6805921A79684645
:109FF00082B1012A07D102228DF80020DA6812030B
:10A0000002925B6904938B68984709490948FFF7F6
:10A010001DF9B5E701228DF800201A690292DA686D
:10A0200003925B690493EEE7982F0020B02F002085
:10A03000AC2F0020882F00202DE9F04782B0814608
:10A040008846194801A917461E46FFF791F830B314
:10A05000044600211C220D46DFF850A00BF0D4FD71
:10A060000A9BC4F80090A360C4F81080E7606661A2
:10A0700001A925710C48FFF7A9F80AF10400FFF7C0
:10A08000C5F940B99AF8114034B9FFF711FF2046DD
:10A0900002B0BDE8F087284602B0BDE8F087042092
:10A0A00002B0BDE8F08700BF882F0020982F002065
:10A0B0002DE9F04383B080460D46184801A91646A5
:10A0C0001F46FFF755F820B304461C2200210BF071
:10A0D0009BFDDFF84C90C4F8008001232D0BE56058
:10A0E000A760666101A923710C48FFF76FF809F1B9
:10A0F0000400FFF78BF940B999F8114034B9FFF724
:10A10000D7FE204603B0BDE8F083002003B0BDE8D1
:10A11000F083042003B0BDE8F08300BF882F002047
:10A12000982F0020831E012B00D9704730B5354C85
:10A13000237A87B0002B47D0022B41D103280AD1C4
:10A14000E3680133082B44D92F4B00221B68E260DF
:10A1500022720D2015E02C4B00221B68E2601A7958
:10A16000002A38D0012A2BD11A69596901328A4252
:10A170001A6125D102284FF0000214BF0D201046AD
:10A18000227219688A68BAB100220592029200927E
:10A19000039204929A68019005921A7942B3012AB7
:10A1A00007D1DA685B6904931303022202938DF8E6
:10A1B00000208B686846984714491548FFF746F811
:10A1C000637C1BB10BF026FB07B030BDFFF770FEC0
:10A1D000FAE7E360F4E79A6959698D1AB5F5805F8B
:10A1E00094BF521902F5805291429A61E8D1C1E7B9
:10A1F0001869DA685B69029001258DF800500392B6
:10A200000493D6E7982F0020B02F0020AC2F002019
:10A21000882F002000F0FD03012B00D0704730B5DF
:10A22000624CA0F10100B0FA80F0237A40090022CC
:10A2300087B020746274002B5FD05D4B1B680222D4
:10A2400022721A79002A45D0012A1DD019688A681D
:10A250008AB1002203250592029200920392049291
:10A2600001959A6805921A796846002A59D0012A00
:10A270004ED08B68984700234E494F482372636045
:10A28000FEF7E4FF07B030BDD8681A691044FFF745
:10A29000C3FD28B11128D9D10123237207B030BDE5
:10A2A000227C002AFAD1227A002AF7D0022A0BD186
:10A2B000E0601A79002A41D0012A05D11A6959694A
:10A2C00001328A421A6145D0637C002B33D00BF0F7
:10A2D000A1FAE3E79D695A69D9681869521BB2F57A
:10A2E000805F28BF4FF480529208012A38BF0122B4
:10A2F00029442844FFF78EFDCBE72E492E48FEF770
:10A3000075FF2B4B18600346002898D16060C5E7A5
:10A3100002228DF80020DA68120302925B6904932E
:10A32000A7E701228DF800201A690292DA680392E9
:10A330005B6904939DE7FFF7BBFDAFE79A69596935
:10A34000881AB0F5805F94BF121802F580529142CE
:10A350009A61B9D10022227219688868B0B1059259
:10A36000009201920292039204929A6805921A79DD
:10A37000684682B1012A07D102228DF80020DA68EE
:10A38000120302925B6904938B68984709490A4853
:10A39000FEF75CFF98E701228DF800201A6902920F
:10A3A000DA6803925B690493EEE700BF982F002000
:10A3B000B02F0020AC2F0020882F0020FFF750B8CE
:10A3C0002DE9F041B0F81080CF1CA8F104084744F3
:10A3D0000646B7FBF8F7FFF75FF880B3FFB200253A
:10A3E0000123013F0446A0F8068006600571437111
:10A3F00028D0804609E06379AF4203F1010363711D
:10A40000C8F80000066080461CD03046FFF744F8CC
:10A4100001350028EFD16679721E16D0234601302F
:10A4200082421B68FBD81F684EB1214600250C688C
:10A4300001353846FFF758F8AE422146F7D10020E3
:10A44000BDE8F0812046BDE8F0812768EDE700BF58
:10A4500004300121FEF7BEBFF8B5012104460430E7
:10A46000FEF7C6FFC0B200B1F8BD6679721E12D009
:10A470002346013082421B68FBD81F68002EF3D0B0
:10A48000214600240D6801343846FFF72DF8A64216
:10A490002946F7D1F8BD2768F2E700BF2DE9F84358
:10A4A000C78890F805E0154607FB0EFEEC18AEF1E4
:10A4B000040E1A1DA6458846B2FBF7F638BFAEEB70
:10A4C000030507FB1621044616B1013E2468FCD1A2
:10A4D0007E1AAE4228BF2E469DB14FF00009081DDE
:10A4E000AD1B08EB0901204432460BF082FBAF4262
:10A4F000B14424683E464FF0000128BF2E46002D8F
:10A50000EDD1BDE8F88300BF2DE9F843C78890F886
:10A5100005E0154607FB0EFEEC18AEF1040E1A1D01
:10A52000A6458846B2FBF7F638BFAEEB030507FB3E
:10A530001621044616B1013E2468FCD17E1AAE42B3
:10A5400028BF2E469DB14FF0000904312144AD1BB8
:10A55000324608EB09000BF04CFBAF42B1442468D3
:10A560003E464FF0000128BF2E46002DEDD1BDE83C
:10A57000F88300BF41DF7047064A074B10B500243F
:10A5800014701C60BFF35F8F0449054800F040F869
:10A59000204610BDBC2F0020C02F002018630300F0
:10A5A000B42F002000B583B002A8002300F8013DBD
:10A5B000FDF7ACFBF1EE103A23F09F03E1EE103A09
:10A5C000BFF35F8F0A4B4022C3F884219DF8070038
:10A5D000FDF7C2FB0BF02EF928B920BF40BF20BF0A
:10A5E00003B05DF804FBFFF7C5FF03B05DF804FBA3
:10A5F00000E100E082680023936082681361826852
:10A6000053618268D36082685360826813607047C8
:10A6100001600B6843604A68934204BF00234360B3
:10A62000704700BF436843B1026891680B444360C0
:10A630005268934204BF00234360704730B4184D02
:10A64000A5F59472AB1ADB1003EBD3735B1002EB2E
:10A65000C30152F83330984228BF0C4605D311E0AD
:10A6600052F8333098420CD221468B1ADB1003EBA0
:10A67000D3735B10914202EBC304F1D8094830BC9C
:10A6800070470D46984204D904F10802AA42D9D372
:10A69000F4E76068034B002808BF1846EFE700BFE7
:10A6A0006C6403003063030010B44FF080414FF03E
:10A6B00080520020C1F80C015E4BC1F81001C1F8B6
:10A6C0003805D2F80414C3F82015D2F80814C3F8DA
:10A6D0002415D2F80C14C3F82815D2F81014C3F8B6
:10A6E0002C15D2F81414C3F83015D2F81814C3F886
:10A6F0003415D2F81C14C3F84015D2F82014C3F84E
:10A700004415D2F82414C3F84815D2F82814C3F815
:10A710004C15D2F82C14C3F85015D2F83014C3F8E5
:10A720005415D2F83414C3F86015D2F83814C3F8AD
:10A730006415D2F83C04C3F86805D2F840043E49D9
:10A74000C3F86C050968D2F84424C3F870250829B9
:10A7500024D04FF08043D3F80024D20744BF6FF0D9
:10A760000102C3F80024354AD2F8883043F470035C
:10A77000C2F88830BFF34F8FBFF36F8F4FF01023B5
:10A78000D3F80022002A23DBD3F80432002B1FDB8E
:10A790002B4B2C4A1A605DF8044B70472A4B1B6800
:10A7A000002BD6D129482A4A2A4C04602A492B4B2F
:10A7B000FB20C2F818050A681B68294822F00F021E
:10A7C00003F00F0313434FF400720B600260C0E705
:10A7D000244B0122C3F80425D3F80024002AFBD01F
:10A7E0004FF0102312221F49C3F80022D1F8003481
:10A7F000002BFBD04FF0102212211A4BC2F804128A
:10A80000D3F80024002AFBD000221649C3F80425FF
:10A81000D1F80034002BFBD0BFF34F8F0749124B08
:10A82000CA6802F4E0621343CB60BFF34F8F00BFEE
:10A83000FDE700BF00C000403001001000ED00E067
:10A840002C2200200090D003340100108C560040D0
:10A8500000F0004048810300E40E00405802001060
:10A860004096024000E001400400FA05074B1B5CE3
:10A870001F2B8ABF064A4FF0A04203F01F03D2F8F5
:10A880000405D840C04300F0010070475868030039
:10A8900000030050074B1B5C1F2B86BF03F01F03F8
:10A8A00005494FF0A041012202FA03F3C1F80C352B
:10A8B000704700BF5868030000030050074B1B5C43
:10A8C0001F2B86BF03F01F0305494FF0A041012253
:10A8D00002FA03F3C1F80835704700BF5868030057
:10A8E00000030050064B4FF400604FF480614FF4BA
:10A8F0008052C3F80805C3F80815C3F80825704747
:10A9000000030050064B4FF400604FF480614FF499
:10A910008052C3F80C05C3F80C15C3F80C2570471A
:10A92000000300500A4B195C1F298ABF09484FF0E9
:10A93000A04001F01F01D0F8043501228A4022EA2C
:10A9400003011340C0F80815C0F80C35704700BF6C
:10A950005868030000030050034BD3F81005C043B0
:10A9600000F00100704700BF00030050203818BFFE
:10A970004FF0FF30704700BF20207047C10706D45A
:10A98000830742BF104B0C22C3F8002770470E4BC1
:10A99000032230B44FF48051C3F82C274FF40065E4
:10A9A000C3F828274FF48064C3F830278207C3F820
:10A9B0000855C3F80845C3F8081503D5024B0C2207
:10A9C000C3F8002730BC70470003005010B568B1D1
:10A9D00001280AD10C4C2369A07033B10CCB0120A3
:10A9E000226198472369002BF8D110BD064CA3685B
:10A9F00001226270002BF8D00CCB0020A260984797
:10AA0000A368002BF8D110BDC42F002068B910B581
:10AA1000064CA3680122627033B10CCB0020A26007
:10AA20009847A368002BF8D110BD7047C42F0020B1
:10AA300030B5012883B01CD015D3032811D100F004
:10AA4000CDF802A800231F4C00F8013DFDF75EF988
:10AA5000E368013BE360E56865B39DF80700FDF737
:10AA60007BF903B030BD184B0122C3F8802003B03E
:10AA700030BD02A80023134C00F8013DFDF746F954
:10AA8000237853B1E3689DF8070001330122E360A6
:10AA9000A270FDF761F903B030BD0C486360A3609C
:10AAA0002361E36000F08CF80AF0C4FE30B10123AA
:10AAB0002370E7E700F0A6F8A570CEE700F08EF867
:10AAC000F5E700BFC42F002000E100E0CDA902009F
:10AAD00070B50A4A0A4B06784568047AC06853F88C
:10AAE000213052F8211084B003908DF80060019558
:10AAF0008DF808406846984704B070BDD82F0020F4
:10AB0000E02F002070B50A4A0A4B06784568846831
:10AB1000C06853F8213052F8211084B003908DF8AA
:10AB2000006001958DF808406846984704B070BDF4
:10AB3000D82F0020E02F00202DE9F043DFF87480AB
:10AB400006784B7F08F806300D46074694460FCD31
:10AB500089B06C460FC495E80F003D78DFF8589037
:10AB6000DFF858E018F8055049F826C084E80F00CF
:10AB70004EF82600049665B1BCF1000F0B4A6946F9
:10AB800007F1040008BF002201F01AFB09B0BDE87C
:10AB9000F083BCF1000F064A694607F10C0008BFBC
:10ABA000002201F09DF809B0BDE8F083D1AA0200AF
:10ABB00005AB020080390020E02F0020D82F0020B4
:10ABC000054A13790BB1852070470121106053713C
:10ABD00018461171704700BFE82F0020084B1A6813
:10ABE000D20706D40122C02183F80013C3F88021C4
:10ABF0001A604FF080430122C3F81825704700BF48
:10AC000000E100E0044B01221A604FF08042D2F8CC
:10AC10001834DB03FBD470470C00004010B5144B14
:10AC20001A6882B062B10021124A19601B6850791B
:10AC300000934FF080410123009CC1F8083390B18C
:10AC40000D4B1A686AB100221A601B6801934FF01D
:10AC500080420221074B0198C2F808131B680120AB
:10AC6000984702B010BD116853718847E8E700BFEC
:10AC700000010040E82F00200401004070B5244C82
:10AC800094F86A5082B015B1082002B070BD4FF040
:10AC9000FF332946FF26062204F164002363636321
:10ACA000A363E36323646364A364E364236563656C
:10ACB000A365E36523606360A360E3602361636170
:10ACC000A361E361236284F860306362A36284F865
:10ACD0006230E36284F8633084F861600AF094FFC4
:10ACE0000C4B0D4A0D4E15604021C02083F8060321
:10ACF000C3F8801119601368019301994FF0004364
:10AD00000122284684F86A20C6F8043302B070BDD8
:10AD1000F02F002000E100E07C6100400060004076
:10AD2000034B93F86A00003018BF0120704700BF42
:10AD3000F02F0020F0B56D4C231893F93050002D02
:10AD400001DB0820F0BD91F802E0CEF3400EBEF129
:10AD5000000F50D02568013500F0C280012508267B
:10AD600054F8253001334CD06B1C54F82370013754
:10AD700048D0AB1CB3423CD254F82370013741D0C9
:10AD8000EB1CB34235D254F8237001373AD02B1D57
:10AD9000B3422ED254F82370013733D06B1DB34227
:10ADA00027D254F8237001372CD0AB1DB34220D2E8
:10ADB00054F82370013725D0EB1DB34219D254F853
:10ADC000237001371ED005F10803B34211D254F8A5
:10ADD0002370013716D005F10903B34209D254F8A4
:10ADE000237001370ED00A35B54202D2E36A01332F
:10ADF00074D00420F0BD256A01353AD009250C260F
:10AE0000AEE72B4626185DB244F8232086F8305072
:10AE1000BEF1000F33D08B785A071CD4DE074ED515
:10AE20001F2887BF324B00F01F0202464FF0A0439D
:10AE300003EB8203D3F8002722F00202C3F80027B5
:10AE40002C4EC20800F0070EB75C012303FA0EF384
:10AE50003B43B3548B7813F0020314D1083D2C44C8
:10AE6000097894F8602042EA811284F8602018463C
:10AE7000F0BD082683F8306035462262334623440D
:10AE800083F85800C7E7AD0005F1804505F5C045DA
:10AE90000A78D5F8101521F44F3121F44071C5F826
:10AEA000101503021204D5F8101502F4403203F411
:10AEB0007C5313430B43C5F810350020F0BD1F2809
:10AEC0004A7887BF0A4E00F01F0303464FF0A046A2
:10AED00003F5E073920046F82320B1E70B2391E7D6
:10AEE0000025226083F8305095E700BFF02F002046
:10AEF0000003005054300020F0B43A4D2E1882B0B8
:10AF000096F93030072B20DD2B4493F858309B09FD
:10AF1000032B45D0012B14BF4FF440314FF40031C7
:10AF20001F284DD900F01F002F4B03EB8000D0F8F5
:10AF3000002722F44032C0F80027D0F800370B4336
:10AF4000C0F8003702B0F0BC7047DAB2072AF9D86F
:10AF5000980000F1804000F5C04003F140029200EB
:10AF6000D0F8104592B202F18042002744F001046B
:10AF700002F5C042C0F810450197019817600029FA
:10AF8000E0D096F9302055F82220002ADAD00122AC
:10AF9000164902FA03F3C1F8043302B0F0BC70475B
:10AFA0001F2810D9104BD3F8103500F01F00C340F4
:10AFB000DB0748BF4FF44031B6D44FF40031B3E75C
:10AFC0004FF0A043B1E74FF0A0421346D2F810254E
:10AFD000C24012F0010F14BF4FF440314FF4003162
:10AFE000A3E700BFF02F00200003005000600040E6
:10AFF0001F288ABF054B4FF0A04300F01F00D3F875
:10B00000103523FA00F000F00100704700030050F3
:10B010002DE9F04788B00023CB4A039302931168CF
:10B02000012900F0A8821E46C84B1A68012A00F0C8
:10B030009482C74B1A68012A00F08182C54B1A68B6
:10B04000012A00F06E82C44B1A68012A00F05B826C
:10B05000C24B1A68012A00F04882C14B1A68012AC3
:10B0600000F03582BF4B1A68012A00F02282BE4BE5
:10B070001A68012A00F00C8216F0FF0F1AD0BB4F9D
:10B0800001250024A30003F180432E4203F5C043B1
:10B090004FEA45050BD0D3F8100557F82420D3F814
:10B0A0001015C0F30520C1F3014102B190470134EE
:10B0B000082CE7D1002E02DB08B0BDE8F0870DF1C7
:10B0C000100800224FF0FF33A84CA94FC8F8042005
:10B0D000049206930793012694F960305A1C21D0FC
:10B0E0005FFA83FE2EF0C00008AB4FEAD00903EBF5
:10B0F000090C0EF007031CF8082C06FA03F31A409B
:10B1000040F0388194F96110481C00F06A821546BD
:10B110000DE0022A06D1032900F06082002D00F024
:10B120003682A84794F961104A1C51D00025CBB251
:10B1300023F0C00008AA4FEAD00C02EB0C0E03F07B
:10B1400007011EF8082C06FA01F912EA090F4CD182
:10B1500094F96210481C11D0CBB223F0C00008AAA9
:10B160004FEAD00C02EB0C0E03F007011EF8082C7E
:10B1700006FA01F912EA090F40F0AD8094F9633044
:10B180005A1C0FD0DBB223F0C00008AA4FEAD00C43
:10B1900002EB0C0E03F007021EF8081C06FA02F27E
:10B1A00011425AD1002D87D04FF0A0430299D3F815
:10B1B0001035D7F81025994203D1039991423FF4F5
:10B1C0007BAF04980599029303920690079183E759
:10B1D00094F962104B1C01D00025BDE794F963304F
:10B1E0005D1C3FF469AF0025CCE72218990992F95C
:10B1F000302054F82220002A00F02381032900F097
:10B2000023811F2800F20C8184464FF0A04303EBFA
:10B210008C031EF818CCD3F800E71CEA090FCEF314
:10B22000014E40F0F380BEF1030F91D103290FD1FD
:10B230004FF4003ED3F800C72CF4403CC3F800C7DD
:10B24000D3F800C701354EEA0C0EEDB2C3F800E7A3
:10B25000002A3FF47DAF90477AE704EB0009990993
:10B2600099F9309054F82990B9F1000F00F0FD8061
:10B27000032900F0FD801F288BBFBC464FF0A04C77
:10B2800003F01F0303460CEB83031EF818CCD3F81E
:10B2900000E71CEA020FCEF3014E40F0A680BEF19B
:10B2A000030F7FF47FAF032940F0A6804FF40032F4
:10B2B000D3F800E72EF4403EC3F800E7D3F800E7E8
:10B2C000013542EA0E02EDB2C3F80027B9F1000FD2
:10B2D00040F0968068E72218990992F9302054F8D6
:10B2E0002220002A00F0B780032900F0B7801F2831
:10B2F00000F2A38084464FF0A04303EB8C031EF8BA
:10B3000018CCD3F800E71CEA090FCEF3014E40F049
:10B310008B80BEF1030F7FF431AF03290FD14FF4BF
:10B32000003ED3F800C72CF4403CC3F800C7D3F864
:10B3300000C701354EEA0C0EEDB2C3F800E7002A53
:10B340003FF41CAF904719E70061004004610040E2
:10B35000086100400C610040106100401461004031
:10B36000186100401C6100407C610040F02F00200B
:10B370000003005022184FEA9E1192F9302054F831
:10B380002250002D7BD003297CD01F283AD80246BA
:10B390004FF0A04E0EEB820E1CF8189CDEF8002732
:10B3A00019EA0309C2F301427FF4B3AE032A7FF422
:10B3B000B9AE03297FF4B2AE4FF40032DEF80037A5
:10B3C00023F44033CEF80037DEF800371343CEF8CD
:10B3D0000037002D00F0ED800321A84794F961109B
:10B3E0004B1C00F0EB800125A1E6BEF1020F7FF4BB
:10B3F000D9AE032900F0EF80B9F1000F3FF4D2AECF
:10B40000C847CFE60EF01F02BE46C3E7BEF1020FEB
:10B410007FF49EAE03297FF41BAF4FF4403E09E753
:10B4200003F01F0C3B46F2E6BEF1020F7FF4A6AE1E
:10B43000032984D14FF4403E73E703F01F0C3B46D1
:10B440005BE703297FF484AE18F80CA04AEA090AE6
:10B4500008F80CA0D5E603297FF490AE18F80CA0EC
:10B460004AEA090A08F80CA041E703297FF49AAEDA
:10B4700018F80CA04AEA020A08F80CA0FBE6032917
:10B4800040F0858018F809201A4308F809207CE765
:10B4900000221A601B6801934FF0A042019BD2F872
:10B4A0001025564B0292D3F81035039346F0004610
:10B4B000E2E5534AD2F8042311067FF5D8AD002205
:10B4C0001A601B680093009B46F08006CFE54C4A4B
:10B4D000D2F8042350067FF5C5AD00221A601B6820
:10B4E0000093009B46F04006BCE5454AD2F8042391
:10B4F00094067FF5B2AD00221A601B680093009B92
:10B5000046F02006A9E53E4AD2F80423D5067FF589
:10B510009FAD00221A601B680093009B46F0100646
:10B5200096E5374AD2F8042317077FF58CAD002241
:10B530001A601B680093009B46F0080683E5304ABA
:10B54000D2F8042352077FF579AD00221A601B68F8
:10B550000093009B46F0040670E5294AD2F80423C4
:10B5600091077FF566AD00221A601B680093009B6F
:10B5700046F002065DE52249D1F8046316F00106A3
:10B580003FF452AD136013680093009B4CE594F9AF
:10B5900061104B1C7FF4CBAD94F96210481C7FF412
:10B5A000DBAD94F963305A1C7FF4ECAD08B0BDE814
:10B5B000F08794F961104D1C7FF415AF94F9621077
:10B5C000481C01D00125C7E594F96330591C3FF4AC
:10B5D000EBAD0125D6E54FF4403269E64FF4403239
:10B5E000ECE694F962104B1C01D01546B4E594F9D1
:10B5F00063305D1C3FF460AD1546C3E500030050A9
:10B6000000600040014B1B68184700BF5C30002001
:10B61000104B984201D00020704730B583B002A88B
:10B62000002300F8013D0D46FCF770FB0A4B1C7926
:10B6300034B19DF80700FCF78FFB112003B030BD3B
:10B6400001229DF807001D601A71FCF785FB20465A
:10B6500003B030BD002000405C300020034B984216
:10B6600003D1034B00221A601A717047002000407A
:10B670005C3000202DE9F041684B1A6888B0002A40
:10B680003CD1674F97F82E30002B45D1654B1A6897
:10B69000002A5ED1644B1C68002C6AD17E699EB181
:10B6A0004FF000480125B6FA86F2930003F58C733B
:10B6B00003F1804101F5E04128FA02F2086826EA28
:10B6C000020620B9002EEED108B0BDE8F081A3F546
:10B6D0008C730C6083F0040209680491C2F3800249
:10B6E000DB088DF819208DF818308DF814503B6860
:10B6F000049A05A89847002ED5D1E5E70022484FC7
:10B700001A60196897F82E3000910099002B39D0F3
:10B7100097F82F30002B4ED1444B1A68002AB5D031
:10B7200000221A6097F82D0019687B8B019184B272
:10B73000A34201994ED85FD0384B3D4A0021196091
:10B740001B680293012302991360364B1A68002A82
:10B75000A0D000221A6008A81B680393022100F8F9
:10B760000C1D3B6803993A7498472F4B1C68002CBA
:10B7700094D000221A601B680593059B3A7408B0A8
:10B78000BDE8F081FA68786839898DF81430069040
:10B79000ADF81C10002A2CD02648398B7A60012283
:10B7A000FB607983398102603B6805A898470023D4
:10B7B00087F82F3066E7FB68786839898DF81420A0
:10B7C0000690ADF81C10A3B1398B7B60FA607983C9
:10B7D0003981E9E73A897968164D1B1B9BB292B211
:10B7E000D21A01EB42027B83C5F82C26C5F830063D
:10B7F000A2E700233B74D7E7FB684BB10D497A837E
:10B80000012287F82F20C1F82C36C1F8300693E7C3
:10B8100001227B8387F82F208EE700BF0471004050
:10B82000643000201071004014710040007100402D
:10B830000470004000700040214B93F82C200AB1A6
:10B8400008207047F0B51F4C05781960C4F8F05512
:10B8500045781D49C4F8F4556FF000451A74C67850
:10B86000C4F8085383B00A600968184D0191019922
:10B870002A60817883F82E602D681548009549016B
:10B8800083F82D205A6183F82F208025C9B2022722
:10B890000122F6B2DDF800E083F82C2080F80713CF
:10B8A000C0F880510560C4F804730EB1C4F80423D5
:10B8B000044B01220020C3F8002503B0F0BD00BFF7
:10B8C00064300020007000400471004000710040AE
:10B8D00000E100E0244A137C0BB111207047F0B561
:10B8E00000F10C0402EB44031B7923B992F82D30CC
:10B8F000013382F82D304B788D7891F800E0CE78C6
:10B900004F791B012D0205F4E06503F030032B4352
:10B910000D790EF0030E360343EA0E0306F480564B
:10B920002D04334305F4E0258E792B433F050501B3
:10B9300007F48017360605F1804502EB440405F54F
:10B94000E04506F080723B430E7ACF7927711343AE
:10B950006671C5F81835CB79097AC5F81415C5F89C
:10B9600010350020F0BD00BF64300020F0B55F4C02
:10B97000227C83B012B1112003B0F0BD94F82D6089
:10B98000012502F0FF035A4A25740327AE42C2F88C
:10B990000873C2F82C16C2F8305628D9C2F81435EC
:10B9A000DFF870C1C2F81035DFF86CE1514F524E2C
:10B9B000524D5349534ACCF81435CCF81035CEF8D3
:10B9C0001435CEF81035C7F81435C7F81035C6F859
:10B9D0001435C6F81035C5F81435C5F81035C1F85A
:10B9E0001435C1F81035C2F81435C2F8103500F11D
:10B9F0000C03000104EB430300F1804000F5E0403C
:10BA00005A793B49404D1B79C0F814250122C0F8F2
:10BA100010350A6042F2107301F582712A6001E06C
:10BA2000013B02D00A68002AFAD0384994F82D0068
:10BA3000374B00220A600968019101991A601B685E
:10BA400000930128009B41D9294A677FC2F81475E9
:10BA5000277FC2F810752F4BE77FC3F81475A77FB7
:10BA6000C3F810752C4E94F82170C6F8147594F82C
:10BA70002070C6F810751F4D94F8236094F822705A
:10BA80001D48C5F8146594F82560C5F8107594F83C
:10BA9000245094F827E01949C0F8146594F82670EA
:10BAA000C0F8105594F8296094F82850C1F814E5AE
:10BAB00094F82B00C1F8107594F82A10C2F8746538
:10BAC000C2F87055C3F87405C3F8701594F82E3099
:10BAD0003BB9074B0222C3F804230020207403B0B3
