:020000022000DC
:1060000000000420E16202000963020031B10200D5
:106010000D6302000F630200116302000000000024
:1060200000000000000000000000000013630200F8
:1060300015630200000000001763020019630200EC
:10604000E14003001B630200F14003001B630200F8
:106050001B63020015C00300853903008141030062
:106060001B6302001B6302001B6302001B63020030
:106070001B6302001B6302001B6302001B63020020
:106080001B630200B56702001B6302001B63020072
:10609000796802001B630200794D03001B63020054
:1060A0001B6302001B6302001B630200FDBE0300B2
:1060B0001B6302001B6302000000000000000000E0
:1060C0001B6302001B6302001B6302001B630200D0
:1060D0001B6302001B6302001B6302002D260300EA
:1060E0001B630200614103001B630200000000000B
:1060F000000000001B6302000000000029460300AE
:10610000000000000000000000000000000000008F
:10611000000000000000000000000000000000007F
:10612000000000000000000000000000000000006F
:10613000000000000000000000000000000000005F
:10614000000000000000000000000000000000004F
:10615000000000000000000000000000000000003F
:10616000000000000000000000000000000000002F
:10617000000000000000000000000000000000001F
:10618000000000000000000000000000000000000F
:1061900000000000000000000000000000000000FF
:1061A00000000000000000000000000000000000EF
:1061B00000000000000000000000000000000000DF
:1061C00000000000000000000000000000000000CF
:1061D00000000000000000000000000000000000BF
:1061E00000000000000000000000000000000000AF
:1061F000000000000000000000000000000000009F
:1062000010B5054C237833B9044B13B10448AFF3F0
:1062100000800123237010BD003300200000000027
:10622000C41804000C4B43B10C480D4910B5AFF332
:1062300000800C48036823B910BD0A48036833B9CD
:106240007047094B002BF7D0BDE810401847064BAC
:10625000002BF5D0184700BF00000000C418040050
:10626000043300201432002000000000154B002BE6
:1062700008BF134B9D46A3F5803A00218B460F467D
:106280001348144A121A18F0F9FD0F4B002B00D0D6
:1062900098470E4B002B00D09847002000210400A7
:1062A0000D000D48002802D00C48AFF3008018F014
:1062B0006DFD200029000FF02BFD18F053FD00BFED
:1062C00000000800000004200000000000000000A2
:1062D000003300203080002000000000000000009B
:1062E0000649074A074B9B1A03DD043BC858D050A8
:1062F000FBDC15F0DBF8FFF7B9FF00002C1A0400F7
:10630000882F002000330020FEE7FEE7FEE7FEE7CF
:10631000FEE7FEE7FEE7FEE7FEE7FEE7434B197800
:10632000002900F081802DE9F04F8C4687B00024D1
:10633000012503E00134E4B2644560D23C4B27B24E
:106340001E6816F837E0AEF1200305FA03F9394B61
:10635000CEF12001D3E9002325FA01F149EA010930
:1063600005FA0EF808EA020009EA0301014306EB08
:10637000C70BDFD02F4922EA080223EA090370463F
:10638000C1E900230DF0EEFA16F837E0AEF1200275
:1063900005FA02F201920199CEF12003C6B225FA64
:1063A00003F3AEF12002194306FA02F30393224BE2
:1063B0000191D3E90023CDE9042305FA0EF30093FC
:1063C000CEF12001039B26FA01F10B43039306FA59
:1063D0000EF30293DDE90467DDE9002316401F4058
:1063E00032463B46DDE90267BB4208BFB24209D0F4
:1063F0000E4B013493F800C0E4B264459ED307B05D
:10640000BDE8F08FDBF80430002BF1D09BF80110D1
:10641000A1F10101B1FA81F14909091AB1FA81F139
:10642000490970469847E3E7704700BF1C330020D6
:106430005833002050330020483300202DE9F84322
:106440000646204800F0C4FCD0B91F4F0123A6F136
:10645000200103FA01F5C6F12002D7E9000123FA71
:1064600002F2154303FA06F404EA000205EA010306
:10647000134307D020EA040421EA0505C7E90045D3
:10648000BDE8F88330460DF06DFA104ED6E900896C
:1064900098B148EA040849EA0509D7E900231443FA
:1064A0001D43C6E90089C7E90045094B054819683D
:1064B0000022BDE8F84300F035BC28EA040829EAC8
:1064C0000509EAE724330020503300204833002038
:1064D00020330020042A01D8072070472DE9F0411D
:1064E00082B00F46054616460DF09CF8002834D0C1
:1064F0001C4C1D4A1D4B1E481E49256017707C1EF2
:1065000000221E600023C0E90023C1E90023E4B299
:10651000EFB1DFF86C800027032601E0FF2C16D0D6
:1065200023B205EBC30215F8330093788DF806709B
:10653000424601A98DF804608DF805300DF07CF815
:10654000013CE4B20028E9D002B0BDE8F0810A4A7B
:106550000A48002100F0D4FBF6E70DF011F80028FE
:10656000C6D0F1E7583300201C3300202033002030
:1065700048330020503300201D63020034FE030026
:106580003D64020070B5084D2B785BB1074E0024C6
:106590003368012113F834000DF030F92B78013401
:1065A000A342F5D8002070BD1C33002058330020D2
:1065B00000B585B000230390194601AA44F20100FA
:1065C0000193029300F004F805B05DF804FB00BFEE
:1065D00072B6094B1B68DB0700D500BEBFF34F8FB7
:1065E0000649074BCA6802F4E0621343CB60BFF36D
:1065F0004F8F00BFFDE700BFF0ED00E000ED00E0D1
:106600000400FA0512F0030301D007207047F0B42C
:10661000094D0A4F2B700A4D3A604C1C2B70094FE4
:10662000094D0A4E3880E400A4B222442980326029
:106630001846F0BC704700BF5C3300206433002074
:106640006C330020683300206A3300206033002060
:106650002DE9F0472C4D2B888B4282B003D20920C4
:1066600002B0BDE8F087064602A84FF0000800F827
:10667000018D17460C4603F033F8244B244A254875
:10668000197813780088DBB2834238BF0133C9B26E
:1066900038BF5FFA83F841451FD092F80080137825
:1066A000DFF87890DBB2984286BF0133DBB200237B
:1066B0005FFA88F89DF80700137003F037F8D9F8EF
:1066C00000300FFA88F24FEAC20A43F8327053449E
:1066D00006B144B900209880C2E79DF8070003F096
:1066E00025F80420BCE70C4B28881B68314608FBC2
:1066F0000030224618F09DFBD9F800309A44002063
:10670000AAF80440ACE700BF683300206C330020D7
:106710005C3300206A3300206033002064330020A3
:106720002DE9F047174C184D22782B789A4226D045
:10673000DFF85C90DFF85C80144FDFF85CA0237812
:10674000D9F800203888D8F80060DBB20FFA83FC53
:1067500002EBCC0103FB0060898852F83C3098477B
:106760002378BAF80020DBB29A4203F101038CBF10
:10677000DBB20023237022782B789A42DFD1BDE868
:10678000F08700BF6C3300205C33002068330020AA
:1067900064330020603300206A330020082910B5DC
:1067A000044602D00020FFF703FF23686068BDE8BD
:1067B000104018472DE9F041274A284B0025C2F820
:1067C0004051C2F84451C2F84851C2F84C51C2F885
:1067D0000051C2F804511B6882B023B32049D2F89B
:1067E00004450A68DFF88C80A41A1A6824F07F44F4
:1067F000A2422F4609D8197CDE69A41A1544A9B90A
:106800001EB133461A68A242F5D91649164A0B78CA
:1068100012789A4219D01549154A41F823504FF47D
:106820008013C2F8003102B0BDE8F0819A691F748C
:1068300001925B690093424608216846FFF708FF12
:106840000028DDD0FFF7B4FEDAE7531CDBB2022BE1
:1068500008BF00230B70DEE70010014090340020D9
:106860008C340020893400208834002080340020BB
:1068700000E100E09D6702002DE9F04FB74AB849FA
:1068800013780978994285B033D00133DBB2022BFB
:1068900008BF0023B3481370B34A0768DFF8E082EB
:1068A00052F82320D8F80010BB18002423F07F43AF
:1068B000036025462046A646A9B10B68934200F224
:1068C0007D81CC68C1F800E0D21A1844CB6934B19C
:1068D0003E1826F07F46CD618C604E600D4619460D
:1068E00001240029E9D1002C40F0A5814FF0010BD3
:1068F00005E0DFF88C820025D8F80010AB469B4BF2
:106900009B4FDFF8809243F0010300930E464FF057
:10691000000A002D2DD0D5F804E0D5F808C02C468B
:10692000ED69904B93481B68AEEB030222F07F4267
:10693000824255D802EB0C032360002201206260E2
:10694000A260E2612074002E6BD03068834261D96E
:10695000B64603E0106898424CD29646DEF81C20FA
:106960001B1A002AF6D12360E261CEF81C40002DEC
:10697000D1D197F801C097F800E0F44571D0734683
:1069800003EB43030EF10100BA7807EBC3035FFA90
:1069900080FE7245187987F800E004BF4FF0000EC2
:1069A00087F800E002289A684CD003283DD00128DF
:1069B000E3D1107C0028E0D1D3F80CE0C2F804E069
:1069C000D3F810C0C2F808C014465A69E26099F8BA
:1069D00000209B69A361002AA3D060608646A0E7DF
:1069E000A3EB0E0323F07F4363450AD2ACEB030312
:1069F0002360A2E7C01A10602360E261CEF81C4059
:106A0000B5E70023012223606360A360E361227481
:106A10003EB13068C8F80040C31A3360E6612646CC
:106A200077E7C8F80040264673E7002EA5D000227D
:106A300000E01E46F3693274002BFAD1C8F800302A
:106A40001E4696E74EB1B242344603D1BDE09A42AB
:106A500060D01C46E369002BF9D100231374F44580
:106A60008DD1BAF1000F02D18E4200F09D80002E30
:106A700000F0C5803B4B404A1C68D2F80475DFF833
:106A80000881D6F800A098F800103B1B23F07F4344
:106A9000DD1CA9B93949354B4FF48030C2F84403A5
:106AA0000126C2F804034FF40030C1F8800143F01E
:106AB0000103086016604FF43C60984788F8006056
:106AC000AA452CBF04EB0A0363192B4923F07F432B
:106AD000C1F84035D1F80425D21BDB1B22F07F42E0
:106AE00023F07F4303329A420ED9204BD1F804257C
:106AF000C1F8402543F001034FF43C6098471F4B19
:106B00004FF40032C3F80021002389F8003005B0AB
:106B1000BDE8F08FA24239D0D2F81CE01368C4F867
:106B20001CE0BEF1000F11D03046DEF800402344D7
:106B3000CEF80030864209D0002397F800E097F89D
:106B400001C0137406464FF0010A88E7002397F846
:106B500000E097F801C0137481E700BF883400207B
:106B6000893400208C3400208034002040FE030053
:106B700070330020FEFF7F000010014000E100E0C4
:106B8000903400207C3400207D3400201346F069CE
:106B9000C8F80000D8B1D3F81CE01B68C4F81CE0AA
:106BA000BEF1000FC1D1C5E7BBF1000F7FF45FAFAD
:106BB000002389F8003005B0BDE8F08F002C3DD1EE
:106BC0009B1A0B604FF0010B99E63346DFE7019308
:106BD0001C4BDFF87CC003924FF0010E0291C3F80A
:106BE00008E0009BCCF8000089F800E04FF43C601E
:106BF0009847D8F80000019B0299039ACBE7114D02
:106C0000114A124C4FF480334FF400310127C2F87F
:106C100080103C43C5F848334FF43C60C5F8083356
:106C20006F60A0470A4BAF604FF43C601E60A04706
:106C3000084B1E7068E7C8F8001057E6C8F8001047
:106C4000BEE700BF0010014000E100E040FE03008D
:106C50008C3400207D3400202DE9F8431F4D204E58
:106C6000204FDFF898804FF480334FF400324FF01C
:106C700001090024C6F8802047EA0907C5F848330F
:106C80004FF43C60C5F80833C5F80490B847C5F820
:106C900008904FF43C60C8F80040B847124B1348C6
:106CA0001349144A1C70144B04600C7014704FF498
:106CB0008011C0220B2098701C705C70C6F8801187
:106CC00086F814233160C5F8084586F81123D5F8F5
:106CD0000435C8F800302046BDE8F88300100140B4
:106CE00000E100E040FE03007D34002090340020ED
:106CF0008834002089340020703300208C34002038
:106D0000074B9B780BB9082070473AB130B1036844
:106D1000187C0028F7D159745A61704707207047D2
:106D2000703300202DE9F043264CA37883B01BB9C3
:106D3000082003B0BDE8F0830028F9D0042903D867
:106D4000072003B0BDE8F0834369002BF0D006466E
:106D500002A8737C0025012B00F8015D0CBF894659
:106D6000A94690460F4602F0BBFC6378A0782178D4
:106D70005A1CD2B2904208BF2A4691421BD003EB64
:106D8000430304EBC30301200F4918719E60D1F83F
:106D900004159DF80700D9601F61C3F81490C3F86B
:106DA0001880627002F0C2FC084B4FF48012284633
:106DB000C3F80021BDE79DF8070002F0B7FC0420EE
:106DC000B7E700BF703300200010014000E100E091
:106DD00070B51B4CA37882B013B9082002B070BD07
:106DE0000028FAD04369002BF7D0064602A80025F8
:106DF00000F8015D357402F073FC6278A0782178A8
:106E0000531CDBB2984208BF2B46994212D002EBCA
:106E1000420204EBC20202219DF807009660117144
:106E2000637002F083FC074B4FF480122846C3F8CE
:106E30000021D3E79DF8070002F078FC0420CDE79D
:106E40007033002000E100E00378052B02D0094BED
:106E50001B681847084BD3F88424D3F8803413F008
:106E6000FF0FF4D1054BD2B2052A08BF1846014BDB
:106E70001B681847943400200070024060FE030035
:106E8000014B02481B6818479434002064FE03003D
:106E900001280BD006D3022803D1064B06481B68F5
:106EA00018477047034B05481B681847014B0448B7
:106EB0001B681847943400205CFE030054FE030056
:106EC00058FE03002DE9F04F037881B08346852BEF
:106ED00000F2A280DFE813F08A02D801A3002A02A0
:106EE0005902C800D000A000EB00FE001101A00074
:106EF000A000A000A0003301A000A000A000A000FE
:106F0000A000A000A000A000A000A000A000A00081
:106F1000A000A000A000A000A000A000A000A00071
:106F2000A000A000A000A000A000A000A000A00061
:106F3000A000A000A000A000A000A000A000A00051
:106F4000A000A000A000A000A000A000A000A00041
:106F5000A000A000A000A000A000A000A000A00031
:106F6000A000A000A000A000A000A000A000A00021
:106F7000A000A000A000A000A000A000A000A00011
:106F8000A000A000A000A000A000A000A000A00001
:106F9000A000A000A000A000A000A000A000A000F1
:106FA000A000A000A000A000A000A000A000A000E1
:106FB000A000A000A000A000A000A000A000A000D1
:106FC000A000A000A000A000A000A000A000A000C1
:106FD000A000A000A000A0002401470196018600A7
:106FE0000C02C800A14D2B78032B15D10BF09CFE91
:106FF00090B12B789A1ED2B2062A05D89C498A5C99
:1070000012B109F02FFF2B78022B00F02983082BF7
:1070100000F0268304232B7001B0BDE8F08F934D60
:107020002B789A1ED2B2062A05D891498A5C12B1F1
:1070300009F018FF2B78022B01D0082B01D10BF09F
:1070400063F88C4B5B6803222A700BB102209847CF
:10705000894B1C6844B1636820461B6859469847B1
:1070600023681C68002CF6D1844B93E80500594630
:1070700001B0BDE8F04F1047827813064CBF804B3B
:107080007E4B02F00F0203EBC20393E80500594662
:1070900090470028C0D09BF8020000F00F03013B8E
:1070A000062BB9D801B0BDE8F04F0BF04FB9714BCA
:1070B0005B680BB1082098476F4B1C68002CABD065
:1070C000636820461B685946984723681C68002C53
:1070D000F6D1A1E7674B5B680BB109209847664B77
:1070E0001C68002C98D0636820461B685946984756
:1070F00023681C68002CF6D18EE75E4B5B680BB1F1
:107100000A2098475C4B1C68002C85D06368204699
:107110001B685946984723681C68002CF6D17BE70A
:10712000524C2378062B00F06D82072B02D0052BE2
:107130007FF472AF0AF0F2FF022323706CE74D4B2D
:107140005B680BB10F2098474B4B1C68002C3FF439
:1071500063AF636820461B685946984723681C68DC
:10716000002CF6D158E7454BDFF80C91454993E8E0
:1071700005009047D9F80040002C00F06982414D8D
:10718000636820461B682946984723681C68002CC2
:10719000F6D1DFF8E0A0DAF804300BB10D20984703
:1071A000D9F80070002F00F0CF8197F80890B9F15E
:1071B000000F00F0C4814FF00008444607F10905B4
:1071C0007B68DB6813B12146384698473B7AA34277
:1071D00040F228816E78002E00F0A881002423461A
:1071E00032460AE0AB782A190134D05C0BF08AFEF3
:1071F000E3B29E4240F29A816A789342F2D300232E
:107200001B78FFDEDFF87090D9F80070002F00F0D7
:10721000578197F808A0BAF1000F00F04C814FF0A9
:107220000008444607F109057B68DB6813B1214675
:10723000384698473B7AA34240F2F4806E78002E9D
:1072400000F030810024234632460AE0AB782A1948
:107250000134D05C0BF056FEE3B29E4240F2228134
:107260006A789A42F2D800231B78FFDE3935002075
:1072700048FE03009434002030350020E83400201C
:10728000A03400206CFE0300DFF80C93D9F80070E6
:10729000002F00F0D88097F808A0BAF1000F00F096
:1072A000CD804FF00008444607F109057B68DB6894
:1072B00013B12146384698473B7AA34240F2B28048
:1072C0006E78002E00F0B1800024234632460AE09A
:1072D000AB782A190134D05C0BF014FEE3B29E4265
:1072E00040F2A3806A789A42F2D800231B78FFDE2E
:1072F000A44D2B78032B00F08F810AF0D3FE0028D9
:107300003FF48AAE2B789A1ED2B2062A00F29B81F5
:107310009D498A5C002A00F09681022B00F06C8166
:10732000082B00F0698106232B7075E6954D2B78AC
:10733000082B00F049819A1ED2B2062A40F25681EB
:10734000924809F053FD2B78022B00F04C81082B5A
:1073500000F0498105232B708D4B5B680BB1032036
:1073600098478C4B594693E8050090478A4B1C6818
:10737000002C3FF451AE636820461B68594698477D
:1073800023681C68002CF6D146E6814B5B680BB184
:10739000032098477F4B814993E8050090477E4B37
:1073A0001C684CB17D4D636820461B682946984790
:1073B00023681C68002CF6D1724D2B78062B00F048
:1073C0000081082B0FD09A1ED2B2062A00F21F812C
:1073D0006D498A5C002A00F01A81022B03D0082B29
:1073E00001D00AF09BFE02232B7015E6654B1B783B
:1073F000032B00F0F480082B00F0F180644B5B68F5
:107400000BB100209847664B1C68002C3FF404AE7B
:10741000636820461B685946984723685C68002CBF
:10742000F6D1F9E500235B78FFDE08F101085FFA89
:1074300088F4544505F10305FFF438AF3B681F6835
:10744000002F7FF428AF4F4D01F0C6FD2B789A1E18
:10745000D2B2062A00F2B0804B498A5C002A00F0C2
:10746000AB80022B03D0082B01D00AF057FE484B0B
:107470005B6802222A700BB101209847454B5946A0
:1074800093E805009047D9F80040002C3FF4C4ADC4
:10749000636820461B685946984723681C68002C7F
:1074A000F6D1B9E508F101085FFA88F4A24505F1C3
:1074B00003053FF6B9AE3B681F68002F7FF4A9AE05
:1074C000304D0BF0DBFA2B789A1ED2B2062A6BD91C
:1074D000022B00F08180082B7ED0D9F800400023D9
:1074E0002B704CB12F4E636820461B68314698477D
:1074F00023681C68002CF6D1264B2A4993E8050026
:107500009047234B5B680BB10E2098472B78023BCA
:10751000DBB2062B3FF680AD1B4AD35C002B3FF459
:107520007BAD01B0BDE8F04F09F09CBC08F101084B
:107530005FFA88F4A14505F103053FF641AE3B68CB
:107540001F68002F7FF431AE01F050FD144B1B6813
:10755000002B54D001200B4D0AF05AFD2B789A1EB7
:10756000D2B2062A06D9022B33D0082B31D0012300
:107570002B7051E504498A5C002AF4D009F072FCB2
:107580002B78F0E73935002048FE0300882F0020D3
:1075900094340020E83400203035002078FE0300C9
:1075A0003435002070FE030030498A5C002A8FD0F9
:1075B00009F058FC2B788BE72D4809F017FC2B7845
:1075C0004FE707232B7027E502232B700AF0B0FD4D
:1075D000C2E60AF099FDCAE70AF096FD7DE7254864
:1075E000FFF770FC0AE70AF08FFDB3E61F498A5CDB
:1075F000002A7FF4A9AEA3E60AF086FD93E69AF886
:107600000800A8E70AF08AFD0823237004E518485B
:1076100009F0ECFB2B78E0E60BF086FB00283FF44A
:107620006CAE2B789A1ED2B2062A05D80F498A5C16
:1076300012B109F017FC2B78022B14D0082B12D0B2
:1076400004232B7059E60A4809F0D0FB2B7864E636
:10765000DFF824A0DAF80430002B7FF49FAD73E745
:107660000AF052FDD6E40AF04FFDE9E748FE0300B8
:10767000882F002074FE0300943400202DE9F04F81
:1076800087B006AE00250446894692469B4646F8DA
:10769000105DA84601E008F1010862680123556801
:1076A000214600223046A8470028F4D18DF8060074
:1076B0000490B8F1000F28D0054606466268012301
:1076C000576821460DF1060204A8B84762680123F5
:1076D000576821460DF1070204A8B8479DF8073006
:1076E0004B454FF00002214604A803D1AA4510D013
:1076F0000135EDB29DF806306768023B7F68B847F8
:107700009DF806301E44B045D8D8052007B0BDE826
:10771000F08F109A9DF8063013608BF800308BF8CC
:1077200001906168023B4D680BF102022146A847B7
:10773000002007B0BDE8F08F2DE9F041054682B08A
:107740003A480AF007FB044618B1204602B0BDE8EB
:10775000F081374A374B384E14702146482237485B
:1077600034601C6017F08AFB21464822344817F029
:1077700085FB002D53D095E80700324B83E80700C6
:10778000002849D0002009F00BFC18B1852801D051
:10779000FEF70EFF2C4C2A4F94F808C06568DFF8FE
:1077A0009CE0032303FB0C4C0CF1090C04F10906CB
:1077B000664521D006B37378DBB1B278B21818D021
:1077C00003F1FF38114652FA88F8013A01E001311D
:1077D0000FD012F8013F13F0800F03F00F0314BF16
:1077E0000EEBC30307EBC30390451C602868586089
:1077F000EDD103366645DDD102A90B2301F8043D26
:1078000011482B689847044600289ED00AF03AFB9E
:10781000204602B0BDE8F0810C4A1A60B2E7094B7D
:107820000A4A5D601D721A60ACE700BF496E020033
:10783000393500203435002030350020A0340020B8
:10784000E83400209434002090FE0300C56E02004E
:1078500010B50AF015FC08B9082010BD0AF018FC94
:1078600004460028F8D1044809F0B6FB00B910BD61
:10787000FEF79EFE204610BD50FE03000AF012BB2C
:107880000BF0FEBB4FF0804303E0D3F83824D10760
:1078900007D5D3F838249207F7D5024B02481B6866
:1078A000184770479434002068FE030000B583B089
:1078B00002A8822300F8043D024B1B68984703B0DE
:1078C0005DF804FB943400202DE9F041077ADFF8DD
:1078D000E0E0DFF8E0804FF0030C0CFB070C00F158
:1078E00009040CF1090C21468C4582B020D001B36B
:1078F0004E780022B24218D08B781344D94214D06B
:10790000CB5C03F00F051B0608D45EF8353001325E
:10791000002BEFD0112002B0BDE8F08158F83530CF
:107920000132002BF6D1B242E6D103318C45DED1D3
:1079300000211F4D1F4ECAB2BA4229D202EB4202A9
:10794000A21825D053780BB39378D31818BF4FF0F3
:10795000010E05D11AE093787344D31815D0BE46B2
:107960001B7813F0800F03F00F0314BF06EBC30363
:1079700005EBC303186047683F685F6092F801C079
:107980000EF10103F445DFB2E5D8077A0131D2E701
:10799000094A13681BB11A681368002BFBD102A9AE
:1079A00010600B2201F8042D43681B689847B2E76A
:1079B000E8340020A034002030350020024B187835
:1079C000003018BF012070473835002000F00F0349
:1079D000072B10B5044604D80AF04EFD20460AF0E5
:1079E000C1FC2046BDE810400AF0EEBF0BF08ABA99
:1079F000014B1868704700BF3035002070B4114B40
:107A00001E68A6B1357A75B1737A834206F1090210
:107A100010D0002303E012F8034F84420BD001334F
:107A2000DBB29D42F7D133681E68002EEAD13046A2
:107A300070BC704700230029F9D030460B7070BC31
:107A4000704700BF30350020436811461B68184757
:107A500000F00F03082B01D91020704702064CBF1D
:107A6000044A054A02EBC30318680028F4D04368AF
:107A70001B681847A0340020E834002038B5094BB3
:107A80001C6805461CB90AE023681C683CB16368A1
:107A900029461B68204698470628F5D038BD0620A1
:107AA00038BD00BF3035002038B50D4604460AF019
:107AB00055FB08B9082038BD044B1B78022BF9D1BF
:107AC00029462046BDE838400AF058BB3935002029
:107AD00038B50D4604460AF041FB08B9082038BD08
:107AE000044B1B78022BF9D129462046BDE83840CB
:107AF0000AF0D2BB39350020F8B543689B680446CC
:107B00000E4615461BB19847062800D0F8BD0DB1AA
:107B10000720F8BD237AB34222D9093406EB460682
:107B200034446778F7B12B463A4614E0A3786219DB
:107B3000D65C06F00F03072B05D830460AF09CFCF4
:107B400030460AF00FFC304601350AF03DFFEBB23B
:107B50009F4207D962789A42E8D800231B78FFDE5B
:107B60006B78FFDE0020F8BD43681B6903B118473E
:107B7000184670472DE9F0472A4BD3F80080B8F13A
:107B8000000F4DD098F808A0BAF1000F3FD00027A1
:107B90003C4608F109050BE0002221464046984783
:107BA00006280AD00137FCB2A24505F103052ED9FB
:107BB000D8F804309B68002BEED198F80830A34227
:107BC00002D800235B78FFDE95F80190B9F1000F31
:107BD000E8D0002423464A4614E0AB782A19D65C44
:107BE00006F00F03072B05D830460AF045FC304657
:107BF0000AF0B8FB304601340AF0E6FEE3B29945DC
:107C0000D0D96A789A42E8D800231B78FFDED8F8EA
:107C10000030D3F80080B8F1000FB3D1BDE8F08791
:107C2000BDE8F087303500202DE9F8431F4B1F6871
:107C3000002F38D097F80890B9F1000F2AD04FF0F4
:107C40000008444607F109057B68DB6813B121464B
:107C5000384698473B7AA34222D96E7896B10024E1
:107C60002346324609E0AB782A190134D05C0BF088
:107C700049F9E3B29E4205D96A789A42F3D80023C3
:107C80001B78FFDE08F101085FFA88F4A14505F1D1
:107C90000305D9D83B681F68002FCBD1BDE8F88316
:107CA00000235B78FFDEBDE8F88300BF303500209D
:107CB0004360CA69934205D901F1280202608B67CB
:107CC000002070478A6902600B67CB610020704713
:107CD000F0B50468C14E0D7A3570B4F5517F00F0EF
:107CE000768358D940F25635AC4200F0C88300F292
:107CF000EE80B4F5537F00F0B58340F2798140F215
:107D00005135AC4200F0E08300F2108240F24F3572
:107D1000AC4200F05484B4F5547F40F00783012452
:107D20000027002A00F083850579D555A3424FF03E
:107D30000205057140F24B842F4604F1010E022525
:107D40009E451755057180F01D840EF1010402F85F
:107D50000E50A3424FF00505057140F242842F46B4
:107D600004F1010E24259E451755057180F02284EB
:107D70000EF1010402F80E50A3424FF00605057102
:107D800040F22A84671C15559F420D7D057180F0D5
:107D900096837C1CBFE140F2263E744500F045838B
:107DA00045D840F2163E744500F0198340F26D81CB
:107DB00040F2193E744500F0D68300F25D8240F235
:107DC0001737BC4200F06383B4F5467F40F0AE82C3
:107DD000002A00F0C88507794FF0010E4FF0000C23
:107DE0000024734502F80C70047140F220840EF1F7
:107DF000010702F80E40DFF8F0E100248EF80040A1
:107E0000AC4280F000840924BB42047140F29884A3
:107E10007D1C002A00F054850479D455AB424FF004
:107E20000404047140F25C8405F1010E34E240F276
:107E30003335AC4200F0DF82B4F54D7FC0F0828074
:107E4000B4F54F7F00F08C8340F2678240F24235F8
:107E5000AC4200F05A8200F22A8340F24135AC4233
:107E600040F0648201240027002A00F0A0840579F4
:107E7000D555A3424FF02405057140F25384AE4618
:107E8000671C0025BB4202F804E0057140F2238420
:107E900007F1010E10247345D555047140F2088492
:107EA00025460EF101070124BB4202F80E50047171
:107EB00040F2EF83254607EB040E05247345D555A4
:107EC000047140F2D78325460EF10107A7E040F286
:107ED0007235AC4200F0CE8240F2088140F2833528
:107EE000AC4200F0B682B4F5617FC0F0418240F24E
:107EF0008935AC4200F0018240F28E35AC4200F090
:107F0000FC81B4F5617F40F01182002A00F04584C5
:107F10000479012700255455314C0D7D24682478BF
:107F2000A54200F0CA838D7DA54200F00084DFF8F1
:107F3000BCE02C4D9EF800402D780134E4B28EF860
:107F400000403DE0B4F54B7F00F0C68200F20081B6
:107F500040F22735AC4200F00E83B4F54A7F40F082
:107F6000E581002A00F02A851D4C90F804E0256880
:107F70000027012402F807E02D780F7DAF4200F0C2
:107F8000CA838F7DAF4200F0FC830025A3420571B8
:107F900040F2E981671C0AB105791555104C91F83A
:107FA00014E024682578AE4500F0FB81DFF834C08A
:107FB000DFF838E065788CF8005000248EF8004037
:107FC000AC42C0F0B781DFF820E035789EF8004081
:107FD0000134E4B28EF8004012E700BF3C350020C7
:107FE000403500203A3500203B3500203D3500204B
:107FF00040F24935AC4200F0F98200F22D8140F2A6
:108000004535AC4200F08882B4F5527F40F08E8155
:10801000002A00F0BA84057901274FF0000E2424CD
:10802000BB4202F80E50047140F21583254607F159
:10803000010E01247345D555047140F2078325468E
:108040000EEB04070324BB4202F80E50047140F209
:10805000F8827D1CD455AB428F7D077140F2E282DD
:1080600005F1010E042473455755047140F2C68290
:1080700025460EF101072424BB4202F80E5004717C
:1080800040F2458225467C1C4FE640F21337BC4245
:1080900000F0BE82B4F5457F6CD2002C00F04D821A
:1080A00040F21237BC4240F04181002A00F01B84AC
:1080B00004791470012B4FF00B04047140F2FB8320
:1080C0004FF0030E4FF0020C0127D45563450F7D8E
:1080D000077140F2E8820224734502F80C700471C3
:1080E00040F2D28227460EF1010C52E040F259359F
:1080F000AC4200F04C826AD840F25735AC4200F0F6
:10810000CF81B4F5567F40F0118101240027002A69
:1081100000F0B3830579D555A3428D7D057140F2FA
:108120003D82671C1555CC4C24683FE740F2523520
:10813000AC4200F00C8240F25535AC4240F0F68083
:10814000002A00F0428407794FF0010E002409E66E
:1081500040F22D35AC4200F0268240F22E35AC4282
:1081600040F0E480002A00F0238400270579D555EB
:1081700001240AE700F0D88140F21537BC4240F0F4
:10818000D580002A00F0078407794FF0010C4FF0EA
:10819000000E0224634502F80E70047140F26582FD
:1081A00027460CF1010E0224734502F80C7004718D
:1081B00040F256820EF1010C02F80E4063454C7EEF
:1081C000047140F2398227460CF1010E08E640F2B4
:1081D0006D35AC4200F0988140F26E35AC4240F013
:1081E000A580002A00F0EF8304790127002554556B
:1081F000994D9A4C2D68247895F801E0A64540F2F7
:10820000AA8095F802E02C44BB4214F80E40047199
:1082100040F2D8807C1C1AB190F804E002F807E024
:108220002D780F7DAF4200F060828F7DAF4200F06D
:1082300093824025A342057140F2A980651C002A63
:1082400000F09382077917559D424FF000040471A6
:1082500080F0A2806F1C5EE640F24A35AC4200F02E
:10826000E88040F24B35AC4260D1002A00F08F83A9
:10827000047901250027EDE6B4F5487F00F0B880C9
:108280002F4640F22135AC4250D1002A00F09383B2
:1082900004794FF0010E002554550F7A704C247864
:1082A000A7425BD904EB440501F109046A4F14F8B5
:1082B00005C080F804C02C4473453C6040F206823F
:1082C0000EF10104002A00F0E282057902F80E5056
:1082D000A3424FF00005057140F2E081671CDFF812
:1082E00078E11555DEF80050BB4295F801E080F8C2
:1082F00004E040F2C4817C1C3CE601270024002AF3
:108300003FF415AE0579155511E6002A00F03583C6
:1083100090F804E001270024B3E5B4F54D7F00F0A8
:10832000908040F23535AC423FF41CAF002303602F
:108330001846F0BD0724BB42047139D97D1C002AC0
:1083400000F02E820479D455AB424FF0050404713D
:1083500033D96F1C4BE700231B78FFDE3E4A002316
:1083600013601B78FFDE4FF44F7303600120F0BDF4
:1083700040F27735AC4202D0B4F55F7FD6D101240C
:108380000025002A3FF455AF0779575551E740F2D1
:10839000833303600120F0BD4FF46173036001205B
:1083A000F0BD0524BB42047140F2F2817C1C5BE508
:1083B00040F26D3303600120F0BD40F26E33036084
:1083C0000120F0BD40F2723303600120F0BD002AAD
:1083D00000F0D182057901274FF0000E63E5002AF5
:1083E00000F0C38207794FF0010E4FF0000CDAE67F
:1083F000012500270DE501250024002A00F07D81DC
:10840000077917554FF0000EAB4280F804E040F2B8
:10841000B3816F1C0024BB4202F805E0047140F2F6
:1084200075812546D5557C1CAFE501244FF0000E23
:1084300048E7002A00F0B382057901274FF0000ECB
:1084400000E6002A00F0AD8290F804E00127002544
:10845000E0E701250024F2E6403500203D3500200C
:108460003B350020002A00F0948207794FF0010E7E
:108470000025F7E5B74C002725680124CBE6012449
:108480004FF0000E002A00F0EC81057972E4002A1A
:1084900000F06D8204794FF0010C4FF0000E8BE676
:1084A000002A00F09B820579012700246BE4002A52
:1084B00000F0658205794FF0010E0027EAE44FF4E1
:1084C000567303600120F0BD002A00F08082077916
:1084D0004FF0010E002432E401250024002A00F0B0
:1084E0002F8207791755AB424FF00204047140F216
:1084F0002C816F1C5455BB424C7E047191D840F2C4
:108500002E3303600120F0BD0125002717E74FF44B
:10851000547303600120F0BD002A00F03E8205790B
:108520004FF0010E0027C8E4002A00F022820779EC
:108530004FF0010E4FF0000CCDE508240471002B24
:108540007FF4B3AD40F2123303600120F0BD01248B
:108550004FF0000E002A00F077810579FFF7F7BB96
:108560000127002417E5002A00F08E8104790127F5
:108570004FF0000E3DE4002A00F005820579012746
:108580000024ACE640F2523303600120F0BD002A23
:1085900000F02182057901270024C3E540F2593318
:1085A00003600120F0BD002A00F0EB81047901276F
:1085B00000259FE740F2563303600120F0BD002AFA
:1085C00000F00782057901274FF0000E53E540F2D5
:1085D000513303600120F0BD40F2573303600120A6
:1085E000F0BD40F2553303600120F0BD002A00F0D9
:1085F000DD8105794FF0010E00271AE540F24F3377
:1086000003600120F0BD40F2993303600120F0BD0A
:10861000002A00F0C88104794FF0020E4FF0010CDF
:10862000002752E54FF4537303600120F0BD40F280
:10863000193303600120F0BD4FF44673036001203D
:10864000F0BD40F24B3303600120F0BD40F24A33ED
:1086500003600120F0BD40F2493303600120F0BD0A
:1086600040F2173303600120F0BD40F2163303607F
:108670000120F0BD4FF4527303600120F0BD4FF4B0
:108680004A7303600120F0BD40F2153303600120FE
:10869000F0BD40F2453303600120F0BD40F22733C6
:1086A00003600120F0BD4FF4457303600120F0BD6D
:1086B0004FF4517303600120F0BD0C6ABB42247873
:1086C000047140F2F3803C46013718E640F226334D
:1086D00003600120F0BD40F2433303600120F0BD90
:1086E00040F2213303600120F0BD03259C42057157
:1086F00080F0EF802546013443E6AB4202713BD95E
:108700006C1C0025A342057100F2258140F235332F
:1087100003600120F0BD0225A342057140F2DE8016
:10872000651CDBE640F2423303600120F0BD00240B
:10873000BB420471C7D840F28E3303600120F0BD04
:108740004FF4487303600120F0BD40F22D33036005
:108750000120F0BD4035002002259C420571C9D39F
:108760004FF45F7303600120F0BD9D420271BFF4BE
:1087700013AE6F1CFFF7D0BB4FF44D7303600120A5
:10878000F0BD0A25A342057140F2E880651C34E67D
:1087900040F2413303600120F0BD0127FFF7BCBB6D
:1087A0000524AB4204717FF608AE6F1C20E524253A
:1087B000A3420571B6D901340025A34205718AD9B7
:1087C00001341025A34205717FF672AF01340125F3
:1087D000A34205717FF65DAF2C440525A3420571C8
:1087E0007FF648AF01342425A34205717FF633AFED
:1087F00001340125A34205717FF628AF2C440325DF
:10880000A34205717FF61DAF01348D7D0571A34232
:108810007FF608AF01340425A34205717FF6EEAE62
:10882000671C2425BB4205717FF671AE0234022518
:10883000A34205717FF6CBAE04F1010E022573450C
:1088400005717FF69FAE2C440525A34205717FF686
:10885000C8AE04F1010E2425734505717FF6AAAE5A
:1088600002340625A34205717FF6B6AE671C0D7D66
:108870000571BB427FF623AE02348D7D0571A342A4
:108880007FF68CAE671C4EE40127FFF7B4BAA34213
:1088900002717FF603AF0134514D2D68A3426F780A
:1088A00007717FF6ECAE0134FFF766BB40F2893307
:1088B00003600120F0BD40F2133303600120F0BDDE
:1088C0000424AB4204717FF60BAF05F1010E0F7A61
:1088D000E4E440F2773303600120F0BD4FF44B73C2
:1088E00003600120F0BD0B24012B0471E3D90324A4
:1088F000022791F814E080F804E0BB427FF6D3AE83
:108900000227A34207717FF6BFAE01340227A342BC
:1089100007717FF6AAAE01340227A34207717FF6E2
:108920009FAE01344F7E0771A3427FF685AE0134BE
:108930000027A34207717FF67AAE671CFFF75BBA88
:108940000224AB4204717FF600AF6C1C4D7E0571B2
:10895000A3427FF6D4AD0134FFF717BB40F23333A7
:1089600003600120F0BD0124E2E70124D4E70124E3
:10897000D8E70124C4E7012429E701241CE70124E6
:108980001FE70124E2E7012486E701242BE7012405
:108990003BE701243FE70124B8E701241DE7012458
:1089A0002DE70124ADE602240127A2E7012420E7F8
:1089B0000124FFF7EABA4FF0010E6FE4084D0124DD
:1089C0002D68FFF7D9BA012712E4144641E714468F
:1089D00032E7002424E70127FFF7A5BB002445E781
:1089E000403500204360CA69934205D901F128024D
:1089F000026000208B6770478A6910B40260C86902
:108A00008C690A6FC01A1C441A44C86100308C611A
:108A100018BF01200A675DF8044B704708B10320B6
:108A200070470B681A7B202A01D00620704710B5CA
:108A30000722044603F10E0103F1180016F0F9F9BC
:108A4000204610BD2DE9F0430B7889B00D4606464F
:108A50000E2B43D8DFE803F03D083D3D421A474264
:108A60004208423D3D3D3D000368002403F13402CD
:108A70005A671C845C62DC629C67DC67C3F88040D8
:108A8000C3F88440204609B0BDE8F0834B78DA098A
:108A900040F099805B09012B20D18B780768202B4F
:108AA0006CD0222B1AD1B1F80730BBB9B1F8033022
:108AB00097F820203B8402F0010203F001039A4260
:108AC00099B206D0002900F03981C3690BB10221A7
:108AD00098470024204609B0BDE8F08306242046CC
:108AE00009B0BDE8F083037A89788BB1827A0930C6
:108AF00082B1F27A825C8A42EBD00A0678D4EA78B4
:108B0000012AE6D008D3032AE3D00324BAE70023DE
:108B10005B78FFDE1378FFDE3568012B05F10C0072
:108B2000F5D9727B012A06F10C0369D9B27B994908
:108B3000069005911344AA6A93F80190002A62D125
:108B4000EB6AE96FAA67C5F88010EA67002B00F0AE
:108B5000D98005F12C0393E8030005F1240383E891
:108B600003004846EA6205A9FEF7B2FF0446F3692E
:108B7000002B87D030460021984783E7B1F80720C3
:108B8000072AABD13B73B1F8073008A80024DBB249
:108B90007B7300F8154D0E3706930794059700F088
:108BA0009FFD204605A9FEF77FFF044630B97A4BAA
:108BB000049603A9039300F01BFD04469DF80B00E7
:108BC00000F0B4FD5EE7C3F34112002A70D0012A21
:108BD00084D18B78212B81D1B1F80720072A7FF42B
:108BE0007DAF0168681C183100F00AFA044649E7B5
:108BF000EC78002C7ED0032C0CBF0024032441E72A
:108C000000231B78FFDED5F88440686A05F1340E36
:108C1000A24228BF224671469046774616F009F9CF
:108C2000EA6FE96AA4EB080307EB080E4244002050
:108C3000AB67C5F874E0C5F88020E86700297BD0F1
:108C400005F12C0797E8030005F124044FF0000814
:108C500084E80300C5F82C80002B56D0AA6A9A42FB
:108C60000ED95BE097E8030084E80300AB6FC5F81A
:108C70002C80002B49D0AA6A9A424FD8D5F874E0CC
:108C8000686A714616F0D5F8A96AAA6F6B6FC5F8C5
:108C900080100B44521AAA676B67F36913B1002165
:108CA00030469847EB6A002BDCD16B6200245EE70C
:108CB00003F01F03012B7FF411AF8C78062C7FF497
:108CC0000DAF05A8039200F0A7FC0DF10C0E0746AE
:108CD000EA782979CDF800E030463B46FEF7CEFC35
:108CE00005283FF4CFAE3946681C039A00F088F996
:108CF0000446C7E6F369002B3FF4EBAE3046012192
:108D00009847BFE600246C6231E76B6A002BCDD038
:108D1000484605A9FEF7DCFE044628E71A46696FB7
:108D2000686A16F086F8A96FAA6A6B6AE967521A30
:108D30000B44AA626B62E9E70023B6E7C3690BB193
:108D400003219847337A012B7FF6E1AE737B06F15E
:108D50000C04002B3FF455AFB37BE05C09F05CFFE3
:108D6000337A012B7FF6D3AE737B012B7FF648AFAE
:108D7000B37B1C44607809F04FFF002407F13403F3
:108D80007C62FC62BC67FC67C7F88040C7F884401F
:108D90007B6777E6E58902001D8A020003681B8C69
:108DA000DB0701D408207047037A012B16D910B5D0
:108DB000437B84B000F10C040BB91B78FFDE0B463B
:108DC000817B605C019391060CBF0124002401A902
:108DD00002920394FEF768FE04B010BD00235B7896
:108DE000FFDE00BF0368D3F8800070472DE9F04133
:108DF0000468238CDB0784B004D40825284604B01B
:108E0000BDE8F081064604A8002500F8095D9046FB
:108E10000F4600F065FCA26F52B9636AD3B1112509
:108E20009DF8070000F082FC284604B0BDE8F08100
:108E3000904528BF904642463846616F15F0F9FFCD
:108E4000A36F626FC4F88080A3EB08034244A3675A
:108E50006267E5E76762C4F82880327A012A13D98D
:108E6000717B012906F10C0210D9B37B08490291EC
:108E700013440C345878039402A9FEF729FE002805
:108E800014BF05469225CBE75B78FFDE1B78FFDE3B
:108E9000B17C0200002070472DE9F04F4B6887B08D
:108EA000002B7DD00C4615460392029009F04AFA39
:108EB000E668AE4228BF2E468346002E00F087802B
:108EC0004FF0000A5746D1464FF00108CDF804A0F4
:108ED000A3686168B3429A4628BFB24601B35246BE
:108EE0000BEB070015F0A5FFA268E368C4F8049037
:108EF000A2EB0A02A3EB0A03A6EB0A065744A26000
:108F0000E3607AB1002B08BF4FF00008002EDFD1DC
:108F1000029AC2F800B05760404607B0BDE8F08F33
:108F20002BBBE368019A22B95BB99846002ECFD1DA
:108F3000EEE7226812681268226001220192002B7B
:108F4000F3D02168002939D0CDF8109003E0A36850
:108F500021680133A3604B6800225D6804A80123E7
:108F6000A8470028F3D12061002EB1D1D0E72046D8
:108F7000534650F8101B4A6855680BEB0702A84788
:108F8000A268E368A2EB0A02A3EB0A03A6EB0A06B7
:108F90005744A260E360002ACBD001220192B1E7DE
:108FA0000B681B681B68002B7FF47CAF8B68002B61
:108FB0007FF478AF036043609846ADE76160002FAF
:108FC000A6D0039BBB4288BF4FF00008A0E73746FE
:108FD0004FF001089CE700BF08B50020FEF7F6FC43
:108FE0008020BDE80840FEF7F1BC00BF08B50020B6
:108FF000FEF7FCFC8020BDE80840FEF7F7BC00BF90
:1090000070B5C38893421D4628BF1546934284B06D
:109010000E4623D8002204A8002300F80D3D039239
:109020000196029500F05CFB01A98020FEF73CFD53
:10903000044630B19DF8030000F078FB204604B0F0
:1090400070BD09F08BFA802818BF1024F2D1094AAC
:10905000094B92E8030083E80300EBE78020144605
:1090600009F06CF8B4FBF0F303FB1042B2FA82F2A1
:109070005209D0E7D8FE0300703500202DE9F04FEB
:109080000B78062B87B07CD010D90D2B69D02AD84D
:109090000B2B06D00C2B2FD1AA4A1378002B40F0B3
:1090A0008E800024204607B0BDE8F08F022BF8D058
:1090B00045D9032B25D0052B1ED10DF10D008DF8C0
:1090C0000C3009F0E9F99DF80D209F4D002102F0C8
:1090D0001F032960032B00F2B880DFE813F0BA0009
:1090E000D300AE009F000E2B19D0852B04D1954BD9
:1090F0001A78032A00F0F8800624204607B0BDE85D
:10910000F08F924802F0E0F90028CAD0904B01227B
:109110001A60BFF36F8FBFF34F8F0024C2E7894BF4
:109120001A78012ABDD08B498B480A78012422F095
:1091300002021C700A700024FDF7C4FEB2E7012B86
:10914000DAD1804B1A78032AD6D0824982480A782D
:10915000032422F002021C700A700624FDF7B2FEFE
:10916000A0E74FF08043D3F8383413F0010F754B6C
:109170001A7821D0022A94D0764977480A780224B6
:10918000D5E7C87803280D46B6D06F4E3368002B5C
:1091900000F09C80002232607168984704460028E5
:1091A00054D13368002B00F09380AB78002B7FF410
:1091B00078AF09F097F975E7012AB4D171E7654CEA
:1091C00065482178002321F00201217013701C46AC
:1091D000FDF778FE66E79DF80E10062900F0F48092
:1091E000082900F0DF80C9B95C4C0222204615F046
:1091F00045FE584A23781278900743F0010148BF92
:1092000043F0030321700DF10D0048BF23700222CB
:109210005249FFF7F5FE0446062C03D103A8FEF7DA
:109220002DFC044694B92C68002C5AD009F096F90C
:10923000044600287FF435AFBBE79DF81100010715
:1092400059D112F0600F00F08F80062409F07CF9EC
:1092500028E7C2F34114002CE0D1D209BBD19DF81C
:109260000E30032B50D0092B5CD0012BD6D1BDF88A
:109270000F30012BD2D1FEF7A1FB002840F06C810A
:109280000F24E3E701A99DF81100FEF7B7FB06469E
:1092900078B303AA9DF80410FEF7D6FB062804460F
:1092A000C0D19DF80D3013F0600FCFD1254A9DF845
:1092B00004101278DF099DF80E3040F0C2800B2BAD
:1092C000C4D1052A00F04E810824BFE70E24BDE773
:1092D000234B1B68082B04D1224B1B68002B3FF447
:1092E000E0AE09F027F9DDE61A491B480A780424A4
:1092F0002FE71024AAE703A9FEF7AAFB06280446D5
:1093000090D19DF80D209CE7BDF80F30012B85D141
:10931000FEF754FB0028B3D00E4A137843F0020343
:10932000137080E7074C2378043B012BCCD89DF8C1
:109330000F30002B00F03981012B00F02A81072427
:1093400084E700BF503500207035002078350020BC
:109350005C7002406C350020A0FE03007C350020CC
:1093600030010010340100109DF80E20974B9DF83D
:1093700011401B78012A3DD052D3032A7FF465AFF8
:1093800004F00F02072A3FF660AFBDF80F10002966
:109390007FF45BAF052B01D0002A95D1204608F061
:1093A000D5FF40E789490978052900F0D2800429D2
:1093B0007FF434AF864A14700DF10D000122844908
:1093C000FFF71EFE044627E79DF81020022A62D010
:1093D000032A4AD0012A7FF421AFBDF81330002BB5
:1093E0003FF421AF0DF10D0012227A49FFF708FE7C
:1093F000044611E704F00F02072A3FF626AFBDF836
:109400000F1000297FF421AF052B02D0002A7FF432
:109410005BAF204609F030F8204608F0A3FF02E7D2
:10942000052B02D023077FF44FAF204609F002F846
:109430006749022208800DF10D00FFF7E1FD0446A7
:10944000F0E6002B78D00A2B7FF400AF052A7FF4DA
:109450003BAF3046FEF788FB5D493A4608700DF198
:109460000D00FFF7CDFD0446DCE6BDF81330002B00
:109470003FF4D9AEBDF811109DF80F0000F0FCF8D4
:10948000014600283FF4CAAE0DF10D000A78FFF73F
:10949000B7FD0446C0E6BDF81320002A3FF4C3AE72
:1094A000092A28BF09229146FEF7A2FAA3460646DA
:1094B0004FF0090AAEB1CDF804B0002700E0013743
:1094C00072680123D2F804803146002201A8C04707
:1094D0000028F4D1337A326823441668BA44DCB2E7
:1094E000E8E73B4E3C4930464A4615F0A2FC347151
:1094F000A6F802A0FEF762FA18B1F37943F0200350
:10950000F371FEF775FA354BBDF8131018600022A1
:1095100001A8D9605E60C3F808908DF8042000F0BF
:10952000DFF82F498020FEF7D3FA044630B39DF8C8
:10953000040000F0FBF86FE6052A7FF4C5AE244C6A
:109540000DF10D00214623800222FFF759FD04464C
:1095500068E61F4B1A702FE7224A137823F00203A4
:10956000137060E6BDF80F30FF2B3FF6E8AE3046D3
:109570009DF80F20FEF7C0FA044653E608F0EEFF10
:10958000802805BF184B93E80300102485E80300EA
:10959000CDE7FEF7EFFA2378052B3FF444AE052321
:1095A00012482370FDF78EFC3DE6FEF73DFB237865
:1095B000042B3FF438AE0B4A0C481378042123F0F7
:1095C000020313702170FDF77DFC2CE6503500205E
:1095D0007C350020C4FE0300A4FE030054350020A7
:1095E000E0FE03006C350020D8FE0300A0FE03005F
:1095F00038B504460D4608F0B1FFA04202D0102352
:10960000184638BD95E80300024A82E803000023AB
:10961000184638BD7035002008B14023036001486A
:10962000704700BF7C35002070B54FF0805286B087
:10963000D2F8A830D2F8A42000926FEA83436FEAF0
:1096400093439BB202A80A4A0A4E0D2115F08EFDE3
:109650000DF10705002404E015F8013F06F8013F6D
:10966000013402A815F0D6FD8442F5D306B070BDD2
:10967000E8FE0300477E002010B3052823D8154BD1
:10968000185CF8B1144B10B553F82040ECB12378B6
:109690000BB9A01C10BD0020FFF7BEFF2278B2B1AD
:1096A00000230133DBB220F8132014F8012F002A25
:1096B000F7D101335B00DBB243F44073038010BD8C
:1096C00006487047704700207047204610BD40F2A2
:1096D0000233F3E74CFF030034FF0300F6FE030000
:1096E00070B4EFF3108472B60D4B9A68AAB90D49A5
:1096F0000D4E01259D60D1F8805035401D60C1F8A8
:109700008060D1F884505D604FF0FF33C1F8843041
:10971000027004B962B670BC704701230370F8E7A9
:10972000587E002000E100E0FC06FFBD094B9A686E
:1097300072B168B910B4EFF3108272B606491C68B2
:109740000C605C684C60986002B962B65DF8044BCE
:10975000704700BF587E002000E100E08368D3F826
:1097600034379B0703D50022114604F089BEBFF3AE
:109770004F8F0549054BCA6802F4E0621343CB6082
:10978000BFF34F8F00BFFDE700ED00E00400FA05D6
:109790008368D3F834379B0700D470470022114602
:1097A00004F06EBE8368D3F834379B070ED400B53F
:1097B000084B094A85B0D21A029201920093074AD7
:1097C000082103F095F805B05DF804FB002211466E
:1097D00004F056BE006002002C1A040054FF03007F
:1097E0008368D3F834379B0700D4704700221146B2
:1097F00004F046BE8368D3F834379B0702D40320B5
:10980000FCF7D6BE0022114604F03ABEF0B5344C47
:10981000344D67886268BE00F31905EB830383B09B
:10982000596801F58050002A56D05388033302EB63
:109830008302904234D91368013331D05388033303
:1098400002EB830398422BD34FF6FF7CB2F804E07F
:10985000E64517D0B2F800E0BEF1000F12D062600A
:109860005388214D2148AE882968033300259BB2D7
:1098700000959B0001EB86010325257005F04CFC4B
:1098800003B0F0BD98420BD91A6801321A4607D0CE
:10989000B3F802E00EF1030E03EB8E039842D5D22B
:1098A000F31905EB8303DB686BB10F4D0F48296893
:1098B0000227052600230122AF80267003B0BDE8F1
:1098C000F04005F061BC094804250122257003B071
:1098D000BDE8F04005F058BC01F10802A9E700BF5F
:1098E000E0350020FC350020C43600205032002036
:1098F0002DE9F041436888464BB13B4AD468A34206
:1099000005D31269934202D813F003054DD000230A
:10991000DFF8DCC0A8F800304FF0010E4FF6FF76FC
:10992000DCF80470002207F580540837002A3AD08A
:109930005388033302EB83039C420DD80EF10103DD
:10994000A8F800E01FFA83FEBEF1030F0CF1140C1F
:10995000E6D10020BDE8F0811A680132EED05A88C5
:10996000033203EB82029442E8D39D88B5420DD0C6
:109970001D885DB19D6801688D421A46D6D11B4A8B
:109980004360138903810120BDE8F081A242D5D252
:10999000136801331346D1D05588033502EB850295
:1099A000A242CBD8E1E73B46C6E7104A04891289B8
:1099B0009442ACD104689A689442A8D10C48426899
:1099C000934203D902F58052934207D382699342AE
:1099D000BFD902F580529342BBD20125A8F80050AE
:1099E0000120BDE8F08100BF50320020E0350020AA
:1099F000FC3500202DE9F04FA04F89B004464FF60A
:109A0000FF783E68002E00F007813278531E052B48
:109A100000F2B283DFE803F0313E3E1E1E03002C4D
:109A200040F0B880DFF87CE29EF80C30002B00F0AC
:109A3000A1819EF800308EF80C40013B062B00F20D
:109A40009B83DFE813F0970281015F0147019903CF
:109A500070028401002C40F09D803379012B00F0CE
:109A6000B78103ADC0F09E81022B0394AC60EC6023
:109A70002C6140F08783002032E0002C40F0AB8066
:109A80003379032B00F2BE80DFE813F0EC00100105
:109A9000AF00CD00B6F81490002C00F08380B37DA9
:109AA000022B40F263814FEA8904754DF38804EB81
:109AB000090205EB8202033311890B4413814C44E4
:109AC00005EB8404F3886289C3F57F4303ADFD335E
:109AD000134400226381AA600392EA602A61012094
:109AE00004903378023B042B0AD8DFE803F0432FBD
:109AF00023034F0004238DF80C30F388ADF81830A1
:109B0000604C04F1100654F8043B284603B1984712
:109B1000A642F8D15C495D4800243C6001F0E6FBB8
:109B200001215B4801F0B4FC00287FF46AAF09B062
:109B3000BDE8F08F03238DF80C30F388ADF81830B2
:109B40003389ADF81A30F3680593D9E702238DF80D
:109B50000C303389ADF81830B388ADF81A30F3689B
:109B60000593B37DA3F10603B3FA83F35B098DF884
:109B70001C30C5E701238DF80C303389ADF818305F
:109B8000B388ADF81A30F3680593B9E705238DF86B
:109B90000C30B5E703AD0023AB600393EB602B61A2
:109BA00001209DE74FEA8904354DB17D04EB09039F
:109BB00005EB8303B3F808A05B6803EB8A0A062968
:109BC00000F21283DFE811F0170189019B016401A3
:109BD00077014B01480103AD2E4A002353600393E4
:109BE000AB60EB602B6101207AE72B4C2B4821689E
:109BF0000023337102250122A58005F0C5FA002853
:109C000095D03E68234A03AD002353600393AB60B5
:109C1000EB602B610E2063E71B491C4801F036FB0B
:109C200006463860F1E61C4C1D4A21681B48144D5D
:109C30004FF0000986F804900823CDF8009005F055
:109C40006BFA184B26685B88A18803EB830305EB4E
:109C5000830205F823905368236002235660118124
:109C6000A380CCE70C4B104A19680C480123002450
:109C700033710823009405F04FFAC0E7F83500204F
:109C8000FC350020C8350020F0350020B03600201B
:109C9000C0360020D8350020C436002050320020C5
:109CA000E0000400E0350020E8000400A74D2B7818
:109CB000022B00F079822B7D022B00F0888203AD0D
:109CC000A34B002001221A7003905860A860E8603E
:109CD000286105E7BEF802309C4D03EB830305EBDA
:109CE0008305EB68002B00F06E819A4B9A48196847
:109CF000022205249A80002301228EF8004005F0FC
:109D000043FA12E09348DEF80420848801685388FF
:109D10009148033301EB8401002400949BB2032497
:109D20009B008EF8004005F0F7F9002840F087808E
:109D3000FDE6884ADEF804109388498803330B4413
:109D4000022193808EF80010FFF760FDEDE7814B54
:109D5000824A19688048002307240093CEF8043013
:109D60008EF80040082305F0D7F9DEE7774D4FEA7B
:109D70008904A4E69EF80030072B00F2618101A25D
:109D800052F823F0FF9F020041A0020041A0020010
:109D9000339D0200D99F02004F9D02004F9D02009B
:109DA00035A002000223337103946C60AC60F36849
:109DB000039328460DF10A01FFF79AFD002840F0B1
:109DC000C58103946C60AC60EC602C610A2087E66E
:109DD0005F4B1B78002B40F04981214608226048E8
:109DE00015F04CF8022003AD0023AB600393EB6049
:109DF0002B613E6874E602230022B37504230092AF
:109E00005146F218544805F087F900283FF48FAE08
:109E1000B17D0E20022908D904EB090205EB82026C
:109E2000F388118903330B4413814C4405EB8405FB
:109E3000F3886A89C3F57F43FD3313446B8103AD17
:109E400041F61D5200239042AB600393EB602B61FF
:109E500000F0C8813E6843E641F61D50DCE7414B07
:109E6000414AB3F800A051683B48404A00234FF0F4
:109E7000060E86F816E00093042305F04DF900283D
:109E8000C6D10AEB8A0A05EB8A0501232B744EE63C
:109E9000F388326930484FF0010E86F816E04FF033
:109EA000000E0AF10C019B00CDF800E005F034F93A
:109EB0000028ADD13BE62C4BB2691A60184600224F
:109EC00028495A60FFF714FD002894D103AD039090
:109ED000A860E86028610A2002E6032A14BF06236E
:109EE00005230022B3750AF104010092042306F150
:109EF0000802194805F010F9002889D117E63369DE
:109F00001548002B0CBF012303230022B3750AF16F
:109F100008010092042306F10C0205F0FDF8002868
:109F20007FF476AF03E6BEF80220084D9300134499
:109F300005EB83050624002369680D4A0093064853
:109F40008EF80040082305F0E7F8EEE6FC35002027
:109F5000D8350020C436002050320020E80004002C
:109F6000D4360020D0360020BC350020DC000400B0
:109F7000E00004009EF80A304BB19C4DEB680022D3
:109F80008EF80A201BB92A7C002A40F008819EF82E
:109F90000B3053B1954D2B6A00228EF80B2023B95C
:109FA00095F82430002B40F0F98003AD0020A86024
:109FB0008EF80000AEF80200CEF804000390E860CE
:109FC00028613E688CE50424696889488EF8004061
:109FD000012205F0D9F8A8E6BEF80220834D854C91
:109FE0009300991805EB810120684E68B4F804C00D
:109FF000486002202660A1F808C0A08097E77B4D4A
:10A00000BEF808102B782A7DB3FA83F3B2FA82F2F5
:10A0100000205B095209013101248EF80A308EF8C4
:10A020000B20AEF80810AEF802008EF80C008EF887
:10A030000040A1E701238EF800309EF80A309BE72C
:10A04000013B062B00F2988001A252F823F000BFDA
:10A05000759F0200499D0200059D0200D59C0200EB
:10A0600079A10200279F02004F9D02006248B0F8CC
:10A070000490B9F1010F00F2AC805C4D09EB890E40
:10A0800005EB8E0E9EF80030BBB109F101091FFAF5
:10A0900089F9B9F1020FA0F804900EF1140EF1D174
:10A0A00003AD08220021544814F0E8FE0020A86007
:10A0B0000390E86028613E6812E5DEF8041003684A
:10A0C00001F5805201F1080C002B65D0598803314D
:10A0D00003EB8101914201D30460D6E70B680133A1
:10A0E000FAD04B88033301EB83039342F4D8B1F8E1
:10A0F00004A0C24514D0B1F800B0BBF1000F0FD0DE
:10A10000B6F806B00160D3450B46DDD100230093BD
:10A110003A4A3748042304F0FFFF80B10E2062E67C
:10A120009A42D9D9196801311946D5D0B3F802A09D
:10A130000AF1030A03EB8A039342CDD8D7E709EB70
:10A14000890905EB890501232B74F0E404992B4A56
:10A150008B88F3800B883381254800940423BDF855
:10A160000A6004F0D9FF78B12C606C60AC60EC60E0
:10A170002C613E680E20B3E403AD0023AB60039373
:10A18000EB602B610F20ABE4184B06EB860603EB6C
:10A19000860601233374CAE461469BE70123AEF8C7
:10A1A0000230FFF733FBC0E500239800184405EBAD
:10A1B000800300245968124A0094082305F82040BF
:10A1C0000B4804F0A9FF00287FF41BADAFE4012386
:10A1D000EBE703AD0822214614F050FE0394AC6077
:10A1E000EC602C613E6846E40F2013E6FC3500204D
:10A1F00050320020C4360020D4360020DC00040099
:10A20000E00004004068FFF7F5BB00BF2DE9F04710
:10A2100082B0002A60D0B2F8008057880E4605460A
:10A2200001A94548994600F0F3FF1C22044600218D
:10A2300014F024FE002C2FD04FF0000A84F8009078
:10A24000A4F8148084F816A07368236101213B48A8
:10A2500001F010F9E060338823817388A380B9F19D
:10A26000030FE7802DD0A4F80AA001A9324800F01E
:10A27000FDFF3DB100236B60E168314A296012891E
:10A28000AB722A8101212F4801F0E6F8044690B113
:10A29000002002B0BDE8F0872B4A08EB880802EBEB
:10A2A0008802C7F57F435189FD330B440820538151
:10A2B00002B0BDE8F087FFF79DFB204602B0BDE885
:10A2C000F0870423A3752B68A36101A9A4F80AA051
:10A2D000194800F0CBFFCDE70F89FA1C92B240F28B
:10A2E000FD34A24201D90920D3E7174C94F800802D
:10A2F000B8F1000F07D16689258935441544ADB200
:10A30000B5F5806F0BD3257D3DB9E68BA58B354424
:10A310001544ADB2B5F5806F0AD30720B9E7C6463C
:10A320004FEA8E05754404EB85043244628175E77B
:10A330004FF00108C646F3E7B0360020F4350020A0
:10A34000E0350020C0360020FC35002038B5084B31
:10A350001A68042A01D10C2038BD1D68054C02463C
:10A360000121184644F8252001F084F8002038BD6A
:10A37000CC360020C83500202DE9F04FB14C8BB011
:10A38000227800230693059307930893099372B1EB
:10A39000AD4C04F1100554F8043B05A803B19847EF
:10A3A000A542F8D1002528460BB0BDE8F08F201D4E
:10A3B00002F0FF0601F07AF807460028F2D14FF0CC
:10A3C00010234FF080525B6911695269DFF898825F
:10A3D000581C08BF02FB01F3C8F810309B49A3F5D5
:10A3E000405340460022C8F80C3004F08DFE05466C
:10A3F0000028D8D11C238C2295499648DFF86CB2EE
:10A4000000F0CCFED8F80C30DFF86482039603F538
:10A41000405200920322BC46A3F1040A01922F4647
:10A42000029523B1DAF804208B498A4264D003F6FE
:10A43000FC70524602E0904200F01C8152F8041F6A
:10A440000131F8D0854A07EB870102EB8100019AC0
:10A450004360013A92B20192804A0325013702F823
:10A460002150BFB203F58050009A82420AF5805A0B
:10A470000346D6D1019B029D012B40F212815FFA67
:10A480008CF7022F00F00D81062F00F00C81002FB9
:10A4900000F0078104A96F4800F0BAFE1C220446B0
:10A4A000002114F0EBFC002C00F00E810123013F91
:10A4B00023700A2F09D8DFE807F01C081C081908C8
:10A4C0001908160616000223237104A9614800F03A
:10A4D000CDFE0121624800F0BFFF00287FF462AF8B
:10A4E000FFF788FA5FE703232371EEE70123237167
:10A4F000EBE700232371E8E75A685A498A4251D0B2
:10A5000001318A4293D1039A72B1544A534E07EBF8
:10A51000870502EB850102200137D8F8002006F8F4
:10A520002500BFB24A6008810221C8F80030A8F8AF
:10A5300004109A68013203F5805000F0C38003F1E3
:10A5400008025388033302EB8305A84207D24FF475
:10A550008063A8F8043008234CEA030C84E795884C
:10A560004FF6FF76B5420AD0158845B19568DBF8FD
:10A570000060B54203D9CBF80050538803330B4435
:10A5800099B2A8F804105588033502EB8502904271
:10A5900004D8022900F096800823DDE71368013310
:10A5A000CFD1F6E72D48BD00EA1900EB8206002165
:10A5B00000F822100222736032819968013103F59C
:10A5C000805010D00833598801F1030E03EB8E0E32
:10A5D00070450DD2214B3D4403EB850501224FF41C
:10A5E00080632A742B810137BFB24CF0020C3BE729
:10A5F000B3F804E04FF6FF79CE451CD0B3F800E085
:10A60000BEF1000F17D0D3F808E0DBF80090CE457C
:10A6100003D9CBF800E0598832890A44033292B258
:10A6200032815988033103EB81039842DBD91968E1
:10A630000131C8D1D7E74FF001023274598832890D
:10A64000EBE700BFD8350020C835002058090400CA
:10A6500024360020B0360020DEC0ADDEFC35002000
:10A66000C0360020FE011EF150320020F4350020DB
:10A67000C4360020D8F8002042B31849184E07EB22
:10A68000870201EB82000221436001811348778039
:10A690007D1C00F82210AFB24CF0010C03F5805085
:10A6A000E2E60B257FE60F4D01220023227005F123
:10A6B0001006636055F8043B05A803B19847AE4205
:10A6C000F8D16FE6042347E708256CE60222A8F8D4
:10A6D00004200122C8F800300392DDE7FC35002099
:10A6E000E0350020C835002060B159B170B582B0A6
:10A6F0000C460DF106010546FFF7FAF820B90A20CD
:10A7000002B070BD05207047BDF80600084B6E68AA
:10A7100000EB800003EB80000C30012100F0AAFE6A
:10A7200026606B6801220C3363600020AA72E7E7A1
:10A73000FC35002050B110B582B00DF10601044681
:10A74000FFF7D6F820B90A2002B010BD05207047E7
:10A75000BDF80630094A03EB830302EB8303DA6892
:10A7600012B9062002B010BDA27A002AF9D0DA6828
:10A770000021013ADA600846A172E5E7FC350020C5
:10A780000F4B1B780BB90220704759B110B40C88DD
:10A790004FF6FF739C4201D04B882BB904205DF823
:10A7A000044B7047052070474A6812F0030201D03D
:10A7B0000320F4E702235DF8044BFFF727BD00BF39
:10A7C000D835002020B1104A12781AB902207047FB
:10A7D000052070470029FBD010B40C884FF6FF729B
:10A7E000944201D04A881AB904205DF8044B70479E
:10A7F0004A6812F0030201D00320F6E703235DF854
:10A80000044BFFF703BD00BFD8350020174B1B7862
:10A810000BB9022070474FF6FF73984201D1042014
:10A82000704770B582B001A90446114800F0F0FCF1
:10A830001C220546002114F021FB85B105230126C9
:10A84000EC8001A92B702E71094800F00FFD3146F4
:10A85000084800F001FE044620B1002000E0082076
:10A8600002B070BDFFF7C6F82046F9E7D8350020E2
:10A87000B0360020C0360020154B1B780BB90220E3
:10A88000704710B582B001A9124800F0C1FC1C222B
:10A890000446002114F0F2FA8CB10623237001A9BA
:10A8A0000C4800F0E3FC0C4B1A7852B901210B481C
:10A8B00000F0D2FD044638B1002002B010BD0820DF
:10A8C000FBE701221A73F1E7FFF794F82046F4E75B
:10A8D000D8350020B0360020E0350020C0360020FA
:10A8E0002DE9F043354C247814B90220BDE8F083FB
:10A8F00062B35BB3B3F804C0BCF1010F23D8304F8F
:10A900000CEB8C0407EB84074FF6FF7E4FF000083A
:10A910003C786CB91C687D6805F58056002C4AD0DF
:10A920006588033504EB8504A64212D8C3F800807D
:10A930000CF1010C1FFA8CFCBCF1020FA3F804C04F
:10A9400007F11407E4D10A20BDE8F0830520BDE833
:10A95000F08325680135E9D06588033504EB85056A
:10A96000AE42E3D3B4F80490F14515D0B4F80090AA
:10A97000B9F1000F10D01C60A5888542CBD1258885
:10A980008D42C8D1A168116019680E4B51601B89B6
:10A9900013810020BDE8F083B542C7D22C68013492
:10A9A0002C46C3D0B5F8029009F1030905EB8905DF
:10A9B000AE42BBD3D6E705F10804B5E7D835002091
:10A9C000FC350020E0350020314B1B780BB902200C
:10A9D000704741B33AB32DE9F0419788012F1FD852
:10A9E0002C4E07EB870306EB83064FF6FF7E4FF0F6
:10A9F000000C33786BB91468736803F58055002C2C
:10AA000043D06388033304EB83039D420DD8C2F81F
:10AA100000C00137BFB2022F978006F11406E8D1BB
:10AA20000A20BDE8F081052070471C680134EED093
:10AA30005C88033403EB8404AC42E8D8B3F80480A8
:10AA4000F04513D0B3F80080B8F1000F0ED01360BA
:10AA50001D8885421C46CFD19B680B6012680E4B47
:10AA60004A601B890B810020BDE8F081AC42CED248
:10AA7000236801332346CAD0B4F8028008F10308E2
:10AA800004EB8804A542C2D3D8E70833BDE700BF72
:10AA9000D8350020FC350020E0350020314B1B78F4
:10AAA0000BB902207047D1B1CAB12DE9F0419688A7
:10AAB000012E11D82C4F06EB860307EB83074FF6C8
:10AAC000FF7E4FF0000C3B785BB10136B6B2022E30
:10AAD000968007F11407F6D10A20BDE8F081052021
:10AAE000704714687B6803F58055002C38D0638864
:10AAF000033304EB83039D4202D8C2F800C0E4E7AD
:10AB00001C680134F9D05C88033403EB8404AC4244
:10AB1000F3D8B3F80480F04513D0B3F80080B8F14F
:10AB2000000F0ED013609D8885421C46DAD19B68C9
:10AB30000B6012680D4B4A601B890B810020BDE839
:10AB4000F081AC42D9D2236801332346D5D0B4F882
:10AB5000028008F1030804EB8804A542CDD3D8E7AE
:10AB60000833C8E7D8350020FC350020E035002048
:10AB700020B119B103680B600020704705207047B1
:10AB80002DE9F04F8BB002910592039348B341B386
:10AB9000039B53BB03200BB0BDE8F08F002B00F0EC
:10ABA0006E82039B5E1E059B23F0040B4F4619F833
:10ABB000014B14F00FF904F1010810F8083003F00C
:10ABC0000303012B00F0988214F0FF0433465A4629
:10ABD0003946284605D0FFF7D3FF0128DBD12F2CBB
:10ABE000E4D101200BB0BDE8F08F134602F0080756
:10ABF00002F0010204921A4603F002030693DDF804
:10AC0000089002F00403054607932C786B1C01930F
:10AC100023464FBB3F2C7BD059D8002C6AD02A2C1E
:10AC200060D16978019D2A2903D115F8011F2A29CD
:10AC3000FBD099F800302E2B00F08E81069B002966
:10AC400000F011822F2940F0F381002B00F01582D3
:10AC5000484614F0BFFA81460028C2D02C786B1CFD
:10AC600001932346002FD5D014F0B4F8661C835D01
:10AC700003F00303012B00F06581E3B23F2B47D0C3
:10AC800040F3C8805B2B52D05C2B40F04482049A86
:10AC9000002A00F0878199F80060019D1C4609F1A7
:10ACA0000109B0461FB314F095F808F1010810F837
:10ACB000083003F00303012B19D114F08BF810F8BE
:10ACC000083003F00303012B08BF20360FE05B2C94
:10ACD0002DD05C2C06D1049A002ADCD16C78023588
:10ACE0000CB91446019D99F8006009F10109A642CA
:10ACF0008BD076E7059B99F80000D90602D52F285E
:10AD000000F08181003018BF01200BB0BDE8F08F4A
:10AD100099F80030002B3FF464AF2F2B00F0BF8078
:10AD20002E2B00F02B8109F10109019D6DE799F8A7
:10AD30000030002B3FF455AF2F2B00F0AB809B462B
:10AD4000002F40F09380019B002B3FF44AAF6978BD
:10AD5000212900F0A9805E2900F0A6801E4600236C
:10AD600009934FF0010ACDF820904FF00008D1462A
:10AD70000C46751CCFB9E4B25D2C2CD02F2C00F002
:10AD8000D6805C2C00F095802E46002C3FF429AF35
:10AD900031782D2927D0A34508BF4FF001084FF087
:10ADA00000090C46751C002FE5D014F013F804F1CF
:10ADB000010A10F80A2002F00302012ADBD114F084
:10ADC00009F810F80A2002F00302012A08BF203413
:10ADD000E4B25D2CD2D1B9F1000F00F0F7802E461D
:10ADE00031782D29D7D17578002F6DD115F0FF0559
:10ADF00068D05D2D66D05C2D06F1020900F08980D7
:10AE0000A34599F800104E46C9DBAB45C7DC4FF0AF
:10AE10000108C4E7002B3FF46DAF2A2B40F07B8183
:10AE20006C7813F0D7FF651C435D03F00303012B1F
:10AE300000F0EB80E1B22A29019D04D0F9E6E4B2EA
:10AE40002A2C40F0AD8015F8014F13F0C3FF661CAB
:10AE5000835D03F00303012BF1D113F0BBFF835D8E
:10AE600003F00303012B08BF2034E8E713F0B2FF1F
:10AE70000BF10104025D02F00302012A7FF463AFCB
:10AE800013F0A8FF025D02F00302012A08BF0BF1D4
:10AE9000200B58E7069A002A3FF451AFA1E6069B23
:10AEA000002B3FF440AF9CE60123AE1CA978099328
:10AEB00057E7049B002B92D1B51C7478C7B9E4B254
:10AEC0002E4662E7317866E713F084FF05F1010949
:10AED00010F8093003F00303012B87D113F07AFF38
:10AEE00010F8093003F00303012B08BF20357DE77C
:10AEF00013F070FF661C835D03F00303012BDED1AA
:10AF000013F068FF835D03F00303012B08BF2034B7
:10AF1000D5E7049B002B7FF473AF06F10309B578E6
:10AF2000002F5FD115F0FF057FF46AAF59E6DDF819
:10AF3000209099F800305B2B7FF453AE019D09F10E
:10AF4000010962E613F046FF835D03F00303012B62
:10AF50007FF493AE203490E6079B002B3FF46EAE57
:10AF6000029B99453FF43DAE069B002B3FF466AE35
:10AF700019F8013C2F2B7FF461AE32E6079B002BC2
:10AF80003FF4D1AE029B99453FF42BAE069B002BBC
:10AF90003FF4C9AE19F8013C2F2B7FF4C4AE20E674
:10AFA000214646E66C7813F015FF661C0235835D7A
:10AFB00003F00303012B32D014F0FF0499F8008052
:10AFC00000F0A48009F1010946466CE6099BDDF812
:10AFD000209098453FF405AE002D3FF402AE6B1C67
:10AFE000ADD1A6E713F0F6FE6E1C825D02F00302FF
:10AFF000012A97D113F0EEFE825D02F00302012ACE
:10B0000008BF20358EE70020C5E513F0E3FE435D61
:10B0100003F00303012B7FF40DAF20340AE713F094
:10B02000D9FE835D03F00303012BC5D12034C3E7B0
:10B03000002F7FF4B3AD002B48D1039B5F1E059B0F
:10B0400023F0040B04E0FFF79BFD01287FF4A3AD80
:10B0500099F8004049463B465A46284609F10109FD
:10B06000002CF0D1BDE5002BCDD0059BDA06CAD46B
:10B0700048462F2114F0AEF844E6002FDDD0039BA4
:10B080005E1E059B23F0040B0CE014F0FF0F33460B
:10B090005A46414628463FF4A4ADFFF771FD01280A
:10B0A0007FF479ADC84619F8014B13F093FE671C85
:10B0B000C35D03F00303012BE7D113F08BFEC35DE7
:10B0C00003F00303012B08BF2034DEE7039B5F1E60
:10B0D000059B23F0040B494619F8014B3B465A46A1
:10B0E0002846002C3FF47DADFFF74AFD01287FF490
:10B0F00052AD2F2CEFD174E513F06CFE10F8083030
:10B1000003F00303012B08BF20345DE5019D09F125
:10B1100001094646C7E599F80080019D1C4609F1E2
:10B1200001094646BFE500BF4023FFF729BD00BF28
:10B130001EF0040F1CBFEFF309800AE0EFF3088054
:10B140000549064A884201D8904202D88D464FF000
:10B150000000034B184700000000042000E003201B
:10B1600089B10200BFF34F8F0549064BCA6802F44C
:10B17000E0621343CB60BFF34F8F00BFFDE700BF1A
:10B1800000ED00E00400FA0508B5034B9A6ADB6A9B
:10B19000FFF7E8FF08BD00BF00ED00E099B110B473
:10B1A000B2FBF3F403FB1424A4B21CB109205DF834
:10B1B000044B704780E8120084608281C38120467E
:10B1C0005DF8044B70470E20704700BF82B050E816
:10B1D000022FC188B2EB324F4FF0000317BF92B27B
:10B1E00041EA014142EA014104E04268B2EB324FD8
:10B1F00008BF012340E80212002AE8D18DF8073089
:10B200009DF80730002B0CBF1120002002B07047C2
:10B2100030B482B050E8013F9DB2C489254484898E
:10B22000A54228BF2D1B0489A54202BFBFF32F8F63
:10B23000002207E0C5EA030540E80154002CE9D1EB
:10B240004FF001028DF803200193019B9DF803202C
:10B250000B602AB10B880068184402B030BC7047FC
:10B2600002F0FF03184602B030BC70470A884B88D2
:10B270009A4201D00020704750E8012FC2EA0242F2
:10B2800040E80123002BF7D10120704730B482B091
:10B2900050E8023F1FFAA3F5C488A54202BFBFF3DE
:10B2A0002F8F00220DE0C48925448489A54228BF40
:10B2B0002D1BC3EA054540E80254002CE8D14FF0AD
:10B2C00001028DF803200193019B9DF803200B6080
:10B2D0002AB14B880068184402B030BC704702F0B5
:10B2E000FF03184602B030BC704700BF0A884B8885
:10B2F0009A4201D00020704750E8022FC2EA224251
:10B3000040E80223002BF7D10120704701F01F0213
:10B310004B09012100EB8300914000F081B800BF90
:10B3200010B5012301F01F04490900EB810003FA65
:10B3300004F100F067F8E04000F0010010BD00BF2C
:10B3400001F01F0201234909934000EB8100D9431A
:10B3500000F074B84B0901F01F0150F82300C840F9
:10B3600000F00100704700BF2DE9F84F01F1FF39EF
:10B370004FEA591909F101090F46064600EB890900
:10B38000044600254FF0010823686FEA030B9BFA7F
:10B39000ABFBBBFA8BFBBBF1200F20D0AB445F456E
:10B3A0000CD81CE02368DB4393FAA3F3B3FA83F3CE
:10B3B000202B05EB030B12D05F4510D90BF01F0AB1
:10B3C0004FEA5B1008FA0AF106EB800000F01AF869
:10B3D00020FA0AF0C307E5D45846BDE8F88F0434D4
:10B3E0004C4505F12005CFD1BB46F5E700B550E847
:10B3F000002F0B4640E8003E9EF0000FF7D11046AC
:10B400005DF804FB00B550E8002F42EA010340E874
:10B41000003E9EF0000FF6D110465DF804FB00BF21
:10B4200000B550E8003F43EA010240E8002E9EF0DC
:10B43000000FF6D110465DF804FB00BF00B550E8E0
:10B44000003F03EA010240E8002E9EF0000FF6D113
:10B4500010465DF804FB00BF00B550E8002F02EB7A
:10B46000010340E8003E9EF0000FF6D110465DF863
:10B4700004FB00BF00B550E8003F03EB010240E8C9
:10B48000002E9EF0000FF6D110465DF804FB00BFC1
:10B4900000B550E8003FA3EB010240E8002E9EF00B
:10B4A000000FF6D110465DF804FB00BF00B5012384
:10B4B00050E800EF4EEA030240E8002191F0000F4F
:10B4C000F6D170465DF804FB00B5002350E800EFAC
:10B4D0000EEA030240E8002191F0000FF6D1704619
:10B4E0005DF804FB00B5002350E8002F02EA030ECC
:10B4F00040E800E191F0000FF6D170465DF804FBE2
:10B500002DE9F0438368D3F83467C6F340068BB067
:10B51000002E49D1012940D8274C284D284B2D1BFE
:10B52000A3FB05352D0935D005EB4505DFF89890CF
:10B53000074604EBC5054FF064082368D4F808C03B
:10B5400019681A792369099363680692ACEB010EB6
:10B5500002EB8202ACEB030CA08A00905FFA8EF142
:10B5600002EB8202039108FB01FE9200BEFBFCF19C
:10B57000B2FBFCF2029105920196CDF81CC0CDF809
:10B5800010C0099B18344A460821384601F0B0F92A
:10B59000A542D2D10BB0BDE8F0830A4A02210BB01C
:10B5A000BDE8F04301F0A4B9002211460BB0BDE89C
:10B5B000F04302F065BF00BFF4190400241A040030
:10B5C000ABAAAAAA180104002C010400B8B130B437
:10B5D000416882680468521AD2B2531E2160DBB2FD
:10B5E00042B101680A685C1E551C0D601370E3B21D
:10B5F000FF2BF6D103680020187130BC70470E2075
:10B60000704700BFF0B583B002AB002503F8015DC1
:10B6100004461846FEF764F8236861681A688A428F
:10B6200010D9511E19602168A3680E6812F8015CD8
:10B630000A79A78AE0689B1BDBB29A4207FB0505E3
:10B6400038BF0B719DF80700FEF770F8284603B06D
:10B65000F0BD00BF30B583B002AB002203F8012D6E
:10B66000054618460C46FEF73BF82A681368591C35
:10B670001160E968AA8A641AB4FBF2F41C709DF8A0
:10B680000700FEF753F803B030BD00BF096800683B
:10B6900013F0AEBD8B6800280CBF4FF480114FF43F
:10B6A000002193F8240704F045BE00BF2DE9F041C6
:10B6B000054680684B4E82B000244FF4C07221468C
:10B6C00000F5D0708DF8034013F0D8FB2869464987
:10B6D00003F0F8F9286903F0E9F946F001064FF4A0
:10B6E0007A786868036801221F690DF1030101ABD4
:10B6F000B847019AD2B19DF80320AB681B2A04F128
:10B70000010105D093F8A0011B28EAD1522A1CD0D0
:10B7100023448CB2092C83F8A021E2D9AB68002223
:10B7200083F8A021042002B0BDE8F0814FF6C010DC
:10B73000B047019B002BD4D108F1FF371FFA87F8DF
:10B74000B8F1000FCDD10D20EDE72344002283F89E
:10B75000A021D5F808E09EF8A1315B2B05D00B2085
:10B760008EF8A02102B0BDE8F0810EF2A1160223EE
:10B7700004E0BBB2B3F5C07F8AB20FD016F8014F18
:10B7800002EB8201A4F130003B2C03F1010700EB36
:10B790004101EED1BBB2B3F5C07F01D10C20C2E7AD
:10B7A000002003E0B3F5C07F88B2F7D20EEB0304AC
:10B7B00000EB800194F8A041013304EB41013039E2
:10B7C0009BB2002CEED1FA2828BFFA20AEF8080070
:10B7D000AB68FA2A88BFFA229A81AB68002083F806
:10B7E000A001A0E7A003040078030400F8B50C460C
:10B7F00001F1080518B313F00DFDC0B20146A28B8C
:10B80000638A668B20750A440E44002792FBF3F18D
:10B8100003FB1122481C013296FBF3F103FB116379
:10B820003E46013362F30F07013160F30F0663F305
:10B830001F4761F31F46A760E6602846F8BD014632
:10B84000DDE700BF2DE9F84F074600200346884694
:10B85000144638600646814605E084F800900134BD
:10B860003B680B2B2AD8257845B313F0B3FA28444C
:10B87000437813F00803F0D13A68511C396048F856
:10B88000224025781E46002DEAD0EEB9272D2FD074
:10B890005C2D04F10106204635D0222D28D013F06E
:10B8A00099FA284443781B0700F1AE8014F8015F31
:10B8B000002DEBD12E463B680B2BD4D9002248F843
:10B8C00023203046BDE8F88FAE4204D05C2D657869
:10B8D00026D00134D7E7204613F09CFC611C0246B9
:10B8E000204613F0B1FA2578002DE3D0272DCFD1D3
:10B8F000204613F08FFC611C024620462E4613F0B2
:10B90000A3FA2578BFE713F085FC314602462046AE
:10B9100013F09AFA65783446002DB7D12E46CAE75F
:10B92000AE4224D0302D2FD02B46782BD1D1A27807
:10B93000A2F13003DBB2092B4ED9A2F16103052B32
:10B9400064D9A2F14103052BC3D8373AD5B2E278C6
:10B95000A2F13003DBB2092B45D843EA0515EDB25D
:10B960004FF0030A4FF0040B2046A24428E0204683
:10B9700013F050FC04F1010A02465146204613F030
:10B9800063FA657854467EE7A378A3F13001C9B223
:10B990000729CAD8E378303BDBB2072B42D822799B
:10B9A000303AD2B243EAC103072A5BB23FD842EA37
:10B9B000C303DDB24FF0050B0423204604EB030A5A
:10B9C00013F028FC821CA2EB0B025146204613F018
:10B9D0003BFA257065787CE71D46E278A2F13003DA
:10B9E000DBB2092BB9D9A2F16103052B11D9A2F160
:10B9F0004103052B20D8373A42EA0515EDB24FF046
:10BA0000030A4FF0040BAFE7002629E7573AD5B2F7
:10BA1000E3E7573A42EA0515EDB24FF0030A4FF05B
:10BA2000040BA1E70D4602234FF0030BC5E7DDB27F
:10BA30004FF0040B0323C0E74FF0020A4FF0030B53
:10BA400092E700BF002900F0D0802DE9F04F8B462F
:10BA500085B0924606464C1E002700E0013713F0E1
:10BA6000B9F914F8013F184443781907F6D41FFABE
:10BA70008AF30193584613F0CDFBB368B3F81280F4
:10BA8000C01BA8EB0A0840455BD90BEB0709002453
:10BA900000E0013413F09EF919F8013B18440AEB59
:10BAA00004014278120707EB040502D50A2B07D0E0
:10BAB000A046B3685B8A9942EBD307EB080544467E
:10BAC000306902F0F3FFA4B103AB4FF0000800951A
:10BAD00099467068036807EB0801DD6859444B46D6
